:020000040800F2
:100000000050002021020008290200082D020008EB
:10001000A1020008A5020008ED020008000000008F
:100020000000000000000000000000003503000890
:1000300039030008000000003D030008D517000840
:100040005103000851030008510300087517000808
:100050005103000851030008510300085103000830
:100060005103000851030008510300085103000820
:100070005103000851030008510300085103000810
:100080005103000851030008510300085103000800
:1000900051030008510300085103000851030008F0
:1000A00051030008510300085103000851030008E0
:1000B00051030008510300085103000851030008D0
:1000C00051030008510300085103000851030008C0
:1000D00051030008E5170008510300085103000808
:1000E00051030008510300085103000800000000FC
:1000F0000000000000000000000000000000000000
:1001000000000000000000005FF808F100B583B0B7
:1001100001F04AF9304B314A1360314A1360314BD8
:10012000314A03E011681960043304322F498B42CD
:10013000F8D32A4B1A682E4B9A4204D1284B1A68DE
:100140002C4B9A4200D0FEE7234B2B4A13602B4ADC
:1001500013602B4B02E000221A600433294A9342B9
:10016000F9D3254B1B6813B9244B1B6803B1FEE779
:1001700001F026F9694601A801F094F8224C234BBE
:100180001C1BA410002504E01F4B53F82530984792
:100190000135AC42F8DC1E4C1E4B1C1BA410002584
:1001A00004E01B4B53F8253098470135AC42F8DC8E
:1001B0000099019802F0E8FD0546174C174B1C1BEF
:1001C000A41004E0013C144B53F824309847002C51
:1001D000F8DC284602F09AFDBABADECA0000002018
:1001E0006402002000000020D49100086802002072
:1001F0007856341232547698680200205C2E002023
:1002000068020020602E00207C0300087C030008A8
:100210007C0300089C0300089C030008A803000856
:1002200008B5FFF773FF00BF00BEFEE71EF0040F26
:100230000CBFEFF30880EFF309807146414A104785
:100240002DE9F04182B004468846134B5E6B9F6BEC
:100250009D6A1B6B13F0020F0DD00F4BDB6A002B56
:1002600009DA4BF6AB6101F027F920B14FF00042FB
:10027000094BDA620CE0094801F048F8CDF800803B
:100280003B4632462946204601F09EF800BEFEE776
:1002900002B0BDE8F08100BF00ED00E0EC7E000898
:1002A00000BEFEE71EF0040F0CBFEFF30880EFF373
:1002B00009807146244A10472DE9F04182B0044676
:1002C0008846084B5E6B9F6B9D6A074801F01EF8DD
:1002D000CDF800803B4632462946204601F074F8AE
:1002E00000BEFEE700ED00E0FC7E00081EF0040FFB
:1002F0000CBFEFF30880EFF309807146134A1047F3
:100300002DE9F04182B004468846084B5E6B9F6B36
:100310009D6A074800F0FAFFCDF800803B46324660
:100320002946204601F050F800BEFEE700ED00E04F
:10033000087F000800BEFEE700BEFEE700BEFEE745
:100340007047000041020008B902000801030008DC
:0403500000BEFEE706
:10035400D49100080000002068020020D491000815
:10036400000000000000000068020020602E002051
:10037400000000000000000055170008E91C0008F8
:10038400ED2C0008AD460008454D0008094E000854
:100394008D4E0008514F000865170008F91C00082D
:0403A400FD2C000824
:1003A80010B50446022804D940F20311044800F0AD
:1003B8009FFF044B186800F038002043186010BDF8
:1003C800087C00080020024010B50446102805D01B
:1003D80020B140F22F11064800F08AFF054B1A6839
:1003E80022F010021A6018682043186010BD00BF80
:1003F800087C000800200240F8B505460C46464B2C
:1004080098421BD003F58063984217D003F58063A8
:10041800984213D003F5806398420FD003F58063A8
:1004280098420BD003F58063984207D003F58063A8
:10043800984203D0B221394800F05AFFE3788BB1D3
:10044800042B0FD0282B0DD0482B0BD0142B09D000
:10045800102B07D01C2B05D0182B03D0B3212F4805
:1004680000F046FF23881BB9B4212C4800F040FF58
:10047800E37803F00F06304613F0100F0AD0A37884
:10048800013BDBB2022B03D9BB21244800F030FF2B
:10049800A07830432378E3B12E68002316E00122C8
:1004A8009A40218832EA01010FD199000F278F4025
:1004B80026EA070600FA01F10E43E178282901D15E
:1004C8006A6102E0482900D12A610133072BE6D985
:1004D8002E602388FF2B1ED96E68002318E003F1D5
:1004E800080101228A40218832EA01010FD19900CE
:1004F8000F278F4026EA070600FA01F10E43E1783C
:10050800282900D16A61E178482900D12A6101339C
:10051800072BE4D96E60F8BD000801403C7C000858
:1005280070B504460D4616462C4B98421CD003F570
:100538008063984218D003F58063984214D003F57D
:100548008063984210D003F5806398420CD003F57D
:100558008063984208D003F58063984204D040F243
:100568008D111F4800F0C4FE6B1E9BB2012B28D9C9
:10057800042D26D0082D24D0102D22D0202D20D0B7
:10058800402D1ED0802D1CD0B5F5807F19D0B5F533
:10059800007F16D0B5F5806F13D0B5F5006F10D079
:1005A800B5F5805F0DD0B5F5005F0AD0B5F5804F81
:1005B80007D0B5F5004F04D04FF4C771084800F0D4
:1005C80097FE012E04D940F28F11054800F090FEE5
:1005D8000EB1256170BD656170BD00BF00080140A6
:1005E8003C7C000810B50446012803D97F21034844
:1005F80000F07EFE024B1C6010BD00BF707C00083E
:1006080020000E420D4B1A6842F001021A60596828
:100618000B4A0A405A601A6822F0847222F4803227
:100628001A601A6822F480221A605A6822F4FE02BC
:100638005A604FF41F029A60704700BF00100240D2
:100648000000FFF810B5044650B1B0F5803F07D060
:10065800B0F5802F04D040F211110F4800F048FE89
:100668000E4B1A6822F480321A601A6822F480222B
:100678001A60B4F5803F03D0B4F5802F06D010BDC2
:10068800064A136843F48033136010BD034A1368A5
:1006980043F4A023136010BDA07C000800100240A2
:1006A80038B50C46054650B1B0F5803F07D0B0F5D7
:1006B800403F04D040F27F111D4800F019FE74B38A
:1006C800B4F5802F2BD0B4F5002F28D0B4F5402FE7
:1006D80025D0B4F5801F22D0B4F5A01F1FD0B4F5E3
:1006E800C01F1CD0B4F5E01F19D0B4F5001F16D0F8
:1006F800B4F5101F13D0B4F5201F10D0B4F5301F77
:100708000DD0B4F5401F0AD0B4F5501F07D0B4F58A
:10071800601F04D04FF4C071054800F0E9FD054A98
:10072800536823F47C132C431C43546038BD00BF2A
:10073800A07C00080010024010B50446012804D926
:100748004FF4CA71024800F0D3FD024B1C6010BD83
:10075800A07C00086000424210B50446022804D973
:100768004FF40E71044800F0C3FD044B586820F0A4
:1007780003002043586010BDA07C00080010024010
:10078800024B586800F00C00704700BF0010024090
:1007980010B50446A0B1802812D0902810D0A02807
:1007A8000ED0B0280CD0C0280AD0D02808D0E02815
:1007B80006D0F02804D04FF41971054800F098FDD0
:1007C800044B586820F0F0002043586010BD00BF6B
:1007D800A07C00080010024010B5044680B1B0F5B6
:1007E800806F0DD0B0F5A06F0AD0B0F5C06F07D0FC
:1007F800B0F5E06F04D040F27E21054800F078FDA6
:10080800044B586820F4E0602043586010BD00BFD6
:10081800A07C00080010024010B5044680B1B0F575
:10082800806F0DD0B0F5A06F0AD0B0F5C06F07D0BB
:10083800B0F5E06F04D04FF42671054800F058FD7C
:10084800044B586820F4605040EAC400586010BD5A
:10085800A07C00080010024010B50446012806D903
:10086800042804D04FF45071094800F041FD094BA9
:1008780000221A701A70012C02D0042C04D010BD6A
:100888000122044B1A7010BD0522024B1A7010BDCC
:10089800A07C00082010024010B50446B0F5807F07
:1008A8000AD0B0F5007F07D0B0F5407F04D040F201
:1008B8007231044800F01CFD034A136A1C43146299
:1008C80010BD00BFA07C00080010024010B504460F
:1008D800012804D94FF46071024800F009FD024B69
:1008E8001C6010BDA07C00083C04424210B4294B97
:1008F8005B6803F00C03042B05D0082B06D013BB50
:10090800254B036021E0244B03601EE0214A536815
:100918005268C3F38343023312F4803F04D11F4A61
:1009280002FB03F3036010E01A4A526812F4003F16
:1009380004D01A4A02FB03F3036006E0164A02FBDE
:1009480003F3036001E0144B036012494B68C3F3DF
:100958000313134CE35CDAB20368D34043604A687C
:10096800C2F30222A25CD2B223FA02F282604A687F
:10097800C2F3C222A25CD2B2D340C3604A68C2F3B7
:10098800813208498A5CD2B2B3FBF2F3036110BC2E
:10099800704700BF0010024000127A0000093D00B5
:1009A800080000200400002038B504460D460E4B10
:1009B800034003B920B940F24A410C4800F098FCC2
:1009C800012D04D940F24B41084800F091FC25B1B3
:1009D800074A93691C43946138BD054A936923EA21
:1009E8000404946138BD00BF0200C0FFA07C000869
:1009F8000010024038B504460D460E4B184200D18F
:100A080020B940F269410C4800F072FC012D04D96C
:100A180040F26A41084800F06BFC25B1074AD369E7
:100A28001C43D46138BD054AD36923EA0404D46160
:100A380038BD00BF00360181A07C000800100240CC
:100A480010B50446212818D0312816D0392814D0DA
:100A5800412812D0612810D07A280ED07B280CD0DB
:100A68007C280AD07D2808D07E2806D07F2804D08C
:100A780040F234510D4800F03BFC6309012B02D1D0
:100A88000B4B1B6806E0022B02D1094B1B6A01E0E5
:100A9800074B5B6A04F01F0423FA04F414F0010FF7
:100AA80001D0012010BD002010BD00BFA07C0008AF
:100AB8000010024000B583B0002301933120FFF7F6
:100AC800BFFF019B01330193019BB3F5A06F01D0D8
:100AD8000028F3D03120FFF7B3FF08B1012000E070
:100AE800002003B05DF804FB38B504460D4620F03D
:100AF80007039BB203B918B95D210B4800F0F8FB56
:100B0800012D03D95E21084800F0F2FB2DB1074AF8
:100B180013889BB21C43148038BD044A1388E443ED
:100B2800A4B21C40148038BDD07C000800280040C6
:100B3800034A93889BB243F010039380704700BF29
:100B480000280040034A93889BB223F010039BB20D
:100B58009380704700280040034A938B9BB2108B08
:100B680043EA0040704700BF0028004010B5044623
:100B7800B0F5801F03D3A921064800F0B9FBFFF7A1
:100B8800D7FFC4F30342044B1A81A4B29C81FFF738
:100B9800D9FF10BDD07C000800280040034B9B887B
:100BA80003F020039BB2002BF8D0704700280040C8
:100BB800074A93889BB223F008039BB29380044BA7
:100BC8009B8803F008039BB2002BF8D0704700BF46
:100BD8000028004010B5044620F00F039BB203B96B
:100BE80020B940F21F11054800F082FB044A93889F
:100BF800E443A4B21C40948010BD00BFD07C000820
:100C08000028004010B50446042808D0022806D061
:100C1800012804D04FF49971084800F069FB084A8C
:100C28009388E1B20B401288144202D01BB900200D
:100C380010BD002010BD012010BD00BFD07C0008F1
:100C48000028004010B5044620F007039BB203B902
:100C580020B94FF4A671054800F04AFB044A93886E
:100C6800E443A4B21C40948010BD00BFD07C0008AF
:100C7800002800402DE9F04105460C46464B9842B5
:100C88000BD0A3F57843984207D003F580639842C8
:100C980003D0A321414800F02BFB238863B1B3F5AF
:100CA800806F09D0B3F5004F06D0B3F5404F03D09D
:100CB800A6213A4800F01CFB6388B3F5827F04D074
:100CC8001BB1A721354800F013FBA388B3F5006FCB
:100CD80004D01BB1A821314800F00AFBE3882BB1EE
:100CE800022B03D0A9212D4800F002FB2389012BF8
:100CF80003D9AA21294800F0FBFA6389B3F5007FDC
:100D080004D01BB1AB21254800F0F2FAA3898BB1BE
:100D1800082B0FD0102B0DD0182B0BD0202B09D05F
:100D2800282B07D0302B05D0382B03D0AC211B48FB
:100D380000F0DEFAE3892BB1802B03D0AD211748F0
:100D480000F0D6FA238A1BB9AE21144800F0D0FA75
:100D58002B8803F4415720886688A188B4F8068058
:100D68002289B4F80AC0A389B4F80EE030430843D6
:100D780048EA000111434CEA01021A434EEA020311
:100D88003B432B80AB8B9BB223F400639BB2AB83BA
:100D9800238A2B82BDE8F08100300140007D0008E5
:100DA80038B504460D46124B98420CD0A3F578434B
:100DB800984208D003F58063984204D040F2B711F6
:100DC8000C4800F095FA012D04D94FF4DC7109485C
:100DD80000F08EFA2DB123889BB243F040032380A4
:100DE80038BD23889BB223F040039BB2238038BDD3
:100DF80000300140007D000838B504460D46094B17
:100E080098420CD0A3F57843984208D003F5806344
:100E1800984204D040F23A21034800F069FAA581CB
:100E280038BD00BF00300140007D000810B5044601
:100E3800094B98420CD0A3F57843984208D003F5A3
:100E48008063984204D040F24A21044800F050FAE6
:100E5800A08980B210BD00BF00300140007D0008AD
:100E680038B504460D46124B98420CD0A3F578438A
:100E7800984208D003F58063984204D040F2AE212E
:100E88000C4800F035FA012D04D940F2AF21094889
:100E980000F02EFA2DB123889BB243F4005323802F
:100EA80038BD23889BB223F400539BB2238038BDFE
:100EB80000300140007D000838B505460C46164B49
:100EC80098420CD0A3F57843984208D003F5806384
:100ED800984204D040F21631104800F009FA802CEC
:100EE80012D0402C10D0202C0ED0102C0CD0082C56
:100EF8000AD0042C08D0022C06D0012C04D040F2D1
:100F08001731064800F0F4F92B891C4201D0012062
:100F180038BD002038BD00BF00300140007D00080A
:100F280030B587B004460D46644B984213D0A3F5FC
:100F3800744398420FD003F5806398420BD003F5B1
:100F48008063984207D003F58063984203D0B821A4
:100F58005B4800F0CDF92B68013B5A4A934203D90C
:100F6800B921574800F0C4F9AB8833B1B3F5805FB5
:100F780003D0BA21524800F0BBF9EB8863B1B3F54E
:100F8800805F09D0B3F5005F06D0B3F5405F03D0AA
:100F9800BB214B4800F0ACF92B894BB1B3F5806FFE
:100FA80006D0B3F5C06F03D0BC21454800F0A0F9C6
:100FB8006A8922F00C039BB203B91AB9BD214048D3
:100FC80000F096F9AB8963B1B3F5807F09D0B3F52A
:100FD800007F06D0B3F5407F03D0BE21384800F02B
:100FE80087F9AB8973B1354B9C420BD0A3F5744399
:100FF8009C4207D003F580639C4203D0C22130484D
:1010080000F076F9238A9BB2EA8823F4405313430D
:101018002382A3899BB2AA88298968890A43024343
:1010280023F4B05323F00C031343A381A38A9BB288
:10103800AA8923F440731343A38201A8FFF756FC3F
:101048001E4B9C4201D1049A00E0039AA38913F431
:10105800004F08D002EB820202EB820229684900A5
:10106800B2FBF1F107E002EB820202EB820229688F
:101078008900B2FBF1F1144BA3FB01235B091B01AF
:101088001A09642000FB1212A18911F4004F08D03C
:10109800D20032320C49A1FB0212C2F342121A43A7
:1010A80007E0120132320849A1FB0212C2F34312CF
:1010B8001A4392B2228107B030BD00BF0038014008
:1010C800307D00081FAA44001F85EB5110B5044667
:1010D8000D4B984214D0A3F57443984210D003F5F1
:1010E800806398420CD003F58063984208D003F5DA
:1010F8008063984204D04FF41C71044800F0F8F85B
:10110800A088C0F3080010BD00380140307D0008F9
:1011180038B505460C46264B984214D0A3F57443BF
:10112800984210D003F5806398420CD003F5806391
:10113800984208D003F58063984204D040F2863183
:101148001C4800F0D5F8012C18D0802C16D0402C63
:1011580014D0202C12D0102C10D0B4F5807F0DD0D4
:10116800B4F5007F0AD0082C08D0042C06D0022C35
:1011780004D040F287310F4800F0BAF8B4F5007F88
:101188000FD10B4B9D420CD0A3F574439D4208D060
:1011980003F580639D4204D040F28B31054800F08E
:1011A800A7F82B881C4201D0012038BD002038BD8B
:1011B80000380140307D000838B505460C46244B00
:1011C800984214D0A3F57443984210D003F5806375
:1011D80098420CD003F58063984208D003F58063E9
:1011E800984204D040F222411A4800F081F840F2B7
:1011F80026639C4210D040F225539C420CD040F606
:1012080046039C4208D040F66A139C4204D040F240
:101218002341104800F06CF840F66A139C420FD145
:101228000B4B9D420CD0A3F574439D4208D003F5A7
:1012380080639D4204D040F22741064800F058F8E8
:10124800240A0123A3409BB2DB439BB22B8038BD09
:1012580000380140307D000808B50D4B1B6813B9F4
:101268000C4A0B4B1A600A4B1A68C31C23F0030381
:10127800134409498B4206D904F022FE0C2303606B
:101288004FF0FF3008BD02490B60104608BD00BF93
:101298006C020020602E0020004C00200123036017
:1012A800014B0B60704700BF1800002008B504F020
:1012B80007FE582303604FF0FF3008BD00B583B028
:1012C8000C46194613460AB1064A00E0064A03B915
:1012D800054B0193009223460246044800F012F899
:1012E80004F0E6FD647D0008787F0008747D00083E
:1012F80008B50A460146024800F004F804F0D8FD93
:10130800A47D00080FB400B583B004AB53F8042BD8
:1013180001938021064805F02DFC002803DD0146D5
:10132800034800F039F803B05DF804EB04B07047E7
:10133800740200202DE9F04385B004460F46435C53
:1013480013BB042528462146ABBE04461FE035469C
:10135800102E28BF1025002306E014F8011B04AA4C
:101368001A4402F8101C0133AB42F6D304AA134402
:10137800002203F8102CE9464FF00408404649467D
:10138800ABBE8046761B00E00E46002EDFD1384605
:1013980005B0BDE8F08300BF08B5FFF7CBFF08BD77
:1013A80008B500F0FBF8024B024A9A6008BD00BF7E
:1013B80000ED00E00000000808B500F017F908BDCE
:1013C800F8B504460D4617461E462648FFF79AFF0D
:1013D80021682548FFF796FF61682448FFF792FFC8
:1013E800A1682348FFF78EFFE1682248FFF78AFFCC
:1013F80021692148FFF786FF61692048FFF782FFCE
:10140800A1691F48FFF77EFFE1691E48FFF77AFFD1
:101418001D48FFF777FF29461C48FFF773FF1C4C50
:10142800E16A1C48FFF76EFF216B1B48FFF76AFF54
:10143800E16B1A48FFF766FF15F0800F03D03946B5
:101448001748FFF75FFF15F4004F03D031461548E2
:10145800FFF758FF1448FFF755FF06991348FFF7A1
:1014680051FFF8BDD07D0008E07D0008F07D000840
:10147800007E0008107E0008207E0008307E0008EC
:10148800407E0008507E0008607E00086C7E0008E0
:1014980000ED00E07C7E00088C7E00089C7E000841
:1014A800AC7E0008BC7E0008CC7E0008D47E000814
:1014B80083691A888A4207D10268033A012A05D843
:1014C8000233836101207047002070470020704775
:1014D80082B00023019300932C4A136843F48033AD
:1014E80013602A4B1B6803F400330093019B0133FC
:1014F8000193009B1BB9019BB3F5A06FF1D1234B5E
:101508001B6813F4003F02D00123009301E000237D
:101518000093009B012B36D11D4B1A6842F0100234
:101528001A601A6822F003021A601A6842F002026E
:101538001A60A3F580535A685A605A685A605A6804
:1015480042F480625A605A6822F47C125A605A68DF
:1015580042F4E8125A601A6842F080721A600B4B23
:101568001B6813F0007FFAD0084B5A6822F0030278
:101578005A605A6842F002025A60044B5B6803F0F2
:101588000C03082BF9D102B0704700BF00100240CD
:101598000020024008B5FFF79BFF08BD08B5104BB7
:1015A8001A6842F001021A6059680E4A0A405A60E5
:1015B8001A6822F0847222F480321A601A6822F4BF
:1015C80080221A605A6822F4FE025A604FF41F0201
:1015D8009A60FFF7DFFF4FF00062034B9A6008BD87
:1015E800001002400000FFF800ED00E01F4B5B68B0
:1015F80003F00C03042B06D0082B08D03BBB1C4A75
:101608001C4B1A6026E01A4A1A4B1A6022E0174A45
:1016180053685268C3F38343023312F4803F05D101
:10162800154A02FB03F3134A136013E00F4A52688A
:1016380012F4003F05D0104A02FB03F30D4A136071
:1016480008E00B4A02FB03F30A4A136002E0084A67
:10165800084B1A60054B5B68C3F30313074AD35C56
:10166800DAB204490B68D3400B607047001002409F
:1016780000127A003000002000093D002000002000
:1016880082B0064B1B680193044B1B680093019BB7
:101698000344009A9342F7D802B07047F40200203E
:1016A80030B583B004460D4601280BD14FF6FF73C1
:1016B800994207D100220A4B1A6001AA09490A482F
:1016C80003F042FA54B94FF6FF739D4206D1064B18
:1016D80053F8080B984201D002F068FC03B030BD03
:1016E80010030020787F0008F802002070B582B04F
:1016F80005460E4619B9914203D1002302E00023A2
:1017080000E0012313B1104803F009F9941B019478
:101718000F2C07D9002201A9284603F00BF92860ED
:10172800019BAB602868012C02D13378037004E078
:101738001CB12246314604F00BFD019B6B602A6800
:101748000021D15402B070BD987F000808B54FF64B
:10175800FF710120FFF7A4FF08BD00BF08B54FF6D1
:10176800FF710020FFF79CFF08BD00BF00B583B0E4
:101778000120FFF747FAF8B1FFF7EEF902AB43F89B
:10178800040D184604F0A2FB0D4B1860019A0D4891
:1017980082FB00011144D317C3EB6113C3EB03139E
:1017A80099008A4214BF00220122074B1A700120B7
:1017B800FFF748FAFFF7F2F903B05DF804FB00BF42
:1017C800BC0300208988888834000020024A1368F6
:1017D80001331360704700BFF402002070B582B077
:1017E80020211548FFF794FC20B31348FFF76EFC3F
:1017F800C6B2124B5D686C1C53F8082B9A4202D093
:101808000E4B9B6800E00F239C4207D901230093ED
:1018180000231A462946094803F0DDF8074B1A68E1
:1018280056555C601B6800221A5540F22551024843
:10183800FFF7C2FC02B070BD00380140F80200207A
:1018480000B587B0FEF7DEFE4FF48030FEF7FAFEF3
:10185800FFF730F9012824D10020FEF799FF002076
:10186800FEF7DAFF4FF48060FEF7B6FF0220FEF7BE
:1018780097FD1020FEF7A8FD4FF4E0114FF48030DB
:10188800FEF70EFF0120FEF757FF3920FFF7D8F8C3
:101898000028FAD00220FEF75FFFFEF771FF082844
:1018A800FBD101210420FFF77FF801210820FFF771
:1018B8007BF801211020FFF777F801212020FFF79E
:1018C80073F801214FF40010FFF794F801214FF449
:1018D8008050FFF769F801210846FFF765F80121F4
:1018E80041F20500FFF760F801A8FEF7FFFF0B4A79
:1018F800029BA2FB03239B09023BB3F1807F09D221
:10190800074A5360F021074B83F8231000239360A4
:101918000723136007B05DF804FB00BFD34D6210C6
:1019280010E000E000ED00E008B501214FF0C050E4
:10193800FFF760F80120FEF755FE144804F0E0FCBC
:10194800FFF72CF90820FFF745F94FF48070FEF7F0
:10195800A3FFFFF723F90120FEF77EFFFFF71EF92B
:101968000120FEF7B3FFFFF719F94FF40040FFF726
:10197800FDF8FFF713F901210846FFF7B5F808222B
:10198800034B1A60FFF714F908BD00BF0480000874
:1019980000E100E0F0B587B01026ADF80060032440
:1019A8008DF802408DF80360204D69462846FEF701
:1019B80023FDA023ADF800308DF8024018238DF8E0
:1019C800033069462846FEF717FD4FF44043ADF84B
:1019D80004304FF48273ADF806304FF40063ADF86D
:1019E80008300024ADF80A40ADF80C404FF40073FD
:1019F800ADF80E300823ADF81030ADF812400723CB
:101A0800ADF814300A4F01A93846FFF733F92146DB
:101A18003846FFF725FA01213846FFF7C1F90122B8
:101A280031462846FEF77CFD07B0F0BD00080140AE
:101A38000030014008B501460648FFF7DDF90221EC
:101A48000448FFF739FA0028F9D00248FFF7EEF901
:101A580008BD00BF0030014030B587B0012144F215
:101A68000500FEF7A1FF4FF40073ADF8143003250D
:101A78008DF8165018238DF817301D4C05A92046EF
:101A8800FEF7BAFC4FF48063ADF814308DF81650A9
:101A980004238DF8173005A92046FEF7ADFC012177
:101AA8004FF48040FEF780FF4FF4E13301930023A9
:101AB800ADF80830ADF80A30ADF80C300C22ADF8AE
:101AC8000E20ADF8103004F5405401A92046FFF768
:101AD80027FAA3899BB243F4005343F02C03A38154
:101AE800AA23A3802022034B5A6007B030BD00BF51
:101AF8000008014000E100E02DE9F04389B0044608
:101B08000D4601284CD14FF6FF73994248D1012068
:101B180002F08AFD002606700490012002F084FD80
:101B2800012707700590384602F07EFD02230370F6
:101B38000690384602F078FD03230370079004AB43
:101B480002930423039302AA92E803008DE803009A
:101B58001A4B1E605E609E6081468E00B71046B1CB
:101B6800B7F1804F01D302F0D7FEB80002F05CFD58
:101B780000E00020114B186000EB0608C3F808804D
:101B88001FB13246494604F0EEFA0C4BC3F8048004
:101B980006E00A4B186808B102F008FA02F096FD50
:101BA80044B94FF6FF739D4204D1044B186808B13D
:101BB80002F0FCF909B0BDE8F08300BF340300204F
:101BC80008B5FFF737FF08BD2DE9F041032A05D90D
:101BD8001B4B1C4A5B211C48FFF770FB07468846D5
:101BE8001546002210211948FEF79AFC0024C5F179
:101BF80003039C4205DAFF20FFF7E2FF0134E4B259
:101C0800F5E748EA0720FFF7DBFF7B1EDBB2072B6F
:101C180005D8013F0E4B03EBC50606F807800024E4
:101C2800AC4205D2FF20FFF7CBFF0134E4B2F7E75F
:101C3800012210210548FEF773FCBDE8F08100BFC2
:101C4800A48000081480000888800008000801406B
:101C58001403002038B505460024072C07D80134A2
:101C6800E4B22A7800212046FFF7AEFFF5E738BD39
:101C780010B50446027800210F20FFF7A5FF22784F
:101C880001210C20FFF7A0FF227800210920FFF78F
:101C98009BFF227807210B20FFF796FF22780F2160
:101CA8000A20FFF791FF2046FFF7D4FF10BD00BFC1
:101CB800F8B507460E46094B1C685D68AC420CD067
:101CC80054F8043B1A78D300FF2199403940D94091
:101CD800C9B23046FFF778FFF0E7F8BD34030020BB
:101CE80008B54FF6FF710120FFF706FF08BD00BFDA
:101CF80008B54FF6FF710020FFF7FEFE08BD00BFD4
:101D08002DE9F04F9DB0019145682DB9454B464AE4
:101D18001B214648FFF7D2FA8346026842494448E5
:101D2800FFF7F0FA4FF0040A0024042C12D8C4F18B
:101D38000403C3EB0A03DBF80020D15C08223D4B07
:101D480003EBC10112AB03EBC40004F001FA013448
:101D5800E4B2EAE7042D01D9082700E001270026AC
:101D6800BE4252D20024072C40D84022002102A8AB
:101D780004F014FA0023042B1AD89D4215D99A109E
:101D88001CA901EBC301214411F8280CA3EB820123
:101D9800C90000FA01F102EB44021CA800EB820220
:101DA80052F8680C014342F8681C0133DBB2E2E7E1
:101DB8001CAB03EBC40353F8649C4FF0000853F8C2
:101DC800683C48EA0300C6F12002A6F12003F0406F
:101DD80009FA02F2104329FA03F3C4F10801C9B25F
:101DE8001843FFF765FF0134E4B2BCE73EB9BAF126
:101DF800040F04D14FF47A70FFF742FC02E0019817
:101E0800FFF73EFC0136F6B2AAE70AF1010A5FFACB
:101E18008AFA554588D84FF47A70FFF731FC1DB01F
:101E2800BDE8F08F5485000800810008608500082F
:101E3800848500085481000810B50A4B1C68094BBA
:101E48005B689C420CD023681A7804230132064947
:101E58000648FFF757FA54F8040BFFF709FFEEE7B7
:101E680010BD00BF34030020C88000089885000812
:101E780008B50368984708BD012A02D0022A02D093
:101E880004E0016002E00B6800B1036000207047C5
:101E980008B502490248FFF735FA08BDE48500088D
:101EA8001886000808B502490248FFF72BFA08BD52
:101EB800A48600081886000808B502490248FFF7FA
:101EC80021FA08BDD88600081886000808B5024916
:101ED8000248FFF717FA08BD0C87000818860008A3
:101EE80008B502490248FFF70DFA08BDB085000899
:101EF8001886000810B50446836B1BB130300322E6
:101F080001469847A06904F12003984201D002F0E5
:101F18004DF8234653F8080B984201D002F046F8D2
:101F2800204610BD38B50446002383608B687BB11A
:101F38000D4602229847EB68E360AB68A36007E0B0
:101F4800A3681BB1032221462046984702F0BEFB36
:101F5800204638BD0023836029B100B10160024BDF
:101F6800C360024B83607047791E0008811E000819
:101F780070B582B005460E4619B9914203D10023C7
:101F880002E0002300E0012313B1104802F0C7FC6F
:101F9800941B01940F2C07D9002201A9284602F0AE
:101FA800C9FC2860019BAB602868012C02D13378FA
:101FB800037004E01CB12246314604F0C9F8019BC5
:101FC8006B602A680021D15402B070BD987F000868
:101FD8002DE9F04F83B080460D46012300934268F7
:101FE8000368D31A9B1101930BB9694600E001A954
:101FF80009680B44D8F80010521AB3EBA21F04D397
:10200800B3F1806F04D2994604E06FF07C4901E097
:102018006FF07C49B9F1000F0AD0B9F1806F01D394
:1020280002F07AFC4FEA891002F0FEFA824601E0DB
:102038004FF0000AD8F80430D8F800209B1A1AEBA1
:1020480003042ED004F108064AF8036029686A6878
:102058004FF000030A442046FFF78AFF04F12007E7
:10206800A761A969EA694FF000030A4404F118005E
:10207800FFF77EFF05F1300104F13000FFF752FF52
:102088000FE00546A069874203D001F08FFF00E00A
:1020980005462068864201D001F088FF284655464B
:1020A80077E0D8F80050D8F804B05446AB4530D0A3
:1020B80064B304F10806266029686A684FF00003D3
:1020C8000A442046FFF754FF04F12007A761A969D5
:1020D800EA694FF000030A4404F11800FFF748FFCB
:1020E80005F1300104F13000FFF71CFF0EE0054652
:1020F800A069874203D001F059FF00E00546206837
:10210800864201D001F052FF284608E040354034AD
:10211800CCE74034D8F80050D8F8046011E001F05A
:1021280064FF5546AC4204D02846FFF7E3FE40352D
:10213800F8E701F0A9FF044601F081FF20460025D9
:1021480027E0AE4216D0AB6B23B105F13000032275
:1021580001469847A86905F12003984201D001F08B
:1021680025FF2B4653F8080B984201D001F01EFFBB
:102178004035E6E7D8F8000008B101F017FFC8F8C5
:1021880000A0C8F804400AEB8913C8F8083020E01A
:10219800554601F02AFF45B9D8F80430D8F80000B0
:1021A800181A5044FFF7A6FE07E05446A54204D08B
:1021B8002046FFF79FFE4034F8E7BAF1000F02D03F
:1021C800504601F0F3FE01F05FFF01F038FF02F026
:1021D8007DFA03B0BDE8F08F70B50646046845681F
:1021E800A54216D0A36B23B104F1300003220146A7
:1021F8009847A06904F12003984201D001F0D6FE67
:10220800234653F8080B984201D001F0CFFE403422
:10221800E6E7306808B101F0C9FE304670BD00BF7E
:102228002DE9F04F85B00D460123029343680268FB
:102238009A1A91108F4A02FB01F28F49914202D1FA
:102248008E4802F06FFB824603920AB902A900E0A9
:1022580003A909680A44DAF800105B1A9B1085493B
:1022680001FB03F39A4204D3834B9A4204D8914664
:1022780004E0DFF8049201E0DFF8FC91B9F1000F07
:102288000BD07D4B994501D902F046FB09EB49007B
:10229800800002F0C9F9009001E000230093DAF809
:1022A8000430DAF800209B1A009911EB030B70D068
:1022B8006C682A68A41A0022CA50CBF80420CBF80C
:1022C8000820A01109D0B0F1806F01D302F024FBDF
:1022D800800102F0A9F9019001E00023019301991E
:1022E800CBF80010CBF804100C44CBF808402B684E
:1022F800D5F804800C461D46434531D064B304F13B
:102308000806266019685A684FF000030A442046F8
:10231800FFF72EFE04F12007A761A969EA694FF0CB
:1023280000030A4404F11800FFF722FE05F130010A
:1023380004F13000FFF7F6FD0EE00546A06987427C
:1023480003D001F033FE00E005462068864201D044
:1023580001F02CFE284606E005F140034034CAE7A8
:10236800CBF8044015E001F040FE019DAC4204D0DA
:102378002846FFF7BFFD4035F8E701F085FE044623
:1023880001F05DFEDBF8000008B101F00FFE204609
:1023980054E0DAF80020DAF80400009E134682427E
:1023A80013D076B1002232607260B2601968316071
:1023B8001A607268596871605A60B2689968B16049
:1023C8009A6003F10C020C36E8E70C36DAF8007074
:1023D800DAF80480B84520D03C687D68A54216D05C
:1023E800A36B23B104F13000032201469847A0698A
:1023F80004F12003984201D001F0D8FD234653F898
:10240800080B984201D001F0D1FD4034E6E7386866
:1024180008B101F0CBFD0C37DCE7DAF8000008B1B1
:1024280001F0C4FD009BCAF80030CAF8046009EB4B
:10243800490903EB8903CAF8083017E001F0D5FD14
:10244800009B43B9DAF80430DAF80000181A009B48
:102458001844FFF7C1FE009B13B1184601F0A6FD12
:1024680001F012FE01F0EBFD02F030F905B0BDE815
:10247800F08F00BFABAAAAAA555555156C8600085F
:102488002DE9F047ADF53A7D092106ABB1F1FF3FE3
:102498000FD003F108021A6000225A601A7203F181
:1024A80020009861DA6183F820209A63403301396B
:1024B800ECE7079B039302230093A24B039A0021A6
:1024C80006A802F0C7FA01E0A6AC82E30D9A012340
:1024D80000939D4B00210CA802F0BCFA01E0A6ACC9
:1024E80077E3A6AC99492046FFF734FD04AA94E89F
:1024F800030082E8030012AB93E8030084E80300BA
:1025080092E8030083E80300A89A149BA893149206
:10251800A99A1599A99115921BB10322A6A9084653
:1025280098478B4B5C689B689C4232D064B304F13B
:10253800080525600699079A4FF000030A442046CB
:10254800FFF716FD01E0A6AC43E304F12006A661FF
:102558000C990D9A4FF000030A4404F11800FFF794
:1025680007FD12A904F13000FFF7DCFC0CE0A069BC
:10257800864202D001F01AFDFFE72068854201D0AB
:1025880001F014FDA6AC24E3714A5368403353604C
:1025980006E006A96E48FFF71BFD01E0A6AC18E3AC
:1025A800179A022300936B4B002116A802F052FAE7
:1025B80001E0A6AC0DE31D9A01230093624B0021B4
:1025C8001CA802F047FA01E0A6AC02E3AAAC6249F3
:1025D8002046FFF7BFFC04AA94E8030082E8030042
:1025E80022AB93E8030084E8030092E8030083E841
:1025F8000300AC9A249BAC932492AD9A2599AD9193
:1026080025921BB10322AAA908469847504B5C683B
:102618009B689C4232D064B304F108052560169982
:10262800179A4FF000030A442046FFF7A1FC01E087
:10263800A6ACCEE204F12006A6611C991D9A4FF0C3
:1026480000030A4404F11800FFF792FC22A904F1E0
:102658003000FFF767FC0CE0A069864202D001F069
:10266800A5FCFFE72068854201D001F09FFCA6ACDD
:10267800AFE2374A53684033536006E016A934483E
:10268800FFF7A6FC01E0A6ACA3E2279A0223009379
:10269800324B002126A802F0DDF901E0A6AC98E251
:1026A8002D9A01230093284B00212CA802F0D2F97F
:1026B80001E0A6AC8DE2AEAC29492046FFF74AFC02
:1026C80004AA94E8030082E8030032AB93E803000D
:1026D80084E8030092E8030083E80300B09A349B7F
:1026E800B0933492B19A3599B19135921BB10322C6
:1026F800AEA908469847164B5C689B689C4243D035
:10270800002C3CD004F1080525602699279A4FF043
:1027180000030A442046FFF72BFC01E0A6AC58E270
:1027280004F12006A6612C992D9A4FF000030A4463
:1027380004F11800FFF71CFC32A904F13000FFF780
:10274800F1FB1CE0888600088C860008991E0008AA
:102758004003002090860008AD1E000894860008FB
:10276800C11E0008A069864202D001F01FFCFFE7E5
:102778002068854201D001F019FCA6AC29E2A74ADD
:1027880053684033536006E026A9A448FFF720FCAD
:1027980001E0A6AC1DE2379A02230093A04B00216A
:1027A80036A802F057F901E0A6AC12E23D9A0123DF
:1027B80000939C4B00213CA802F04CF901E0A6AC28
:1027C80007E2B2AC98492046FFF7C4FB04AA94E894
:1027D800030082E8030042AB93E8030084E80300A7
:1027E80092E8030083E80300B49A449BB4934492AC
:1027F800B59A4599B59145921BB10322B2A90846ED
:1028080098478A4B5C689B689C4232D064B304F159
:10281800080525603699379A4FF000030A44204688
:10282800FFF7A6FB01E0A6ACD3E104F12006A66100
:102838003C993D9A4FF000030A4404F11800FFF751
:1028480097FB42A904F13000FFF76CFB0CE0A0698C
:10285800864202D001F0AAFBFFE72068854201D03A
:1028680001F0A4FBA6ACB4E1704A5368403353604E
:1028780006E036A96D48FFF7ABFB01E0A6ACA8E17E
:10288800479A022300936A4B002146A802F0E2F817
:1028980001E0A6AC9DE14D9A01230093614B002114
:1028A8004CA802F0D7F801E0A6AC92E1B6AC6149B9
:1028B8002046FFF74FFB04AA94E8030082E80300D0
:1028C80052AB93E8030084E8030092E8030083E82E
:1028D8000300B89A549BB8935492B99A5599B991F0
:1028E80055921BB10322B6A9084698474F4B5C681E
:1028F8009B689C4232D064B304F108052560469970
:10290800479A4FF000030A442046FFF731FB01E0E5
:10291800A6AC5EE104F12006A6614C994D9A4FF0F1
:1029280000030A4404F11800FFF722FB52A904F13E
:102938003000FFF7F7FA0CE0A069864202D001F0F8
:1029480035FBFFE72068854201D001F02FFBA6ACDC
:102958003FE1364A53684033536006E046A933489E
:10296800FFF736FB01E0A6AC33E1334B5F689B68A9
:102978009F4200F08A80002F00F08280274A536827
:1029880014681C1B00233B607B60BB60A0110DD04A
:10299800B0F1806F03D301F0BFFFA6AC19E180014D
:1029A80001F042FE804603E0A6AC12E14FF00008B9
:1029B800C7F80080C7F804804444BC60174A13680D
:1029C800566844461D46B34244D0002C3ED004F11C
:1029D8000809C4F8009019685A684FF000030A44BF
:1029E8002046FFF7C5FA04F1200AC4F818A0A9691F
:1029F800EA694FF000030A4404F11800FFF7B8FA37
:102A080005F1300104F13000FFF78CFA1EE00546AD
:102A1800A069824513D001F0C9FA10E040030020F4
:102A2800988600089C860008D51E00084C030020E4
:102A3800A0860008E91E0008B003002005462068AB
:102A4800814501D001F0B2FA284605E005F14003BE
:102A58004034B7E77C6013E001F0C7FA444505D07D
:102A68004046FFF747FA08F14008F7E701F00CFB8A
:102A780001F0E5FA386808B101F098FAA6ACA8E0C8
:102A88005B4A53680C33536006E05A495848FFF7CD
:102A9800C7FB01E0A6AC9CE0554B5F689B689F4272
:102AA80077D0002F70D0544A536814681C1B002339
:102AB8003B607B60BB60A0110DD0B0F1806F03D389
:102AC80001F02AFFA6AC84E0800101F0ADFD80464C
:102AD80003E0A6AC7DE04FF00008C7F80080C7F817
:102AE80004804444BC60444A1368566844461D4602
:102AF800B34233D074B304F10809C4F800901968DC
:102B08005A684FF000030A442046FFF731FA04F1EF
:102B1800200AC4F818A0A969EA694FF000030A441A
:102B280004F11800FFF724FA05F1300104F1300030
:102B3800FFF7F8F90EE00546A069824503D001F0D9
:102B480035FA00E005462068814501D001F02EFAEB
:102B5800284605E005F140034034C8E77C6013E0EF
:102B680001F043FA444505D04046FFF7C3F908F1A0
:102B78004008F7E701F088FA01F061FA386808B10F
:102B880001F014FAA6AC24E0194A53680C335360D8
:102B980003E019491648FFF743FBA6AC06AB9C4275
:102BA80021D0403CA36B23B104F13000032201463D
:102BB8009847A06904F12003984201D001F0F6F982
:102BC800234653F8080B9842E8D001F0EFF9E5E7FF
:102BD800A6AC06AB9C4204D0403C2046FFF78AF9DD
:102BE800F7E701F073FD0DF53A7DBDE8F08700BF0A
:102BF800B0030020400300204C030020F8B5012852
:102C080023D14FF6FF7399421FD1314A0023136035
:102C1800536093602F4A1360536093602E4A136089
:102C2800536093602D4A02F10804146053601372D4
:102C380002F120049461D36182F820309363284A1A
:102C480002F1080414605360137200283ED14FF655
:102C5800FF7399423AD1224B53F8080B984201D09E
:102C680001F0A4F91D48FFF745F91B48FFF7B4FA2E
:102C78001848FFF7B1FA164B1E685F68B74220D0B4
:102C880034687568A54216D0A36B23B104F13000EF
:102C9800032201469847A06904F12003984201D015
:102CA80001F084F9234653F8080B984201D001F04B
:102CB8007DF94034E6E7306808B101F077F90C3661
:102CC800DCE7034B186808B101F070F9F8BD00BFE4
:102CD800B0030020400300204C03002070030020B4
:102CE8005803002008B54FF6FF710120FFF786FF53
:102CF80008BD00BF08B54FF6FF710020FFF77EFF43
:102D080008BD00BF10B58EB01A4C024621461A48BD
:102D1800FEF7F8FA06AA2146684601F015FF1421C5
:102D28006846FEF7EDFF009802AB984201D001F02B
:102D38003DF90DAA114907A801F006FF142107A8BB
:102D4800FEF7DEFF079809AB984201D001F02EF993
:102D5800FEE7009802AB984201D001F027F901F094
:102D6800B5FC079809AB984201D001F01FF901F0B2
:102D7800ADFC00BF408700086887000890870008FE
:102D880000B583B018491948FEF7BCFAFDF7E4FE10
:102D980002AB43F8040D184603F098F8144B18607A
:102DA800019A144882FB00011144D317C3EB611345
:102DB800C3EB031399008A4214BF002201220E4B71
:102DC8001A70FEF73DFDFEF7AFFDFEF7E3FDFEF7D7
:102DD80043FEFFF731F8FFF753FB0848FEF792FA76
:102DE80000F028FDFCE700BF50870008A087000816
:102DF800BC0300208988888834000020BC8700082C
:102E0800074B23F00703074A136000205060064A67
:102E180042F2F8715160106059601A60704700BF43
:102E2800D4030020C0030020CC2B002070B504463A
:102E380000F034FD224B1B6823B9FFF7E1FF0122A4
:102E48001F4B1A6034B1083414F0070F02D024F075
:102E580007040834621E42F2F6739A4228D81949C8
:102E68000B6801E0194613465A68944202D91A6859
:102E7800002AF7D1144A93421CD00D6808351A6805
:102E88000A605A68121B102A0CD91E1972605C60FD
:102E980074680C4900E011460A6850688442FAD800
:102EA80032600E605968094A13685B1A136002E0C1
:102EB800002500E0002500F077FD284670BD00BF22
:102EC800C8030020C0030020CC2B002038000020BD
:102ED800D0B170B50546A0F1080600F0DFFC55F842
:102EE800044C0A4A00E01A46136859688C42FAD81A
:102EF80045F8083C166055F8043C054A11680B442F
:102F0800136000F051FD70BD704700BFC003002082
:102F1800380000204FF0030383F31188BFF36F8F4D
:102F2800BFF34F8FFEE700BF06480068006880F3D4
:102F3800088862B661B6BFF34F8FBFF36F8F00DFAB
:102F480000BF000008ED00E04FF0807340F8043C3B
:102F580021F0010140F8081C034B40F80C3C40F8F4
:102F6800202C4038704700BF1D2F00084FF0030386
:102F780083F31188BFF36F8FBFF34F8F024A136833
:102F880001331360704700BF3C000020034A1368F8
:102F9800013B13600BB983F3118870473C00002094
:102FA800054B00221A6005490A600549054A116067
:102FB80007221A60704700BF10E000E018E000E048
:102FC8007FA9030014E000E008B5094B1A6842F431
:102FD800A0221A601A6842F0A0621A60FFF7E0FFA8
:102FE8000022044B1A60FFF79FFFFFF793FF00BF13
:102FF80020ED00E03C00002000F1080343604FF0A2
:10300800FF328260C360036100230360704700BF22
:1030180000230361704700BF43684B609A688A6069
:103028009A685160996008610368013303607047CA
:1030380030B40D68B5F1FF3F01D1026907E000F136
:10304800080200E01A4653681C68A542FAD2536881
:103058004B6099608A6051600861036801330360BE
:1030680030BC704703694268816891608268416832
:1030780051605A68904201D182685A600022026108
:10308800186801381860704710B50446FFF76EFFDE
:10309800A26BE36B9A4201D1012400E00024FFF700
:1030A80075FF204610BD00BF10B50446FFF75EFF50
:1030B800A36B0BB9012400E00024FFF767FF20464B
:1030C80010BD00BF70B504461646856B026CFAB198
:1030D80066B9806803F03CF8A268236C1344A360C7
:1030E8006268934214D32368A36011E0C06803F0B8
:1030F8002FF8236C5B42E2681A44E26021688A4236
:1031080002D262681344E360022E01D105B1013D89
:103118000135A563002070BD026C72B110B5C3689B
:103128001344C3604468A34201D30368C3600C46D8
:10313800C168204603F00CF810BD704738B5054645
:10314800FFF714FF95F8454064B20AE06B6A53B183
:1031580005F1240000F0F6FC08B100F067FD013C21
:1031680064B2002CF2DCFF2385F84530FFF70EFF30
:10317800FFF7FCFE95F8444064B20AE02B6953B1AE
:1031880005F1100000F0DEFC08B100F04FFD013C35
:1031980064B2002CF2DCFF2385F84430FFF7F6FE1A
:1031A80038BD00BF38B504460D46FFF7DFFE21687D
:1031B800E26B236C03FB021060600020A063A16037
:1031C800013A02FB0313E360FF2384F8443084F8D8
:1031D80045307DB92369ABB104F1100000F0B2FCB1
:1031E80080B14FF08052094B1A60BFF34F8FBFF385
:1031F8006F8F07E004F11000FFF7FEFE04F12400D2
:10320800FFF7FAFEFFF7C2FE012038BD04ED00E02B
:1032180010B5029B0C4609B91B6000E01A60D86320
:103228001C6401211846FFF7BDFF10BDF0B583B03F
:10323800054617460E4611B100FB01F000E00020DC
:103248004830FFF7F3FD044638B100903B4600F1E3
:10325800480231462846FFF7DBFF204603B0F0BDA1
:10326800F0B585B004460F4601921E460025FFF7CB
:103278007DFEA26BE36B9A4201D3022E21D1324626
:1032880039462046FFF71EFF636A6BB104F124003C
:1032980000F058FC88B14FF08052324B1A60BFF3EF
:1032A8004F8FBFF36F8F08E038B14FF080522D4B2E
:1032B8001A60BFF34F8FBFF36F8FFFF767FE0120D0
:1032C8004EE0019B1BB9FFF761FE002048E01DB9E5
:1032D80002A800F073FC0125FFF758FE00F0DEFAA3
:1032E800FFF744FE94F844305BB2B3F1FF3F02D1DC
:1032F800002384F8443094F845305BB2B3F1FF3FC3
:1033080002D1002384F84530FFF740FE01A902A846
:1033180000F060FCF0B92046FFF7B6FEA0B10199B5
:1033280004F1100000F0EEFB2046FFF707FF00F065
:103338003BFB00289BD14FF080520A4B1A60BFF329
:103348004F8FBFF36F8F92E72046FFF7F7FE00F02D
:103358002BFB8CE72046FFF7F1FE00F025FB002051
:1033680005B0F0BD04ED00E0F8B5EFF311864FF0BD
:10337800030484F31188BFF36F8FBFF34F8F856BFE
:10338800C46BA54201D3022B1BD11746054690F802
:10339800454064B21A46FFF795FEB4F1FF3F0AD1E3
:1033A8006B6A83B105F1240000F0CCFB68B177B1FA
:1033B800012038600CE0013464B285F845400120F2
:1033C80006E0002004E0012002E0012000E00120E6
:1033D80086F31188F8BD00BF2DE9F04184B004469A
:1033E800884601921E460025FFF7C0FDA76B5FB314
:1033F800E56841462046FFF78FFE8EB97B1EA36322
:103408002369EBB104F1100000F09CFBC0B14FF050
:103418008052394B1A60BFF34F8FBFF36F8F0FE0A5
:10342800E560636A63B104F1240000F08BFB38B1F6
:103438004FF08052304B1A60BFF34F8FBFF36F8F3E
:10344800FFF7A4FD012054E0019B1BB9FFF79EFD87
:1034580000204EE01DB902A800F0B0FB0125FFF7DF
:1034680095FD00F01BFAFFF781FD94F844305BB23C
:10347800B3F1FF3F02D1002384F8443094F845307B
:103488005BB2B3F1FF3F02D1002384F84530FFF768
:103498007DFD01A902A800F09DFBF0B92046FFF7C9
:1034A80003FEA0B1019904F1240000F02BFB204693
:1034B800FFF744FE00F078FA002895D14FF08052CB
:1034C8000D4B1A60BFF34F8FBFF36F8F8CE7204609
:1034D800FFF734FE00F068FA86E72046FFF72EFE75
:1034E80000F062FA2046FFF7DFFD00283FF47CAFCA
:1034F800002004B0BDE8F08104ED00E000230BE0FB
:10350800074A52F8332032B9054A42F8331002EB21
:10351800C303586070470133092BF1D9704700BFC6
:103528000C2E002070B504460D461646FFF71EFD0A
:1035380094F844305BB2B3F1FF3F02D1002384F822
:10354800443094F845305BB2B3F1FF3F02D1002319
:1035580084F84530FFF71AFDA36B2BB9324629468C
:1035680004F1240000F0DCFA2046FFF7E7FD70BD07
:103578000A4B1B681B680BB9012300E0002323B129
:103588004FF0FF32064B1A607047044B1B68DB682C
:10359800DB685A68024B1A60704700BFD82B0020BE
:1035A8008C2C002010B50446006BFFF791FC2046D8
:1035B800FFF78EFC10BD00BF2DE9F8438146984601
:1035C800089F099E0A9C236B02F18042013A03EB93
:1035D800820525F00705002306E0C85CE21882F89A
:1035E8003400CA5C12B101330F2BF6D9002384F8DA
:1035F8004330042F00D90427E762201DFFF708FD98
:1036080004F11800FFF704FD2461C7F10503A36165
:103618006462002306E003F1100204EB8202002139
:1036280051600133042BF6D90023A36584F85C307C
:10363800424649462846FFF787FC206006B13460B9
:10364800BDE8F88338B5002407E004EB8402930052
:103658000E481844FFF7D0FC0134042CF5D90C4D62
:103668002846FFF7C9FC0B4C2046FFF7C5FC0A4863
:10367800FFF7C2FC0948FFF7BFFC0948FFF7BCFC8D
:10368800084B1D60084B1C6038BD00BFFC2B002098
:10369800942C0020A82C0020702C0020E02B002067
:1036A800BC2C0020D82B0020F42B002010B5044699
:1036B800FFF75CFC204A1368013313601F4B1B683B
:1036C8003BB91E4B1C601368012B0DD1FFF7BAFFE5
:1036D8000AE01B4B1B683BB9184B1B68DA6AE36AA4
:1036E8009A4201D8154B1C60164A136801331360BF
:1036F800E36A154A1268934201D9134A136003EB2F
:1037080083039A00211D11481044FFF785FCFFF739
:103718003DFC0B4B1B686BB1084B1B68DA6AE36A0C
:103728009A4207D24FF08052094B1A60BFF34F8F6D
:10373800BFF36F8F10BD00BF682C00206C2C0020D9
:10374800DC2B0020902C0020D02C0020FC2B00200B
:1037580004ED00E070B504460E46174B1D68174B84
:1037680018680430FFF77EFCB4F1FF3F07D136B18B
:10377800124B196804311248FFF74EFC70BD2C44F7
:103788000E4B1B685C60A54207D90E4B18680B4BA3
:1037980019680431FFF74CFC70BD0B4B1868074BD8
:1037A80019680431FFF744FC084B1B689C4201D29E
:1037B800064B1C6070BD00BF882C00206C2C0020BC
:1037C800BC2C0020F42B0020D82B00208C2C0020AF
:1037D8002DE9F04385B006460F46154698469000F9
:1037E800FFF724FB60B181466020FFF71FFB04460A
:1037F80010B1C0F8309004E04846FFF769FB00E0DC
:1038080000248CB10023039302940D9B01930C9B1D
:10381800009343462A4639463046FFF7CDFE2046F8
:10382800FFF744FF012001E04FF0FF3005B0BDE88D
:10383800F08300BF00B583B0124B019300230093BF
:10384800802211491148FFF7C3FF012801D100F078
:1038580063FA012813D14FF0030383F31188BFF3F0
:103868006F8FBFF34F8F4FF0FF32094B1A60012261
:10387800084B1A600022084B1A60FFF7A5FB03B03B
:103888005DF804FB842C0020D0870008E53A000886
:103898008C2C0020DC2B0020882C0020024A136886
:1038A80001331360704700BF602C0020014B18687B
:1038B800704700BF882C0020F8B5304B1B68002BE0
:1038C80050D12F4B1E6801361E605EB92D4A116813
:1038D8002D4B1868106019602C4A13680133136067
:1038E800FFF746FE2A4B1B689E4203D200273EE0A4
:1038F800012700E00027234B1B681B680BB9012335
:1039080000E0002323B14FF0FF32214B1A602EE074
:103918001C4B1B68DB68DC6863689E4202D21C4A49
:10392800136024E0251D2846FFF79CFBA36A1BB102
:1039380004F11800FFF796FBE36A164A12689342EF
:1039480001D9144A136003EB83039A0029461248ED
:103958001044FFF761FBE26A104B1B68DB6A9A426E
:10396800C6D2C8E70E4A13680133136000270D4B0F
:103978001B6803B101273846F8BD00BF602C002042
:10398800882C0020D82B0020F42B0020D42B0020DA
:103998008C2C0020D02C0020FC2B00206C2C00202C
:1039A800F82B0020D42C002038B5FFF7DFFA2D4B78
:1039B8001A68013A1A601B68002B4BD12A4B1B6806
:1039C8002BBB002449E0294BDB68DC6804F11800B4
:1039D800FFF748FB251D2846FFF744FBE36A244A06
:1039E8001268934201D9224A136003EB83039A00B9
:1039F800294620481044FFF70FFBE26A1E4B1B685C
:103A0800DB6A9A4204D301221C4B1A6000E00024AE
:103A1800164B1B68002BD6D10CB1FFF7A9FD184B2C
:103A28001C6854B1FFF748FF10B10122134B1A600C
:103A3800013CF7D10022124B1A60104B1B685BB196
:103A48004FF080520F4B1A60BFF34F8FBFF36F8F49
:103A5800012402E0002400E00024FFF797FA204642
:103A680038BD00BF602C0020682C0020702C00207E
:103A7800D02C0020FC2B00206C2C0020D42C002003
:103A8800F82B002004ED00E010B51BE0FFF706FF5F
:103A98000F4B1C68FFF788FFA4B1FFF767FA0C4BC0
:103AA800DB68DC68201DFFF7DDFA0A4A1368013B72
:103AB8001360094A1368013B1360FFF767FA204651
:103AC800FFF770FD044B1B68002BDFD110BD00BF52
:103AD800E02B0020682C0020642C002008B5FFF79C
:103AE800D3FF064B1B68012BF9D94FF08052044BCA
:103AF8001A60BFF34F8FBFF36F8FF0E7FC2B0020E6
:103B080004ED00E010B50C46044B19681831FFF7B6
:103B18008FFA01212046FFF71DFE10BD6C2C0020F6
:103B280038B50D461446064B19681831FFF774FA74
:103B38000CB14FF0FF3521462846FFF70BFE38BD84
:103B48006C2C002038B5C368DC6804F118052846D9
:103B5800FFF788FA134B1B689BB9251D2846FFF70A
:103B680081FAE36A104A1268934201D90E4A136037
:103B780003EB83039A0029460C481044FFF74CFADC
:103B880003E029460A48FFF747FAE26A094B1B682F
:103B9800DB6A9A4203D90120074B186038BD002020
:103BA80038BD00BF602C0020D02C0020FC2B00204A
:103BB800702C00206C2C0020D42C0020034B1B6898
:103BC8000360034B1B684360704700BFD42B002081
:103BD800882C002038B504460D46FFF7C7F9114B6D
:103BE8001A682B68B3F1FF3F13D020680E490968A3
:103BF800884202D061688A420DD26168501A8342B5
:103C08000BD98A1A13442B602046FFF7D7FF0024EC
:103C180004E0002402E0012400E00124FFF7B6F9E3
:103C2800204638BD882C0020D42B00200122014BCF
:103C38001A607047D42C0020054B1B6823B1054B34
:103C48001B681BB90220704701207047002070478D
:103C5800DC2B0020602C0020064B1A681368B3FA8E
:103C680083F35B09036013B9D368186870470020B1
:103C7800704700BFD82C002008B541600061914210
:103C88000AD8D21A83699A4211D2011D0A4B1868C0
:103C9800FFF7CEF9002008BD9A4201D2994208D216
:103CA800011D064B1868FFF7C3F9002008BD012065
:103CB80008BD012008BD00BF0C2D0020D82C002015
:103CC80038B5FFF753F90E4B1B68B3B90D4D2846AD
:103CD800FFF792F90C4C2046FFF78EF90B4B1D604D
:103CE8000B4B1C6000220C210A20FFF79FFA044BA3
:103CF800186010B10749FFF701FCFFF747F938BD15
:103D0800082D0020DC2C0020F02C0020D82C0020CE
:103D18000C2D0020D887000800B583B0FFF7D0FF2E
:103D2800084B1B6853B1084B0193032300930023EE
:103D3800802206490648FFF74BFD00E0002003B04B
:103D48005DF804FB082D0020102D0020E0870008F6
:103D58009D3F000830B585B0134C256805B31C4657
:103D6800019102920390052913DCFFF765FF0228F1
:103D780007D10023089A01A90B480068FFF770FAD9
:103D88000FE000231A4601A907480068FFF768FA00
:103D980007E00023224601A92846FFF7E5FA00E0DC
:103DA800002005B030BD00BF082D002070B582B0DE
:103DB8001FE0DB681E68DC68251D2846FFF752F9FE
:103DC800636A20469847E369012B12D1A3693344FB
:103DD8009E4207D26360246129460C4B1868FFF79E
:103DE80027F906E0002100910B4632462046FFF7EE
:103DF800B1FF064B1B681A68002ADAD1044A10681A
:103E080002490860136002B070BD00BFD82C0020C2
:103E18000C2D002038B50546FFF748FD0446074B32
:103E28001B68984204D2FFF7C1FF01232B6001E011
:103E380000232B60014B1C60204638BD042D002058
:103E480070B582B005460E460E4B1B68DB68DC6811
:103E5800201DFFF707F9E369012B0ED1A1692B4655
:103E6800324629442046FFF707FF30B10021009170
:103E78000B462A462046FFF76DFF636A204698479F
:103E880002B070BDD82C002070B582B006460C4632
:103E9800FFF704FD01A8FFF7BDFF019B1BBB05460B
:103EA80044B9B04206D3FFF77FFD29463046FFF7F5
:103EB800C7FF1AE02CB10E4B1B681C68B4FA84F4D7
:103EC80064092246711B0B4B1868FFF72BFBFFF7A1
:103ED8006BFD50B94FF08052074B1A60BFF34F8FFC
:103EE800BFF36F8F01E0FFF75FFD02B070BD00BF49
:103EF8000C2D0020082D002004ED00E030B587B01F
:103F08003AE0039B002B37DB059C636913B1201D46
:103F1800FFF7A8F802A8FFF77DFF039B092B2BD812
:103F2800DFE803F00505052A1E2705052A1E049962
:103F3800A5690B46024629442046FFF79DFED8B1E5
:103F4800636A20469847E369012B15D1A2690021CD
:103F580000910B46049802442046FFF7FBFE0BE055
:103F68000499A1610346024601442046FFF784FEF6
:103F780002E02046FEF7ACFF00231A4603A90448D6
:103F88000068FFF729FA0028BBD107B030BD00BF91
:103F9800082D002000B583B001A8FFF75DFE019948
:103FA800FFF772FFFFF7AAFFF6E700BF02F0A8B815
:103FB8000378472B17D143784E2B14D18378552B90
:103FC80011D1C378432B0ED10379432B0BD14379FD
:103FD8002B2B08D183792B2B05D1C07901288CBFD5
:103FE8000020012070470020704738B5054600F0D2
:103FF80031FB014602682846A5F12004FFF7D8FFE7
:1040080028B90AB100F036FB0C60144615E055F8E3
:104018000C3C2846002BB4BFC3F10103013345F81B
:104028000C3C4B68A24203F1FF334B601CBF45F8C0
:10403800102C0C606C6A01F091F9204638BD10B55F
:1040480000F004FB02680146EAB102F120042046B0
:10405800FFF7AEFF08B908600BE05369002B04DADC
:1040680001330FD1106908600CE0013B06D11369D8
:104078000B602046BDE8104001F072B9591C01D10F
:1040880000F0F8FA536110BD08B500F0E3FA426891
:1040980003680132426053B393F82020472A28D19D
:1040A80093F821204E2A24D193F82220552A20D192
:1040B80093F82320432A1CD193F82420432A18D1AB
:1040C80093F825202B2A14D193F826202B2A10D1D7
:1040D80093F82720012A0CD85A6952425A6103F1F1
:1040E8002004204601F004FD2046FFF77EFF00F083
:1040F800C1FA00220260F2E770B50023A0EBC00607
:10410800C0EBC00210F8015B941905F07F02A240D1
:1041180013432A06F4D40B6070BD00231A4630B549
:1041280010F8014B04F07F0595402B43250602F15A
:104138000702F5D41F2A06D8640642BF4FF0FF34A1
:1041480004FA02F213430B6030BD5028F7B5054658
:104158000F4614461E4605D1D01C20F0030050F827
:10416800043B33E000F00F030C2B23D8DFE803F007
:104178001A07121A1E222222220C161A1E0001A940
:104188002046FFF7B9FF03E001A92046FFF7C5FF66
:10419800019B11E0204630F8023B0DE0204630F943
:1041A800023B09E0204650F8043B05E0204650F861
:1041B800083B01E001F07CFE43B105F07002102AD3
:1041C80018BF3C462A06234448BF1B68336003B027
:1041D800F0BD08B50346FF2B08461CD003F070035A
:1041E800202B0ED003D8B3B1102B12D113E0402BE3
:1041F8000BD0502B0FD0302B0BD1BDE8084001F06D
:1042080053BEBDE8084001F04BBEBDE8084001F0D0
:1042180037BE01F04DFE002008BD70B50C460146C2
:10422800204615461E46FFF7D4FF33462A46014668
:104238002046BDE87040FFF788BF73B50E461446A8
:10424800054610B101F01CFEFFE720603178721CB2
:10425800FF2905D0231D2846FFF7DFFF024600E0AF
:1042680060601378501CFF2B237507D0102323752B
:1042780001A9FFF741FF019B034400E00023E3602D
:10428800037801A963750130FFF736FF019B0344EA
:10429800236102B070BD1FB503AB009300230A462B
:1042A800194601F063F8039805B05DF804FB0000B7
:1042B8002DE9F04F002391B0049300F00303012B84
:1042C80007460C4615460ED002D3022B02D0EFE06B
:1042D800020717D52946204601F0BEFD08B109207E
:1042E8009FE108209DE100F0080202F0FF065AB99C
:1042F800D1F8208028460D21FFF7CDFF804520D139
:10430800062602E0012600E0022610AB43F82C4DF9
:10431800009307F0080700233E430C22194628465D
:1043280001F04AF8062E17D1D4F83080A76AB8F100
:10433800000FD4F82C900CBF4FF0010A4FF0030A7D
:1043480005E110AA42F82C4D0092334631460C2262
:10435800284601F031F80226284601F097FD8146EB
:104368000028B7D00AAA01462846FFF766FF294663
:1043780080469DF83C00FFF72CFF0F210C90284643
:10438800FFF789FF20F00100471E0E9B984580F03B
:104398003F81424606AB9DF83D100020FFF73DFFE8
:1043A80007AB02469DF83D100020FFF736FF08AB2B
:1043B80002469DF83D100020FFF72FFF09A9FFF7DF
:1043C8009BFE069B0A9A804613449F4202D2DDF860
:1043D8003880DAE7079A13449F42D6D2089818B172
:1043E8000B9B00EB030800E08046099810B10E9F74
:1043F80001383844B8F1000F3FF46CAF002800F0E2
:104408000C8116F00803029314D0472323704E231F
:1044180063705523A3704323E370462323714F230E
:1044280063715223A3710023E3714FF0000A6FF008
:10443800030B1BE0E379012B0CBF54F8203C04F17B
:1044480058030493F1E704270D9A09AB07FB1122DF
:104458000C99FFF77AFE0999002900F0D5806CBB0A
:10446800089F002F59D0039B3B44184607A9FFF724
:1044780054FE08A90390FFF750FE0799002949D078
:1044880025DD9DF83C00FF2814D000F00703042B1D
:104498000ED801A252F823F04F440008B94400088E
:1044A800C14400084F440008B54400080827CBE77A
:1044B80001F0FEFC0027C7E70227C5E704AB00228E
:1044C800204600F027F9002840F09E80C8E70D9F9D
:1044D8004A1CB4B1029BA3B90BFB0272049B171FC1
:1044E800069357F8041F41B106AB00223944204611
:1044F80000F010F90028F4D0012181F00101C9B2BF
:1045080005E00BFB02F2B958B1FA81F1490900291B
:10451800A6D079E04FF0010AA2E7BAF1000F3FF404
:10452800D9AE4FF0020AF30711D5BAF1020F3FF4E2
:10453800D1AE0D212846049EFFF7ADFE66622062CB
:10454800A762C4F82C90C4F83080062069E016F001
:10455800080608D0BAF1010F01D100F08BF8002F3E
:1045680024DA00F099F8BAF1010F02D1204600F0E0
:104578001EFB002F1ADA0AAA49462846FFF75DFEF5
:1045880029469DF83C00FFF724FE6FF0030307FB64
:1045980003330D9A0C90134453F826200AB10136C0
:1045A800FAE70422A662E0622263636310AB43F871
:1045B8001C4D009300231A461946284600F0FCFEBD
:1045C80010AB43F8207D00930023194601222846AA
:1045D80000F0F2FE0F212846FFF75DFE00F0010013
:1045E80010AB40EA080043F8240D009300230F2283
:1045F8001946284600F0E0FEBAF1020F02D1204623
:1046080000F0E4F807200CE0079F4FF0030A8AE760
:104618004FF000084FF0010A01E04FF0020A0027AE
:1046280081E711B0BDE8F08F10B5002814BF04462B
:104638000124204601F05CFD30B900F0DBFA08B92E
:1046480001F036FC8047F4E710BD000000487047D1
:10465800142D002000487047142D002008B580470D
:1046680001F026FC024B1868BFF35F8F704700BF4C
:104678004000002008B5FFF7F5FFFFF7EFFF08B58A
:104688008047FFF7F7FF0000024B1868BFF35F8F02
:10469800704700BF4400002008B5FFF7F5FFFFF79B
:1046A800EEFF000038B5084C4FF41E652846E5605B
:1046B80001F01EFDA06010B9E060606038BD002305
:1046C80060600560436038BD202D00201EB400F0F6
:1046D8009AF81EBC01F0FAF90378472B17D14378F2
:1046E8004E2B14D18378552B11D1C378432B0ED17F
:1046F8000379432B0BD143792B2B08D183792B2BAF
:1047080005D1C07901288CBF002001207047002006
:10471800704700002DE9F3411D4603780E46472BEC
:104728000246C17943D143784E2B40D18378552B2B
:104738003DD1C378432B3AD10379462B37D14379FE
:104748004F2B34D18379522B31D100292FD10846F0
:104758000123002401947BB980B901290ABF52F8CA
:10476800203CA2F12003783B01290CBF52F8202CF1
:1047780058321C68019202E0124C00E0124C236887
:1047880020469B68984720B1019B02271B6801932C
:1047980000E00127336801AAD3F8108021460123DD
:1047A8003046C04758B1019B38462B6007E0104699
:1047B800FFF792FF80F00100C0B20023C9E702B002
:1047C800BDE8F081088800083488000810B5044660
:1047D800FFF740FF02462046A4F12001FFF77CFFC7
:1047E80050B154F8043C0133012B44F8043C08D17F
:1047F800936844F8083C03E093680BB1FFF73AFF6D
:104808009160012010BD10B5FFF724FF82680146B2
:104818000AB9FFF72FFF02F120042046FFF75CFFDB
:1048280038B1D369013BD36123B99069886093613A
:1048380000E08860204610BD7FB51023029303680E
:10484800002415469E6900946B468DF80440039435
:104858001268B0479DF8043003F00603062B11BF19
:104868002046009B01202B6004B070BD0098904248
:104878000CBF06200120704710B50446024B0360A8
:1048880000F042FA204610BD4488000810B50446DE
:10489800FFF7F2FF2046FFF789FB204610BD38B529
:1048A80015461C4600F033FA20B10823E3600623BE
:1048B8002560237138BD2DE9F041069E9846089B76
:1048C80007469E421546099C03D1079900F01FFA36
:1048D80048B94146384600F01AFA28B10123266043
:1048E8002571A37100E065710020BDE8F0812DE914
:1048F800F04105460C4616461F4600F008FA48B92E
:10490800032F07D82368324629462046BDE8F041E0
:104918005B691847BDE8F08108B501F0C9FA08B528
:1049280001F0C6FA08B501F0C3FA0AB101F010BCEB
:104938007047000008B50B68B3F1004F02D30A486E
:10494800FFF7F0FF934209D95200934206D2B2F121
:10495800004F2ABF6FF000430A600B600868BDE88B
:1049680008400130FFF760BE96880008034653F8F8
:10497800080B984201D0FFF719BB704710B544687F
:104988006FF00040001B0144914202D21846FFF725
:10499800C9FF10BD02688A4206D84368D018814210
:1049A80094BF00200120704701207047012A10B5EC
:1049B80002D10A78027010BDFFF7B7FF10BD012AB7
:1049C80030B402D10B78037003E012B130BC01F0AF
:1049D800CABB30BC70472DE9F3470A9D9946436826
:1049E8001746C1EB03082B449B1AC2EB0808026860
:1049F800019300F108039A420E4614BF82680F2201
:104A080001A90446FFF796FF82461EB13246216887
:104A1800FFF7CCFFB9F1000F06D02DB12A46494661
:104A28000AEB0600FFF7C2FFB8F1000F07D02168B4
:104A380037447019424639445044FFF7B7FF2046BF
:104A4800FFF794FF019BC4F800A0A36002B0BDE883
:104A5800F08700002DE9F347164681460A9C0F4669
:104A680098463146374B2246FFF788FF4B4653F8A6
:104A7800085BD9F804109D4204EB010A18BFD9F865
:104A88000830C6EB0A0A08BF0F23534530D3C91BA9
:104A98003D4448468F1B4146FFF77CFF58B137B16C
:104AA800A64204D03A46A9192819FFF788FFECB3A3
:104AB800224641460DE0B4B3A64221D322464146E0
:104AC8002846FFF77CFF2EE0984504D32246A11B19
:104AD8004144284609E0C8EB0306324641462846C9
:104AE800FFF76DFFA21B2919A819FFF75FFF1DE04B
:104AF80000944346324639464846FFF76CFF15E0B6
:104B080037B13A46A9192819FFF759FFA6420DD21D
:104B1800AB1908EB04029342D6D3224641462846F5
:104B2800FFF74DFF02E00FB1A642EAD14846D9F897
:104B380000300022C9F804A003F80A2002B0BDE83A
:104B4800F08700BF8589000838B500F108030446DE
:104B580003600D4621B1084601F0FFFC2A1801E068
:104B68004FF0FF3220464FF000032946FCF7BEFD08
:104B7800204638BD0378472B17D143784E2B14D1E4
:104B88008378552B11D1C378432B0ED10379432B4E
:104B98000BD143792B2B08D183792B2B05D1C079E5
:104BA80001288CBF0020012070470020704710B5F5
:104BB800044648B1FFF719FA2046FFF7DBFF18B1A2
:104BC80054F8140CFFF74AFDFFF754FD38B50246B8
:104BD800FFF7D0FF18B152F8184C002501E0044641
:104BE80001251046FFF701FA0DB1FFF755FD2046E4
:104BF800FFF745FD024B1868BFF35F8F704700BF92
:104C0800302D002010B50446024B0360FFF734FE38
:104C1800204610BD648A000810B50446FFF7F2FF6D
:104C28002046FFF7C3F9204610BD2DE9F14F0E4687
:104C380019468346174699460A9CDDF82CA0DDF8EC
:104C480030800D9D00F063F878B1002E2C602F7134
:104C580006DB3444A0450CBF06240124AC711EE0D9
:104C680002361CD10123AB7119E0444504D15146E9
:104C7800584600F04CF888B9DBF808003A46036853
:104C88000D95CDF83080CDF82CA00A94DC6931461A
:104C98004B46A44601B0BDE8F04F60476F71002055
:104CA80001B0BDE8F08F2DE9F041069E804696429E
:104CB8000F4614461D4603D1194600F028F858B986
:104CC800D8F808002246036806961E6A39462B461D
:104CD800B446BDE8F04160470620BDE8F0812DE903
:104CE800F04104460D4616461F46FFF7D8FD48B961
:104CF800A0683246036829469C693B46A446BDE83D
:104D0800F0416047BDE8F08170470020704781425C
:104D180008B50ED0406803782A2B0CD049680B7868
:104D28002A2B08BF013101F0FBFBB0FA80F04009E3
:104D380008BD012008BD002008BD0000244B1A68EA
:104D4800D0075CBF01221A60224B1A68D1075CBFEA
:104D580001221A60204B1A68D2075CBF01221A6030
:104D68001E4B1A68D0075CBF01221A601C4B1A68D8
:104D7800D1075CBF01221A601A4B1A68D2075CBFC0
:104D880001221A60184B1A68D0075CBF01221A600A
:104D9800164B1A68D1075CBF01221A60144B1A68B7
:104DA800D2075CBF01221A60124B1A68D0075CBF99
:104DB80001221A60104B1A68D1075CBF01221A60E1
:104DC8000E4B1A68D2075CBF01221A60704700BFF9
:104DD800602D00205C2D0020582D0020542D00202F
:104DE800502D00204C2D0020482D0020442D00205F
:104DF800402D00203C2D0020382D0020342D00208F
:104E0800184B1A68D1075CBF01221A60164B1A6842
:104E1800D2075CBF01221A60144B1A68D0075CBF26
:104E280001221A60124B1A68D1075CBF01221A606E
:104E3800104B1A68D2075CBF01221A600E4B1A6821
:104E4800D0075CBF01221A600C4B1A68D1075CBFFF
:104E580001221A600A4B1A68D2075CBF01221A6045
:104E6800704700BF802D00207C2D0020782D002069
:104E7800742D0020702D00206C2D0020682D00203E
:104E8800642D0020244B1A68D0075CBF01221A60E9
:104E9800224B1A68D1075CBF01221A60204B1A689E
:104EA800D2075CBF01221A601E4B1A68D0075CBF8C
:104EB80001221A601C4B1A68D1075CBF01221A60D4
:104EC8001A4B1A68D2075CBF01221A60184B1A687D
:104ED800D0075CBF01221A60164B1A68D1075CBF65
:104EE80001221A60144B1A68D2075CBF01221A60AB
:104EF800124B1A68D0075CBF01221A60104B1A685F
:104F0800D1075CBF01221A600E4B1A68D2075CBF3A
:104F180001221A60704700BFB02D0020AC2D002080
:104F2800A82D0020A42D0020A02D00209C2D0020BD
:104F3800982D0020942D0020902D00208C2D0020ED
:104F4800882D0020842D0020184B1A68D1075CBFDB
:104F580001221A60164B1A68D2075CBF01221A6038
:104F6800144B1A68D0075CBF01221A60124B1A68EA
:104F7800D1075CBF01221A60104B1A68D2075CBFC8
:104F880001221A600E4B1A68D0075CBF01221A6012
:104F98000C4B1A68D1075CBF01221A600A4B1A68C9
:104FA800D2075CBF01221A60704700BFD02D0020D5
:104FB800CC2D0020C82D0020C42D0020C02D00209D
:104FC800BC2D0020B82D0020B42D002003685A0005
:104FD8004CBF43F0004323F000431844704700BF20
:104FE80061B32DE9F84F01F1FF3A90460646D146E4
:104FF800002707EB090404EBD4746410E500711969
:105008000846FFF7E3FFA245834605F10800304450
:1050180009D0FFF7DBFFC34500F1FF3005D8404555
:1050280009D2671CE5E7C34505D9A74202D004F1B8
:10503800FF39DEE700210846BDE8F88F08467047CB
:10504800012807D0022807D0044B00280CBF1846B7
:105058000020704702487047024870475D570008B3
:10506800615700086557000830B5254B83B00446E2
:105078008D1E7BB301A92846AFF3008020B30199A8
:105088002A46FFF7ADFF0146F0B1FFF79FFF4B68D7
:10509800A064012B12D0002B01F1040021DBFFF7E3
:1050A80095FF0023E06423650368002B1DDBFFF7F1
:1050B8008DFF00232061184603B030BD0023236113
:1050C8000523184603B030BD002323610923184681
:1050D80003B030BD0B490C4B0846591AC910019151
:1050E800CEE70123E0642365DEE7C3F30360FFF73F
:1050F800A7FF0028206114BF00230923DBE700BFB6
:1051080000000000E48F0008D4910008036810B57F
:10511800DA07044606D49B0700F1480009D500F0D9
:105128005BFC2368590709D51A070ED5DB0613D58A
:1051380010BD00F049FC23685907F5D404F1D000EC
:1051480000F052FC23681A07F0D404F5A87000F0A8
:1051580053FC2368DB06EBD404F5E870BDE8104087
:1051680000F08EBC03680BB11844704718467047AE
:1051780009207047704700BF70B504460D4608E027
:105188002A6C2369626121462A460120984708282B
:1051980008D1296C2046FFF767FF06460028EFD0A4
:1051A80000F086FE0728FBD13046296CFFF7E2FFA6
:1051B800281D00F0FDFB00BF2DE9F0470646ADF5C0
:1051C800727D03AD0C1D17460FCC0FC50FCC0FC554
:1051D8000FCC0FC594E80F0002ACD6F80C80D6F8B7
:1051E800189085E80F0000233046216C2360FFF7F4
:1051F8003BFF0546002F14BF0A2709277DB1A36B83
:1052080047F010018DE810023246636401203346EE
:10521800C04778BB28460DF5727DBDE8F087236C42
:105228004FF4F072736121467AA800F091FF336958
:105238007AAA314638469847889B82468DE81002FC
:1052480039466364324633460120C04790B94FF46B
:10525800F0727AA9204600F07BFFBAF1080F06D158
:10526800216C3046FFF700FF09270546C6E7BAF16B
:10527800070F04D009200DF5727DBDE8F087284698
:10528800216CFFF777FF03A800F092FB406C704792
:10529800F0B5CB6BF9B00B640E1D01AD0F4604469B
:1052A8000FCE0FC50FCE0FC50FCE0FC596E80F0056
:1052B8004FF0FF3685E80F00009606E023696A463E
:1052C800214698470828054608D110992046FFF737
:1052D800CBFE0028F2D0092079B0F0BD6846FFF770
:1052E80015FF062DF7D139462046FFF745FF00BFC9
:1052F80030B4DD6BC160826119461D64002230BC88
:105308005AE700BF70B54369C6680B6426B101222D
:10531800FFF752FF00F0CCFD03690A4604460D462C
:10532800014602209847072807D0082803D12946B4
:105338002046FFF721FF00F0BBFD3046296CFFF740
:1053480019FF281D00F034FBC2682AB110B4CC6BD9
:1053580000220C6410BC2FE79AE700BF704700BF1B
:10536800836813B1014601201847704700B5042926
:1053780007D8DFE801F00309060909000BB90F2A6D
:1053880005D902205DF804FB01205DF804FB00EB61
:10539800820252681846019B1A605DF804FB00BF40
:1053A80010B584B0002303AC0A4600941946FFF7F1
:1053B800DDFF039804B010BD00B5042907D8DFE865
:1053C80001F00309060909000BB90F2A05D90220C3
:1053D8005DF804FB01205DF804FB019900EB8202F3
:1053E8000968184651605DF804FB00BF10B584B029
:1053F80004AC44F8042D00230A4600941946FFF72C
:10540800DBFF04B010BD00BFF0B5D36BADF50F7D69
:105418001364151D17AC07460E460FCD0FC40FCDEC
:105428000FC40FCD0FC495E80F004FF0FF3584E887
:105438000F00169511E016A86A46FFF7D7FF314608
:1054480016A8B84780B9049B16AA69460820984749
:105458000528044609D0092806D026996846FFF78A
:1054680003FE0C210028E6D0092416A8FFF74EFEFB
:1054780020460DF50F7DF0BD2DE9F04FCC6C91461F
:1054880022688BB004340D460792089400F0030B91
:105498001E46002B64D11202032307928DF8256063
:1054A8008DF824302B6DBBF1020F08BFAC6B13F0E5
:1054B800010343D100F00800C2B2039201932768A8
:1054C800002F3DD0022E47D02788B4F8028004343C
:1054D800AB6C28F0010A0F2148469A44FFF760FF99
:1054E800824537D827F001039A4450452CBF002045
:1054F80001204FEA480808F0020807F0010748EAC7
:105508000708B8F1010F41D038D3B8F1020F1DD107
:10551800236823F000420292BBF1000F79D130B129
:105528000399002900F08180002A00F0A880002B50
:1055380079DB029B013304EB8304C0E7002301936A
:10554800022E40DDFFF714FE002842D009200BB0E0
:10555800BDE8F08F0020CCE7D4F804800834B7E722
:10556800022B9FDC130CD9B212048DF825300223CC
:1055780004EB810407928DF8243093E7BBF1000F08
:1055880002D0002840F0B080043498E7BBF1000F47
:1055980026D1B0B194E80C00991C4FEAD272D5D04C
:1055A80005F158010133069100F09480201DFFF7A2
:1055B800D9FD06AB01462846FFF7ACF8002840F0B5
:1055C800B88008347BE707A9484600F0F3FA0028BA
:1055D800BCD1019B002B5CD108200BB0BDE8F08F3B
:1055E8000D2148462F6AFFF7DBFE8742E9D1AB6AF7
:1055F8009C42E6D12046FFF7E9FC0F2102464846C7
:10560800FFF7F4FE48462A460021FFF7EFFE072081
:105618009DE70D2148462F6AFFF7C2FE874248D012
:105628002368002B85DA043483E7029B3BB305F13A
:105638005803271DCDF810B0DDF80C80A346DDF81F
:1056480008A01C46059602E0B245B04616D038467A
:105658000694FFF787FD06AB014600222846FFF7B0
:1056680059F808F1010604370028EDD0029B5C4682
:105678004345DDF810B0059ED2D100E05C464846AF
:105688000D21FFF78DFE069B2862AC626B62062037
:105698005DE70F214846FFF783FE0E210246484684
:1056A800FFF7A4FE48462A4A0F21FFF79FFE07206E
:1056B8004DE7AB6A9C42B3D1042202990027A31894
:1056C800A962EF622A636B632368BB421FDB012375
:1056D80001932EE748460D21FFF762FE2862069BDC
:1056E8006B62AC62062032E72046FFF76FFC043499
:1056F8000646AC632846FFF769F800283FF426AF52
:10570800484632460F21FFF771FE07201FE708467B
:10571800013004EB8000FFF759FC0F210246484690
:10572800FFF764FE48462A463946FFF75FFE072022
:105738000DE707460D214846FFF732FE022F286283
:10574800CDD12B46069A43F82C2F6B62C9E700BFD0
:10575800D54B000800238FE601238DE602238BE654
:10576800F0B50446C5B004290DD8DFE801F05703A9
:105778000C310F00012B4FEA124695B266D172190F
:10578800102A40F29F80022045B0F0BD002BFAD1CC
:10579800102AF8D82368D80600F1C98022AE30460E
:1057A800019200F077F9A06B019A0023012505FA10
:1057B80003F1114203D00168043046F82310013385
:1057C800042BF4D1A063304600F05AF90020DBE73F
:1057D800032BD8D1150C97B2EB19102BD3D823680B
:1057E8001E0700F1B88022AE30467F0000F026F98F
:1057F80006EBC5027B1EA56B57B12946043A51F842
:10580800040B013B42F8040F581CF8D105EB87053F
:105818003046A56300F0F0F80020B5E7002BB2D1C0
:10582800A56B97B2201D012606FA03F1394203F150
:10583800010302D0296804350160102B00F104002F
:10584800F2D112F400503BD1A5639DE7052B9AD104
:105858007719202F97D80F2E65D92F46002D48D1BC
:105868002A460027002AA06B71DD00EBC202014620
:1058780044A800EBC6008C3851F8045B914240F80C
:10588800045FF9D1084697B13246102E44A938BFB3
:10589800102201EBC202A2F5C4727900043A00EBAF
:1058A800810150F8045B814242F8045FF9D1012B71
:1058B80047D00F2EA16332D917B102A800F094F88F
:1058C800002061E70F2E3FF65EAF00272268D10760
:1058D8000DD522F00101052B21600193204652D0FD
:1058E80022F0030240F8482B00F072F8019B002FC9
:1058F80051D02268510736D4012B3ED00F2E06D83E
:1059080022A8019300F06CF8019B002FA8D002A8F0
:10591800019300F06DF8019BC6F11002A2E722A8DE
:1059280000F05AF8C8E7102FCFD9103FCEE723F080
:105938001003236004F5E870019200F0ABF8019AB7
:105948002CE70431A16322A800F03EF8B8E7002F45
:105958009AD10146ABE723F00803236004F5A87049
:1059680000F06CF83FE7204622F0040240F8D02B04
:10597800019300F03DF8019BBEE722A8019300F0D7
:1059880027F8019BC8E741F0020140F8481B00F0E6
:1059980027F8019BABE7012B03D00F2E3FF660AF32
:1059A800AEE722A8019300F013F8019B58E700BF67
:1059B80000F1340191E838009C46A6464CF8045D95
:1059C80090E8FF0FE54600BD90EC210B704700BF43
:1059D80080EC210B704700BF90EC200B704700BF94
:1059E80080EC200B704700BFD0EC200B704700BF45
:1059F800C0EC200B704700BFF0EC0201F0EC021184
:105A0800F0EC0221F0EC0231F0EC0241F0EC025132
:105A1800F0EC0261F0EC0271F0EC0281F0EC029122
:105A2800F0EC02A1F0EC02B1F0EC02C1F0EC02D112
:105A3800F0EC02E1F0EC02F1704700BFE0EC02018B
:105A4800E0EC0211E0EC0221E0EC0231E0EC024172
:105A5800E0EC0251E0EC0261E0EC0271E0EC028162
:105A6800E0EC0291E0EC02A1E0EC02B1E0EC02C152
:105A7800E0EC02D1E0EC02E1E0EC02F1704700BF9B
:105A8800B0FC0181B0FC0191B0FC01A1B0FC01B1F6
:105A9800704700BFA0FC0181A0FC0191A0FC01A1FE
:105AA800A0FC01B1704700BFEC4600B52DE90050DD
:105AB8002DE9FF1F4FF000032DE90C0001A9FFF7A6
:105AC800E7FBDDF840E012B0704700BFEC4600B5D8
