:020000040800F2
:100000000050002021020008290200082D020008EB
:10001000A1020008A5020008ED020008000000008F
:100020000000000000000000000000003503000890
:1000300039030008000000003D030008F913000820
:1000400051030008510300085103000885130008FC
:100050005103000851030008510300085103000830
:100060005103000851030008510300085103000820
:100070005103000851030008510300085103000810
:100080005103000851030008510300085103000800
:1000900051030008510300085103000851030008F0
:1000A00051030008510300085103000851030008E0
:1000B00051030008510300085103000851030008D0
:1000C00051030008510300085103000851030008C0
:1000D00051030008510300085103000851030008B0
:1000E00051030008510300085103000800000000FC
:1000F0000000000000000000000000000000000000
:1001000000000000000000005FF808F100B583B0B7
:1001100000F0B8FF304B314A1360314A1360314B65
:10012000314A03E011681960043304322F498B42CD
:10013000F8D32A4B1A682E4B9A4204D1284B1A68DE
:100140002C4B9A4200D0FEE7234B2B4A13602B4ADC
:1001500013602B4B02E000221A600433294A9342B9
:10016000F9D3254B1B6813B9244B1B6803B1FEE779
:1001700000F094FF694601A800F0FAFE224C234BE0
:100180001C1BA410002504E01F4B53F82530984792
:100190000135AC42F8DC1E4C1E4B1C1BA410002584
:1001A00004E01B4B53F8253098470135AC42F8DC8E
:1001B0000099019801F076FC0546174C174B1C1B63
:1001C000A41004E0013C144B53F824309847002C51
:1001D000F8DC284600F09EFEBABADECA0000002015
:1001E000A000002000000020F8520008A400002019
:1001F0007856341232547698A40000205002002021
:10020000A4000020540200207C0300087C030008A6
:100210007C03000894030008940300089803000876
:1002200008B5FFF773FF00BF00BEFEE71EF0040F26
:100230000CBFEFF30880EFF309807146414A104785
:100240002DE9F04182B004468846134B5E6B9F6BEC
:100250009D6A1B6B13F0020F0DD00F4BDB6A002B56
:1002600009DA4BF6AB6100F095FF20B14FF0004288
:10027000094BDA620CE0094800F0A6FECDF80080D8
:100280003B4632462946204600F00CFF00BEFEE702
:1002900002B0BDE8F08100BF00ED00E04843000877
:1002A00000BEFEE71EF0040F0CBFEFF30880EFF373
:1002B00009807146244A10472DE9F04182B0044676
:1002C0008846084B5E6B9F6B9D6A074800F07CFE7A
:1002D000CDF800803B4632462946204600F0E2FE3B
:1002E00000BEFEE700ED00E0584300081EF0040FDA
:1002F0000CBFEFF30880EFF309807146134A1047F3
:100300002DE9F04182B004468846084B5E6B9F6B36
:100310009D6A074800F058FECDF800803B46324603
:100320002946204600F0BEFE00BEFEE700ED00E0DC
:100330006443000800BEFEE700BEFEE700BEFEE725
:100340007047000041020008B902000801030008DC
:0403500000BEFEE706
:10035400F852000800000020A4000020F852000811
:100364000000000000000000A4000020540200204F
:100374000000000000000000251A0008F520000815
:100384000D260008D1260008552700081928000862
:04039400351A00080E
:1003980010B50446022804D940F20311044800F0BD
:1003A80005FE044B186800F038002043186010BDA3
:1003B800584000080020024010B50446102805D017
:1003C80020B140F22F11064800F0F0FD054B1A68E5
:1003D80022F010021A6018682043186010BD00BF90
:1003E8005840000800200240F8B505460C46464B28
:1003F80098421BD003F58063984217D003F58063B9
:10040800984213D003F5806398420FD003F58063B8
:1004180098420BD003F58063984207D003F58063B8
:10042800984203D0B221394800F0C0FDE3788BB17F
:10043800042B0FD0282B0DD0482B0BD0142B09D010
:10044800102B07D01C2B05D0182B03D0B3212F4815
:1004580000F0ACFD23881BB9B4212C4800F0A6FDA0
:10046800E37803F00F06304613F0100F0AD0A37894
:10047800013BDBB2022B03D9BB21244800F096FDD7
:10048800A07830432378E3B12E68002316E00122D8
:100498009A40218832EA01010FD199000F278F4035
:1004A80026EA070600FA01F10E43E178282901D16E
:1004B8006A6102E0482900D12A610133072BE6D995
:1004C8002E602388FF2B1ED96E68002318E003F1E5
:1004D800080101228A40218832EA01010FD19900DE
:1004E8000F278F4026EA070600FA01F10E43E1784C
:1004F800282900D16A61E178482900D12A610133AD
:10050800072BE4D96E60F8BD000801408C40000854
:1005180070B504460D4616462C4B98421CD003F580
:100528008063984218D003F58063984214D003F58D
:100538008063984210D003F5806398420CD003F58D
:100548008063984208D003F58063984204D040F253
:100558008D111F4800F02AFD6B1E9BB2012B28D974
:10056800042D26D0082D24D0102D22D0202D20D0C7
:10057800402D1ED0802D1CD0B5F5807F19D0B5F543
:10058800007F16D0B5F5806F13D0B5F5006F10D089
:10059800B5F5805F0DD0B5F5005F0AD0B5F5804F91
:1005A80007D0B5F5004F04D04FF4C771084800F0E4
:1005B800FDFC012E04D940F28F11054800F0F6FC2D
:1005C8000EB1256170BD656170BD00BF00080140B6
:1005D8008C40000810B50446012803D97F21034840
:1005E80000F0E4FC024B1C6010BD00BFC0400008D6
:1005F80020000E420D4B1A6842F001021A60596839
:100608000B4A0A405A601A6822F0847222F4803237
:100618001A601A6822F480221A605A6822F4FE02CC
:100628005A604FF41F029A60704700BF00100240E2
:100638000000FFF810B5044650B1B0F5803F07D070
:10064800B0F5802F04D040F211110F4800F0AEFC35
:100658000E4B1A6822F480321A601A6822F480223B
:100668001A60B4F5803F03D0B4F5802F06D010BDD2
:10067800064A136843F48033136010BD034A1368B5
:1006880043F4A023136010BDF0400008001002409E
:1006980038B50C46054650B1B0F5803F07D0B0F5E7
:1006A800403F04D040F27F111D4800F07FFC74B336
:1006B800B4F5802F2BD0B4F5002F28D0B4F5402FF7
:1006C80025D0B4F5801F22D0B4F5A01F1FD0B4F5F3
:1006D800C01F1CD0B4F5E01F19D0B4F5001F16D008
:1006E800B4F5101F13D0B4F5201F10D0B4F5301F87
:1006F8000DD0B4F5401F0AD0B4F5501F07D0B4F59B
:10070800601F04D04FF4C071054800F04FFC054A43
:10071800536823F47C132C431C43546038BD00BF3A
:10072800F04000080010024010B50446012804D922
:100738004FF4CA71024800F039FC024B1C6010BD2E
:10074800F04000086000424210B50446022804D96F
:100758004FF40E71044800F029FC044B586820F04F
:1007680003002043586010BDF0400008001002400C
:10077800024B586800F00C00704700BF00100240A0
:1007880010B50446A0B1802812D0902810D0A02817
:100798000ED0B0280CD0C0280AD0D02808D0E02825
:1007A80006D0F02804D04FF41971054800F0FEFB7C
:1007B800044B586820F0F0002043586010BD00BF7B
:1007C800F04000080010024010B5044680B1B0F5B2
:1007D800806F0DD0B0F5A06F0AD0B0F5C06F07D00C
:1007E800B0F5E06F04D040F27E21054800F0DEFB52
:1007F800044B586820F4E0602043586010BD00BFE7
:10080800F04000080010024010B5044680B1B0F571
:10081800806F0DD0B0F5A06F0AD0B0F5C06F07D0CB
:10082800B0F5E06F04D04FF42671054800F0BEFB28
:10083800044B586820F4605040EAC400586010BD6A
:10084800F04000080010024010B50446012806D9FF
:10085800042804D04FF45071094800F0A7FB094B55
:1008680000221A701A70012C02D0042C04D010BD7A
:100878000122044B1A7010BD0522024B1A7010BDDC
:10088800F04000082010024010B50446B0F5807F03
:100898000AD0B0F5007F07D0B0F5407F04D040F211
:1008A8007231044800F082FB034A136A1C43146245
:1008B80010BD00BFF04000080010024010B504460B
:1008C800012804D94FF46071024800F06FFB024B15
:1008D8001C6010BDF04000083C04424210B4294B93
:1008E8005B6803F00C03042B05D0082B06D013BB60
:1008F800254B036021E0244B03601EE0214A536826
:100908005268C3F38343023312F4803F04D11F4A71
:1009180002FB03F3036010E01A4A526812F4003F26
:1009280004D01A4A02FB03F3036006E0164A02FBEE
:1009380003F3036001E0144B036012494B68C3F3EF
:100948000313134CE35CDAB20368D34043604A688C
:10095800C2F30222A25CD2B223FA02F282604A688F
:10096800C2F3C222A25CD2B2D340C3604A68C2F3C7
:10097800813208498A5CD2B2B3FBF2F3036110BC3E
:10098800704700BF0010024000127A0000093D00C5
:10099800080000200400002038B504460D460E4B20
:1009A800034003B920B940F24A410C4800F0FEFA6E
:1009B800012D04D940F24B41084800F0F7FA25B15F
:1009C800074A93691C43946138BD054A936923EA31
:1009D8000404946138BD00BF0200C0FFF040000865
:1009E8000010024038B504460D460E4B184200D19F
:1009F80020B940F269410C4800F0D8FA012D04D919
:100A080040F26A41084800F0D1FA25B1074AD36993
:100A18001C43D46138BD054AD36923EA0404D46170
:100A280038BD00BF00360181F040000800100240C8
:100A380010B50446012804D94FF49B61024800F020
:100A4800B5FA024B1C6010BDF04000084004424259
:100A580010B50446212818D0312816D0392814D0CA
:100A6800412812D0612810D07A280ED07B280CD0CB
:100A78007C280AD07D2808D07E2806D07F2804D07C
:100A880040F234510D4800F091FA6309012B02D16C
:100A98000B4B1B6806E0022B02D1094B1B6A01E0D5
:100AA800074B5B6A04F01F0423FA04F414F0010FE7
:100AB80001D0012010BD002010BD00BFF04000088B
:100AC8000010024000B583B0002301933120FFF7E6
:100AD800BFFF019B01330193019BB3F5A06F01D0C8
:100AE8000028F3D03120FFF7B3FF08B1012000E060
:100AF800002003B05DF804FB38B504460D4620F02D
:100B080007039BB203B918B95D210B4800F04EFAF0
:100B1800012D03D95E21084800F048FA2DB1074A93
:100B280013889BB21C43148038BD044A1388E443DD
:100B3800A4B21C40148038BD2041000800280040A1
:100B4800034A93889BB243F010039380704700BF19
:100B580000280040034A93889BB223F010039BB2FD
:100B68009380704700280040034A938B9BB2108BF8
:100B780043EA0040704700BF0028004010B5044613
:100B8800B0F5801F03D3A921064800F00FFAFFF73C
:100B9800D7FFC4F30342044B1A81A4B29C81FFF728
:100BA800D9FF10BD2041000800280040034B9B8856
:100BB80003F020039BB2002BF8D0704700280040B8
:100BC80010B5044620F00F039BB203B920B940F2D8
:100BD8001F11054800F0EAF9044A9388E443A4B2D7
:100BE8001C40948010BD00BF204100080028004030
:100BF80010B50446042808D0022806D0012804D0DD
:100C08004FF49971084800F0D1F9084A9388E1B285
:100C18000B401288144202D01BB9002010BD0020DE
:100C280010BD012010BD00BF204100080028004071
:100C380010B5044620F007039BB203B920B94FF45E
:100C4800A671054800F0B2F9044A9388E443A4B2B7
:100C58001C40948010BD00BF2041000800280040BF
:100C68002DE9F04105460C46464B98420BD0A3F5BA
:100C78007843984207D003F58063984203D0A321B4
:100C8800414800F093F9238863B1B3F5806F09D028
:100C9800B3F5004F06D0B3F5404F03D0A6213A482C
:100CA80000F084F96388B3F5827F04D01BB1A721D3
:100CB800354800F07BF9A388B3F5006F04D01BB169
:100CC800A821314800F072F9E3882BB1022B03D038
:100CD800A9212D4800F06AF92389012B03D9AA21FB
:100CE800294800F063F96389B3F5007F04D01BB18C
:100CF800AB21254800F05AF9A3898BB1082B0FD0F6
:100D0800102B0DD0182B0BD0202B09D0282B07D057
:100D1800302B05D0382B03D0AC211B4800F046F906
:100D2800E3892BB1802B03D0AD21174800F03EF9A1
:100D3800238A1BB9AE21144800F038F92B8803F434
:100D4800415720886688A188B4F806802289B4F8BB
:100D58000AC0A389B4F80EE03043084348EA00010A
:100D680011434CEA01021A434EEA02033B432B802B
:100D7800AB8B9BB223F400639BB2AB83238A2B8299
:100D8800BDE8F081003001405041000838B5044604
:100D98000D46124B98420CD0A3F57843984208D0E0
:100DA80003F58063984204D040F2B7110C4800F074
:100DB800FDF8012D04D94FF4DC71094800F0F6F86C
:100DC8002DB123889BB243F04003238038BD23888C
:100DD8009BB223F040039BB2238038BD0030014012
:100DE8005041000838B504460D46094B98420CD0CE
:100DF800A3F57843984208D003F58063984204D05D
:100E080040F23A21034800F0D1F8A58138BD00BF6F
:100E1800003001405041000810B50446094B984283
:100E28000CD0A3F57843984208D003F58063984224
:100E380004D040F24A21044800F0B8F8A08980B2F2
:100E480010BD00BF003001405041000838B50446CD
:100E58000D46124B98420CD0A3F57843984208D01F
:100E680003F58063984204D040F2AE210C4800F0AC
:100E78009DF8012D04D940F2AF21094800F096F8F9
:100E88002DB123889BB243F40053238038BD2388B7
:100E98009BB223F400539BB2238038BD003001403D
:100EA8005041000838B505460C46164B98420CD000
:100EB800A3F57843984208D003F58063984204D09C
:100EC80040F21631104800F071F8802C12D0402CF6
:100ED80010D0202C0ED0102C0CD0082C0AD0042CAA
:100EE80008D0022C06D0012C04D040F21731064855
:100EF80000F05CF82B891C4201D0012038BD00208D
:100F080038BD00BF0030014050410008FEE700BF77
:100F180008B5034800F06CF80120FFF7F7FF00BFA1
:100F28008041000808B50D4B1B6813B90C4A0B4BE0
:100F38001A600A4B1A68C31C23F0030313440949B7
:100F48008B4206D902F018FC0C2303604FF0FF30E7
:100F580008BD02490B60104608BD00BFA80000206C
:100F680054020020004C002001230360014B0B6059
:100F7800704700BF1800002000B583B00C46194622
:100F880013460AB1064A00E0064A03B9054B019325
:100F9800009223460246044800F012F8FFF7B8FF13
:100FA8009441000828420008A441000808B50A46F0
:100FB8000146024800F004F8FFF7AAFFD4410008F0
:100FC8000FB400B583B004AB53F8042B0193802110
:100FD800064802F013FD002803DD0146034800F02F
:100FE80049F803B05DF804EB04B07047B000002086
:100FF80010B5044602F0CEFC0146204600F03AF84F
:101008000121024800F036F810BD00BFC4420008B4
:101018002DE9F04385B004460F46435C13BB042515
:1010280028462146ABBE04461FE03546102E28BF91
:101038001025002306E014F8011B04AA1A4402F83C
:10104800101C0133AB42F6D304AA1344002203F860
:10105800102CE9464FF0040840464946ABBE80468E
:10106800761B00E00E46002EDFD1384605B0BDE8FD
:10107800F08300BF08B5FFF7CBFF08BD08B500F047
:10108800FBF8024B024A9A6008BD00BF00ED00E081
:101098000000000808B500F017F908BDF8B50446C7
:1010A8000D4617461E462648FFF78AFF2168254841
:1010B800FFF786FF61682448FFF782FFA16823488D
:1010C800FFF77EFFE1682248FFF77AFF2169214890
:1010D800FFF776FF61692048FFF772FFA1691F4893
:1010E800FFF76EFFE1691E48FFF76AFF1D48FFF72B
:1010F80067FF29461C48FFF763FF1C4CE16A1C4840
:10110800FFF75EFF216B1B48FFF75AFFE16B1A4898
:10111800FFF756FF15F0800F03D039461748FFF741
:101128004FFF15F4004F03D031461548FFF748FF2D
:101138001448FFF745FF06991348FFF741FFF8BD2C
:101148002C4200083C4200084C4200085C4200085F
:101158006C4200087C4200088C4200089C4200084F
:10116800AC420008BC420008C842000800ED00E09C
:10117800D8420008E8420008F8420008084300087E
:1011880018430008284300083043000883691A8878
:101198008A4207D10268033A012A05D802338361DB
:1011A80001207047002070470020704782B000235C
:1011B800019300932C4A136843F4803313602A4B3D
:1011C8001B6803F400330093019B01330193009BD8
:1011D8001BB9019BB3F5A06FF1D1234B1B6813F426
:1011E800003F02D00123009301E000230093009BFD
:1011F800012B36D11D4B1A6842F010021A601A688A
:1012080022F003021A601A6842F002021A60A3F57B
:1012180080535A685A605A685A605A6842F4806221
:101228005A605A6822F47C125A605A6842F4E812EA
:101238005A601A6842F080721A600B4B1B6813F0F0
:10124800007FFAD0084B5A6822F003025A605A68A5
:1012580042F002025A60044B5B6803F00C03082B4F
:10126800F9D102B0704700BF0010024000200240D0
:1012780008B5FFF79BFF08BD08B5104B1A6842F088
:1012880001021A6059680E4A0A405A601A6822F028
:10129800847222F480321A601A6822F480221A605A
:1012A8005A6822F4FE025A604FF41F029A60FFF750
:1012B800DFFF4FF00062034B9A6008BD0010024048
:1012C8000000FFF800ED00E01F4B5B6803F00C0323
:1012D800042B06D0082B08D03BBB1C4A1C4B1A60B9
:1012E80026E01A4A1A4B1A6022E0174A53685268D5
:1012F800C3F38343023312F4803F05D1154A02FB3E
:1013080003F3134A136013E00F4A526812F4003FC4
:1013180005D0104A02FB03F30D4A136008E00B4A9C
:1013280002FB03F30A4A136002E0084A084B1A60FA
:10133800054B5B68C3F30313074AD35CDAB204496D
:101348000B68D3400B6070470010024000127A000F
:101358003000002000093D002000002082B0064B2C
:101368001B680193044B1B680093019B0344009A7C
:101378009342F7D802B070473001002030B583B0EF
:101388001648FFF735FE0120FFF732FC18B3FFF7C8
:10139800EBFB0446124BA3FB0023DB0A114DAB60A9
:1013A8004FF4616101FB13010F4BA3FB01235B09A0
:1013B8006B60C3EB03139A008A1A2A600120FFF7B7
:1013C80037FCFFF7F3FBAA686B6829680091214690
:1013D8000648FFF7F5FD03B030BD00BF74430008B1
:1013E800C5B3A29134010020898888888443000805
:1013F80082B0044B1A6801321A601B68019302B06C
:10140800704700BF3001002008B5FFF7F3F84FF42C
:101418008030FFF70FF9FFF755FB012824D1002092
:10142800FFF7AEF90020FFF7EFF94FF48060FFF700
:10143800CBF90220FEF7ACFF1020FEF7BDFF4FF4FA
:10144800E0114FF48030FFF723F90120FFF76CF922
:101458003920FFF7FDFA0028FAD00220FFF774F9C7
:10146800FFF786F90828FBD101210420FFF794FA39
:1014780001210820FFF790FA01211020FFF78CFACC
:1014880001212020FFF788FA01214FF40010FFF70F
:10149800A9FA01214FF48050FFF77EFA012108468E
:1014A800FFF77AFA012141F20500FFF775FA08BD46
:1014B80008B501214FF0C050FFF794FA0120FFF75B
:1014C80089F80020FFF7B4FAFFF770FB0820FFF750
:1014D80077FBFFF76BFB4FF48070FFF7D5F9FFF749
:1014E80065FB0120FFF7B0F9FFF760FB0120FFF76C
:1014F800E5F9FFF75BFB4FF40040FFF73FFB0121E5
:101508000846FFF7F9FA08BDF0B587B01026ADF820
:10151800006003248DF802408DF80360204D694671
:101528002846FEF761FFA023ADF800308DF8024091
:1015380018238DF8033069462846FEF755FF4FF407
:101548004043ADF804304FF48273ADF806304FF4E1
:101558000063ADF808300024ADF80A40ADF80C403F
:101568004FF40073ADF80E300823ADF81030ADF825
:1015780012400723ADF814300A4F01A93846FFF787
:101588006FFB21463846FFF761FC01213846FFF71B
:10159800FDFB012231462846FEF7BAFF07B0F0BD31
:1015A800000801400030014008B501460648FFF731
:1015B80019FC02210448FFF775FC0028F9D00248FD
:1015C800FFF72AFC08BD00BF003001402DE9F04FAD
:1015D8009DB0019145682DB96C4B6D4A1B216D4832
:1015E800FFF7CAFC83464FF0040A5446AAF10403E5
:1015F800DBF80020D15C0822674B03EBC1011AA875
:1016080002F0DEF8012D0BD9AAF10303DBF8002064
:10161800D15C0822604B03EBC10118A802F0D0F896
:10162800022D0AD9A31EDBF80020D15C08225A4BF0
:1016380003EBC10116A802F0C3F8032D0AD9013C37
:10164800DBF80030195D0822534B03EBC10114A8E5
:1016580002F0B6F8042D0AD9DBF8003013F80A10A6
:1016680008224D4B03EBC10112A802F0A9F8042D82
:1016780001D9082700E001270026BE4277D20024BE
:10168800072C65D821461CAB234413F8082C0023EB
:101698001CA800EBC40040E91A23012D0BD91CA893
:1016A800204410F8100C00020DF1700E0EEBC40E61
:1016B80002434EE91A23022D0CD91CAB0B4413F834
:1016C800180C00041CAB03EBC10E5EE91A2302439D
:1016D8004EE91A23032D0ED91CAB0B4413F8200C2A
:1016E80000061CAB03EBC10E5EE91A23024343EA72
:1016F800E0734EE91A23042D10D91CAB0B4413F8E0
:10170800289C4FF000081CAB03EBC10050E91A23DA
:1017180042EA080243EA090340E91A231CAB03EB37
:10172800C10151F8683C51F8641CC6F12002A6F1C9
:101738002000F34001FA02F2134321FA00F0C4F149
:101748000801C9B2184300F051F90134E4B297E72F
:101758003EB9BAF1040F04D14FF47A70FFF7FEFDD9
:1017680002E00198FFF7FAFD0136F6B285E70AF1C3
:10177800010A5FFA8AFA55453FF637AF0449074828
:10178800FFF71EFC1DB0BDE8F08F00BF2C4C000811
:10179800D8430008384C00082C440008504C000876
:1017A80010B50A4B1C68094B5B689C420CD0236837
:1017B8001A780423013206490648FFF701FC54F859
:1017C800040B00F0C5F8EEE710BD00BF780100205B
:1017D800A0430008704C00082DE9F04389B0044686
:1017E8000D4601284CD14FF6FF73994248D101208C
:1017F80000F042FC002606700490012000F03CFC3A
:10180800012707700590384600F036FC0223037064
:101818000690384600F030FC03230370079004ABB1
:1018280002930423039302AA92E803008DE80300BD
:101838001A4B1E605E609E6081468E00B71046B1EE
:10184800B7F1804F01D300F08BFDB80000F014FC15
:1018580000E00020114B186000EB0608C3F8088070
:101868001FB13246494601F0B6FF0C4BC3F804805D
:1018780006E00A4B186808B100F064F900F04AFC69
:1018880044B94FF6FF739D4204D1044B186808B160
:1018980000F058F909B0BDE8F08300BF78010020D6
:1018A80008B5FFF781FE08BD2DE9F041032A05D9E7
:1018B8001B4B1C4A5B211C48FFF75EFB074688460A
:1018C8001546002210211948FEF722FE0024C5F112
:1018D80003039C4205DAFF20FFF7E2FF0134E4B27C
:1018E800F5E748EA0720FFF7DBFF7B1EDBB2072B93
:1018F80005D8013F0E4B03EBC50606F80780002408
:10190800AC4205D2FF20FFF7CBFF0134E4B2F7E782
:10191800012210210548FEF7FBFDBDE8F08100BF5C
:10192800104D0008884C0008FC4C000800080140D5
:101938005801002038B505460024072C07D8013483
:10194800E4B22A7800212046FFF7AEFFF5E738BD5C
:1019580070B506460024072C0BD8327804F0010134
:101968000F20FFF7A1FF2820FFF7F8FC0134E4B2AD
:10197800F1E7327800210F20FFF796FF3278012136
:101988000C20FFF791FF327800210920FFF78CFF28
:10199800327807210B20FFF787FF32780F210A20C2
:1019A800FFF782FF3046FFF7C5FF0125082D19D83C
:1019B8000024082C13D805D132780021E8B2FFF7AB
:1019C80073FF06E00121A1403278C9B2E8B2FFF7FF
:1019D8006BFF0520FFF7C2FC0134A4B2E9E701352B
:1019E800ADB2E3E73046FFF7A5FF70BDF8B507468F
:1019F8000E46094B1C685D68AC420CD054F8043B99
:101A08001A78D300FF2199403940D940C9B23046ED
:101A1800FFF74AFFF0E7F8BD7801002008B54FF658
:101A2800FF710120FFF7D8FE08BD00BF08B54FF6CB
:101A3800FF710020FFF7D0FE08BD00BF70B582B06F
:101A480005460E4619B9914203D1002302E000234E
:101A580000E0012313B1104800F085FC941B0194A9
:101A68000F2C07D9002201A9284600F083FC286022
:101A7800019BAB602868012C02D13378037004E025
:101A88001CB12246314601F09BFE019B6B602A681F
:101A98000021D15402B070BD4C4D000800B58DB086
:101AA80021492248FFF78CFAFFF7AEFC01A8FEF7A0
:101AB80015FF1F4A029BA2FB03239B09023BB3F1BC
:101AC800807F09D21B4A5360F0211B4B83F82310F7
:101AD8000023936007231360FFF7EAFCFFF714FD68
:101AE800FFF75EFE1548FFF76BFA08AB069314493B
:101AF8004FF000030A46123906A8FFF79FFF4FF47C
:101B0800FA7106A8FFF762FD069808AB9842ECD078
:101B180000F018F8E9E7069808AB984201D000F001
:101B280011F800F0F7FA00BF344D0008784D0008AE
:101B3800D34D621010E000E000ED00E0884D000891
:101B4800AE4D000801F026BE70B50023A0EBC0061C
:101B5800C0EBC00210F8015B941905F07F02A240A7
:101B680013432A06F4D40B6070BD00231A4630B51F
:101B780010F8014B04F07F0595402B43250602F130
:101B88000702F5D41F2A06D8640642BF4FF0FF3477
:101B980004FA02F213430B6030BD5028F7B505462E
:101BA8000F4614461E4605D1D01C20F0030050F8FD
:101BB800043B33E000F00F030C2B23D8DFE803F0DD
:101BC8001A07121A1E222222220C161A1E0001A916
:101BD8002046FFF7B9FF03E001A92046FFF7C5FF3C
:101BE800019B11E0204630F8023B0DE0204630F919
:101BF800023B09E0204650F8043B05E0204650F837
:101C0800083B01E0FFF784F943B105F07002102AA0
:101C180018BF3C462A06234448BF1B68336003B0FC
:101C2800F0BD08B50346FF2B08461CD003F070032F
:101C3800202B0ED003D8B3B1102B12D113E0402BB8
:101C48000BD0502B0FD0302B0BD1BDE8084001F042
:101C58008FBDBDE8084001F087BDBDE8084001F030
:101C680073BDFFF755F9002008BD70B50C46014655
:101C7800204615461E46FFF7D4FF33462A4601463E
:101C88002046BDE87040FFF788BF73B50E4614467E
:101C9800054610B101F058FDFFE720603178721C4D
:101CA800FF2905D0231D2846FFF7DFFF024600E085
:101CB80060601378501CFF2B237507D01023237501
:101CC80001A9FFF741FF019B034400E00023E36003
:101CD800037801A963750130FFF736FF019B0344C0
:101CE800236102B070BD1FB503AB009300230A4601
:101CF800194600F09FFF039805B05DF804FB00004B
:101D08002DE9F04F002391B0049300F00303012B59
:101D180007460C4615460ED002D3022B02D0EFE040
:101D2800020717D52946204601F0FAFC08B1092018
:101D38009FE108209DE100F0080202F0FF065AB971
:101D4800D1F8208028460D21FFF7CDFF804520D10E
:101D5800062602E0012600E0022610AB43F82C4DCF
:101D6800009307F0080700233E430C221946284633
:101D780000F086FF062E17D1D4F83080A76AB8F194
:101D8800000FD4F82C900CBF4FF0010A4FF0030A53
:101D980005E110AA42F82C4D0092334631460C2238
:101DA800284600F06DFF0226284601F0D3FC814644
:101DB8000028B7D00AAA01462846FFF766FF294639
:101DC80080469DF83C00FFF72CFF0F210C90284619
:101DD800FFF789FF20F00100471E0E9B984580F011
:101DE8003F81424606AB9DF83D100020FFF73DFFBE
:101DF80007AB02469DF83D100020FFF736FF08AB01
:101E080002469DF83D100020FFF72FFF09A9FFF7B4
:101E18009BFE069B0A9A804613449F4202D2DDF835
:101E28003880DAE7079A13449F42D6D2089818B147
:101E38000B9B00EB030800E08046099810B10E9F49
:101E480001383844B8F1000F3FF46CAF002800F0B7
:101E58000C8116F00803029314D0472323704E23F5
:101E680063705523A3704323E370462323714F23E4
:101E780063715223A3710023E3714FF0000A6FF0DE
:101E8800030B1BE0E379012B0CBF54F8203C04F151
:101E980058030493F1E704270D9A09AB07FB1122B5
:101EA8000C99FFF77AFE0999002900F0D5806CBBE0
:101EB800089F002F59D0039B3B44184607A9FFF7FA
:101EC80054FE08A90390FFF750FE0799002949D04E
:101ED80025DD9DF83C00FF2814D000F00703042BF3
:101EE8000ED801A252F823F09F1E0008091F00080F
:101EF800111F00089F1E0008051F00080827CBE7D0
:101F0800FFF706F80027C7E70227C5E704AB00225A
:101F1800204600F023F9002840F09E80C8E70D9F76
:101F28004A1CB4B1029BA3B90BFB0272049B171F96
:101F3800069357F8041F41B106AB002239442046E6
:101F480000F00CF90028F4D0012181F00101C9B298
:101F580005E00BFB02F2B958B1FA81F149090029F1
:101F6800A6D079E04FF0010AA2E7BAF1000F3FF4DA
:101F7800D9AE4FF0020AF30711D5BAF1020F3FF4B8
:101F8800D1AE0D212846049EFFF7ADFE66622062A1
:101F9800A762C4F82C90C4F83080062069E016F0D7
:101FA800080608D0BAF1010F01D100F087F8002F18
:101FB80024DA00F095F8BAF1010F02D1204600F0BA
:101FC80012FA002F1ADA0AAA49462846FFF75DFED8
:101FD80029469DF83C00FFF724FE6FF0030307FB3A
:101FE80003330D9A0C90134453F826200AB1013696
:101FF800FAE70422A662E0622263636310AB43F847
:102008001C4D009300231A461946284600F038FE56
:1020180010AB43F8207D009300231946012228467F
:1020280000F02EFE0F212846FFF75DFE00F00100AC
:1020380010AB40EA080043F8240D009300230F2258
:102048001946284600F01CFEBAF1020F02D12046BC
:1020580000F0E0F807200CE0079F4FF0030A8AE73A
:102068004FF000084FF0010A01E04FF0020A002784
:1020780081E711B0BDE8F08F10B5002814BF044601
:102088000124204601F07EFB30B900F0CFF908B9F1
:10209800FEF73EFF8047F4E710BD00000048704798
:1020A8008401002008B58047FEF732FF024B18680C
:1020B800BFF35F8F704700BF3400002008B5FFF7FB
:1020C800F5FFFFF7EFFF08B58047FFF7F7FF0000C0
:1020D800024B1868BFF35F8F704700BF38000020BD
:1020E80008B5FFF7F5FFFFF7EEFF000038B5084C1D
:1020F8004FF41E652846E56001F044FBA06010B966
:10210800E060606038BD002360600560436038BDF2
:10211800900100201EB400F09AF81EBC01F03AF9B4
:102128000378472B17D143784E2B14D18378552B3E
:1021380011D1C378432B0ED10379432B0BD14379AB
:102148002B2B08D183792B2B05D1C07901288CBF83
:102158000020012070470020704700002DE9F3415E
:102168001D4603780E46472B0246C17943D1437872
:102178004E2B40D18378552B3DD1C378432B3AD190
:102188000379462B37D143794F2B34D18379522B9E
:1021980031D100292FD108460123002401947BB9AD
:1021A80080B901290ABF52F8203CA2F12003783BEC
:1021B80001290CBF52F8202C58321C68019202E009
:1021C800124C00E0124C236820469B68984720B1C7
:1021D800019B02271B68019300E00127336801AACD
:1021E800D3F81080214601233046C04758B1019BDF
:1021F80038462B6007E01046FFF792FF80F0010099
:10220800C0B20023C9E702B0BDE8F081D04D000894
:10221800FC4D000810B50446FFF740FF0246204673
:10222800A4F12001FFF77CFF50B154F8043C0133BE
:10223800012B44F8043C08D1936844F8083C03E0B7
:1022480093680BB1FFF73AFF9160012010BD10B5FC
:10225800FFF724FF826801460AB9FFF72FFF02F152
:1022680020042046FFF75CFF38B1D369013BD361F6
:1022780023B990698860936100E08860204610BDAA
:102288007FB5102302930368002415469E690094C5
:102298006B468DF8044003941268B0479DF80430EB
:1022A80003F00603062B11BF2046009B01202B607C
:1022B80004B070BD009890420CBF06200120704702
:1022C80010B50446024B036000F082F9204610BDA9
:1022D8000C4E000810B50446FFF7F2FF2046FFF742
:1022E80031FC204610BD38B515461C4600F073F980
:1022F80020B10823E36006232560237138BD2DE94A
:10230800F041069E9846089B07469E421546099C42
:1023180003D1079900F05FF948B94146384600F003
:102328005AF928B1012326602571A37100E065716F
:102338000020BDE8F0812DE9F04105460C4616461F
:102348001F4600F048F948B9032F07D823683246DA
:1023580029462046BDE8F0415B691847BDE8F08191
:1023680008B5FEF7D5FD08B5FEF7D2FD08B5FEF7AE
:10237800CFFD000008B50B68B3F1004F02D30A483F
:10238800FFF7F4FF934209D95200934206D2B2F103
:10239800004F2ABF6FF000430A600B600868BDE871
:1023A80008400130FFF768BE5E4E00080378472BEF
:1023B80017D143784E2B14D18378552B11D1C3787C
:1023C800432B0ED10379432B0BD143792B2B08D107
:1023D80083792B2B05D1C07901288CBF00200120DF
:1023E80070470020704710B5044648B100F043F824
:1023F8002046FFF7DBFF18B154F8140CFFF752FE24
:10240800FFF75CFE38B50246FFF7D0FF18B152F867
:10241800184C002501E004460125104600F02BF871
:102428000DB1FFF75DFE2046FFF74DFE024B186821
:10243800BFF35F8F704700BFA00100200378472BD0
:1024480017D143784E2B14D18378552B11D1C378EB
:10245800432B0ED10379432B0BD143792B2B08D176
:1024680083792B2B05D1C07901288CBF002001204E
:1024780070470020704738B50546FFF70FFE014644
:1024880002682846A5F12004FFF7D8FF28B90AB149
:10249800FFF714FE0C60144615E055F80C3C28466E
:1024A800002BB4BFC3F10103013345F80C3C4B6862
:1024B800A24203F1FF334B601CBF45F8102C0C609F
:1024C8006C6A00F0AFFB204638BD000010B504462A
:1024D800024B0360FFF7F4FE204610BD2C500008A5
:1024E80010B50446FFF7F2FF2046FFF72BFB204606
:1024F80010BD2DE9F14F0E461946834617469946F9
:102508000A9CDDF82CA0DDF830800D9D00F063F802
:1025180078B1002E2C602F7106DB3444A0450CBF27
:1025280006240124AC711EE002361CD10123AB71D4
:1025380019E0444504D15146584600F04CF888B992
:10254800DBF808003A4603680D95CDF83080CDF8E1
:102558002CA00A94DC6931464B46A44601B0BDE87C
:10256800F04F60476F71002001B0BDE8F08F2DE992
:10257800F041069E804696420F4614461D4603D1FA
:10258800194600F028F858B9D8F808002246036818
:1025980006961E6A39462B46B446BDE8F0416047A8
:1025A8000620BDE8F0812DE9F04104460D461646A7
:1025B8001F46FFF798FE48B9A068324603682946C7
:1025C8009C693B46A446BDE8F0416047BDE8F08100
:1025D800704700207047814208B50ED040680378E4
:1025E8002A2B0CD049680B782A2B08BF013101F03F
:1025F800C7F9B0FA80F0400908BD012008BD0020E5
:1026080008BD0000244B1A68D0075CBF01221A607D
:10261800224B1A68D1075CBF01221A60204B1A6846
:10262800D2075CBF01221A601E4B1A68D0075CBF34
:1026380001221A601C4B1A68D1075CBF01221A607C
:102648001A4B1A68D2075CBF01221A60184B1A6825
:10265800D0075CBF01221A60164B1A68D1075CBF0D
:1026680001221A60144B1A68D2075CBF01221A6053
:10267800124B1A68D0075CBF01221A60104B1A6807
:10268800D1075CBF01221A600E4B1A68D2075CBFE3
:1026980001221A60704700BFD0010020CC01002041
:1026A800C8010020C4010020C0010020BC01002096
:1026B800B8010020B4010020B0010020AC010020C6
:1026C800A8010020A4010020184B1A68D1075CBF9C
:1026D80001221A60164B1A68D2075CBF01221A60E1
:1026E800144B1A68D0075CBF01221A60124B1A6893
:1026F800D1075CBF01221A60104B1A68D2075CBF71
:1027080001221A600E4B1A68D0075CBF01221A60BA
:102718000C4B1A68D1075CBF01221A600A4B1A6871
:10272800D2075CBF01221A60704700BFF001002089
:10273800EC010020E8010020E4010020E001002075
:10274800DC010020D8010020D4010020244B1A68A5
:10275800D0075CBF01221A60224B1A68D1075CBF00
:1027680001221A60204B1A68D2075CBF01221A6046
:102778001E4B1A68D0075CBF01221A601C4B1A68EE
:10278800D1075CBF01221A601A4B1A68D2075CBFD6
:1027980001221A60184B1A68D0075CBF01221A6020
:1027A800164B1A68D1075CBF01221A60144B1A68CD
:1027B800D2075CBF01221A60124B1A68D0075CBFAF
:1027C80001221A60104B1A68D1075CBF01221A60F7
:1027D8000E4B1A68D2075CBF01221A60704700BF0F
:1027E800200200201C0200201802002014020020F1
:1027F800100200200C020020080200200402002021
:1028080000020020FC010020F8010020F401002053
:10281800184B1A68D1075CBF01221A60164B1A6858
:10282800D2075CBF01221A60144B1A68D0075CBF3C
:1028380001221A60124B1A68D1075CBF01221A6084
:10284800104B1A68D2075CBF01221A600E4B1A6837
:10285800D0075CBF01221A600C4B1A68D1075CBF15
:1028680001221A600A4B1A68D2075CBF01221A605B
:10287800704700BF400200203C02002038020020C0
:1028880034020020300200202C0200202802002000
:102898002402002003685A004CBF43F0004323F091
:1028A80000431844704700BF61B32DE9F84F01F1A8
:1028B800FF3A90460646D146002707EB090404EB89
:1028C800D4746410E50071190846FFF7E3FFA245C8
:1028D800834605F10800304409D0FFF7DBFFC34504
:1028E80000F1FF3005D8404509D2671CE5E7C3452C
:1028F80005D9A74202D004F1FF39DEE700210846D6
:10290800BDE8F88F08467047012807D0022807D08D
:10291800044B00280CBF1846002070470248704737
:102928000248704725300008293000082D3000087B
:1029380030B5254B83B004468D1E7BB301A92846CC
:10294800AFF3008020B301992A46FFF7ADFF014697
:10295800F0B1FFF79FFF4B68A064012B12D0002B4A
:1029680001F1040021DBFFF795FF0023E0642365F4
:102978000368002B1DDBFFF78DFF0023206118463D
:1029880003B030BD002323610523184603B030BDD2
:10299800002323610923184603B030BD0B490C4BB3
:1029A8000846591AC9100191CEE70123E06423654E
:1029B800DEE7C3F30360FFF7A7FF0028206114BF19
:1029C80000230923DBE700BF00000000B051000826
:1029D800F8520008036810B5DA07044606D49B07C6
:1029E80000F1480009D500F05BFC2368590709D5B8
:1029F8001A070ED5DB0613D510BD00F049FC236875
:102A08005907F5D404F1D00000F052FC23681A07E6
:102A1800F0D404F5A87000F053FC2368DB06EBD46F
:102A280004F5E870BDE8104000F08EBC03680BB1F7
:102A3800184470471846704709207047704700BF10
:102A480070B504460D4608E02A6C23696261214688
:102A58002A4601209847082808D1296C2046FFF704
:102A680067FF06460028EFD0FEF752FA0728FBD189
:102A78003046296CFFF7E2FF281D00F0FDFB00BF80
:102A88002DE9F0470646ADF5727D03AD0C1D1746DE
:102A98000FCC0FC50FCC0FC50FCC0FC594E80F0096
:102AA80002ACD6F80C80D6F8189085E80F00002301
:102AB8003046216C2360FFF73BFF0546002F14BF0B
:102AC8000A2709277DB1A36B47F010018DE8100292
:102AD8003246636401203346C04778BB28460DF56B
:102AE800727DBDE8F087236C4FF4F0727361214664
:102AF8007AA800F065FE33697AAA314638469847C5
:102B0800889B82468DE81002394663643246334614
:102B18000120C04790B94FF4F0727AA9204600F01E
:102B28004FFEBAF1080F06D1216C3046FFF700FFBF
:102B380009270546C6E7BAF1070F04D009200DF5A5
:102B4800727DBDE8F0872846216CFFF777FF03A860
:102B580000F092FB406C7047F0B5CB6BF9B00B649A
:102B68000E1D01AD0F4604460FCE0FC50FCE0FC583
:102B78000FCE0FC596E80F004FF0FF3685E80F001F
:102B8800009606E023696A462146984708280546C4
:102B980008D110992046FFF7CBFE0028F2D0092073
:102BA80079B0F0BD6846FFF715FF062DF7D1394615
:102BB8002046FFF745FF00BF30B4DD6BC16082617E
:102BC80019461D64002230BC5AE700BF70B543693E
:102BD800C6680B6426B10122FFF752FFFEF798F989
:102BE80003690A4604460D4601460220984707280D
:102BF80007D0082803D129462046FFF721FFFEF712
:102C080087F93046296CFFF719FF281D00F034FBBF
:102C1800C2682AB110B4CC6B00220C6410BC2FE738
:102C28009AE700BF704700BF836813B101460120CF
:102C38001847704700B5042907D8DFE801F00309F1
:102C4800060909000BB90F2A05D902205DF804FB13
:102C580001205DF804FB00EB820252681846019BD4
:102C68001A605DF804FB00BF10B584B0002303AC04
:102C78000A4600941946FFF7DDFF039804B010BD1B
:102C880000B5042907D8DFE801F00309060909009F
:102C98000BB90F2A05D902205DF804FB01205DF865
:102CA80004FB019900EB82020968184651605DF83F
:102CB80004FB00BF10B584B004AC44F8042D002315
:102CC8000A4600941946FFF7DBFF04B010BD00BFA9
:102CD800F0B5D36BADF50F7D1364151D17AC074622
:102CE8000E460FCD0FC40FCD0FC40FCD0FC495E8FE
:102CF8000F004FF0FF3584E80F00169511E016A875
:102D08006A46FFF7D7FF314616A8B84780B9049B33
:102D180016AA6946082098470528044609D00928B4
:102D280006D026996846FFF703FE0C210028E6D056
:102D3800092416A8FFF74EFE20460DF50F7DF0BDBD
:102D48002DE9F04FCC6C914622688BB004340D46C7
:102D58000792089400F0030B1E46002B64D1120260
:102D6800032307928DF825608DF824302B6DBBF175
:102D7800020F08BFAC6B13F0010343D100F0080049
:102D8800C2B2039201932768002F3DD0022E47D08C
:102D98002788B4F802800434AB6C28F0010A0F21AC
:102DA80048469A44FFF760FF824537D827F0010369
:102DB8009A4450452CBF002001204FEA480808F0EB
:102DC800020807F0010748EA0708B8F1010F41D0E7
:102DD80038D3B8F1020F1DD1236823F000420292C4
:102DE800BBF1000F79D130B10399002900F081803F
:102DF800002A00F0A880002B79DB029B013304EB4A
:102E08008304C0E700230193022E40DDFFF714FE80
:102E1800002842D009200BB0BDE8F08F0020CCE795
:102E2800D4F804800834B7E7022B9FDC130CD9B21E
:102E380012048DF82530022304EB810407928DF8E3
:102E4800243093E7BBF1000F02D0002840F0B08097
:102E5800043498E7BBF1000F26D1B0B194E80C0018
:102E6800991C4FEAD272D5D005F158010133069169
:102E780000F09480201DFFF7D9FD06AB01462846D7
:102E8800FFF76CF9002840F0B88008347BE707A901
:102E9800484600F0F3FA0028BCD1019B002B5CD116
:102EA80008200BB0BDE8F08F0D2148462F6AFFF7C8
:102EB800DBFE8742E9D1AB6A9C42E6D12046FFF7A8
:102EC800E9FC0F2102464846FFF7F4FE48462A4629
:102ED8000021FFF7EFFE07209DE70D2148462F6AE6
:102EE800FFF7C2FE874248D02368002B85DA0434F6
:102EF80083E7029B3BB305F15803271DCDF810B0BB
:102F0800DDF80C80A346DDF808A01C46059602E013
:102F1800B245B04616D038460694FFF787FD06AB93
:102F2800014600222846FFF719F908F1010604377F
:102F38000028EDD0029B5C464345DDF810B0059EA5
:102F4800D2D100E05C4648460D21FFF78DFE069B76
:102F58002862AC626B6206205DE70F214846FFF7E6
:102F680083FE0E2102464846FFF7A4FE48462A4A39
:102F78000F21FFF79FFE07204DE7AB6A9C42B3D1B4
:102F8800042202990027A318A962EF622A636B63DF
:102F98002368BB421FDB012301932EE748460D211E
:102FA800FFF762FE2862069B6B62AC62062032E77E
:102FB8002046FFF76FFC04340646AC632846FFF74B
:102FC80029F900283FF426AF484632460F21FFF77B
:102FD80071FE07201FE70846013004EB8000FFF769
:102FE80059FC0F2102464846FFF764FE48462A4628
:102FF8003946FFF75FFE07200DE707460D214846D3
:10300800FFF732FE022F2862CDD12B46069A43F8ED
:103018002C2F6B62C9E700BF0D24000800238FE640
:1030280001238DE602238BE6F0B50446C5B00429DA
:103038000DD8DFE801F057030C310F00012B4FEAE0
:10304800124695B266D17219102A40F29F8002206A
:1030580045B0F0BD002BFAD1102AF8D82368D8065D
:1030680000F1C98022AE3046019200F077F9A06BDA
:10307800019A0023012505FA03F1114203D00168E2
:10308800043046F823100133042BF4D1A0633046F2
:1030980000F05AF90020DBE7032BD8D1150C97B2C2
:1030A800EB19102BD3D823681E0700F1B88022AE85
:1030B80030467F0000F026F906EBC5027B1EA56BA3
:1030C80057B12946043A51F8040B013B42F8040F62
:1030D800581CF8D105EB87053046A56300F0F0F8D9
:1030E8000020B5E7002BB2D1A56B97B2201D0126B1
:1030F80006FA03F1394203F1010302D029680435C5
:103108000160102B00F10400F2D112F400503BD101
:10311800A5639DE7052B9AD17719202F97D80F2EF5
:1031280065D92F46002D48D12A460027002AA06BD2
:1031380071DD00EBC202014644A800EBC6008C38E2
:1031480051F8045B914240F8045FF9D1084697B101
:103158003246102E44A938BF102201EBC202A2F554
:10316800C4727900043A00EB810150F8045B814293
:1031780042F8045FF9D1012B47D00F2EA16332D951
:1031880017B102A800F094F8002061E70F2E3FF66F
:103198005EAF00272268D1070DD522F00101052B6B
:1031A80021600193204652D022F0030240F8482BB8
:1031B80000F072F8019B002F51D02268510736D4D5
:1031C800012B3ED00F2E06D822A8019300F06CF8F0
:1031D800019B002FA8D002A8019300F06DF8019B75
:1031E800C6F11002A2E722A800F05AF8C8E7102F8B
:1031F800CFD9103FCEE723F01003236004F5E87021
:10320800019200F0ABF8019A2CE70431A16322A8DF
:1032180000F03EF8B8E7002F9AD10146ABE723F05B
:103228000803236004F5A87000F06CF83FE7204617
:1032380022F0040240F8D02B019300F03DF8019BE6
:10324800BEE722A8019300F027F8019BC8E741F0E8
:10325800020140F8481B00F027F8019BABE7012B5F
:1032680003D00F2E3FF660AFAEE722A8019300F01F
:1032780013F8019B58E700BF00F1340191E83800CA
:103288009C46A6464CF8045D90E8FF0FE54600BD55
:1032980090EC210B704700BF80EC210B704700BFFA
:1032A80090EC200B704700BF80EC200B704700BFEC
:1032B800D0EC200B704700BFC0EC200B704700BF5C
:1032C800F0EC0201F0EC0211F0EC0221F0EC02311A
:1032D800F0EC0241F0EC0251F0EC0261F0EC02710A
:1032E800F0EC0281F0EC0291F0EC02A1F0EC02B1FA
:1032F800F0EC02C1F0EC02D1F0EC02E1F0EC02F1EA
:10330800704700BFE0EC0201E0EC0211E0EC0221A2
:10331800E0EC0231E0EC0241E0EC0251E0EC026149
:10332800E0EC0271E0EC0281E0EC0291E0EC02A139
:10333800E0EC02B1E0EC02C1E0EC02D1E0EC02E129
:10334800E0EC02F1704700BFB0FC0181B0FC0191D4
:10335800B0FC01A1B0FC01B1704700BFA0FC018125
:10336800A0FC0191A0FC01A1A0FC01B1704700BF25
:10337800EC4600B52DE900502DE9FF1F4FF0000382
:103388002DE90C0001A9FFF7E7FBDDF840E012B0DA
:10339800704700BFEC4600B52DE900502DE9FF1F2E
:1033A8004FF000032DE90C0001A9FFF70FFCDDF831
:1033B80040E012B0704700BFEC4600B52DE9005060
:1033C8002DE9FF1F4FF000032DE90C0001A9FFF7BD
:1033D8001FFCDDF840E012B0704700BFEC4600B5B6
:1033E8002DE900502DE9FF1F4FF000032DE90C00D7
:1033F80001ABFFF7E1FBDDF840E012B0704700BF1A
:10340800EC4600B52DE900502DE9FF1F4FF00003F1
:103418002DE90C0001AAFFF75BFCDDF840E012B0D3
:10342800704700BF037A1BB9437A43B9B02070478D
:103438005A1E036802721A020260180E7047426828
:10344800013B10B4437213680321141D01721A0260
:103458004460026010BC180E704700BF00B585B00C
:1034680003AA0023009219460C22FFF7E3FB0398F6
:1034780005B05DF804FB00BFF0E700BF2DE9F0439D
:1034880006460D4685B04FF000082846FFF7CAFFEC
:10349800B028044600F0B48020F07F0313F0FF0347
:1034A80020D000F0F003802B7AD0902B35D0A02BC1
:1034B80048D0B02B5CD0C02B00F0898000F0F80316
:1034C800D02B0BD100F00702013242F40022052371
:1034D80001213046FFF7A8FD0028D6D0092005B005
:1034E800BDE8F0830DF10C0919468700CDF800906E
:1034F8000D223046FFF79EFBFFB2039B04376006A0
:103508004CBFDF1BFF180023CDF8009019460D2291
:1035180030460397FFF7B4FBB7E700F00D030D2B18
:10352800DCD003AF002300F00F02194600973046A5
:10353800FFF780FB0023009719460D223046FFF75E
:103548009FFBA2E7C2434FF47F6302F0070243FAEE
:1035580002F2010702EA03024FF0000348BF42F4F7
:10356800804219463046FFF75FFD0028B6D18CE748
:10357800B1284AD0B22853D0B32800F0818000F097
:10358800FC03B42BAAD000F007020132012342F455
:10359800002219463046FFF747FD00289ED174E700
:1035A8002846FFF73FFF24022043B0F5004F95D08F
:1035B80004010023A2B219463046FFF735FD002862
:1035C8008CD114F4004F18BF4FF001085DE7C628EE
:1035D80062D0C7286CD000F0F803C02B7BD0C82875
:1035E80000F09180C9287FF479AF2846FFF71AFFC9
:1035F800020300F00F0002F470220130024366E774
:10360800B8F1000F6ED0002069E72846FFF70AFFDF
:10361800024600283FF462AF10F0F003B9D05DE72E
:1036280000230DF10C090D221946CDF80090304603
:10363800FFF700FB2846FFF7F5FE02064FF00204ED
:103648000CD5039B00F07F00A04003442846039359
:10365800FFF7E8FE030604F10704F2D4039B00F029
:103668007F0000FA04F203F5017400231444CDF836
:10367800009019460D2230460394FFF701FB04E73A
:103688002846FFF7CFFE010300F00F0001F4702178
:10369800421C01230A437CE72846FFF7C3FE0103C7
:1036A80000F00F0001F47021421C03230A4370E765
:1036B8002846FFF7B7FE024600283FF40FAF10F088
:1036C800F0037FF40BAF04213046FFF7ADFC002870
:1036D8007FF404AFD9E600F00F020132032342F46D
:1036E800202256E703AC43460E224146009430465A
:1036F800FFF7A0FA0094304643460F224146FFF7F1
:10370800BFFA4046EBE62846FFF78CFE00F0F002D1
:1037180000F00F031032013343EA0232D7E600BF4C
:1037280010B5C36C84B003205A688DF80C00DC799E
:1037380012020833084601A901928DF80D40029340
:10374800FFF79CFE04B010BD08B5FFF795FE806C2E
:1037580008BD00BF08B5FFF78FFEC36CD87903EB2F
:103768008000083008BD00BF08B5FDF7D1FB00BFD9
:1037780008B5FFF7F9FF00BF014B1868704700BF95
:103788009C000020024B0146186800F08BB800BF6F
:103798009C000020024B0146186800F037B800BFB3
:1037A8009C00002010B5C9B202449042034605D0DF
:1037B8001C7801308C42F8D1184610BD002010BD8D
:1037C80010B5431E0A44914204D011F8014B03F886
:1037D800014FF8E710BD884210B501EB020301D88C
:1037E800421E0BE09842FBD28118D21AD34204D071
:1037F80013F8014D01F8014DF8E710BD994204D0C6
:1038080011F8014B02F8014FF8E710BD38B505462D
:10381800002944D051F8043C0C1F002BB8BFE41811
:1038280000F0FAF81E4A1368114613B96360146071
:1038380030E0A3420DD92268A018834201BF18685E
:103848005B681218226063600C6023E0A24203D810
:1038580013465A68002AF9D118681918A1420BD1E1
:103868002168014458188242196013D110685268BF
:10387800014419605A600DE002D90C232B6009E05D
:1038880021686018824201BF1068526809182160D7
:1038980062605C602846BDE8384000F0BEB838BDBC
:1038A8004802002070B5CD1C25F0030508350C2D05
:1038B80038BF0C25002D064601DBA94202D90C238E
:1038C800336046E000F0A8F8234B1C681A462146EE
:1038D800A1B10B685B1B0ED40B2B03D90B60CC1862
:1038E800CD501EE08C420BBF63684B681360636069
:1038F80018BF0C4615E00C464968E9E7174C2368E1
:103908001BB9304600F02CF820602946304600F0FC
:1039180027F8431C18D0C41C24F00304A0420DD17E
:103928002560304600F079F804F10B00231D20F0E3
:103938000700C31A0ED05A42E25070BD211A304611
:1039480000F00EF80130EBD10C233360304600F064
:1039580064F8002070BD00BF480200204402002027
:1039680038B5064C0023054608462360FDF7DAFA09
:10397800431C02D1236803B12B6038BD4C020020E0
:1039880010F8012B11F8013B012A28BF9A42F7D001
:10399800D01A7047034613F8012B002AFBD1181AD6
:1039A8000138704730B5141E05469BB0184604DA36
:1039B8008B232B604FF0FF301DE04FF40273ADF8FE
:1039C8000C300CBF234604F1FF33029305934FF6E6
:1039D800FF7300910491ADF80E3002461E9B6946B4
:1039E800284600F075F8431CBCBF8B232B6014B12C
:1039F800009B00221A701BB030BD000007B5009371
:103A080013460A46014603480068FFF7CBFF03B098
:103A18005DF804FB9C000020704770472DE9F047D3
:103A28008E6882469E420C46914698463ED88A89C0
:103A380012F4906F3AD02568096902236F1A6569F4
:103A480005EB450595FBF3F57B1C43449D4238BFC8
:103A58001D4653050FD52946FFF724FF064698B1A2
:103A68003A462169FFF7ACFEA38923F4906343F03B
:103A78008003A38113E02A4600F0BAFA064670B91B
:103A880021695046FFF7C2FE0C23CAF80030A3890B
:103A98004FF0FF3043F04003A381BDE8F087266173
:103AA8003E44266046466561ED1BA560464528BF35
:103AB8004646494632462068FFF78DFEA368002037
:103AC8009B1BA36023681E442660BDE8F0870000A6
:103AD8002DE9F04F9DB003938B8980461C060D4657
:103AE80016460DD50B695BB94021FFF7DBFE286050
:103AF800286118B90C23C8F80030CDE040236B6169
:103B08000023099320238DF82930DFF89CB1302356
:103B18008DF82A3037463C4614F8013B1BB9B7EB01
:103B2800060910D003E0252BF9D02746F3E74B46CA
:103B3800324629464046FFF771FF013000F0A78062
:103B4800099B4B4409933B78002B00F0A08000238D
:103B58004FF0FF3204930793059206938DF8533084
:103B68001A930126052221784E48FFF71BFE671C91
:103B7800049B38B14B4A3C46801A06FA00F01843B9
:103B88000490EFE7D90644BF20228DF853201A0786
:103B980044BF2B228DF8532022782A2A03D0079A73
:103BA80000210A200BE0039A111D12680391002AD4
:103BB80010DA524243F00200079204900BE02746C5
:103BC8003B780134303B092B03D800FB023201213A
:103BD800F5E701B107923B782E2B1ED17B782A2B73
:103BE8000AD1039B02371A1D1B680392002BB8BF2A
:103BF8004FF0FF33059310E0002319460593781C16
:103C08000A2407463A780130303A092A03D804FBD7
:103C180001210123F5E703B10591032239782248F0
:103C2800FFF7C0FD40B14023CBEB000003FA00F0E2
:103C3800049B013718430490397806221B487E1CE0
:103C48008DF82810FFF7AEFD88B1194B33B9039BE7
:103C5800073323F007030833039314E003AB0093FF
:103C68002A46144B04A94046AFF3008007E003AB93
:103C780000932A460F4B04A9404600F093F8B0F190
:103C8800FF3F824603D0099B5344099342E7AB891F
:103C98005B0601D4099801E04FF0FF301DB0BDE884
:103CA800F08F00BFFC5000080251000806510008C0
:103CB80000000000253A00082DE9F04791461F460C
:103CC8000A698B6806469342B8BF1346C9F80030A4
:103CD80091F843200C46DDF8208012B10133C9F871
:103CE80000302368990642BFD9F800300233C9F87A
:103CF8000030256815F0060510D104F1190A07E00F
:103D08000123524639463046C04701301AD00135A2
:103D1800E368D9F800209B1A9D42F1DB94F8433000
:103D28002268003318BF012392060FD5E11830200E
:103D380081F843005A1C94F845102244023382F853
:103D4800431003E04FF0FF30BDE8F08704F1430271
:103D580039463046C0470130F4D02268D9F80050BF
:103D6800E36802F00602042A08BF5D1B2269A36803
:103D78000CBF25EAE57500259342C4BF9B1AED18D0
:103D88004FF000091A344D4509D00123224639461F
:103D98003046C0470130D5D009F10109F3E70020CA
:103DA800BDE8F0872DE9F04317460A7E85B06E2AF4
:103DB800984606460C460C9B01F1430E00F0AE8077
:103DC80011D8632A22D009D8002A00F0BB80582ACB
:103DD80040F0CA8081F84520834955E0642A1ED006
:103DE800692A1CD0C0E0732A00F0B08009D86F2A75
:103DF8002ED0702A40F0B8800A6842F020020A608B
:103E08003EE0752A24D0782A3AD0ADE01A6801F14C
:103E18004205111D1960136884F84230A8E0216832
:103E28001A6811F0800F02D0111D196008E011F016
:103E3800400F02F10401196002D0B2F9003000E02D
:103E48001368002B3CDA2D225B4284F8432037E0CC
:103E580021681A6811F0800F02D0111D196007E05F
:103E680011F0400F02F10401196001D0138800E03D
:103E78001368227E5C496F2A14BF0A2208221BE0BD
:103E880078225A4984F845202268186812F0800F71
:103E980000F104051D6003D1550601D5038800E033
:103EA8000368D00744BF42F0200222601BB9226891
:103EB80022F0200222601022002084F8430001E052
:103EC80049490A226568002DA56008DB206820F0B2
:103ED800040020602BB9002D7DD175460CE0002B25
:103EE80079D07546B3FBF2F002FB1033CB5C05F8D2
:103EF800013D03460028F5D1082A0BD12368DA07CB
:103F080008D5236962689A42DEBF302305F8013C70
:103F180005F1FF35C5EB0E0323612EE008681A682A
:103F280010F0800F496903D0101D1860136808E06D
:103F380010F0400F02F104001860136801D01980D6
:103F480000E0196000232361754616E01A68111D08
:103F580019601568002162682846FFF723FC08B13C
:103F6800401B6060636804E004F1420584F8422065
:103F780001232361002384F84330CDF800803B46B9
:103F880003AA21463046FFF797FE013002D14FF0D1
:103F9800FF3026E023692A4639463046C0470130BB
:103FA800F5D023689B0710D5002504F1190907E00F
:103FB80001234A4639463046C0470130E7D001352B
:103FC800E368039A9B1A9D42F2DBE068039B9842E0
:103FD800B8BF184605E00B7804F1420584F8423072
:103FE8008AE705B0BDE8F0830D5100081E510008AE
:103FF800F8B5074615460E4621B91146BDE8F84002
:10400800FFF750BC1AB9FFF701FC2846F8BD00F0CD
:1040180015F885420ED929463846FFF743FC044671
:1040280050B131462A46FFF7CBFB31463846FFF7F9
:10403800EDFB01E03046F8BD2046F8BD51F8040C10
:104048000028BEBF091851F8043CC018043870474E
:104058002E2E2F73797374656D2F7372632F73749B
:104068006D333266312D7374647065726970682FB0
:1040780073746D3332663130785F666C6173682EA5
:10408800630000002E2E2F73797374656D2F737281
:10409800632F73746D333266312D73746470657277
:1040A8006970682F73746D3332663130785F67706A
:1040B800696F2E63000000002E2E2F7379737465CC
:1040C8006D2F7372632F73746D333266312D737471
:1040D800647065726970682F73746D33326631303D
:1040E800785F7077722E63002E2E2F737973746544
:1040F8006D2F7372632F73746D333266312D737441
:10410800647065726970682F73746D33326631300C
:10411800785F7263632E63002E2E2F737973746534
:104128006D2F7372632F73746D333266312D737410
:10413800647065726970682F73746D3332663130DC
:10414800785F7274632E63002E2E2F7379737465F3
:104158006D2F7372632F73746D333266312D7374E0
:10416800647065726970682F73746D3332663130AC
:10417800785F7370692E630061626F727428292CEE
:104188002065786974696E672E2E2E002C2066755E
:104198006E6374696F6E3A20000000006173736586
:1041A8007274696F6E2022257322206661696C65BE
:1041B800643A2066696C6520222573222C206C697C
:1041C8006E65202564257325730A00006173736585
:1041D80072745F706172616D2829206661696C650F
:1041E800643A2066696C6520222573222C206C694C
:1041F8006E652025640A00006D61696E286172672A
:10420800633D25642C20617267763D5B00000000E9
:104218002C20000022257322000000005D293B0AA3
:1042280000000000537461636B206672616D653A2B
:104238000A000000205230203D2020253038580A3E
:1042480000000000205231203D2020253038580A37
:1042580000000000205232203D2020253038580A26
:1042680000000000205233203D2020253038580A15
:104278000000000020523132203D20253038580AF5
:1042880000000000204C52203D2020253038580ADC
:1042980000000000205043203D2020253038580AD7
:1042A8000000000020505352203D20253038580A85
:1042B800000000004653522F4641523A0A000000BF
:1042C8002043465352203D2020253038580A00000C
:1042D8002048465352203D2020253038580A0000F7
:1042E8002044465352203D2020253038580A0000EB
:1042F8002041465352203D2020253038580A0000DE
:10430800204D4D464152203D20253038580A0000A6
:104318002042464152203D2020253038580A0000CE
:104328004D6973630A000000204C522F4558435FC3
:1043380052455455524E3D20253038580A00000049
:104348005B486172644661756C745D0A0000000028
:104358005B4275734661756C745D0A005B557361E9
:1043680067654661756C745D0A000000525443200D
:10437800496E746572727570740A00005254432055
:10438800496E746572727570742025643A202564CC
:104398003A25643A25640000737461746963207671
:1043A8006F6964204170706C69636174696F6E3AFB
:1043B8003A4C6564577261707065723A3A496E6931
:1043C800744C65645772617070657228290000002A
:1043D80073746174696320766F6964204170706CCE
:1043E80069636174696F6E3A3A4C656457726170BB
:1043F8007065723A3A446973706C61795374726982
:104408006E67287374643A3A5F5F63787831313A3B
:104418003A737472696E672C2075696E7431365FF1
:104428007429000000000000000000007E81A581C2
:10443800BD99817E7EFFDBFFC3E7FF7E367F7F7FEE
:104448003E1C0800081C3E7F3E1C08001C3E1C7FCA
:104458007F6B081C08081C3E7F3E081C00000000FB
:104468000000000000000000000000000000000044
:10447800000000000000000000000000F0E0F0BEB6
:104488003333331E3C6666663C187E180000000015
:1044980000000000FEC6FEC6C6E66703995A3CE760
:1044A800E73C5A9901071F7F1F07010040707C7F76
:1044B8007C704000183C7E18187E3C18666666665C
:1044C80066006600FEDBDBDED8D8D8007EC31E336C
:1044D800331E311F000000007E7E7E00183C7E18CF
:1044E8007E3C18FF183C7E18181818001818181861
:1044F8007E3C18000018307F30180000000C067F42
:10450800060C000000000303037F0000002466FF80
:104518006624000000183C7EFFFF000000FFFF7EBD
:104528003C18000000000000000000000C1E1E0CDB
:104538000C000C00363636000000000036367F3698
:104548007F3636000C3E031E301F0C000063331804
:104558000C6663001C361C6E3B336E0006060300B7
:1045680000000000180C0606060C1800060C1818A7
:10457800180C060000663CFF3C660000000C0C3F6F
:104588000C0C000000000000000E0C060000003FAC
:104598000000000000000000000C0C006030180C47
:1045A800060301001E333B3F37331E000C0F0C0C73
:1045B8000C0C3F001E33301C06333F001E33301CEA
:1045C80030331E00383C36337F3030003F031F3015
:1045D80030331E001C06031F33331E003F333018D0
:1045E8000C0606001E33331E33331E001E33333EC3
:1045F80030180E0000000C0C000C0C0000000C0C15
:10460800000E0C06180C0603060C180000003F00EC
:104618003F000000060C1830180C06001E33301836
:104628000C000C003E637B7B7B031E000C1E3333A7
:104638003F3333003F66663E66663F003C660303D1
:1046480003663C003F36666666363F007F46161EA8
:1046580016467F007F46161E16060F003C660303AB
:1046680073667C003333333F333333001E0C0C0C3A
:104678000C0C1E007830303033331E006766361E4F
:10468800366667000F06060646667F0063777F6B0F
:104698006363630063676F7B736363001C366363E4
:1046A80063361C003F66663E06060F001E33333332
:1046B8003B1E38003F66663E1E3667001E33071CE9
:1046C80038331E003F2D0C0C0C0C1E0033333333D3
:1046D80033333F0033333333331E0C006363636B70
:1046E8007F7763006363361C366363003333331E9E
:1046F8000C0C1E007F33190C46637F001E0606064D
:1047080006061E0003060C18306040001E18181814
:1047180018181E00081C3663000000000000000086
:10472800000000FF0C0C18000000000000001E3004
:104738003E336E0007063E6666663D0000001E3387
:1047480003331E003830303E33336E0000001E3312
:104758003F031E001C36060F06060F0000006E33CE
:10476800333E301F0706366E666667000C000E0C77
:104778000C0C1E0018001E1818181B0E07066636AB
:104788001E3667000E0C0C0C0C0C1E000000377F48
:104798006B63630000001F333333330000001E33A4
:1047A80033331E0000003B66663E060F00006E3382
:1047B800333E307800001B3636060F0000003E03FB
:1047C8001E301F00080C3E0C0C2C18000000333360
:1047D80033336E0000003333331E0C000000636374
:1047E8006B7F3600000063361C36630000003333ED
:1047F800333E301F00003F190C263F00380C0C07D1
:104808000C0C38001818180018181800070C0C3869
:104818000C0C07006E3B000000000000081C36630B
:1048280063637F001E330303331E0C06003300331B
:1048380033337E00180C1E333F031E007EC33C60DA
:104848007C66FC0033001E303E337E00060C1E30B2
:104858003E337E003C663C607C66FC00001E3303F1
:10486800331E0C067EC33C667E063C0033001E33B6
:104878003F031E00060C1E333F031E0033000E0CC0
:104888000C0C1E003E631C1818183C00060C0E0C7D
:104898000C0C1E00330C1E33333F33000C120C1E5D
:1048A800333F3300180C3F061E063F000000FE3061
:1048B800FE33FE007C36337F333373001E33001E15
:1048C80033331E000033001E33331E00060C001E57
:1048D80033331E001E33003333337E00060C00339F
:1048E80033337E0000330033333F301F63003E63B1
:1048F80063633E003300333333331E0000003E73DE
:104908006B673E001C36260F06673F005C36736BEC
:1049180067361D000000331E0C1E330070D8187E49
:1049280018181B0E180C1E303E337E00180C0E0C87
:104938000C0C1E003018001E33331E0030180033D4
:1049480033337E006E3B001F333333006E3B00373A
:104958003F3B33003C36367C007E00003C66663CBC
:10496800007E00000C000C0603331E003C5AA59D77
:1049780095663C000000003F3030000067361E7E20
:10498800C67319F867361ECEE6B3F9C000180018CA
:10499800183C3C1800CC663366CC0000003366CC6B
:1049A800663300004411441144114411AA55AA5514
:1049B800AA55AA55BBEEBBEEBBEEBBEE18181818ED
:1049C80018181818181818181F18181830180C1E46
:1049D800333F33001E210C1E333F330003060C1EE9
:1049E800333F33003C429D859D423C006C6C6F60B8
:1049F8006F6C6C6C6C6C6C6C6C6C6C6C00007F60BD
:104A08006F6C6C6C6C6C6F607F00000018187E0314
:104A1800037E181833331E3F0C3F0C0C00000000B7
:104A28001F18181818181818F8000000181818185F
:104A3800FF00000000000000FF18181818181818C8
:104A4800F818181800000000FF00000018181818BF
:104A5800FF1818186E3B1E303E337E006E3B0C1E4E
:104A6800333F33006C6CEC0CFC0000000000FC0CC5
:104A7800EC6C6C6C6C6CEF00FF0000000000FF0039
:104A8800EF6C6C6C6C6CEC0CEC6C6C6C0000FF00EC
:104A9800FF0000006C6CEF00EF6C6C6C00417F361F
:104AA800367F41001B0E1B303C361C003F36666FBC
:104AB80066363F001E213F061E063F0033003F06B4
:104AC8001E063F00060C3F061E063F0000030207B5
:104AD80000000000180C1E0C0C0C1E001E211E0CE1
:104AE8000C0C1E0033001E0C0C0C1E001818181895
:104AF8001F00000000000000F8181818FFFFFFFF53
:104B0800FFFFFFFF00000000FFFFFFFF181818005D
:104B180018181800060C1E0C0C0C1E00FFFFFFFFD7
:104B280000000000180C3E6363633E00001E331F44
:104B3800331F03033E413E6363633E000C183E632C
:104B480063633E006E3B001E33331E006E3B3E63C4
:104B580063633E0000666666663E060300071E360F
:104B68001E060F000F063E663E060F00180C333374
:104B780033331E001E21003333331E00060C33333B
:104B880033331E00180C0033333F301F180C3333F7
:104B98001E0C1E00003F000000000000180C000062
:104BA80000000000000000003F0000000C0C3F0C5B
:104BB8000C003F000000003F003F000067341ECC9F
:104BC800E7B3F9C0FEDBDBDED8D8D8007EC31E33DE
:104BD800331E311F0C0C003F000C0C0000000000BD
:104BE80000000C061C36361C0000000000330000D4
:104BF8000000000000000000180000001C1E18182B
:104C08007E0000003E703C703E0000001E301C0616
:104C18003E00000000003C3C3C3C0000000000005E
:104C2800000000006C656E677468203E203000004C
:104C38002E2E2F7372632F4C6564577261707065E6
:104C4800722E637070000000546F6D2068617320CD
:104C58006E6F7420696D706C656D656E7465642027
:104C68002573207965740A0025733A20496E6974A2
:104C7800204E722E20256420766F6E2025640A004F
:104C880073746174696320766F696420447269760D
:104C980065723A3A4D4158373231393A3A53656E6E
:104CA8006444617461546F416464726573732875F8
:104CB800696E74385F742C2075696E74385F742C53
:104CC8002075696E74385F742900000075384E7558
:104CD8006D626572203C204E554D5F4D415837320C
:104CE80031395F494E5F44414953595F434841490F
:104CF8004E0000002E2E2F7372632F4D415837320D
:104D080031392E637070000075384E756D203C2067
:104D18004E554D5F4D4158373231395F494E5F44EA
:104D2800414953595F434841494E0000696E742018
:104D38006D61696E28696E742C20636861722A2A15
:104D48002900000062617369635F737472696E673A
:104D58003A3A5F4D5F636F6E737472756374206E59
:104D6800756C6C206E6F742076616C69640000004D
:104D78005265626F6F74202D3E2025730A00000073
:104D8800456E746572696E67206D61696E206C6F1F
:104D98006F700A0053747279706520627920546FBD
:104DA8006D204C696E7A00004E31305F5F63787811
:104DB800616269763131355F5F666F726365645F22
:104DC800756E77696E6445000C4E0008B04D00089A
:104DD8004E31305F5F637878616269763131395F6F
:104DE8005F666F726569676E5F6578636570746921
:104DF8006F6E45000C4E0008D84D000800000000FA
:104E0800304E0008C9220008DD220008DB25000812
:104E1800DB2500083F23000889220008EF2200084C
:104E280007230008BD2200082C5000083C4E00084B
:104E3800845000084E31305F5F637878616269762C
:104E48003131375F5F636C6173735F747970655F6D
:104E5800696E666F450062617369635F7374726936
:104E68006E673A3A5F4D5F637265617465002573DA
:104E78003A205F5F706F73202877686963682069DC
:104E88007320257A7529203E20746869732D3E7336
:104E9800697A6528292028776869636820697320FA
:104EA800257A75290062617369635F737472696E2C
:104EB800673A3A61743A205F5F6E202877686963C1
:104EC8006820697320257A7529203E3D2074686919
:104ED800732D3E73697A6528292028776869636885
:104EE80020697320257A75290062617369635F738D
:104EF8007472696E673A3A657261736500626173CC
:104F080069635F737472696E673A3A5F4D5F726581
:104F1800706C6163655F6175780062617369635F76
:104F2800737472696E673A3A696E73657274006277
:104F3800617369635F737472696E673A3A72657018
:104F48006C6163650062617369635F737472696E33
:104F5800673A3A5F4D5F7265706C616365006261C4
:104F68007369635F737472696E673A3A61737369E0
:104F7800676E0062617369635F737472696E673A22
:104F88003A617070656E640062617369635F73741F
:104F980072696E673A3A636F707900626173696328
:104FA8005F737472696E673A3A636F6D70617265A8
:104FB8000062617369635F737472696E673A3A5F1E
:104FC8004D5F636F6E737472756374206E756C6C6D
:104FD800206E6F742076616C696400626173696326
:104FE8005F737472696E673A3A62617369635F737B
:104FF8007472696E670062617369635F7374726962
:105008006E673A3A73756273747200737472696E7C
:10501800673A3A737472696E670000000000000016
:1050280050500008D5240008E9240008DB250008B2
:10503800DB2500083F23000889220008AF25000867
:10504800FB240008772500082C5000085C50000855
:10505800304E00084E31305F5F6378786162697660
:105068003132305F5F73695F636C6173735F74794A
:1050780070655F696E666F45000000000C4E0008A1
:105088008C500008537439747970655F696E666F67
:105098000000000000000000000000000000000008
:1050A80000000000000000000000000000000000F8
:1050B80000000000000000000000000000000000E8
:1050C80000000000000000000000000000000000D8
:1050D80000000000000000000000000000000000C8
:1050E80000000000000000000000000000000000B8
:1050F80000000000232D302B2000686C4C006566F2
:105108006745464700303132333435363738394110
:105118004243444546003031323334353637383926
:07512800616263646566002B
:1051300008B10181B0B000840000000008B1018115
:10514000B0B000840000000008B10181B0B000845C
:1051500000000000B5CBFF7FB0AD0800FFFF010EDF
:10516000182800006E0A9A0100A401040000000043
:1051700008B10181B0B00084000000008DCBFF7F3A
:1051800000840C00FFFF010D085A000068047A003B
:10519000860104000000000008B10181B0B0008465
:1051A0000000000008B10181B0B0008400000000E0
:1051B000B4C1FF7F01000000CCC1FF7FB0A9028015
:1051C00038C2FF7F0100000048C2FF7F64FFFF7FFD
:1051D000E8C2FF7F68FFFF7F38C3FF7FB0AB068068
:1051E000D0C3FF7F64FFFF7FECC3FF7FB0AF1C80A5
:1051F000B8C5FF7FB0B0A880E8C5FF7F58FFFF7F2C
:10520000A8C6FF7F6CFFFF7FA8C6FF7FB0B0AC8051
:105210002CC7FF7FA908B18040C7FF7FB0B0AA802C
:10522000D4C7FF7FAB08B180FCC7FF7F010000003F
:1052300014C8FF7FB0AA01806CC8FF7F40FFFF7FCA
:105240000CC9FF7F01000000F0D6FF7FB0A90280EB
:105250008CD7FF7FB0B0A880DCD7FF7F01000000B3
:10526000E8D7FF7FB0B0AA8020D8FF7FAE71B280B0
:10527000ECD8FF7F01000000E8D8FF7FAB3F38800B
:1052800040D9FF7F010000004CD9FF7FB0B0AA8059
:1052900088D9FF7F0100000040DAFF7FAB0EB280AB
:1052A000A8DAFF7FB0AF0A807CDDFF7F010000003D
:1052B00080DDFF7FAB3F0480C8DFFF7F010000007F
:1052C000A4E1FF7F00840480B8E1FF7F01000000BB
:1052D000B4E1FF7FB0AD048050E4FF7FB0A803804D
:1052E00070E4FF7FB4FEFF7F74E4FF7FB8FEFF7FB2
:0852F00080E4FF7F01000000D3
:1052F8007856341202040608000000000102030474
:105308000102030406070809AC00002000000000A1
:10531800000000000000000001020304060708095D
:1053280000A24A04190F0008C52000080000000068
:105338009C500008BC500008DC5000080000000029
:105348000000000000000000000000000000000055
:105358000000000000000000000000000000000045
:105368000000000000000000000000000000000035
:105378000000000000000000000000000000000025
:105388000000000000000000000000003C000020B9
:04539800325476987D
:040000050800010DE1
:00000001FF
