:020000040800F2
:1000000000500020850200088D02000895020008BB
:1000100021030008290300088103000800000000F4
:10002000000000000000000000000000D9030008EC
:10003000E103000800000000E90300088D22000829
:1000400009040008090400080904000861220008E6
:10005000090400080904000809040008090400084C
:10006000090400080904000809040008090400083C
:10007000090400080904000809040008090400082C
:10008000090400080904000809040008090400081C
:10009000090400080904000809040008090400080C
:1000A00009040008090400080904000809040008FC
:1000B00009040008090400080904000809040008EC
:1000C00009040008090400080904000809040008DC
:1000D00009040008A922000809040008090400080E
:1000E00009040008090400080904000800000000D1
:1000F0000000000000000000000000000000000000
:1001000000000000000000005FF808F180B58EB02C
:1001100000AF01F081FE494B494A1A60494B484AF9
:100120001A60494BFB62494BBB62494B7B62BB6A1D
:100130003B6207E03B6A1A1D3A62FA6A111DF962D6
:1001400012681A607A6A3B6A9A42F3D83B4B1B6882
:10015000404A934204D13B4B1B683F4A934200D034
:10016000FEE73E4B364A1A603D4B354A1A603D4B1E
:100170007B633D4BFB617B6BBB6104E0BB691A1D7C
:10018000BA6100221A60FA69BB699A42F6D8334B09
:100190001B68002B03D1324B1B68002B00D0FEE7FD
:1001A00001F048FE3A463B1D1146184601F056FD47
:1001B0002E4A2F4BD31A9B10FB600023BB6007E035
:1001C0002B4ABB6852F823309847BB680133BB60A9
:1001D000FA68BB689A42F3DC264A274BD31A9B1075
:1001E000FB600023BB6007E0234ABB6852F8233062
:1001F0009847BB680133BB60FA68BB689A42F3DC7E
:100200007B683A681146184604F0BEFF38631B4A03
:100210001B4BD31A9B107B617B693B6108E03B69F8
:10022000013B174A52F8233098473B69013B3B6139
:100230003B69002BF3DC386B01F0CCFC00000020A4
:10024000BABADECA5C0200204CA3000800000020FD
:1002500060020020785634123254769860020020F2
:100260003C04002060020020400400203804000804
:100270003804000854040008380400085C0400082E
:100280005404000880B500AFFFF740FF80B400AF12
:1002900000BEFEE71EF0040F0CBFEFF30880EFF383
:1002A00009807146554A104700BF00BF80B588B02D
:1002B00002AF78603960184B5B6B7B61164B9B6BB0
:1002C0003B61154B9B6AFB60134B1B6B03F00203F6
:1002D000002B10D0104BDB6A002B0CDA4BF6AB6115
:1002E000786801F043FE0346002B04D00A4B4FF020
:1002F0000042DA620CE0094801F0F4FC3B6800932C
:100300003B697A69F968786801F09AFD00BEFEE7FA
:100310001837BD4680BD00BF00ED00E0B891000871
:1003200080B400AF00BEFEE71EF0040F0CBFEFF379
:100330000880EFF309807146314A104700BF00BFC3
:1003400080B588B002AF786039600B4B5B6B7B6126
:10035000094B9B6B3B61084B9B6AFB60074801F0B4
:10036000C1FC3B6800933B697A69F968786801F0E1
:1003700067FD00BEFEE700BF00ED00E0C891000889
:100380001EF0040F0CBFEFF30880EFF309807146F5
:100390001C4A104700BF00BF80B588B002AF78602C
:1003A00039600B4B5B6B7B61094B9B6B3B61084B73
:1003B0009B6AFB60074801F095FC3B6800933B6932
:1003C0007A69F968786801F03BFD00BEFEE700BF7E
:1003D00000ED00E0D491000880B400AF00BEFEE75D
:1003E00080B400AF00BEFEE780B400AF00BEFEE701
:1003F00080B400AF00BFBD4680BC7047AD020008AE
:10040000410300089903000880B400AF00BEFEE776
:100410004CA3000800000020600200204CA300084C
:1004200000000000000000006002002040040020E6
:100430000000000000000000B92F0008695100080A
:10044000C9580008E95F0008AD6000083161000884
:0C045000F5610008C92F00087951000870
:10045C0080B584B000AF78600023FB607B68002B14
:10046C000AD07B68012B07D07B68022B04D040F2AA
:10047C0003110A4801F022FC094B1B68FB60FB6866
:10048C0003F03803FB60FA687B681343FB60044A93
:10049C00FB68136000BF1037BD4680BD8C8E000812
:1004AC000020024080B582B000AF78607B68102BD2
:1004BC0007D07B68002B04D040F22F11094801F0C3
:1004CC00FDFB094A084B1B6823F010031360064917
:1004DC00054B1A687B6813430B6000BF0837BD4699
:1004EC0080BD00BF8C8E00080020024080B588B013
:1004FC0000AF786039600023FB6100233B6100236F
:10050C00BB610023FB6000237B610023BB607B6825
:10051C00824A93421BD07B68814A934217D07B68F6
:10052C00804A934213D07B687F4A93420FD07B68FA
:10053C007E4A93420BD07B687D4A934207D07B68FE
:10054C007C4A934203D0B2217B4801F0B7FB3B6855
:10055C00DB78002B1FD03B68DB78042B1BD03B686F
:10056C00DB78282B17D03B68DB78482B13D03B6803
:10057C00DB78142B0FD03B68DB78102B0BD03B684F
:10058C00DB781C2B07D03B68DB78182B03D0B3210E
:10059C00694801F093FB3B681B88002B03D1B42105
:1005AC00654801F08BFB3B68DB7803F00F03FB61C4
:1005BC003B68DB7803F01003002B15D03B689B786D
:1005CC00012B0BD03B689B78022B07D03B689B78A8
:1005DC00032B03D0BB21584801F070FB3B689B7880
:1005EC001A46FB691343FB613B681B88DBB2002B8B
:1005FC0044D07B681B687B610023BB6138E001221F
:10060C00BB6902FA03F3FB603B681B881A46FB6864
:10061C0013403B613A69FB689A4226D1BB699B0047
:10062C00FB600F22FB6802FA03F3BB60BB68DB4381
:10063C007A6913407B61FA69FB6802FA03F37A6901
:10064C0013437B613B68DB78282B05D10122BB6906
:10065C009A407B685A6108E03B68DB78482B04D1F0
:10066C000122BB699A407B681A61BB690133BB618B
:10067C00BB69072BC3D97B687A691A603B681B88F6
:10068C00FF2B46D97B685B687B610023BB613AE03A
:10069C00BB690833012202FA03F3FB603B681B8839
:1006AC001A46FB6813403B613A69FB689A4227D1B2
:1006BC00BB699B00FB600F22FB6802FA03F3BB6073
:1006CC00BB68DB437A6913407B61FA69FB6802FA09
:1006DC0003F37A6913437B613B68DB78282B05D1E4
:1006EC00BB69083301229A407B685A613B68DB780E
:1006FC00482B05D1BB69083301229A407B681A61EB
:10070C00BB690133BB61BB69072BC1D97B687A69B3
:10071C005A6000BF2037BD4680BD00BF00080140B5
:10072C00000C014000100140001401400018014071
:10073C00001C014000200140C08E000880B582B032
:10074C0000AF78600B467B8013467B707B683B4A1E
:10075C0093421CD07B683A4A934218D07B68394A42
:10076C00934214D07B68384A934210D07B68374A46
:10077C0093420CD07B68364A934208D07B68354A4A
:10078C00934204D040F28D11334801F097FA7B88E4
:10079C00012B39D07B88022B36D07B88042B33D0AD
:1007AC007B88082B30D07B88102B2DD07B88202B7E
:1007BC002AD07B88402B27D07B88802B24D07B8829
:1007CC00B3F5807F20D07B88B3F5007F1CD07B886D
:1007DC00B3F5806F18D07B88B3F5006F14D07B888D
:1007EC00B3F5805F10D07B88B3F5005F0CD07B88AD
:1007FC00B3F5804F08D07B88B3F5004F04D04FF48D
:10080C00C771154801F05AFA7B78002B07D07B781A
:10081C00012B04D040F28F110F4801F04FFA7B7876
:10082C00002B03D07A887B681A6102E07A887B6897
:10083C005A6100BF0837BD4680BD00BF00080140AB
:10084C00000C014000100140001401400018014050
:10085C00001C014000200140C08E000880B582B011
:10086C0000AF0346FB71FB79002B06D0FB79012B03
:10087C0003D07F21044801F021FA044AFB7913606C
:10088C0000BF0837BD4680BDF48E000820000E4224
:10089C0080B400AF134A134B1B6843F00103136081
:1008AC001049104B5A68104B13404B600D4A0D4BBE
:1008BC001B6823F0847323F480331360094A094BBB
:1008CC001B6823F480231360064A064B5B6823F4F1
:1008DC00FE035360034B4FF41F029A6000BFBD46EA
:1008EC0080BC7047001002400000FFF880B582B059
:1008FC0000AF78607B68002B0CD07B68B3F5803F31
:10090C0008D07B68B3F5802F04D040F21111144845
:10091C0001F0D4F9134A134B1B6823F48033136092
:10092C00104A104B1B6823F4802313607B68B3F5CB
:10093C00803F03D0B3F5802F07D00DE0094A094B57
:10094C001B6843F48033136006E0064A054B1B68B2
:10095C0043F4A023136000BF00BF0837BD4680BD21
:10096C00248F00080010024080B582B000AF002335
:10097C003B600023FB710023BB71312000F01AFB9C
:10098C000346BB713B6801333B603B68B3F5A06F1A
:10099C0002D0BB79002BF0D0312000F00BFB0346CA
:1009AC00002B02D00123FB7101E00023FB71FB79CA
:1009BC0018460837BD4680BD80B584B000AF78605E
:1009CC0039600023FB607B68002B0CD07B68B3F58F
:1009DC00803F08D07B68B3F5403F04D040F27F11D4
:1009EC002B4801F06BF93B68002B3CD03B68B3F50E
:1009FC00802F38D03B68B3F5002F34D03B68B3F56B
:100A0C00402F30D03B68B3F5801F2CD03B68B3F53A
:100A1C00A01F28D03B68B3F5C01F24D03B68B3F5AA
:100A2C00E01F20D03B68B3F5001F1CD03B68B3F52A
:100A3C00101F18D03B68B3F5201F14D03B68B3F5DA
:100A4C00301F10D03B68B3F5401F0CD03B68B3F59A
:100A5C00501F08D03B68B3F5601F04D04FF4C07131
:100A6C000B4801F02BF90B4B5B68FB60FB6823F424
:100A7C007C13FB607A683B681343FA681343FB6092
:100A8C00044AFB68536000BF1037BD4680BD00BFF1
:100A9C00248F00080010024080B582B000AF0346DE
:100AAC00FB71FB79002B07D0FB79012B04D04FF4A1
:100ABC00CA71054801F002F9044AFB79136000BFC2
:100ACC000837BD4680BD00BF248F0008600042423D
:100ADC0080B584B000AF78600023FB607B68002B8E
:100AEC000AD07B68012B07D07B68022B04D04FF413
:100AFC000E710A4801F0E2F8094B5B68FB60FB6879
:100B0C0023F00303FB60FA687B681343FB60044A21
:100B1C00FB68536000BF1037BD4680BD248F0008B2
:100B2C000010024080B400AF044B5B68DBB203F0F2
:100B3C000C03DBB21846BD4680BC70470010024067
:100B4C0080B584B000AF78600023FB607B68002B1D
:100B5C001CD07B68802B19D07B68902B16D07B68BF
:100B6C00A02B13D07B68B02B10D07B68C02B0DD082
:100B7C007B68D02B0AD07B68E02B07D07B68F02BEE
:100B8C0004D04FF419710A4801F098F8094B5B68CE
:100B9C00FB60FB6823F0F003FB60FA687B6813438F
:100BAC00FB60044AFB68536000BF1037BD4680BD34
:100BBC00248F00080010024080B584B000AF78602C
:100BCC000023FB607B68002B14D07B68B3F5806F2F
:100BDC0010D07B68B3F5A06F0CD07B68B3F5C06FF9
:100BEC0008D07B68B3F5E06F04D040F27E210A4850
:100BFC0001F064F8094B5B68FB60FB6823F4E0636D
:100C0C00FB60FA687B681343FB60044AFB68536023
:100C1C0000BF1037BD4680BD248F00080010024075
:100C2C0080B584B000AF78600023FB607B68002B3C
:100C3C0014D07B68B3F5806F10D07B68B3F5A06FD0
:100C4C000CD07B68B3F5C06F08D07B68B3F5E06F50
:100C5C0004D04FF426710B4801F030F80A4B5B6856
:100C6C00FB60FB6823F46053FB607B68DB00FA6875
:100C7C001343FB60044AFB68536000BF1037BD464A
:100C8C0080BD00BF248F00080010024080B582B0E8
:100C9C0000AF0346FB71FB79002B0AD0FB79012BCB
:100CAC0007D0FB79042B04D04FF450710D4801F0A0
:100CBC0005F80D4B00221A700B4B00221A70FB79B1
:100CCC00012B02D0042B04D007E0074B01221A7031
:100CDC0003E0054B05221A7000BF00BF0837BD4664
:100CEC0080BD00BF248F00082010024080B582B068
:100CFC0000AF78607B68B3F5807F0CD07B68B3F570
:100D0C00007F08D07B68B3F5407F04D040F272318D
:100D1C00064800F0D3FF0649054B1A6A7B6813435B
:100D2C000B6200BF0837BD4680BD00BF248F000892
:100D3C000010024080B582B000AF0346FB71FB7916
:100D4C00002B07D0FB79012B04D04FF460710548C0
:100D5C0000F0B4FF044AFB79136000BF0837BD46AE
:100D6C0080BD00BF248F00083C04424280B487B091
:100D7C0000AF786000237B6100233B610023FB60A4
:100D8C000023BB604C4B5B6803F00C037B617B69FD
:100D9C00042B07D0082B09D0002B33D17B68474A92
:100DAC001A6033E07B68454A1A602FE0424B5B685F
:100DBC0003F470133B61404B5B6803F48033FB60BE
:100DCC003B699B0C02333B61FB68002B06D13B69F2
:100DDC003B4A02FB03F27B681A6017E0364B5B68F8
:100DEC0003F40033002B06D03B69354A02FB03F2B7
:100DFC007B681A600AE03B69304A02FB03F27B68AD
:100E0C001A6003E07B682D4A1A6000BF2A4B5B68AE
:100E1C0003F0F0037B617B691B097B61294A7B69C9
:100E2C0013441B78DBB2BB607B681A68BB68DA4082
:100E3C007B685A60204B5B6803F4E0637B617B69E1
:100E4C001B0A7B611F4A7B6913441B78DBB2BB60B6
:100E5C007B685A68BB68DA407B689A60164B5B68A3
:100E6C0003F460537B617B69DB0A7B61154A7B6908
:100E7C0013441B78DBB2BB607B685A68BB68DA40F2
:100E8C007B68DA600C4B5B6803F440437B617B69E5
:100E9C009B0B7B610C4A7B6913441B78DBB2BB60F8
:100EAC007B68DA68BB68B2FBF3F27B681A6100BF3F
:100EBC001C37BD4680BC70470010024000127A00FF
:100ECC0000093D00040000201400002080B582B011
:100EDC0000AF78600B46FB707A68164B1340002B02
:100EEC0002D17B68002B04D140F24A41124800F039
:100EFC00E5FEFB78002B07D0FB78012B04D040F2E9
:100F0C004B410D4800F0DAFEFB78002B06D00B4964
:100F1C000A4B9A697B6813438B6106E00749074BC0
:100F2C009A697B68DB4313408B6100BF0837BD4671
:100F3C0080BD00BF0200C0FF248F000800100240DB
:100F4C0080B582B000AF78600B46FB707A68164BA8
:100F5C001340002B02D17B68002B04D140F2694175
:100F6C00124800F0ABFEFB78002B07D0FB78012B6E
:100F7C0004D040F26A410D4800F0A0FEFB78002B33
:100F8C0006D00B490A4BDA697B681343CB6106E048
:100F9C000749074BDA697B68DB431340CB6100BF21
:100FAC000837BD4680BD00BF00360181248F000884
:100FBC000010024080B586B000AF0346FB710023E1
:100FCC00FB6000237B610023FB74FB79212B22D077
:100FDC00FB79312B1FD0FB79392B1CD0FB79412BA2
:100FEC0019D0FB79612B16D0FB797A2B13D0FB79B6
:100FFC007B2B10D0FB797C2B0DD0FB797D2B0AD071
:10100C00FB797E2B07D0FB797F2B04D040F2345137
:10101C00164800F053FEFB795B09DBB2FB60FB6802
:10102C00012B03D1124B1B687B6109E0FB68022B7F
:10103C0003D10F4B1B6A7B6102E00D4B5B6A7B613A
:10104C00FB7903F01F03FB607A69FB6822FA03F358
:10105C0003F00103002B02D00123FB7401E00023F9
:10106C00FB74FB7C18461837BD4680BD248F0008E6
:10107C000010024080B582B000AF03460A46FB80E8
:10108C0013467B71FA884FF6F8731340002B02D18C
:10109C00FB88002B03D15D21134800F00FFE7B79F8
:1010AC00002B06D07B79012B03D05E210E4800F07B
:1010BC0005FE7B79002B08D00C490C4B1B889AB28F
:1010CC00FB8813439BB20B8009E00849074B1B8834
:1010DC009AB2FB88DB439BB213409BB20B8000BFE0
:1010EC000837BD4680BD00BF548F00080028004063
:1010FC0080B400AF054A054B9B889BB243F01003AC
:10110C009BB2938000BFBD4680BC70470028004056
:10111C0080B400AF054A054B9B889BB223F01003AB
:10112C009BB2938000BFBD4680BC70470028004036
:10113C0080B483B000AF0023FB80074B9B8BFB80FC
:10114C00054B1B8B9BB21A04FB88134318460C37B8
:10115C00BD4680BC704700BF0028004080B582B0FF
:10116C0000AF78607B68B3F5801F03D3A9210B48CF
:10117C0000F0A4FDFFF7BCFF094A7B681B0C9BB277
:10118C0003F00F039BB21381054B7A6892B29A81DC
:10119C00FFF7BEFF00BF0837BD4680BD548F000867
:1011AC000028004080B400AF00BF054B9B889BB269
:1011BC0003F02003002BF8D000BFBD4680BC704765
:1011CC000028004080B400AF094A094B9B889BB2B1
:1011DC0023F008039BB2938000BF054B9B889BB206
:1011EC0003F00803002BF8D000BFBD4680BC70474D
:1011FC000028004080B582B000AF0346FB80FA881F
:10120C004FF6F0731340002B02D1FB88002B04D156
:10121C0040F21F11084800F051FD0849074B9B880C
:10122C009AB2FB88DB439BB213409BB28B8000BF0E
:10123C000837BD4680BD00BF548F00080028004011
:10124C0080B584B000AF0346FB800023FB73FB88A2
:10125C00042B0AD0FB88022B07D0FB88012B04D06F
:10126C004FF499710F4800F029FD0F4B9B889BB2EE
:10127C00DAB2FB88DBB21340FB730B4B1B889AB2C0
:10128C00FB8813409BB2002B05D0FB7B002B02D0BC
:10129C000123FB7301E00023FB73FB7B1846103723
:1012AC00BD4680BD548F00080028004080B582B038
:1012BC0000AF0346FB80FA884FF6F8731340002BFF
:1012CC0002D1FB88002B04D14FF4A671084800F022
:1012DC00F5FC0849074B9B889AB2FB88DB439BB211
:1012EC0013409BB28B8000BF0837BD4680BD00BF4A
:1012FC00548F00080028004080B584B000AF78609F
:10130C0039600023FB817B686B4A93420BD07B686E
:10131C006A4A934207D07B68694A934203D0A3215F
:10132C00684800F0CBFC3B681B88002B12D03B6854
:10133C001B88B3F5806F0DD03B681B88B3F5004F4D
:10134C0008D03B681B88B3F5404F03D0A6215D48FD
:10135C0000F0B4FC3B685B88B3F5827F07D03B6838
:10136C005B88002B03D0A721564800F0A7FC3B68F4
:10137C009B88B3F5006F07D03B689B88002B03D08C
:10138C00A821504800F09AFC3B68DB88002B07D062
:10139C003B68DB88022B03D0A9214A4800F08EFC65
:1013AC003B681B89002B07D03B681B89012B03D0A2
:1013BC00AA21444800F082FC3B685B89B3F5007FAE
:1013CC0007D03B685B89002B03D0AB213D4800F074
:1013DC0075FC3B689B89002B1FD03B689B89082BB5
:1013EC001BD03B689B89102B17D03B689B89182B13
:1013FC0013D03B689B89202B0FD03B689B89282BF3
:10140C000BD03B689B89302B07D03B689B89382BD2
:10141C0003D0AC212B4800F051FC3B68DB89002B3E
:10142C0007D03B68DB89802B03D0AD21254800F029
:10143C0045FC3B681B8A002B03D1AE21214800F0F0
:10144C003DFC7B681B88FB81FB8903F44153FB81CA
:10145C003B681A883B685B8813439AB23B689B884D
:10146C0013439AB23B68DB8813439AB23B681B89DF
:10147C0013439AB23B685B8913439AB23B689B89CE
:10148C0013439AB23B68DB8913439AB2FB8913432B
:10149C00FB817B68FA891A807B689B8B9BB223F457
:1014AC0000639AB27B689A833B681A8A7B681A82BB
:1014BC0000BF1037BD4680BD0030014000380040F1
:1014CC00003C0040848F000880B582B000AF78608B
:1014DC000B46FB707B68194A93420CD07B68184A08
:1014EC00934208D07B68174A934204D040F2B7115C
:1014FC00154800F0E3FBFB78002B07D0FB78012BA1
:10150C0004D04FF4DC71104800F0D8FBFB78002BB2
:10151C0008D07B681B889BB243F040039AB27B686F
:10152C001A8007E07B681B889BB223F040039AB2B9
:10153C007B681A8000BF0837BD4680BD0030014073
:10154C0000380040003C0040848F000880B582B019
:10155C0000AF78600B467B807B680B4A93420CD0C3
:10156C007B680A4A934208D07B68094A934204D0AC
:10157C0040F23A21074800F0A1FB7B687A889A81F7
:10158C0000BF0837BD4680BD003001400038004028
:10159C00003C0040848F000880B582B000AF7860BA
:1015AC007B680B4A93420CD07B680A4A934208D062
:1015BC007B68094A934204D040F24A21074800F064
:1015CC007DFB7B689B899BB218460837BD4680BD66
:1015DC000030014000380040003C0040848F00087F
:1015EC0080B582B000AF78600B46FB707B68194AFF
:1015FC0093420CD07B68184A934208D07B68174AF8
:10160C00934204D040F2AE21154800F057FBFB7812
:10161C00002B07D0FB78012B04D040F2AF211048EF
:10162C0000F04CFBFB78002B08D07B681B889BB22E
:10163C0043F400539AB27B681A8007E07B681B88DE
:10164C009BB223F400539AB27B681A8000BF083710
:10165C00BD4680BD0030014000380040003C0040D9
:10166C00848F000880B584B000AF78600B467B8017
:10167C000023FB737B681F4A93420CD07B681E4A85
:10168C00934208D07B681D4A934204D040F2163135
:10169C001B4800F013FB7B88802B19D07B88402BD8
:1016AC0016D07B88202B13D07B88102B10D07B88F6
:1016BC00082B0DD07B88042B0AD07B88022B07D0FB
:1016CC007B88012B04D040F217310D4800F0F6FA5C
:1016DC007B681B899AB27B8813409BB2002B02D08B
:1016EC000123FB7301E00023FB73FB7B18461037CF
:1016FC00BD4680BD0030014000380040003C004039
:10170C00848F000880B58CB000AF786039600023FE
:10171C00FB620023BB6200237B6200233B6200233D
:10172C00FB617B689D4A934213D07B689C4A934231
:10173C000FD07B689B4A93420BD07B689A4A9342AA
:10174C0007D07B68994A934203D0B821984800F09F
:10175C00B5FA3B681B68002B04D03B681B68954AA4
:10176C00934203D9B921924800F0A8FA3B689B88B0
:10177C00002B08D03B689B88B3F5805F03D0BA215F
:10178C008B4800F09BFA3B68DB88002B12D03B683F
:10179C00DB88B3F5805F0DD03B68DB88B3F5005F69
:1017AC0008D03B68DB88B3F5405F03D0BB21804891
:1017BC0000F084FA3B681B89002B0DD03B681B8919
:1017CC00B3F5806F08D03B681B89B3F5C06F03D0AD
:1017DC00BC21774800F072FA3B685B891A464FF6D9
:1017EC00F3731340002B03D13B685B89002B03D1AF
:1017FC00BD216F4800F062FA3B689B89002B12D028
:10180C003B689B89B3F5807F0DD03B689B89B3F512
:10181C00007F08D03B689B89B3F5407F03D0BE2185
:10182C00634800F04BFA3B689B89002B0FD07B6818
:10183C005A4A93420BD07B68594A934207D07B6833
:10184C00584A934203D0C221594800F037FA7B68BA
:10185C00FB617B681B8A9BB2FB62FA6A4CF6FF73D6
:10186C001340FB623B68DB881A46FB6A1343FB623E
:10187C00FB6A9AB27B681A827B689B899BB2FB627B
:10188C00FA6A4EF6F3131340FB623B689A883B6886
:10189C001B8913439AB23B685B8913439BB21A466C
:1018AC00FB6A1343FB62FB6A9AB27B689A817B6882
:1018BC009B8A9BB2FB62FA6A4FF6FF431340FB62B2
:1018CC003B689B891A46FB6A1343FB62FB6A9AB21C
:1018DC007B689A8207F108031846FFF747FAFB6901
:1018EC002E4A934202D17B69BB6201E03B69BB6229
:1018FC007B689B899BB21BB2002B0CDABA6A13462D
:10190C009B0013449A001A443B681B685B00B2FBB3
:10191C00F3F37B620BE0BA6A13469B0013449A0004
:10192C001A443B681B689B00B2FBF3F37B627B6A37
:10193C00214AA2FB03235B091B01FB62FB6A1B0907
:10194C00642202FB03F37A6AD31A3B627B689B899D
:10195C009BB21BB2002B0CDA3B6ADB003233164A0B
:10196C00A2FB03235B0903F00703FA6A1343FB6230
:10197C000BE03B6A1B0132330F4AA2FB03235B09CA
:10198C0003F00F03FA6A1343FB62FB6A9AB27B689B
:10199C001A8100BF3037BD4680BD00BF0038014002
:1019AC000044004000480040004C00400050004003
:1019BC00B48F000820AA44001F85EB5180B483B07B
:1019CC0000AF78607B684FF416521A607B68002277
:1019DC009A807B680022DA807B6800221A817B68FF
:1019EC000C225A817B6800229A8100BF0C37BD46BD
:1019FC0080BC704780B584B000AF78600B467B80AC
:101A0C000023FB737B68324A934214D07B68314AC3
:101A1C00934210D07B68304A93420CD07B682F4A9B
:101A2C00934208D07B682E4A934204D040F2863110
:101A3C002C4800F043F97B88012B21D07B88802B2C
:101A4C001ED07B88402B1BD07B88202B18D07B880A
:101A5C00102B15D07B88B3F5807F11D07B88B3F524
:101A6C00007F0DD07B88082B0AD07B88042B07D0F5
:101A7C007B88022B04D040F287311A4800F01EF903
:101A8C007B88B3F5007F10D17B68114A93420CD050
:101A9C007B68104A934208D07B680F4A934204D06B
:101AAC0040F28B310F4800F009F97B681B889AB221
:101ABC007B8813409BB2002B02D00123FB7301E007
:101ACC000023FB73FB7B18461037BD4680BD00BF5F
:101ADC00003801400044004000480040004C0040E9
:101AEC0000500040B48F000880B584B000AF78601F
:101AFC000B467B800023FB810023BB817B682C4A37
:101B0C00934214D07B682B4A934210D07B682A4AAC
:101B1C0093420CD07B68294A934208D07B68284AB0
:101B2C00934204D040F22241264800F0C7F87B884B
:101B3C0040F22662934213D07B8840F225529342A6
:101B4C000ED07B8840F64602934209D07B8840F643
:101B5C006A12934204D040F223411A4800F0AEF8C6
:101B6C007B8840F66A12934210D17B68104A9342EC
:101B7C000CD07B680F4A934208D07B680E4A934284
:101B8C0004D040F227410F4800F098F87B881B0ADC
:101B9C00FB81FB89012202FA03F3BB81BB89DB4386
:101BAC009AB27B681A8000BF1037BD4680BD00BF5B
:101BBC00003801400044004000480040004C004008
:101BCC0000500040B48F000880B483B000AF786040
:101BDC00FEE700BF80B500AF024800F09FF801207F
:101BEC00FFF7F2FFE88F000880B584B000AF786093
:101BFC00144B1B68002B02D1124B134A1A60114B69
:101C0C001B68FB607B68033323F003037B600D4B85
:101C1C001A687B6813440D4A934207D905F098FA69
:101C2C0002460C2313604FF0FF3306E0054B1A6895
:101C3C007B681344034A1360FB6818461037BD4693
:101C4C0080BD00BF6402002040040020004C002036
:101C5C0080B483B000AF786039607B6801221A6071
:101C6C003B68034A1A6000BF0C37BD4680BC704706
:101C7C001800002080B586B002AFF860B9607A60B9
:101C8C003B607B68002B01D0094A00E0094A7B6865
:101C9C00002B01D07B6800E0064B01930092BB68DF
:101CAC00FA683968044800F017F8FFF793FF00BF93
:101CBC00FC8F00080C9000081090000880B582B0D2
:101CCC0000AF786039603A687968024800F004F82F
:101CDC00FFF780FF409000080FB480B582B000AFD2
:101CEC0007F114033B603B683A6980210A4806F00F
:101CFC0081F878607B68002B05DD7B681946064807
:101D0C0000F024F878607B6818460837BD46BDE8BB
:101D1C00804004B0704700BF6C02002080B582B0D8
:101D2C0000AF7860786805F058FD0346194678686E
:101D3C0000F00CF80121044800F008F8034618469E
:101D4C000837BD4680BD00BF6C90000880B582B0DE
:101D5C0000AF786039603968786800F005F80346A0
:101D6C0018460837BD4680BDB0B590B000AF78605E
:101D7C0039607A683B6813441B78002B0BD1042321
:101D8C00FB627B68BB62FC6ABD6A20462946ABBE1F
:101D9C0004467C6235E03B68FB632FE0FB6B102B49
:101DAC0028BF10233B630023BB630DE07B681978CD
:101DBC0007F10C02BB6B13440A461A70BB6B013360
:101DCC00BB637B6801337B60BA6B3B6B9A42EDD390
:101DDC0007F10C02BB6B134400221A7004237B63C3
:101DEC0007F10C033B627C6B3D6A20462946ABBE77
:101DFC000446FC61FA6B3B6BD31AFB63FB6B002B49
:101E0C00CCD13B6818464037BD46B0BD80B500AF5D
:101E1C0000F0CEF8024B034A9A6000BF80BD00BFB1
:101E2C0000ED00E00000000880B500AF00F0F4F811
:101E3C0000BF80BD80B584B000AFF860B9607A6037
:101E4C003B603448FFF748FFFB681B681946324873
:101E5C00FFF742FFFB685B6819463048FFF73CFF11
:101E6C00FB689B6819462E48FFF736FFFB68DB685A
:101E7C0019462C48FFF730FFFB681B6919462A48A6
:101E8C00FFF72AFFFB685B6919462848FFF724FF18
:101E9C00FB689B6919462648FFF71EFFFB68DB6948
:101EAC0019462448FFF718FF2348FFF715FFB968B8
:101EBC002248FFF711FF224BDB6A19462148FFF736
:101ECC000BFF1F4B1B6B19461F48FFF705FF1C4BE5
:101EDC00DB6B19461D48FFF7FFFEBB6803F0800360
:101EEC00002B03D079681A48FFF7F6FEBB6803F4A1
:101EFC000043002B03D039681648FFF7EDFE164857
:101F0C00FFF7EAFEB9691548FFF7E6FE00BF103788
:101F1C00BD4680BD9C900008AC900008BC900008A9
:101F2C00CC900008DC900008EC900008FC900008B5
:101F3C000C9100081C9100082C91000838910008A5
:101F4C0000ED00E0489100085891000868910008E5
:101F5C00789100088891000898910008A0910008D9
:101F6C0080B485B000AF78600B467B807B689B6942
:101F7C00FB60FB681B887A889A4213D17B681B68CC
:101F8C00BB60BB68032B03D0042B03D000230AE0F7
:101F9C0000BF00E000BF7B689B699A1C7B689A615C
:101FAC00012300E0002318461437BD4680BC70475F
:101FBC0080B500AF154A154B1B6843F00103136045
:101FCC001249124B5A68124B13404B600F4A0F4B7D
:101FDC001B6823F0847323F4803313600B4A0B4B80
:101FEC001B6823F480231360084A084B5B6823F4B6
:101FFC00FE035360054B4FF41F029A6000F078F813
:10200C00044B4FF000629A6000BF80BD001002408C
:10201C000000FFF800ED00E080B485B000AF0023B5
:10202C00FB600023BB6000237B602C4B5B6803F0E0
:10203C000C03FB60FB68042B07D0082B09D0002B8A
:10204C0033D1274B274A1A6033E0254B254A1A60B7
:10205C002FE0224B5B6803F47013BB601F4B5B6873
:10206C0003F480337B60BB689B0C0233BB607B68E2
:10207C00002B06D1BB681C4A02FB03F3184A136001
:10208C0017E0164B5B6803F40033002B06D0BB68DB
:10209C00154A02FB03F3124A13600AE0BB68114AAB
:1020AC0002FB03F30E4A136003E00D4B0D4A1A605A
:1020BC0000BF0A4B5B6803F0F0031B090B4AD35CAF
:1020CC00DBB2FB60064B1A68FB6822FA03F3044A86
:1020DC00136000BF1437BD4680BC7047001002402F
:1020EC002000002000127A0000093D00240000208E
:1020FC0080B500AF00F002F800BF80BD80B483B0A3
:10210C0000AF00237B6000233B603A4A394B1B68CD
:10211C0043F480331360374B1B6803F400333B608C
:10212C007B6801337B603B68002B03D17B68B3F584
:10213C00A06FF0D12F4B1B6803F40033002B02D09F
:10214C0001233B6001E000233B603B68012B4BD13A
:10215C00294A294B1B6843F010031360264A264B6F
:10216C001B6823F003031360234A234B1B6843F0C3
:10217C00020313601F4A1F4B5B6853601D4A1D4BC3
:10218C005B6853601B4A1B4B5B6843F48063536072
:10219C00184A184B5B6823F47C135360154A154B93
:1021AC005B6843F4E8135360124A124B1B6843F00C
:1021BC008073136000BF0F4B1B6803F00073002B80
:1021CC00F9D00C4A0B4B5B6823F003035360094AAC
:1021DC00084B5B6843F00203536000BF054B5B6820
:1021EC0003F00C03082BF9D100BF0C37BD4680BCA3
:1021FC00704700BF001002400020024090B583B031
:10220C0000AFFEF795FF03467B603B1D184604F0BC
:10221C00A5FF02460C4B1A607A680C4B82FB033408
:10222C0013195911D317C91A0B461B015B1A9B00C2
:10223C00D11A00290CBF01230023DAB2044B1A7007
:10224C0000BF0C37BD4690BD4003002089888888AC
:10225C003400002080B500AF0120FEF7F1FF0346EB
:10226C00002B14BF01230023DBB2002B06D0FFF799
:10227C00C5FF0120FFF71AF8FEF794FF00BF80BDE1
:10228C0080B400AF044B1B680133034A136000BFDA
:10229C00BD4680BC704700BFEC02002080B500AF8B
:1022AC0040210948FFF7A6FB0346002B14BF01236E
:1022BC000023DBB2002B04D040F226610248FFF76A
:1022CC0013FC00BF80BD00BF0038014080B483B058
:1022DC0000AF03463960FB7197F90730002B0BDA1E
:1022EC000D49FB7903F00F03043B3A68D2B212019B
:1022FC00D2B20B441A7609E0084997F907303A68CC
:10230C00D2B21201D2B20B4483F8002300BF0C37B7
:10231C00BD4680BC704700BF00ED00E000E100E06E
:10232C0080B582B000AF78607B68013BB3F1807FF1
:10233C0001D301230FE00A4A7B68013B53600F2154
:10234C004FF0FF30FFF7C2FF054B00229A60044BA1
:10235C0007221A60002318460837BD4680BD00BF0F
:10236C0010E000E080B586B000AFFEF791FA4FF4B4
:10237C008030FEF7BBFAFEF7F7FA0346FB75FB7DE0
:10238C00012B32D10020FEF7DBFB0020FEF748FCCE
:10239C004FF48060FEF710FC0220FEF759F8102075
:1023AC00FEF780F84FF4E0114FF48030FEF704FB99
:1023BC000120FEF771FB3920FEF7FCFD0346002BD4
:1023CC000CBF01230023DBB2002B00D0F3E702206B
:1023DC00FEF77EFBFEF7A6FB0346082B14BF01237A
:1023EC000023DBB2002B00D0F4E701210420FEF720
:1023FC006DFD01210820FEF769FD01211020FEF77B
:10240C0065FD01212020FEF761FD01214FF4001034
:10241C00FEF796FD01214FF48050FEF757FD012188
:10242C000120FEF753FD012141F20500FEF74EFDA0
:10243C003B461846FEF79AFC7B68064AA2FB032330
:10244C009B09013B1846FFF76BFF00BF1837BD46D1
:10245C0080BD00BFD34D621080B483B000AF034683
:10246C00FB71084997F907305B09FA7902F01F02F2
:10247C00012000FA02F241F8232000BF0C37BD46C0
:10248C0080BC704700E100E080B500AF01214FF047
:10249C00C050FEF755FD0120FEF7E0F9144805F099
:1024AC006FF8FEF77FFE0820FEF7A4FE4FF4807055
:1024BC00FEF71CFCFEF776FE0120FEF7E7FBFEF7AD
:1024CC0071FE0120FEF736FCFEF76CFE4FF4004067
:1024DC00FEF744FEFEF766FE01210120FEF7CAFD61
:1024EC000320FFF7B9FFFEF76DFE00BF80BD00BFF4
:1024FC00E491000880B586B000AF10233B80032325
:10250C00BB701023FB703B4619461D48FDF7EEFFD0
:10251C00A0233B800323BB701823FB703B4619465A
:10252C001748FDF7E3FF4FF44043BB804FF4827331
:10253C00FB804FF400633B8100237B810023BB8134
:10254C004FF40073FB8108233B8200237B8207231B
:10255C00BB823B1D19460B48FEF7CEFE00210948F5
:10256C00FFF73EF801210748FEF7AEFF01221021CC
:10257C000348FEF7E3F800BF1837BD4680BD00BF27
:10258C00000801400030014080B584B000AF034624
:10259C00FB800023FB60FB8819460D48FEF7D6FF35
:1025AC0002210B48FFF75EF80346002B0CBF0123FA
:1025BC000023DBB2002B00D0F2E70548FEF7ECFF5E
:1025CC000346FB60FB6818461037BD4680BD00BF54
:1025DC000030014080B483B000AF0346FB71084962
:1025EC0097F907305B09FA7902F01F02012000FA13
:1025FC0002F241F8232000BF0C37BD4680BC704767
:10260C0000E100E080B584B000AF01214FF48040C0
:10261C00FEF75CFC3B461846FFF7D0F93B461946E3
:10262C000B48FFF76FF80A4A094B9B899BB243F49E
:10263C00015343F02C039BB29381054BAA229A8041
:10264C002520FFF7C7FF00BF1037BD4680BD00BF78
:10265C000038014080B483B000AF78600B46FB704B
:10266C007B68FA781A707B6818460C37BD4680BCBC
:10267C00704700BF80B483B000AF03460A46FB71BD
:10268C001346BB71BB791B021AB2FB791BB2134305
:10269C001BB29BB218460C37BD4680BC704700BFBE
:1026AC0080B483B000AF78607B68002B03D07B686C
:1026BC00013B7B60F8E700BF0C37BD4680BC704720
:1026CC0080B582B000AF78607B681B781A46002119
:1026DC000F2000F03DF87B681B781A4601210C2076
:1026EC0000F036F87B681B781A460021092000F0B0
:1026FC002FF87B681B781A4607210B2000F028F86E
:10270C007B681B781A460F210A2000F021F87868A4
:10271C0000F004F800BF0837BD4680BD80B584B01A
:10272C0000AF78600023FB73FB7B072B0CD8FB7B83
:10273C000133D8B27B681B781A46002100F008F8E8
:10274C00FB7B0133FB73EFE700BF1037BD4680BD49
:10275C0080B584B000AF0346FB710B46BB711346CA
:10276C007B717B79032B05D92D4B2E4A5B212E488F
:10277C00FFF780FA002210212C48FDF7DFFF4FF401
:10278C00FA70FFF78DFF0023FB73FA7B7B79C3F1A3
:10279C0003039A420BDA0021FF20FFF76BFF03467D
:1027AC00184600F047F8FB7B0133FB73EDE7FA7931
:1027BC00BB7911461846FFF75DFF0346184600F03B
:1027CC0039F8FB79002B0BD0FB79082B08D87A79D8
:1027DC00FB79013B1649D2000A441344BA791A70AA
:1027EC000023BB73BA7B7B799A420BD20021FF206A
:1027FC00FFF740FF0346184600F01CF8BB7B013383
:10280C00BB73EFE7012210210848FDF797FF4FF447
:10281C00FA70FFF745FF00BF1037BD4680BD00BF03
:10282C00F49100085C92000818920008000801401E
:10283C00FC02002080B582B000AF0346FB80FB8811
:10284C001846FFF7A1FE3220FFF72AFF00BF08371A
:10285C00BD4680BD80B582B000AF7860786800F06E
:10286C00CBF87B6818460837BD4680BD80B582B072
:10287C0000AF7860786800F0C9F87B6818460837B4
:10288C00BD4680BD80B483B000AF78607B681B68A8
:10289C0018460C37BD4680BC704700BF80B483B06F
:1028AC0000AF78607B685B6818460C37BD4680BC0F
:1028BC00704700BF90B583B000AF78607868FFF7C1
:1028CC00E1FF04467868FFF7E9FF03469B002344C9
:1028DC0018460C37BD4690BDB0B586B000AFF86059
:1028EC00381D80E806003B60FB683968184600F02C
:1028FC00A3F83B1D1846FFF7C5FF04463B1D1846C1
:10290C00FFF7D8FF02462B462146F86800F0BEF8C8
:10291C00FB6805E0FB68184600F09EF802F0E2FF49
:10292C0018461837BD46B0BDB0B582B000AF786060
:10293C007B681C687B685D687B68184600F0D6F87D
:10294C0003461A462946204600F0DAF87B681846FA
:10295C0000F082F87B6818460837BD46B0BD00BF52
:10296C0080B584B000AF78607B681B68FB6007F1B2
:10297C000C0207F108031146184600F0CFF8BB68AB
:10298C0018461037BD4680BD80B584B000AF786066
:10299C007B685B68FB6007F10C0207F108031146CA
:1029AC00184600F0BBF8BB6818461037BD4680BD12
:1029BC0090B583B000AF78603960786800F0BEF8ED
:1029CC0003461C68386800F0B9F803461B689C4243
:1029DC0014BF01230023DBB218460C37BD4690BD53
:1029EC0080B483B000AF78607B681B6818460C37E6
:1029FC00BD4680BC704700BF80B483B000AF786028
:102A0C007B6818460C37BD4680BC704780B483B0D9
:102A1C0000AF78607B6818460C37BD4680BC7047A9
:102A2C0080B582B000AF78607868FFF71FFF7B68D5
:102A3C0018460837BD4680BD80B582B000AF7860BF
:102A4C0039607B683968184600F082F87B68184654
:102A5C000837BD4680BD00BF80B582B000AF78603E
:102A6C007B6819687B689B681A467B681B68D31A5D
:102A7C009B101A46786800F083F87B681846FFF7BD
:102A8C00CFFF7B6818460837BD4680BD90B587B030
:102A9C0000AFF860B9607A603B707968B86800F094
:102AAC0083F803467B61FB687969184600F090F85F
:102ABC000246FB681A60FB681A687B699B001A4423
:102ACC00FB689A60FB681C68FB68184600F00EF8FF
:102ADC00034622467968B86800F08EF80246FB6817
:102AEC005A6000BF1C37BD4690BD00BF80B483B098
:102AFC0000AF78607B6818460C37BD4680BC7047C9
:102B0C0080B584B000AFF860B9607A60B968F868D5
:102B1C0000F084F800BF1037BD4680BD80B483B090
:102B2C0000AF786039603B681A687B681A607B6814
:102B3C0018460C37BD4680BC704700BF80B483B0CC
:102B4C0000AF78607B6818460C37BD4680BC704778
:102B5C0080B582B000AF786039603968786800F071
:102B6C006BF87B6800221A607B6800225A607B68D5
:102B7C0000229A607B6818460837BD4680BD00BFAE
:102B8C0080B584B000AFF860B9607A60BB68002B88
:102B9C0005D0FB687A68B968184600F05BF800BF8E
:102BAC001037BD4680BD00BFB0B584B000AF7860B3
:102BBC0039607C683B1D184600F05CF82A46396881
:102BCC00204600F061F8034618461037BD46B0BDEC
:102BDC0080B582B000AF786039603B68002B06D0BE
:102BEC007B683968184600F05FF8034600E0002364
:102BFC0018460837BD4680BD80B584B000AFF8607C
:102C0C00B9607A603B607A68B968F86800F05CF883
:102C1C00034618461037BD4680BD00BF80B582B054
:102C2C0000AF786039603968786800F05FF800BFF1
:102C3C000837BD4680BD00BF80B582B000AF78605C
:102C4C0039603968786800F05BF87B68184608379B
:102C5C00BD4680BD80B584B000AFF860B9607A60C5
:102C6C007A68B968F86800F057F800BF1037BD46AD
:102C7C0080BD00BF80B483B000AF786018460C37BD
:102C8C00BD4680BC704700BF80B485B000AFF86013
:102C9C00B9603A71BA68FB68D31A9B10184614379E
:102CAC00BD4680BC704700BF80B582B000AF786075
:102CBC00396000223968786800F03CF80346184601
:102CCC000837BD4680BD00BF80B586B000AFF86048
:102CDC00B9607A600123FB757A68B968F86800F00E
:102CEC0047F8034618461837BD4680BD80B483B0FC
:102CFC0000AF7860396000BF0C37BD4680BC7047B0
:102D0C0080B483B000AF786039607B6818460C37AC
:102D1C00BD4680BC704700BF80B584B000AFF86082
:102D2C00B9607A60B86802F04DFA00BF1037BD4642
:102D3C0080BD00BF80B584B000AFF860B9607A6028
:102D4C00F86800F025F80246BB689A4234BF0123AC
:102D5C000023DBB2002B01D002F0EAFEBB689B0023
:102D6C00184602F06DFD034618461037BD4680BD6F
:102D7C0080B584B000AFF860B9607A607A68B968E1
:102D8C00F86800F011F8034618461037BD4680BDB0
:102D9C0080B483B000AF78606FF0404318460C37B6
:102DAC00BD4680BC704700BF90B585B000AFF860E1
:102DBC00B9607A60F86800F00FF80446B86800F063
:102DCC000BF803467A681946204600F011F80346C2
:102DDC0018461437BD4690BD80B582B000AF786000
:102DEC00786800F021F8034618460837BD4680BDC8
:102DFC00B0B584B000AFF860B9607A60F86800F0E4
:102E0C001DF80446B86800F019F80546786800F01B
:102E1C0021F803461A462946204600F027F80346B7
:102E2C0018461037BD46B0BD80B483B000AF786093
:102E3C007B6818460C37BD4680BC704780B582B0A5
:102E4C0000AF78607868FFF7EFFF03461846083745
:102E5C00BD4680BD80B582B000AF7860786800F068
:102E6C0017F8034618460837BD4680BD80B586B0B6
:102E7C0000AFF860B9607A600123FB757A68B968B5
:102E8C00F86800F00FF8034618461837BD4680BDA9
:102E9C0080B483B000AF78607B6818460C37BD46B1
:102EAC0080BC704780B586B000AFF860B9607A60BE
:102EBC00BA68FB68D31A9B107B617B69002B06D028
:102ECC007B699B001A46F968786804F094FA7B6970
:102EDC009B007A68134418461837BD4680BD00BF66
:102EEC0090B58BB000AF786039607B68012B43D113
:102EFC003B684FF6FF7293423ED1012002F0A0FCDA
:102F0C0003461C4600212046FFF7A4FB7C610120F0
:102F1C0002F096FC03461C4601212046FFF79AFB63
:102F2C00BC61012002F08CFC03461C4602212046A9
:102F3C00FFF790FBFC61012002F082FC03461C466B
:102F4C0003212046FFF786FB3C6207F11403FB606C
:102F5C0004233B6107F124031846FFF77BFC07F1C0
:102F6C00240307F10C0206CA0F48FFF7B5FC07F162
:102F7C0024031846FFF77AFC7B68002B0FD13B68C3
:102F8C004FF6FF7293420AD10748FFF7CDFC06E0DB
:102F9C0007F124031846FFF769FC02F0A3FC00BFFD
:102FAC002C37BD4690BD00BFF002002080B500AFAD
:102FBC004FF6FF710120FFF793FF80BD80B500AF86
:102FCC004FF6FF710020FFF78BFF80BD80B582B0FC
:102FDC0000AF1948FFF7C4FC03463B601648FFF7E7
:102FEC00D3FC03467B603A1D3B4611461846FFF75F
:102FFC00DFFC0346002B1BD03B461846FFF7F0FCCA
:10300C0003461B681B785A1C04230C490C48FEF71A
:10301C0063FE3B461846FFF7E3FC03461B68184665
:10302C00FFF74EFB3B460021184600F00BF8D5E7A6
:10303C0000BF0837BD4680BDF0020020F0920008AA
:10304C00D892000880B584B000AF786039607B6896
:10305C001B68191D7A681160FB6007F10C0207F1FF
:10306C00080311461846FFF759FDBB681846103780
:10307C00BD4680BD80B483B000AF786039603B68DA
:10308C0018460C37BD4680BC704700BF80B483B077
:10309C0000AF7860396000BF0C37BD4680BC70470C
:1030AC0080B483B000AF78607B6818460C37BD469F
:1030BC0080BC704780B483B000AF78607B681846E2
:1030CC000C37BD4680BC704780B483B000AF7860CD
:1030DC007B6800229A607B6818460C37BD4680BC22
:1030EC00704700BF80B582B000AF78607B689B688A
:1030FC00002B05D07B689B68786879680322984719
:10310C007B6818460837BD4680BD00BF80B483B0CD
:10311C0000AF78607B689B68002B0CBF01230023F9
:10312C00DBB218460C37BD4680BC704780B582B008
:10313C0000AF78607B681846FFF7D4FF7B681846B1
:10314C000837BD4680BD00BF80B582B000AF786047
:10315C0039607B683A681146184602F04DFE7B6870
:10316C0003F118023B6818331946104600F0C8FAF0
:10317C007B6805E07B68184602F083FD02F0B2FB29
:10318C0018460837BD4680BD80B582B000AF786068
:10319C007B6818331846FFF7C9FF7B68184602F0A6
:1031AC0070FD7B6818460837BD4680BD80B594B06D
:1031BC0000AF5C4800F0C0F90346FB63002387F8BE
:1031CC004F3097F84F30032B00F2818007F13C030E
:1031DC00184600F0C1F9024607F1300311461846B3
:1031EC0000F0C6F907F13003184600F029FA03463F
:1031FC00FB6207F13003184600F032FA03463B64D9
:10320C0007F140030121184600F03CFA0346BB626B
:10321C00002387F84E3097F84E30062B2FD807F145
:10322C002C03184600F04AFA02463B461146184653
:10323C00FFF78AFF3B46184602F0B7FD01463B46B6
:10324C0018331A463848FEF747FD07F1280207F1F4
:10325C002C031146184600F07FFA0346002B04D0CD
:10326C0007F12C03184600F08FFA3B461846FFF77F
:10327C008BFF97F84E30013387F84E30CBE7294857
:10328C0000F092FA0346BB6407F14803012118468B
:10329C0000F09CFA03467B6407F1440207F13C03FF
:1032AC001146184600F0AEFA0346002B04D007F185
:1032BC003C03184600F0BEFA07F13003184600F044
:1032CC00A3F997F84F30013387F84F3079E7002393
:1032DC0087F84D3097F84D30032B1FD8002387F813
:1032EC004C3097F84C30062B05D897F84C300133FE
:1032FC0087F84C30F5E797F84D30013387F84D30AF
:10330C00E8E73B461846FFF73FFFFFE707F13003BE
:10331C00184600F079F9FFE702F0E4FA00BF5037E5
:10332C00BD4680BD1C0300202893000880B582B0E8
:10333C0000AF78607B68184602F09CFC7B68183301
:10334C00184600F087FA7B6818460837BD4680BDE2
:10335C00B0B5E4B000AF3B4609241D46B4F1FF3FC5
:10336C0005D02846FFF7E2FF2835013CF6E73B463F
:10337C003D49184602F015FD3B4618333B491846AB
:10338C0000F082FA3B461946394800F09DFA3B465C
:10339C0028333849184602F004FD3B464033364981
:1033AC00184600F071FA3B4628331946304800F0B5
:1033BC008BFA3B4650333149184602F0F2FC3B463F
:1033CC0068332F49184600F05FFA3B4650331946D4
:1033DC00274800F079FA3B4678332A49184602F020
:1033EC00E0FC3B4690332849184600F04DFA3B462A
:1033FC0078331946254800F067FA3B46A033244938
:10340C00184602F0CEFC3B46B8332249184600F071
:10341C003BFA3B46A03319461C4800F055FA1449B8
:10342C001D4800F073FA19491B4800F06FFA3C462E
:10343C0004F5C8743B469C4204D0283C2046FFF758
:10344C00A3FEF7E70CE03C4604F5C8743B469C42EF
:10345C0004D0283C2046FFF797FEF7E702F042FA2B
:10346C0007F5C877BD46B0BD3C930008A9340008E9
:10347C002803002040930008BD3400084493000842
:10348C00D134000848930008E534000834030020C8
:10349C004C930008F93400081C03002080B483B05E
:1034AC0000AF0346FB7100BF0C37BD4680BC7047B4
:1034BC0080B483B000AF0346FB7100BF0C37BD4630
:1034CC0080BC704780B483B000AF0346FB7100BF73
:1034DC000C37BD4680BC704780B483B000AF034648
:1034EC00FB7100BF0C37BD4680BC704780B483B005
:1034FC0000AF0346FB7100BF0C37BD4680BC704764
:10350C0080B582B000AF78607B68184600F02CFA6A
:10351C007B6818460837BD4680BD00BF80B582B0B9
:10352C0000AF78607B68184600F058FA7B68184644
:10353C000837BD4680BD00BF80B584B000AF786051
:10354C007A6807F10C031146184600F075FAFB680F
:10355C0018461037BD4680BD80B483B000AF78608C
:10356C007B681B6818460C37BD4680BC704700BF93
:10357C00F0B585B000AF786039607C68386800F0D1
:10358C006BFA05463B68184600F08AFA024607F1CA
:10359C000C031146184600F075FA07F10C031A4695
:1035AC002946204600F092FA07F10C03184600F069
:1035BC0081FA386800F0A6FA0546386800F0B6FAC9
:1035CC0006467B681C687B68184600F0C3FA034605
:1035DC0022463146284600F0C7FA02467B685A60FC
:1035EC007B680CE007F10C03184600F063FA02F05C
:1035FC0079F97B68184600F0FFF902F073F9184668
:10360C001437BD46F0BD00BFB0B582B000AF7860D6
:10361C007B681C687B685D687B68184600F09AFACA
:10362C0003461A462946204600F0B0FA7B68184635
:10363C0000F0E2F97B6818460837BD46B0BD00BF04
:10364C0080B584B000AF78607A6807F10C0311463E
:10365C00184600F0A9FAFB6818461037BD4680BD25
:10366C0080B584B000AF78607B681A1D07F10C033D
:10367C001146184600F098FAFB6818461037BD46FC
:10368C0080BD00BF80B584B000AF786039607B68C6
:10369C0019683A6813469B001344DB005B420B44E9
:1036AC00FB6007F10C0207F108031146184600F005
:1036BC007BFABB6818461037BD4680BD80B483B01A
:1036CC0000AF78607B681B6818460C37BD4680BC21
:1036DC00704700BF80B483B000AF78607B68184639
:1036EC000C37BD4680BC704780B582B000AF7860A7
:1036FC007868FFF7EFFF7B6818460837BD4680BD3A
:10370C0080B582B000AF786039607868FFF7ECFF65
:10371C007B681846FFF7D8FC386800F055FA03466A
:10372C00002B0DD03B689B6878683968022298475B
:10373C003B68DA687B68DA603B689A687B689A60F9
:10374C007B6805E07B681846FFF7CCFC02F0CAF8F2
:10375C0018460837BD4680BD90B583B000AF786081
:10376C003960786800F040FA03461C68386800F04D
:10377C003BFA03461B689C4214BF01230023DBB2B7
:10378C0018460C37BD4690BD80B483B000AF78604E
:10379C007B681B6803F128027B681A607B681846FB
:1037AC000C37BD4680BC704780B584B000AF7860E4
:1037BC007B681A1D07F10C031146184600F03CF902
:1037CC00FB6818461037BD4680BD00BF80B584B07D
:1037DC0000AF786039607B6819683A6813465B0003
:1037EC0013449B005B420B44FB6007F10C0207F196
:1037FC0008031146184600F01FF9BB68184610372D
:10380C00BD4680BD90B583B000AF786039607868F4
:10381C0000F0F4F903461C68386800F0EFF9034631
:10382C001B689C4214BF01230023DBB218460C37E3
:10383C00BD4690BD80B483B000AF78607B681B68D8
:10384C0003F10C027B681A607B6818460C37BD4686
:10385C0080BC704780B582B000AF78607868FFF7A5
:10386C0043FF7B681846FFF72FFC7B681846083728
:10387C00BD4680BD80B483B000AF78607B681846CD
:10388C000C37BD4680BC704780B586B000AF786001
:10389C0039603868FFF7EEFF024607F1080311465E
:1038AC00184600F0BFF907F108037968184600F0D4
:1038BC00EDF907F108031846FFF738FC7B6818464A
:1038CC001837BD4680BD00BF80B582B000AF7860B0
:1038DC0039607B685A687B689B689A420DD078681F
:1038EC007B685B683A68194600F0FCF97B685B689A
:1038FC0003F128027B685A6003E03968786800F0AD
:10390C0005FA00BF0837BD4680BD00BF80B582B048
:10391C0000AF786039607B685A687B689B689A4214
:10392C000DD078687B685B683A68194600F09CFAA1
:10393C007B685B6803F10C027B685A6003E03968B2
:10394C00786800F0A5FA00BF0837BD4680BD00BFFF
:10395C0080B582B000AF7860786800F053FB7B686C
:10396C0018460837BD4680BD80B582B000AF786080
:10397C007B68184600F030FB7B6818460837BD465C
:10398C0080BD00BF80B582B000AF78607B681968DD
:10399C007B689B681A467B681B68D31A9B10084A85
:1039AC0002FB03F31A46786800F038FB7B68184674
:1039BC00FFF7CEFF7B6818460837BD4680BD00BFB9
:1039CC00ABAAAAAA80B582B000AF7860786800F084
:1039DC0071F87B6818460837BD4680BD80B582B04B
:1039EC0000AF78607B68184600F02CFB7B681846AB
:1039FC000837BD4680BD00BF80B582B000AF78608F
:103A0C007B6819687B689B681A467B681B68D31AAD
:103A1C00DB10084A02FB03F31A46786800F028FB17
:103A2C007B681846FFF7CEFF7B6818460837BD4603
:103A3C0080BD00BFCDCCCCCC80B483B000AF78605F
:103A4C0039603B681A687B681A607B6818460C37CB
:103A5C00BD4680BC704700BF80B483B000AF7860B7
:103A6C007B685B681A467B681B68D31ADB10044AB8
:103A7C0002FB03F318460C37BD4680BC704700BFF1
:103A8C00CDCCCCCC80B582B000AF786039607B688F
:103A9C003968184600F000FB78680837BD4680BDD1
:103AAC0080B483B000AF78607B6818460C37BD4695
:103ABC0080BC704780B582B000AF7860786800F049
:103ACC0007FB7B6818460837BD4680BD80B584B0BF
:103ADC0000AFF860B9607A60FB687968184600F04E
:103AEC0001FBB968F86800F015FBFB6805E0FB68A2
:103AFC001846FFF767FF01F0F5FE18461037BD4674
:103B0C0080BD00BF80B584B000AF78607B681B6857
:103B1C00FB6007F10C0207F108031146184600F090
:103B2C0017FBBB6818461037BD4680BD80B584B006
:103B3C0000AF78607B685B68FB6007F10C0207F1F3
:103B4C0008031146184600F003FBBB6818461037F3
:103B5C00BD4680BD80B483B000AF78607B681846EA
:103B6C000C37BD4680BC704780B584B000AFF860A0
:103B7C00B9607A603B607A68B968F86800F0F8FA66
:103B8C00034618461037BD4680BD00BF80B584B0D3
:103B9C0000AFF860B9607A60B968F86800F0FAFABA
:103BAC0000BF1037BD4680BD80B483B000AF7860D5
:103BBC0039603B681A687B681A607B6818460C375A
:103BCC00BD4680BC704700BF80B582B000AF786046
:103BDC007B681846FFF79AFA034683F00103DBB2C1
:103BEC0018460837BD4680BD80B483B000AF7860FE
:103BFC007B6818460C37BD4680BC704780B483B0D8
:103C0C0000AF78607B6818460C37BD4680BC7047A7
:103C1C0080B483B000AF78607B6818460C37BD4623
:103C2C0080BC704790B583B000AF7860396078681D
:103C3C00FFF75AFD7B681846FFF746FA3B681846B3
:103C4C0000F0B6FA0346002B0FD07C683B461846B2
:103C5C00FFF7DEFF03461946204600F0B9FA7B68F1
:103C6C00084ADA607B68084A9A607B6805E07B68E2
:103C7C001846FFF737FA01F035FE18460C37BD46EB
:103C8C0090BD00BF154200084142000880B582B0CB
:103C9C0000AF786039607B683A681146184600F0CE
:103CAC00FBFA7B6803F108023B680833194610469F
:103CBC0000F024FB7B6803F10C023B680C331946C3
:103CCC00104600F045FB00BF0837BD4680BD00BF65
:103CDC0080B483B000AF78607B6818460C37BD4663
:103CEC0080BC704780B584B000AFF860B9607A6072
:103CFC007868FFF7EDFF03461A46B968F86800F0DC
:103D0C0047FB00BF1037BD4680BD00BFB0B586B0C5
:103D1C0000AF786039604D4A0121786800F05AFB99
:103D2C0003463B617B683969184600F09BFB0346F0
:103D3C00FB60FB687B617C687868FFF78DFE024650
:103D4C0013469B001344DB001A46FB689D18386829
:103D5C00FFF7BEFF03461A4629462046FFF7C2FF6F
:103D6C0000237B617B681C687B685D687B681846F8
:103D7C00FFF7F0FE0346FA682946204600F086FB62
:103D8C0003467B617B6928337B617B681C687B689D
:103D9C005D687B681846FFF7DDFE03461A46294628
:103DAC002046FFF7F3FE78687B6819687B689B6890
:103DBC001A467B681B68D31ADB10254A02FB03F3F7
:103DCC001A4600F055F97B68FA681A607B687A69C4
:103DDC005A603A6913469B001344DB001A46FB6891
:103DEC001A447B689A602DE00346184601F009FAE4
:103DFC007B69002B10D17C687868FFF72DFE02469A
:103E0C0013469B001344DB001A46FB681344194607
:103E1C00204600F055FB09E07B681846FFF79AFE38
:103E2C0003461A467969F868FFF7B0FE7B683A6971
:103E3C00F968184600F01CF901F032FA01F00BFA9F
:103E4C0001F050FD1837BD46B0BD00BF50930008BF
:103E5C00CDCCCCCC80B483B000AF78607B681846F6
:103E6C000C37BD4680BC704780B584B000AFF8609D
:103E7C00B9607A607868FFF7EDFF03461A46B968B7
:103E8C00F86800F02BFB00BF1037BD4680BD00BFAB
:103E9C00B0B586B000AF786039604D4A01217868C2
:103EAC0000F03EFB03463B617B683969184600F025
:103EBC007FFB0346FB60FB687B617C68786800F0E5
:103ECC008BFB024613465B0013449B001A46FB68AF
:103EDC009D183868FFF7BEFF03461A462946204650
:103EEC00FFF7C2FF00237B617B681C687B685D6801
:103EFC007B68184600F086FB0346FA682946204684
:103F0C0000F08AFB03467B617B690C337B617B6829
:103F1C001C687B685D687B68184600F073FB034681
:103F2C001A462946204600F09FFB78687B68196882
:103F3C007B689B681A467B681B68D31A9B10254AC2
:103F4C0002FB03F31A4600F069F87B68FA681A6002
:103F5C007B687A695A603A6913465B0013449B008C
:103F6C001A46FB681A447B689A602DE00346184693
:103F7C0001F047F97B69002B10D17C68786800F060
:103F8C002BFB024613465B0013449B001A46FB684E
:103F9C0013441946204600F059FB09E07B6818468B
:103FAC0000F030FB03461A467969F86800F05CFBB8
:103FBC007B683A69F968184600F030F801F070F93E
:103FCC0001F049F901F08EFC1837BD46B0BD00BFB9
:103FDC0050930008ABAAAAAA80B582B000AF786053
:103FEC00786800F04FFB7B6800221A607B68002227
:103FFC005A607B6800229A607B6818460837BD4679
:10400C0080BD00BF80B582B000AF7860786800F0EA
:10401C0045FB7B6818460837BD4680BD80B584B02B
:10402C0000AFF860B9607A60BB68002B05D0FB6804
:10403C007A68B968184600F03BFB00BF1037BD46E4
:10404C0080BD00BF80B582B000AF7860786800F0AA
:10405C003FFB7B6800221A607B6800225A607B68F9
:10406C0000229A607B6818460837BD4680BD00BFA9
:10407C0080B584B000AFF860B9607A60BB68002B83
:10408C0005D0FB687A68B968184600F02DFB00BFB4
:10409C001037BD4680BD00BF80B582B000AF7860E0
:1040AC0039603968786800F005F878680837BD46DB
:1040BC0080BD00BF80B582B000AF786039603968D0
:1040CC00786800F021FB7B6818460837BD4680BD38
:1040DC0080B483B000AF78607B6818460C37BD465F
:1040EC0080BC704780B582B000AF786039603968A9
:1040FC007868FFF7DFFF7B6800221A607B6800227C
:10410C005A607B6800229A607B6818460837BD4667
:10411C0080BD00BF80B582B000AF7860396039686F
:10412C00786800F09FF902467B681A607B681A6811
:10413C007B685A607B6819683A6813469B00134485
:10414C00DB00CA187B689A6000BF0837BD4680BD8B
:10415C0080B483B000AF786039603B681A687B68C4
:10416C001A607B6818460C37BD4680BC704700BF90
:10417C0080B586B000AFF860B9607A600123FB753A
:10418C007A68B968F86800F0CBFA03461846183715
:10419C00BD4680BD80B582B000AF786039603968AB
:1041AC00786800F0FBFA00BF0837BD4680BD00BF41
:1041BC0080B483B000AF78607B68002B14BF012300
:1041CC000023DBB218460C37BD4680BC704700BFDD
:1041DC0090B585B000AF786039603868FFF718FD8E
:1041EC00034622461946786800F0F0FA00BF1437EF
:1041FC00BD4690BD80B483B000AF78607B68184634
:10420C000C37BD4680BC704790B583B000AF78606A
:10421C003960786800F0F6FA03461C683868FFF7D6
:10422C00E9FF03461B781846A04700BF0C37BD4674
:10423C0090BD00BFB0B586B000AFF860B960134652
:10424C00FB71FB79022B0DD0032B11D0012B14D158
:10425C00F86800F0E9FA0446B86800F0D3FA0346AF
:10426C0023600AE02A46B968F86800F0E9FA04E02D
:10427C002146F86800F000FB00BF002318461837F1
:10428C00BD46B0BD80B483B000AF78607B68184683
:10429C000C37BD4680BC704780B584B000AF7860E9
:1042AC0039607868FFF7EEFF024607F1080392E8E1
:1042BC00030083E803003868FFF7E4FF02467B68DD
:1042CC0092E8030083E8030007F108031846FFF7A0
:1042DC00D9FF02463B6892E8030083E8030000BF65
:1042EC001037BD4680BD00BF80B483B000AF78608E
:1042FC007B6818460C37BD4680BC704780B584B0CF
:10430C0000AF786039607868FFF7EEFF03461B68F2
:10431C00FB603868FFF7E8FF03461A687B681A6091
:10432C0007F10C031846FFF7DFFF03461A683B68DA
:10433C001A6000BF1037BD4680BD00BF80B483B08B
:10434C0000AF78607B6818460C37BD4680BC704760
:10435C0080B584B000AF786039607868FFF7EEFF05
:10436C0003461B68FB603868FFF7E8FF03461A68D2
:10437C007B681A6007F10C031846FFF7DFFF034652
:10438C001A683B681A6000BF1037BD4680BD00BF7D
:10439C00F0B585B000AFF860B9607A607868FFF767
:1043AC0097FC0646BD6829462820FEF763FE0446A6
:1043BC00002C0AD031462046FEF7C6FE05E0294601
:1043CC002046FEF763FE01F08DFA00BF1437BD46A0
:1043DC00F0BD00BF90B587B000AFF860B9607A60EF
:1043EC00F86800F055FA0446F868FFF735FB034609
:1043FC00E21ABB689A4234BF01230023DBB2002BC4
:10440C0002D0786801F09AFBF868FFF725FB0446A8
:10441C00F868FFF721FB03463B6107F1080207F13F
:10442C0010031146184600F045FA03461B68234456
:10443C007B61F868FFF710FB02467B699A4206D84D
:10444C00F86800F025FA02467B699A4204D2F868B3
:10445C0000F01EFA034600E07B6918461C37BD4687
:10446C0090BD00BF80B582B000AF786039603B680A
:10447C00002B06D07B683968184600F02FFA0346EB
:10448C0000E0002318460837BD4680BD90B585B0C6
:10449C0000AFF860B9607A603B60F86800F02EFA03
:1044AC000446B86800F02AFA01463B687A68204650
:1044BC0000F02EFA034618461437BD4690BD00BFD7
:1044CC0080B582B000AF786039603968786800F0E8
:1044DC0031FA00BF0837BD4680BD00BFF0B585B0CE
:1044EC0000AFF860B9607A607868FFF7B3FC0646F5
:1044FC00BD6829460C20FEF7BDFD0446002C0AD0F1
:10450C0031462046FFF734F805E029462046FEF7F1
:10451C00BDFD01F0E7F900BF1437BD46F0BD00BF8B
:10452C0090B587B000AFF860B9607A60F86800F0B9
:10453C000DFA0446F86800F04FF80346E21ABB681F
:10454C009A4234BF01230023DBB2002B02D07868DF
:10455C0001F0F4FAF86800F03FF80446F86800F04F
:10456C003BF803463B6107F1080207F110031146C3
:10457C00184600F09FF903461B6823447B61F868DA
:10458C0000F02AF802467B699A4206D8F86800F0D7
:10459C00DDF902467B699A4204D2F86800F0D6F93C
:1045AC00034600E07B6918461C37BD4690BD00BF32
:1045BC0080B582B000AF786039603B68002B06D0C4
:1045CC007B683968184600F0D3F9034600E00023F5
:1045DC0018460837BD4680BD80B483B000AF786004
:1045EC007B685B681A467B681B68D31A9B10044A6D
:1045FC0002FB03F318460C37BD4680BC704700BF66
:10460C00ABAAAAAA80B483B000AF78607B681846C6
:10461C000C37BD4680BC704790B585B000AFF860D4
:10462C00B9607A603B60F86800F0B2F90446B8688B
:10463C0000F0AEF901463B687A68204600F0B8F904
:10464C00034618461437BD4690BD00BF80B582B0F6
:10465C0000AF786039603968786800F0BBF900BF4A
:10466C000837BD4680BD00BF80B584B000AFF86090
:10467C00B9607A60B968F86800F0B8F900BF103713
:10468C00BD4680BD80B582B000AF7860786800F020
:10469C00BBF97B6818460837BD4680BD80B483B033
:1046AC0000AF78607B6818460C37BD4680BC7047FD
:1046BC0080B584B000AFF860B9607A607A68B96888
:1046CC00F86800F0ABF900BF1037BD4680BD00BFE5
:1046DC0080B582B000AF7860786800F0ADF97B6887
:1046EC0018460837BD4680BD80B584B000AFF86071
:1046FC00B9607A607A68B968F86800F0A7F900BF09
:10470C001037BD4680BD00BF80B483B000AF786069
:10471C0039607B6818460C37BD4680BC704700BFBB
:10472C0090B587B000AFF860B9607A607B687B6148
:10473C0007F1080207F10C031146184600F094F932
:10474C000346002B16D0786900F0B6F9044607F141
:10475C000C03184600F0BAF903461946204600F03F
:10476C00C1F907F10C03184600F096F97B69283360
:10477C007B61DDE77B690DE00346184600F041FDE7
:10478C0079697868FFF706FD00F08AFD00F063FD9B
:10479C0001F0A8F818461C37BD4690BD80B582B014
:1047AC0000AF786039607A683B689A420AD07868C2
:1047BC0000F082F90346184600F0B4F97B68283300
:1047CC007B60F0E700BF0837BD4680BD90B585B073
:1047DC0000AFF860B9603A71B868FFF719FA034690
:1047EC001C68F868FEF75CFC034619460420FEF7CB
:1047FC0041FC0346002B00D01C6000BF1437BD46A3
:10480C0090BD00BF80B584B000AF7860786800F0D0
:10481C0095F90346184600F09DF9F860FB681846B8
:10482C001037BD4680BD00BF80B582B000AF786048
:10483C007868FEF735FC034618460837BD4680BD40
:10484C0090B585B000AFF860B9603A71B86800F007
:10485C0075F903461C68F868FEF722FC03461946F6
:10486C000420FEF707FC0346002B00D01C6000BFA1
:10487C001437BD4690BD00BF80B582B000AF7860E4
:10488C003970786800F070F900BF0837BD4680BDFC
:10489C0080B582B000AF78607B681846FFF700F9EE
:1048AC000346184600F06CF9034618460837BD4617
:1048BC0080BD00BF80B483B000AF786039607B6886
:1048CC001A683B681B689A4201D23B6800E07B681F
:1048DC0018460C37BD4680BC704700BF80B582B00F
:1048EC0000AF7860396000223968786800F054F9BC
:1048FC00034618460837BD4680BD00BF80B483B060
:10490C0000AF78607B6818460C37BD4680BC70479A
:10491C0080B584B000AFF860B9607A603B607A68AB
:10492C00B968F86800F05AF9034618461037BD46C6
:10493C0080BD00BF80B582B000AF78603960386848
:10494C00FEF722FC00BF0837BD4680BD80B582B0A3
:10495C0000AF78607B68184600F05EF90346184695
:10496C0000F04EF9034618460837BD4680BD00BF1F
:10497C0080B582B000AF7860396000223968786801
:10498C0000F054F9034618460837BD4680BD00BFF9
:10499C0080B584B000AF786007F10C0379681846D5
:1049AC0000F066F9FB6818461037BD4680BD00BFA5
:1049BC0080B584B000AFF860B9607A603B607A680B
:1049CC00B968F86800F062F9034618461037BD461E
:1049DC0080BD00BF80B582B000AF786039603868A8
:1049EC00FEF712FE00BF0837BD4680BD80B582B011
:1049FC0000AF786039603968786800F059F900BF09
:104A0C000837BD4680BD00BF80B483B000AF78606E
:104A1C007B6818460C37BD4680BC704780B584B0A7
:104A2C0000AFF860B9607A60B86800F0CBFB00BFEB
:104A3C001037BD4680BD00BF80B483B000AF786036
:104A4C007B6818460C37BD4680BC704780B584B077
:104A5C0000AFF860B9607A60B86800F0B3FB00BFD3
:104A6C001037BD4680BD00BF90B583B000AF7860F5
:104A7C003960786800F034F903461C68386800F037
:104A8C002FF903461B689C4214BF01230023DBB2A1
:104A9C0018460C37BD4690BD80B483B000AF78602B
:104AAC007B681B6803F128027B681A607B681846D8
:104ABC000C37BD4680BC704780B483B000AF7860C3
:104ACC007B6818460C37BD4680BC704780B483B0F9
:104ADC0000AF78607B681B6818460C37BD4680BCFD
:104AEC00704700BFF0B583B000AF786039603868AC
:104AFC00FFF7EEF806467D6829462820FEF7BAFA3D
:104B0C000446002C0AD031462046FEF71DFB05E07A
:104B1C0029462046FEF7BAFA00F0E4FE00BF0C3737
:104B2C00BD46F0BD80B582B000AF78607868FEF706
:104B3C002BFB00BF0837BD4680BD00BF80B582B0DF
:104B4C0000AF78607868FEF7B5FA03461846083768
:104B5C00BD4680BD80B483B000AF78607B681846DA
:104B6C000C37BD4680BC704780B582B000AF786012
:104B7C007868FEF795FA034618460837BD4680BD9F
:104B8C0080B582B000AF7860786800F0B3F8034667
:104B9C0018460837BD4680BD80B584B000AFF860BC
:104BAC00B9607A60F86800F0A5F80246BB689A42D2
:104BBC0034BF01230023DBB2002B01D000F0B8FF7F
:104BCC00BA6813469B001344DB00184600F038FE0D
:104BDC00034618461037BD4680BD00BF80B586B071
:104BEC0000AFF860B9607A600123FB757A68B96828
:104BFC00F86800F08BF8034618461837BD4680BDA0
:104C0C0080B582B000AF7860786800F0AFF80346EA
:104C1C0018460837BD4680BD80B483B000AF7860BD
:104C2C007B6818460C37BD4680BC704780B584B095
:104C3C0000AFF860B9607A60F86800F097F8024647
:104C4C00BB689A4234BF01230023DBB2002B01D096
:104C5C0000F06EFFBA6813465B0013449B001846C5
:104C6C0000F0EEFD034618461037BD4680BD00BF70
:104C7C0080B483B000AF786039607B683A681A60A2
:104C8C007B6818460C37BD4680BC704780B586B033
:104C9C0000AFF860B9607A600123FB757A68B96877
:104CAC00F86800F06FF8034618461837BD4680BD0B
:104CBC0080B582B000AF786039607A683B689A4200
:104CCC000AD0786800F09CF80346184600F0A2F869
:104CDC007B680C337B60F0E700BF0837BD4680BDB6
:104CEC0080B483B000AF78607B6818460C37BD4643
:104CFC0080BC704780B483B000AF7860024B18461C
:104D0C000C37BD4680BC70476666660680B586B0BB
:104D1C0000AFF860B9607A607B687B61FA68BB6849
:104D2C009A420ED07869FFF7C7FE0346F968184619
:104D3C0000F086F8FB682833FB607B6928337B61C5
:104D4C00ECE77B690DE00346184600F05AFA7969E6
:104D5C007868FFF71FFA00F0A3FA00F07CFA00F075
:104D6C00C1FD18461837BD4680BD00BF80B483B066
:104D7C0000AF7860024B18460C37BD4680BC7047BC
:104D8C005555551590B587B000AFF860B9607A608D
:104D9C007B687B6107F1080207F10C03114618468A
:104DAC0000F06EF80346002B16D0786900F028F856
:104DBC00044607F10C03184600F084F80346194624
:104DCC00204600F095F807F10C03184600F06AF83D
:104DDC007B690C337B61DDE77B690DE0034618468C
:104DEC0000F00FFA79697868FFF700FE00F058FAC6
:104DFC0000F031FA00F076FD18461C37BD4690BD28
:104E0C0080B483B000AF78607B6818460C37BD4621
:104E1C0080BC704780B582B000AF78607868FEF7D0
:104E2C00F3FB00BF0837BD4680BD00BF80B483B024
:104E3C0000AF78607B6818460C37BD4680BC704765
:104E4C00F0B583B000AF786039603868FFF7EEFFDB
:104E5C0006467D6829462820FEF70CF90446002CEE
:104E6C000AD031462046FEF76FF905E02946204668
:104E7C00FEF70CF900F036FD00BF0C37BD46F0BD57
:104E8C0080B582B000AF786039603968786800F01E
:104E9C0049F8034683F00103DBB218460837BD46D8
:104EAC0080BD00BF80B483B000AF78607B681B68A6
:104EBC0003F10C027B681A607B6818460C37BD4600
:104ECC0080BC704780B483B000AF78607B681B688F
:104EDC0018460C37BD4680BC704700BF80B483B009
:104EEC0000AF78607B6818460C37BD4680BC7047B5
:104EFC0090B583B000AF786039603868FFF7EEFF8B
:104F0C0004467B6819460C20FEF7B4F80346002BC8
:104F1C0003D02146184600F025F800BF0C37BD46DB
:104F2C0090BD00BF90B583B000AF786039607868F1
:104F3C0000F02CF80446386800F028F803469C4230
:104F4C000CBF01230023DBB218460C37BD4690BDC5
:104F5C0080B483B000AF78607B6818460C37BD46D0
:104F6C0080BC704790B583B000AF786039607C68C6
:104F7C003868FFF7EDFF03461946204600F01CF891
:104F8C007B6818460C37BD4690BD00BF80B483B01B
:104F9C0000AF78607B681B6818460C37BD4680BC38
:104FAC00704700BF80B483B000AF78607B68184650
:104FBC000C37BD4680BC704790B583B000AF7860AD
:104FCC0039607C683868FEF7C5FD03461846FFF764
:104FDC00E9FF03461946204600F00CF87B683A6856
:104FEC001146184600F022F87B6818460C37BD466F
:104FFC0090BD00BF80B582B000AF78603960386872
:10500C00FFF7D0FF034619467868FFF753F87B6823
:10501C0000221A607B6800225A607B6800229A602A
:10502C007B6818460837BD4680BD00BF80B582B08E
:10503C0000AF786039607B683A681146184600F01A
:10504C001FF87B681A1D3B6804331946104600F0A4
:10505C0017F87B6803F108023B68083319461046C1
:10506C0000F00EF800BF0837BD4680BD80B483B099
:10507C0000AF78607B6818460C37BD4680BC704723
:10508C0080B584B000AF786039607868FFF7EEFFC8
:10509C0003461B68FB603868FFF7E8FF03461A6895
:1050AC007B681A6007F10C031846FFF7DFFF034615
:1050BC001A683B681A6000BF1037BD4680BD00BF40
:1050CC0080B582B000AF786039607B68012B0DD160
:1050DC003B684FF6FF72934208D10F48FEF710FA67
:1050EC000E48FEF71BFA0E48FEF718FA7B68002BE9
:1050FC000DD13B684FF6FF72934208D10848FEF77A
:10510C0083FA0648FEF780FA034800F00BF800BF5C
:10511C000837BD4680BD00BF1C03002028030020BB
:10512C0034030020B0B582B000AF78607B681C6897
:10513C007B685D687B681846FFF764FA03461A467D
:10514C0029462046FFF790FA7B681846FEF71AFCB2
:10515C007B6818460837BD46B0BD00BF80B500AFB0
:10516C004FF6FF710120FFF7ABFF80BD80B500AF9C
:10517C004FF6FF710020FFF7A3FF80BD80B582B012
:10518C0000AF786039600C490C48FCF7A5FDFDF7C1
:10519C0035F8FDF7E7F8FDF777F9FDF7ABF9FDF713
:1051AC0031FAFDF713FFFEF7D3F8FDF7FFFF0448C4
:1051BC00FCF792FDFEE700BF9C9300086C9300087F
:1051CC008893000802F0E4B80378472B17D1437892
:1051DC004E2B14D18378552B11D1C378432B0ED180
:1051EC000379432B0BD143792B2B08D183792B2BB0
:1051FC0005D1C07901288CBF002001207047002008
:10520C00704738B5054600F031FB01460268284668
:10521C00A5F12004FFF7D8FF28B90AB100F036FB3E
:10522C000C60144615E055F80C3C2846002BB4BF16
:10523C00C3F10103013345F80C3C4B68A24203F166
:10524C00FF334B601CBF45F8102C0C606C6A01F0EE
:10525C00D5F9204638BD10B500F004FB02680146B4
:10526C00EAB102F120042046FFF7AEFF08B908604E
:10527C000BE05369002B04DA01330FD1106908607D
:10528C000CE0013B06D113690B602046BDE81040D1
:10529C0001F0B6B9591C01D100F0F8FA536110BDF8
:1052AC0008B500F0E3FA426803680132426053B378
:1052BC0093F82020472A28D193F821204E2A24D174
:1052CC0093F82220552A20D193F82320432A1CD16D
:1052DC0093F82420432A18D193F825202B2A14D193
:1052EC0093F826202B2A10D193F82720012A0CD8CA
:1052FC005A6952425A6103F12004204601F048FDDC
:10530C002046FFF77EFF00F0C1FA00220260F2E7B0
:10531C0070B50023A0EBC006C0EBC00210F8015B17
:10532C00941905F07F02A24013432A06F4D40B60B3
:10533C0070BD00231A4630B510F8014B04F07F0500
:10534C0095402B43250602F10702F5D41F2A06D8F7
:10535C00640642BF4FF0FF3404FA02F213430B60B1
:10536C0030BD5028F7B505460F4614461E4605D1EC
:10537C00D01C20F0030050F8043B33E000F00F0386
:10538C000C2B23D8DFE803F01A07121A1E22222254
:10539C00220C161A1E0001A92046FFF7B9FF03E0E4
:1053AC0001A92046FFF7C5FF019B11E0204630F80C
:1053BC00023B0DE0204630F9023B09E0204650F854
:1053CC00043B05E0204650F8083B01E0FCF702FCEA
:1053DC0043B105F07002102A18BF3C462A0623443C
:1053EC0048BF1B68336003B0F0BD08B50346FF2B04
:1053FC0008461CD003F07003202B0ED003D8B3B199
:10540C00102B12D113E0402B0BD0502B0FD0302B84
:10541C000BD1BDE8084001F097BEBDE8084001F093
:10542C008FBEBDE8084001F07BBEFCF7D3FB00202B
:10543C0008BD70B50C460146204615461E46FFF7C2
:10544C00D4FF33462A4601462046BDE87040FFF79C
:10545C0088BF73B50E461446054610B101F060FEC8
:10546C00FFE720603178721CFF2905D0231D2846E8
:10547C00FFF7DFFF024600E060601378501CFF2B43
:10548C00237507D01023237501A9FFF741FF019B5A
:10549C00034400E00023E360037801A96375013045
:1054AC00FFF736FF019B0344236102B070BD1FB5AB
:1054BC0003AB009300230A46194601F0A7F80398A2
:1054CC0005B05DF804FB00002DE9F04F002391B00E
:1054DC00049300F00303012B07460C4615460ED02F
:1054EC0002D3022B02D0EFE0020717D52946204643
:1054FC0001F002FE08B109209FE108209DE100F0B7
:10550C00080202F0FF065AB9D1F8208028460D2176
:10551C00FFF7CDFF804520D1062602E0012600E0F2
:10552C00022610AB43F82C4D009307F0080700231C
:10553C003E430C221946284601F08EF8062E17D150
:10554C00D4F83080A76AB8F1000FD4F82C900CBFB7
:10555C004FF0010A4FF0030A05E110AA42F82C4D56
:10556C000092334631460C22284601F075F802268B
:10557C00284601F0DBFD81460028B7D00AAA014677
:10558C002846FFF766FF294680469DF83C00FFF74A
:10559C002CFF0F210C902846FFF789FF20F001000B
:1055AC00471E0E9B984580F03F81424606AB9DF806
:1055BC003D100020FFF73DFF07AB02469DF83D1064
:1055CC000020FFF736FF08AB02469DF83D10002087
:1055DC00FFF72FFF09A9FFF79BFE069B0A9A80464F
:1055EC0013449F4202D2DDF83880DAE7079A13445D
:1055FC009F42D6D2089818B10B9B00EB030800E031
:10560C008046099810B10E9F01383844B8F1000F4C
:10561C003FF46CAF002800F00C8116F008030293E5
:10562C0014D0472323704E2363705523A370432358
:10563C00E370462323714F2363715223A37100231C
:10564C00E3714FF0000A6FF0030B1BE0E379012BC1
:10565C000CBF54F8203C04F158030493F1E70427E1
:10566C000D9A09AB07FB11220C99FFF77AFE0999E9
:10567C00002900F0D5806CBB089F002F59D0039BEC
:10568C003B44184607A9FFF754FE08A90390FFF7FF
:10569C0050FE0799002949D025DD9DF83C00FF28D4
:1056AC0014D000F00703042B0ED801A252F823F0FB
:1056BC006B560008D5560008DD5600086B560008DE
:1056CC00D15600080827CBE7FCF784FA0027C7E778
:1056DC000227C5E704AB0022204600F027F900287A
:1056EC0040F09E80C8E70D9F4A1CB4B1029BA3B941
:1056FC000BFB0272049B171F069357F8041F41B152
:10570C0006AB00223944204600F010F90028F4D0F2
:10571C00012181F00101C9B205E00BFB02F2B9587D
:10572C00B1FA81F149090029A6D079E04FF0010ABC
:10573C00A2E7BAF1000F3FF4D9AE4FF0020AF3071B
:10574C0011D5BAF1020F3FF4D1AE0D212846049EBB
:10575C00FFF7ADFE66622062A762C4F82C90C4F815
:10576C003080062069E016F0080608D0BAF1010F67
:10577C0001D100F08BF8002F24DA00F099F8BAF17F
:10578C00010F02D1204600F061FB002F1ADA0AAAA1
:10579C0049462846FFF75DFE29469DF83C00FFF779
:1057AC0024FE6FF0030307FB03330D9A0C90134494
:1057BC0053F826200AB10136FAE70422A662E06209
:1057CC002263636310AB43F81C4D009300231A460D
:1057DC001946284600F040FF10AB43F8207D00939B
:1057EC00002319460122284600F036FF0F212846D7
:1057FC00FFF75DFE00F0010010AB40EA080043F833
:10580C00240D009300230F221946284600F024FF94
:10581C00BAF1020F02D1204600F0E4F807200CE0A8
:10582C00079F4FF0030A8AE74FF000084FF0010A78
:10583C0001E04FF0020A002781E711B0BDE8F08FBC
:10584C0010B5002814BF04460124204601F098FD31
:10585C0030B900F01FFB08B9FCF7BCF98047F4E73E
:10586C0010BD0000004870474403002000487047FA
:10587C004403002008B58047FCF7ACF9024B1868CC
:10588C00BFF35F8F704700BF3800002008B5FFF7EB
:10589C00F5FFFFF7EFFF08B58047FFF7F7FF0000B4
:1058AC00024B1868BFF35F8F704700BF3C000020AD
:1058BC0008B5FFF7F5FFFFF7EEFF000038B5084C11
:1058CC004FF41E652846E56001F05AFDA06010B942
:1058DC00E060606038BD002360600560436038BDE7
:1058EC00500300201EB400F09AF81EBC01F03EFAE2
:1058FC000378472B17D143784E2B14D18378552B33
:10590C0011D1C378432B0ED10379432B0BD143799F
:10591C002B2B08D183792B2B05D1C07901288CBF77
:10592C000020012070470020704700002DE9F34152
:10593C001D4603780E46472B0246C17943D1437866
:10594C004E2B40D18378552B3DD1C378432B3AD184
:10595C000379462B37D143794F2B34D18379522B92
:10596C0031D100292FD108460123002401947BB9A1
:10597C0080B901290ABF52F8203CA2F12003783BE0
:10598C0001290CBF52F8202C58321C68019202E0FD
:10599C00124C00E0124C236820469B68984720B1BB
:1059AC00019B02271B68019300E00127336801AAC1
:1059BC00D3F81080214601233046C04758B1019BD3
:1059CC0038462B6007E01046FFF792FF80F001008D
:1059DC00C0B20023C9E702B0BDE8F081D49300083F
:1059EC000094000810B50446FFF740FF024620461D
:1059FC00A4F12001FFF77CFF50B154F8043C0133B3
:105A0C00012B44F8043C08D1936844F8083C03E0AB
:105A1C0093680BB1FFF73AFF9160012010BD10B5F0
:105A2C00FFF724FF826801460AB9FFF72FFF02F146
:105A3C0020042046FFF75CFF38B1D369013BD361EA
:105A4C0023B990698860936100E08860204610BD9E
:105A5C007FB5102302930368002415469E690094B9
:105A6C006B468DF8044003941268B0479DF80430DF
:105A7C0003F00603062B11BF2046009B01202B6070
:105A8C0004B070BD009890420CBF062001207047F6
:105A9C0010B50446024B036000F086FA204610BD98
:105AAC001094000810B50446FFF7F2FF2046FFF7EC
:105ABC0089FB204610BD38B515461C4600F077FA18
:105ACC0020B10823E36006232560237138BD2DE93E
