:020000040800F2
:1000000000500020850200088D02000895020008BB
:1000100021030008290300088103000800000000F4
:10002000000000000000000000000000D9030008EC
:10003000E103000800000000E90300085523000860
:10004000090400080904000809040008292300081D
:10005000090400080904000809040008090400084C
:10006000090400080904000809040008090400083C
:10007000090400080904000809040008090400082C
:10008000090400080904000809040008090400081C
:10009000090400080904000809040008090400080C
:1000A00009040008090400080904000809040008FC
:1000B00009040008090400080904000809040008EC
:1000C00009040008090400080904000809040008DC
:1000D0000904000881230008090400080904000835
:1000E00009040008090400080904000800000000D1
:1000F0000000000000000000000000000000000000
:1001000000000000000000005FF808F180B58EB02C
:1001100000AF01F067FE494B494A1A60494B484A13
:100120001A60494BFB62494BBB62494B7B62BB6A1D
:100130003B6207E03B6A1A1D3A62FA6A111DF962D6
:1001400012681A607A6A3B6A9A42F3D83B4B1B6882
:10015000404A934204D13B4B1B683F4A934200D034
:10016000FEE73E4B364A1A603D4B354A1A603D4B1E
:100170007B633D4BFB617B6BBB6104E0BB691A1D7C
:10018000BA6100221A60FA69BB699A42F6D8334B09
:100190001B68002B03D1324B1B68002B00D0FEE7FD
:1001A00001F02EFE3A463B1D1146184601F02CFD8B
:1001B0002E4A2F4BD31A9B10FB600023BB6007E035
:1001C0002B4ABB6852F823309847BB680133BB60A9
:1001D000FA68BB689A42F3DC264A274BD31A9B1075
:1001E000FB600023BB6007E0234ABB6852F8233062
:1001F0009847BB680133BB60FA68BB689A42F3DC7E
:100200007B683A681146184605F02EF938631B4A98
:100210001B4BD31A9B107B617B693B6108E03B69F8
:10022000013B174A52F8233098473B69013B3B6139
:100230003B69002BF3DC386B05F0B2F800000020BE
:10024000BABADECA6002002048B6000800000020EA
:1002500064020020785634123254769864020020EA
:1002600044050020640200204805002038040008EE
:100270003804000854040008380400085C0400082E
:100280005404000880B500AFFFF740FF80B400AF12
:1002900000BEFEE71EF0040F0CBFEFF30880EFF383
:1002A00009807146554A104700BF00BF80B588B02D
:1002B00002AF78603960184B5B6B7B61164B9B6BB0
:1002C0003B61154B9B6AFB60134B1B6B03F00203F6
:1002D000002B10D0104BDB6A002B0CDA4BF6AB6115
:1002E000786801F029FE0346002B04D00A4B4FF03A
:1002F0000042DA620CE0094801F0DAFC3B68009346
:100300003B697A69F968786801F080FD00BEFEE714
:100310001837BD4680BD00BF00ED00E03C9D0008E1
:1003200080B400AF00BEFEE71EF0040F0CBFEFF379
:100330000880EFF309807146314A104700BF00BFC3
:1003400080B588B002AF786039600B4B5B6B7B6126
:10035000094B9B6B3B61084B9B6AFB60074801F0B4
:10036000A7FC3B6800933B697A69F968786801F0FB
:100370004DFD00BEFEE700BF00ED00E04C9D000813
:100380001EF0040F0CBFEFF30880EFF309807146F5
:100390001C4A104700BF00BF80B588B002AF78602C
:1003A00039600B4B5B6B7B61094B9B6B3B61084B73
:1003B0009B6AFB60074801F07BFC3B6800933B694C
:1003C0007A69F968786801F021FD00BEFEE700BF98
:1003D00000ED00E0589D000880B400AF00BEFEE7CD
:1003E00080B400AF00BEFEE780B400AF00BEFEE701
:1003F00080B400AF00BFBD4680BC7047AD020008AE
:10040000410300089903000880B400AF00BEFEE776
:1004100048B60008000000206402002048B600082A
:1004200000000000000000006402002048050020D9
:100430000000000000000000E532000881530008C1
:10044000A95B00084D67000811680008956800085E
:0C04500059690008F532000891530008BB
:10045C0080B584B000AF78600023FB607B68002B14
:10046C000AD07B68012B07D07B68022B04D040F2AA
:10047C0003110A4801F008FC094B1B68FB60FB6880
:10048C0003F03803FB60FA687B681343FB60044A93
:10049C00FB68136000BF1037BD4680BD249A00086E
:1004AC000020024080B582B000AF78607B68102BD2
:1004BC0007D07B68002B04D040F22F11094801F0C3
:1004CC00E3FB094A084B1B6823F010031360064931
:1004DC00054B1A687B6813430B6000BF0837BD4699
:1004EC0080BD00BF249A00080020024080B588B06F
:1004FC0000AF786039600023FB6100233B6100236F
:10050C00BB610023FB6000237B610023BB607B6825
:10051C00824A93421BD07B68814A934217D07B68F6
:10052C00804A934213D07B687F4A93420FD07B68FA
:10053C007E4A93420BD07B687D4A934207D07B68FE
:10054C007C4A934203D0B2217B4801F09DFB3B686F
:10055C00DB78002B1FD03B68DB78042B1BD03B686F
:10056C00DB78282B17D03B68DB78482B13D03B6803
:10057C00DB78142B0FD03B68DB78102B0BD03B684F
:10058C00DB781C2B07D03B68DB78182B03D0B3210E
:10059C00694801F079FB3B681B88002B03D1B4211F
:1005AC00654801F071FB3B68DB7803F00F03FB61DE
:1005BC003B68DB7803F01003002B15D03B689B786D
:1005CC00012B0BD03B689B78022B07D03B689B78A8
:1005DC00032B03D0BB21584801F056FB3B689B789A
:1005EC001A46FB691343FB613B681B88DBB2002B8B
:1005FC0044D07B681B687B610023BB6138E001221F
:10060C00BB6902FA03F3FB603B681B881A46FB6864
:10061C0013403B613A69FB689A4226D1BB699B0047
:10062C00FB600F22FB6802FA03F3BB60BB68DB4381
:10063C007A6913407B61FA69FB6802FA03F37A6901
:10064C0013437B613B68DB78282B05D10122BB6906
:10065C009A407B685A6108E03B68DB78482B04D1F0
:10066C000122BB699A407B681A61BB690133BB618B
:10067C00BB69072BC3D97B687A691A603B681B88F6
:10068C00FF2B46D97B685B687B610023BB613AE03A
:10069C00BB690833012202FA03F3FB603B681B8839
:1006AC001A46FB6813403B613A69FB689A4227D1B2
:1006BC00BB699B00FB600F22FB6802FA03F3BB6073
:1006CC00BB68DB437A6913407B61FA69FB6802FA09
:1006DC0003F37A6913437B613B68DB78282B05D1E4
:1006EC00BB69083301229A407B685A613B68DB780E
:1006FC00482B05D1BB69083301229A407B681A61EB
:10070C00BB690133BB61BB69072BC1D97B687A69B3
:10071C005A6000BF2037BD4680BD00BF00080140B5
:10072C00000C014000100140001401400018014071
:10073C00001C014000200140589A000880B582B08E
:10074C0000AF78600B467B8013467B707B683B4A1E
:10075C0093421CD07B683A4A934218D07B68394A42
:10076C00934214D07B68384A934210D07B68374A46
:10077C0093420CD07B68364A934208D07B68354A4A
:10078C00934204D040F28D11334801F07DFA7B88FE
:10079C00012B39D07B88022B36D07B88042B33D0AD
:1007AC007B88082B30D07B88102B2DD07B88202B7E
:1007BC002AD07B88402B27D07B88802B24D07B8829
:1007CC00B3F5807F20D07B88B3F5007F1CD07B886D
:1007DC00B3F5806F18D07B88B3F5006F14D07B888D
:1007EC00B3F5805F10D07B88B3F5005F0CD07B88AD
:1007FC00B3F5804F08D07B88B3F5004F04D04FF48D
:10080C00C771154801F040FA7B78002B07D07B7834
:10081C00012B04D040F28F110F4801F035FA7B7890
:10082C00002B03D07A887B681A6102E07A887B6897
:10083C005A6100BF0837BD4680BD00BF00080140AB
:10084C00000C014000100140001401400018014050
:10085C00001C014000200140589A000880B582B06D
:10086C0000AF0346FB71FB79002B06D0FB79012B03
:10087C0003D07F21044801F007FA044AFB79136086
:10088C0000BF0837BD4680BD8C9A000820000E4280
:10089C0080B400AF134A134B1B6843F00103136081
:1008AC001049104B5A68104B13404B600D4A0D4BBE
:1008BC001B6823F0847323F480331360094A094BBB
:1008CC001B6823F480231360064A064B5B6823F4F1
:1008DC00FE035360034B4FF41F029A6000BFBD46EA
:1008EC0080BC7047001002400000FFF880B582B059
:1008FC0000AF78607B68002B0CD07B68B3F5803F31
:10090C0008D07B68B3F5802F04D040F21111144845
:10091C0001F0BAF9134A134B1B6823F480331360AC
:10092C00104A104B1B6823F4802313607B68B3F5CB
:10093C00803F03D0B3F5802F07D00DE0094A094B57
:10094C001B6843F48033136006E0064A054B1B68B2
:10095C0043F4A023136000BF00BF0837BD4680BD21
:10096C00BC9A00080010024080B582B000AF002392
:10097C003B600023FB710023BB71312000F01AFB9C
:10098C000346BB713B6801333B603B68B3F5A06F1A
:10099C0002D0BB79002BF0D0312000F00BFB0346CA
:1009AC00002B02D00123FB7101E00023FB71FB79CA
:1009BC0018460837BD4680BD80B584B000AF78605E
:1009CC0039600023FB607B68002B0CD07B68B3F58F
:1009DC00803F08D07B68B3F5403F04D040F27F11D4
:1009EC002B4801F051F93B68002B3CD03B68B3F528
:1009FC00802F38D03B68B3F5002F34D03B68B3F56B
:100A0C00402F30D03B68B3F5801F2CD03B68B3F53A
:100A1C00A01F28D03B68B3F5C01F24D03B68B3F5AA
:100A2C00E01F20D03B68B3F5001F1CD03B68B3F52A
:100A3C00101F18D03B68B3F5201F14D03B68B3F5DA
:100A4C00301F10D03B68B3F5401F0CD03B68B3F59A
:100A5C00501F08D03B68B3F5601F04D04FF4C07131
:100A6C000B4801F011F90B4B5B68FB60FB6823F43E
:100A7C007C13FB607A683B681343FA681343FB6092
:100A8C00044AFB68536000BF1037BD4680BD00BFF1
:100A9C00BC9A00080010024080B582B000AF03463B
:100AAC00FB71FB79002B07D0FB79012B04D04FF4A1
:100ABC00CA71054801F0E8F8044AFB79136000BFDD
:100ACC000837BD4680BD00BFBC9A0008600042429A
:100ADC0080B584B000AF78600023FB607B68002B8E
:100AEC000AD07B68012B07D07B68022B04D04FF413
:100AFC000E710A4801F0C8F8094B5B68FB60FB6893
:100B0C0023F00303FB60FA687B681343FB60044A21
:100B1C00FB68536000BF1037BD4680BDBC9A00080F
:100B2C000010024080B400AF044B5B68DBB203F0F2
:100B3C000C03DBB21846BD4680BC70470010024067
:100B4C0080B584B000AF78600023FB607B68002B1D
:100B5C001CD07B68802B19D07B68902B16D07B68BF
:100B6C00A02B13D07B68B02B10D07B68C02B0DD082
:100B7C007B68D02B0AD07B68E02B07D07B68F02BEE
:100B8C0004D04FF419710A4801F07EF8094B5B68E8
:100B9C00FB60FB6823F0F003FB60FA687B6813438F
:100BAC00FB60044AFB68536000BF1037BD4680BD34
:100BBC00BC9A00080010024080B584B000AF786089
:100BCC000023FB607B68002B14D07B68B3F5806F2F
:100BDC0010D07B68B3F5A06F0CD07B68B3F5C06FF9
:100BEC0008D07B68B3F5E06F04D040F27E210A4850
:100BFC0001F04AF8094B5B68FB60FB6823F4E06387
:100C0C00FB60FA687B681343FB60044AFB68536023
:100C1C0000BF1037BD4680BDBC9A000800100240D2
:100C2C0080B584B000AF78600023FB607B68002B3C
:100C3C0014D07B68B3F5806F10D07B68B3F5A06FD0
:100C4C000CD07B68B3F5C06F08D07B68B3F5E06F50
:100C5C0004D04FF426710B4801F016F80A4B5B6870
:100C6C00FB60FB6823F46053FB607B68DB00FA6875
:100C7C001343FB60044AFB68536000BF1037BD464A
:100C8C0080BD00BFBC9A00080010024080B582B045
:100C9C0000AF0346FB71FB79002B0AD0FB79012BCB
:100CAC0007D0FB79042B04D04FF450710D4800F0A1
:100CBC00EBFF0D4B00221A700B4B00221A70FB79C4
:100CCC00012B02D0042B04D007E0074B01221A7031
:100CDC0003E0054B05221A7000BF00BF0837BD4664
:100CEC0080BD00BFBC9A00082010024080B582B0C5
:100CFC0000AF78607B68B3F5807F0CD07B68B3F570
:100D0C00007F08D07B68B3F5407F04D040F272318D
:100D1C00064800F0B9FF0649054B1A6A7B68134375
:100D2C000B6200BF0837BD4680BD00BFBC9A0008EF
:100D3C000010024080B582B000AF0346FB71FB7916
:100D4C00002B07D0FB79012B04D04FF460710548C0
:100D5C0000F09AFF044AFB79136000BF0837BD46C8
:100D6C0080BD00BFBC9A00083C04424280B487B0EE
:100D7C0000AF786000237B6100233B610023FB60A4
:100D8C000023BB604C4B5B6803F00C037B617B69FD
:100D9C00042B07D0082B09D0002B33D17B68474A92
:100DAC001A6033E07B68454A1A602FE0424B5B685F
:100DBC0003F470133B61404B5B6803F48033FB60BE
:100DCC003B699B0C02333B61FB68002B06D13B69F2
:100DDC003B4A02FB03F27B681A6017E0364B5B68F8
:100DEC0003F40033002B06D03B69354A02FB03F2B7
:100DFC007B681A600AE03B69304A02FB03F27B68AD
:100E0C001A6003E07B682D4A1A6000BF2A4B5B68AE
:100E1C0003F0F0037B617B691B097B61294A7B69C9
:100E2C0013441B78DBB2BB607B681A68BB68DA4082
:100E3C007B685A60204B5B6803F4E0637B617B69E1
:100E4C001B0A7B611F4A7B6913441B78DBB2BB60B6
:100E5C007B685A68BB68DA407B689A60164B5B68A3
:100E6C0003F460537B617B69DB0A7B61154A7B6908
:100E7C0013441B78DBB2BB607B685A68BB68DA40F2
:100E8C007B68DA600C4B5B6803F440437B617B69E5
:100E9C009B0B7B610C4A7B6913441B78DBB2BB60F8
:100EAC007B68DA68BB68B2FBF3F27B681A6100BF3F
:100EBC001C37BD4680BC70470010024000127A00FF
:100ECC0000093D00040000201400002080B582B011
:100EDC0000AF78600B46FB707A68164B1340002B02
:100EEC0002D17B68002B04D140F24A41124800F039
:100EFC00CBFEFB78002B07D0FB78012B04D040F203
:100F0C004B410D4800F0C0FEFB78002B06D00B497E
:100F1C000A4B9A697B6813438B6106E00749074BC0
:100F2C009A697B68DB4313408B6100BF0837BD4671
:100F3C0080BD00BF0200C0FFBC9A00080010024038
:100F4C0080B582B000AF78600B46FB707A68164BA8
:100F5C001340002B02D17B68002B04D140F2694175
:100F6C00124800F091FEFB78002B07D0FB78012B88
:100F7C0004D040F26A410D4800F086FEFB78002B4D
:100F8C0006D00B490A4BDA697B681343CB6106E048
:100F9C000749074BDA697B68DB431340CB6100BF21
:100FAC000837BD4680BD00BF00360181BC9A0008E1
:100FBC000010024080B586B000AF0346FB710023E1
:100FCC00FB6000237B610023FB74FB79212B22D077
:100FDC00FB79312B1FD0FB79392B1CD0FB79412BA2
:100FEC0019D0FB79612B16D0FB797A2B13D0FB79B6
:100FFC007B2B10D0FB797C2B0DD0FB797D2B0AD071
:10100C00FB797E2B07D0FB797F2B04D040F2345137
:10101C00164800F039FEFB795B09DBB2FB60FB681C
:10102C00012B03D1124B1B687B6109E0FB68022B7F
:10103C0003D10F4B1B6A7B6102E00D4B5B6A7B613A
:10104C00FB7903F01F03FB607A69FB6822FA03F358
:10105C0003F00103002B02D00123FB7401E00023F9
:10106C00FB74FB7C18461837BD4680BDBC9A000843
:10107C000010024080B582B000AF03460A46FB80E8
:10108C0013467B71FA884FF6F8731340002B02D18C
:10109C00FB88002B03D15D21134800F0F5FD7B7913
:1010AC00002B06D07B79012B03D05E210E4800F07B
:1010BC00EBFD7B79002B08D00C490C4B1B889AB2AA
:1010CC00FB8813439BB20B8009E00849074B1B8834
:1010DC009AB2FB88DB439BB213409BB20B8000BFE0
:1010EC000837BD4680BD00BFEC9A000800280040C0
:1010FC0080B400AF054A054B9B889BB243F01003AC
:10110C009BB2938000BFBD4680BC70470028004056
:10111C0080B400AF054A054B9B889BB223F01003AB
:10112C009BB2938000BFBD4680BC70470028004036
:10113C0080B483B000AF0023FB80074B9B8BFB80FC
:10114C00054B1B8B9BB21A04FB88134318460C37B8
:10115C00BD4680BC704700BF0028004080B582B0FF
:10116C0000AF78607B68B3F5801F03D3A9210B48CF
:10117C0000F08AFDFFF7BCFF094A7B681B0C9BB291
:10118C0003F00F039BB21381054B7A6892B29A81DC
:10119C00FFF7BEFF00BF0837BD4680BDEC9A0008C4
:1011AC000028004080B400AF00BF054B9B889BB269
:1011BC0003F02003002BF8D000BFBD4680BC704765
:1011CC000028004080B400AF094A094B9B889BB2B1
:1011DC0023F008039BB2938000BF054B9B889BB206
:1011EC0003F00803002BF8D000BFBD4680BC70474D
:1011FC000028004080B582B000AF0346FB80FA881F
:10120C004FF6F0731340002B02D1FB88002B04D156
:10121C0040F21F11084800F037FD0849074B9B8826
:10122C009AB2FB88DB439BB213409BB28B8000BF0E
:10123C000837BD4680BD00BFEC9A0008002800406E
:10124C0080B584B000AF0346FB800023FB73FB88A2
:10125C00042B0AD0FB88022B07D0FB88012B04D06F
:10126C004FF499710F4800F00FFD0F4B9B889BB208
:10127C00DAB2FB88DBB21340FB730B4B1B889AB2C0
:10128C00FB8813409BB2002B05D0FB7B002B02D0BC
:10129C000123FB7301E00023FB73FB7B1846103723
:1012AC00BD4680BDEC9A00080028004080B582B095
:1012BC0000AF0346FB80FA884FF6F8731340002BFF
:1012CC0002D1FB88002B04D14FF4A671084800F022
:1012DC00DBFC0849074B9B889AB2FB88DB439BB22B
:1012EC0013409BB28B8000BF0837BD4680BD00BF4A
:1012FC00EC9A00080028004080B584B000AF7860FC
:10130C0039600023FB817B686B4A93420BD07B686E
:10131C006A4A934207D07B68694A934203D0A3215F
:10132C00684800F0B1FC3B681B88002B12D03B686E
:10133C001B88B3F5806F0DD03B681B88B3F5004F4D
:10134C0008D03B681B88B3F5404F03D0A6215D48FD
:10135C0000F09AFC3B685B88B3F5827F07D03B6852
:10136C005B88002B03D0A721564800F08DFC3B680E
:10137C009B88B3F5006F07D03B689B88002B03D08C
:10138C00A821504800F080FC3B68DB88002B07D07C
:10139C003B68DB88022B03D0A9214A4800F074FC7F
:1013AC003B681B89002B07D03B681B89012B03D0A2
:1013BC00AA21444800F068FC3B685B89B3F5007FC8
:1013CC0007D03B685B89002B03D0AB213D4800F074
:1013DC005BFC3B689B89002B1FD03B689B89082BCF
:1013EC001BD03B689B89102B17D03B689B89182B13
:1013FC0013D03B689B89202B0FD03B689B89282BF3
:10140C000BD03B689B89302B07D03B689B89382BD2
:10141C0003D0AC212B4800F037FC3B68DB89002B58
:10142C0007D03B68DB89802B03D0AD21254800F029
:10143C002BFC3B681B8A002B03D1AE21214800F00A
:10144C0023FC7B681B88FB81FB8903F44153FB81E4
:10145C003B681A883B685B8813439AB23B689B884D
:10146C0013439AB23B68DB8813439AB23B681B89DF
:10147C0013439AB23B685B8913439AB23B689B89CE
:10148C0013439AB23B68DB8913439AB2FB8913432B
:10149C00FB817B68FA891A807B689B8B9BB223F457
:1014AC0000639AB27B689A833B681A8A7B681A82BB
:1014BC0000BF1037BD4680BD0030014000380040F1
:1014CC00003C00401C9B000880B582B000AF7860E7
:1014DC000B46FB707B68194A93420CD07B68184A08
:1014EC00934208D07B68174A934204D040F2B7115C
:1014FC00154800F0C9FBFB78002B07D0FB78012BBB
:10150C0004D04FF4DC71104800F0BEFBFB78002BCC
:10151C0008D07B681B889BB243F040039AB27B686F
:10152C001A8007E07B681B889BB223F040039AB2B9
:10153C007B681A8000BF0837BD4680BD0030014073
:10154C0000380040003C00401C9B000880B582B075
:10155C0000AF78600B467B807B680B4A93420CD0C3
:10156C007B680A4A934208D07B68094A934204D0AC
:10157C0040F23A21074800F087FB7B687A889A8111
:10158C0000BF0837BD4680BD003001400038004028
:10159C00003C00401C9B000880B582B000AF786016
:1015AC007B680B4A93420CD07B680A4A934208D062
:1015BC007B68094A934204D040F24A21074800F064
:1015CC0063FB7B689B899BB218460837BD4680BD80
:1015DC000030014000380040003C00401C9B0008DB
:1015EC0080B582B000AF78600B46FB707B68194AFF
:1015FC0093420CD07B68184A934208D07B68174AF8
:10160C00934204D040F2AE21154800F03DFBFB782C
:10161C00002B07D0FB78012B04D040F2AF211048EF
:10162C0000F032FBFB78002B08D07B681B889BB248
:10163C0043F400539AB27B681A8007E07B681B88DE
:10164C009BB223F400539AB27B681A8000BF083710
:10165C00BD4680BD0030014000380040003C0040D9
:10166C001C9B000880B584B000AF78600B467B8073
:10167C000023FB737B681F4A93420CD07B681E4A85
:10168C00934208D07B681D4A934204D040F2163135
:10169C001B4800F0F9FA7B88802B19D07B88402BF3
:1016AC0016D07B88202B13D07B88102B10D07B88F6
:1016BC00082B0DD07B88042B0AD07B88022B07D0FB
:1016CC007B88012B04D040F217310D4800F0DCFA76
:1016DC007B681B899AB27B8813409BB2002B02D08B
:1016EC000123FB7301E00023FB73FB7B18461037CF
:1016FC00BD4680BD0030014000380040003C004039
:10170C001C9B000880B58CB000AF7860396000235A
:10171C00FB620023BB6200237B6200233B6200233D
:10172C00FB617B689D4A934213D07B689C4A934231
:10173C000FD07B689B4A93420BD07B689A4A9342AA
:10174C0007D07B68994A934203D0B821984800F09F
:10175C009BFA3B681B68002B04D03B681B68954ABE
:10176C00934203D9B921924800F08EFA3B689B88CA
:10177C00002B08D03B689B88B3F5805F03D0BA215F
:10178C008B4800F081FA3B68DB88002B12D03B6859
:10179C00DB88B3F5805F0DD03B68DB88B3F5005F69
:1017AC0008D03B68DB88B3F5405F03D0BB21804891
:1017BC0000F06AFA3B681B89002B0DD03B681B8933
:1017CC00B3F5806F08D03B681B89B3F5C06F03D0AD
:1017DC00BC21774800F058FA3B685B891A464FF6F3
:1017EC00F3731340002B03D13B685B89002B03D1AF
:1017FC00BD216F4800F048FA3B689B89002B12D042
:10180C003B689B89B3F5807F0DD03B689B89B3F512
:10181C00007F08D03B689B89B3F5407F03D0BE2185
:10182C00634800F031FA3B689B89002B0FD07B6832
:10183C005A4A93420BD07B68594A934207D07B6833
:10184C00584A934203D0C221594800F01DFA7B68D4
:10185C00FB617B681B8A9BB2FB62FA6A4CF6FF73D6
:10186C001340FB623B68DB881A46FB6A1343FB623E
:10187C00FB6A9AB27B681A827B689B899BB2FB627B
:10188C00FA6A4EF6F3131340FB623B689A883B6886
:10189C001B8913439AB23B685B8913439BB21A466C
:1018AC00FB6A1343FB62FB6A9AB27B689A817B6882
:1018BC009B8A9BB2FB62FA6A4FF6FF431340FB62B2
:1018CC003B689B891A46FB6A1343FB62FB6A9AB21C
:1018DC007B689A8207F108031846FFF747FAFB6901
:1018EC002E4A934202D17B69BB6201E03B69BB6229
:1018FC007B689B899BB21BB2002B0CDABA6A13462D
:10190C009B0013449A001A443B681B685B00B2FBB3
:10191C00F3F37B620BE0BA6A13469B0013449A0004
:10192C001A443B681B689B00B2FBF3F37B627B6A37
:10193C00214AA2FB03235B091B01FB62FB6A1B0907
:10194C00642202FB03F37A6AD31A3B627B689B899D
:10195C009BB21BB2002B0CDA3B6ADB003233164A0B
:10196C00A2FB03235B0903F00703FA6A1343FB6230
:10197C000BE03B6A1B0132330F4AA2FB03235B09CA
:10198C0003F00F03FA6A1343FB62FB6A9AB27B689B
:10199C001A8100BF3037BD4680BD00BF0038014002
:1019AC000044004000480040004C00400050004003
:1019BC004C9B000820AA44001F85EB5180B582B0D7
:1019CC0000AF78600B467B807B68154A934214D03D
:1019DC007B68144A934210D07B68134A93420CD014
:1019EC007B68124A934208D07B68114A934204D018
:1019FC0040F25F210F4800F047F97B88B3F5007F78
:101A0C0004D34FF418710B4800F03EF97B88C3F3F4
:101A1C0008039AB27B689A8000BF0837BD4680BD28
:101A2C00003801400044004000480040004C004099
:101A3C00005000404C9B000880B582B000AF78602D
:101A4C007B68114A934214D07B68104A934210D0A1
:101A5C007B680F4A93420CD07B680E4A934208D0A5
:101A6C007B680D4A934204D04FF41C710B4800F074
:101A7C000BF97B689B889BB2C3F308039BB2184697
:101A8C000837BD4680BD00BF00380140004400400F
:101A9C0000480040004C0040005000404C9B0008A7
:101AAC0080B584B000AF78600B467B800023FB735D
:101ABC007B68324A934214D07B68314A934210D0EF
:101ACC007B68304A93420CD07B682F4A934208D0F3
:101ADC007B682E4A934204D040F286312C4800F0A9
:101AEC00D3F87B88012B21D07B88802B1ED07B8860
:101AFC00402B1BD07B88202B18D07B88102B15D02B
:101B0C007B88B3F5807F11D07B88B3F5007F0DD037
:101B1C007B88082B0AD07B88042B07D07B88022B70
:101B2C0004D040F287311A4800F0AEF87B88B3F548
:101B3C00007F10D17B68114A93420CD07B68104A0D
:101B4C00934208D07B680F4A934204D040F28B3109
:101B5C000F4800F099F87B681B889AB27B88134079
:101B6C009BB2002B02D00123FB7301E00023FB731B
:101B7C00FB7B18461037BD4680BD00BF00380140C6
:101B8C000044004000480040004C00400050004021
:101B9C004C9B000880B584B000AF7860144B1B6878
:101BAC00002B02D1124B134A1A60114B1B68FB60BD
:101BBC007B68033323F003037B600D4B1A687B684F
:101BCC0013440D4A934207D906F012F802460C232F
:101BDC0013604FF0FF3306E0054B1A687B68134423
:101BEC00034A1360FB6818461037BD4680BD00BF22
:101BFC006802002048050020004C002080B483B00F
:101C0C0000AF786039607B6801221A603B68034A38
:101C1C001A6000BF0C37BD4680BC7047180000200E
:101C2C0080B582B000AF786005F0E2FF0246582321
:101C3C0013604FF0FF3318460837BD4680BD00BF18
:101C4C0080B586B002AFF860B9607A603B607B68A3
:101C5C00002B01D0094A00E0094A7B68002B01D017
:101C6C007B6800E0064B01930092BB68FA68396808
:101C7C00044800F017F805F0ADFF00BF809B00088A
:101C8C00909B0008949B000880B582B000AF7860F0
:101C9C0039603A687968024800F004F805F09AFF58
:101CAC00C49B00080FB480B582B000AF07F11403D9
:101CBC003B603B683A6980210A4806F003FE786075
:101CCC007B68002B05DD7B681946064800F024F87C
:101CDC0078607B6818460837BD46BDE8804004B084
:101CEC00704700BF7002002080B582B000AF7860F2
:101CFC00786806F0DAFA03461946786800F00CF8B2
:101D0C000121044800F008F8034618460837BD4680
:101D1C0080BD00BFF09B000880B582B000AF78603A
:101D2C0039603968786800F005F8034618460837BA
:101D3C00BD4680BDB0B590B000AF786039607A68B0
:101D4C003B6813441B78002B0BD10423FB627B688C
:101D5C00BB62FC6ABD6A20462946ABBE04467C6267
:101D6C0035E03B68FB632FE0FB6B102B28BF102387
:101D7C003B630023BB630DE07B68197807F10C0211
:101D8C00BB6B13440A461A70BB6B0133BB637B6895
:101D9C0001337B60BA6B3B6B9A42EDD307F10C02BB
:101DAC00BB6B134400221A7004237B6307F10C03F2
:101DBC003B627C6B3D6A20462946ABBE0446FC6107
:101DCC00FA6B3B6BD31AFB63FB6B002BCCD13B68E0
:101DDC0018464037BD46B0BD80B500AF00F0CEF818
:101DEC00024B034A9A6000BF80BD00BF00ED00E0CB
:101DFC000000000880B500AF00F0F4F800BF80BD13
:101E0C0080B584B000AFF860B9607A603B6034484C
:101E1C00FFF748FFFB681B6819463248FFF742FF83
:101E2C00FB685B6819463048FFF73CFFFB689B6812
:101E3C0019462E48FFF736FFFB68DB6819462C481D
:101E4C00FFF730FFFB681B6919462A48FFF72AFF8A
:101E5C00FB685B6919462848FFF724FFFB689B6900
:101E6C0019462648FFF71EFFFB68DB691946244814
:101E7C00FFF718FF2348FFF715FFB9682248FFF753
:101E8C0011FF224BDB6A19462148FFF70BFF1F4B52
:101E9C001B6B19461F48FFF705FF1C4BDB6B1946E4
:101EAC001D48FFF7FFFEBB6803F08003002B03D037
:101EBC0079681A48FFF7F6FEBB6803F40043002B61
:101ECC0003D039681648FFF7EDFE1648FFF7EAFE17
:101EDC00B9691548FFF7E6FE00BF1037BD4680BD57
:101EEC00209C0008309C0008409C0008509C000876
:101EFC00609C0008709C0008809C0008909C000866
:101F0C00A09C0008B09C0008BC9C000800ED00E000
:101F1C00CC9C0008DC9C0008EC9C0008FC9C000895
:101F2C000C9D00081C9D0008249D000880B485B001
:101F3C0000AF78600B467B807B689B69FB60FB681D
:101F4C001B887A889A4213D17B681B68BB60BB687C
:101F5C00032B03D0042B03D000230AE000BF00E0C6
:101F6C0000BF7B689B699A1C7B689A61012300E027
:101F7C00002318461437BD4680BC704780B500AFAF
:101F8C00154A154B1B6843F0010313601249124BA1
:101F9C005A68124B13404B600F4A0F4B1B6823F0CF
:101FAC00847323F4803313600B4A0B4B1B6823F4AC
:101FBC0080231360084A084B5B6823F4FE035360CC
:101FCC00054B4FF41F029A6000F078F8044B4FF069
:101FDC0000629A6000BF80BD001002400000FFF854
:101FEC0000ED00E080B485B000AF0023FB6000235F
:101FFC00BB6000237B602C4B5B6803F00C03FB6025
:10200C00FB68042B07D0082B09D0002B33D1274BAE
:10201C00274A1A6033E0254B254A1A602FE0224BE1
:10202C005B6803F47013BB601F4B5B6803F4803375
:10203C007B60BB689B0C0233BB607B68002B06D1BA
:10204C00BB681C4A02FB03F3184A136017E0164BDB
:10205C005B6803F40033002B06D0BB68154A02FB07
:10206C0003F3124A13600AE0BB68114A02FB03F344
:10207C000E4A136003E00D4B0D4A1A6000BF0A4B69
:10208C005B6803F0F0031B090B4AD35CDBB2FB600B
:10209C00064B1A68FB6822FA03F3044A136000BF6C
:1020AC001437BD4680BC7047001002402000002051
:1020BC0000127A0000093D002400002080B500AF1A
:1020CC0000F002F800BF80BD80B483B000AF0023E5
:1020DC007B6000233B603A4A394B1B6843F48033E6
:1020EC001360374B1B6803F400333B607B68013390
:1020FC007B603B68002B03D17B68B3F5A06FF0D1FC
:10210C002F4B1B6803F40033002B02D001233B60E0
:10211C0001E000233B603B68012B4BD1294A294B42
:10212C001B6843F010031360264A264B1B6823F0F0
:10213C0003031360234A234B1B6843F00203136011
:10214C001F4A1F4B5B6853601D4A1D4B5B685360F5
:10215C001B4A1B4B5B6843F480635360184A184B53
:10216C005B6823F47C135360154A154B5B6843F48E
:10217C00E8135360124A124B1B6843F080731360D0
:10218C0000BF0F4B1B6803F00073002BF9D00C4AF7
:10219C000B4B5B6823F003035360094A084B5B68E5
:1021AC0043F00203536000BF054B5B6803F00C0364
:1021BC00082BF9D100BF0C37BD4680BC704700BF5F
:1021CC00001002400020024080B487B000AF78605D
:1021DC000C4B1B683B610123FB750A4B1B68FB60B6
:1021EC003A697B681A44FB689A428CBF012300232E
:1021FC00FB75FB7D002B00D0EFE700BF1C37BD4605
:10220C0080BC7047F002002080B582B000AF03465E
:10221C00FB71FB794FF47A7202FB03F31846FFF75C
:10222C00D3FF00BF0837BD4680BD00BF90B583B05B
:10223C0000AF78600B49786804F004F8786804F013
:10224C0017F80446786803F00AFF0346DBB2194618
:10225C00204600F015FB0220FFF7D6FF00BF0C371D
:10226C00BD4690BD689D000880B588B000AF07F1F1
:10227C001C03184603F0CCFD07F11C023B1D104952
:10228C00184604F087F83B1D1846FFF7CFFF3B1D9F
:10229C00184603F0D8FE07F11C03184603F0B9FDED
:1022AC000BE03B1D184603F0CEFEFFE707F11C03C5
:1022BC00184603F0AEFD03F085FC2037BD4680BD0B
:1022CC006C9D000890B583B000AFFEF731FF03465C
:1022DC007B603B1D184605F091FC02460C4B1A60C6
:1022EC007A680C4B82FB033413195911D317C91A92
:1022FC000B461B015B1A9B00D11A00290CBF012352
:10230C000023DAB2044B1A7000BF0C37BD4690BDE7
:10231C00B8030020898888883400002080B500AF7D
:10232C000120FEF78DFF0346002B14BF0123002371
:10233C00DBB2002B06D0FFF7C5FF0120FEF7B6FF7E
:10234C00FEF730FF00BF80BD80B400AF044B1B68AC
:10235C000133034A136000BFBD4680BC704700BF09
:10236C00F002002080B500AF014803F06CFE80BD88
:10237C00F802002080B582B000AF20214348FFF75F
:10238C008FFB0346002B14BF01230023DBB2002B71
:10239C0077D03F4B1B6803F00103002B08D13D485D
:1023AC0003F04AFE3A4B01221A603B4805F019FC37
:1023BC003648FFF741FB0346FB71FB79194635485C
:1023CC0003F076FE00223549324803F07FFF0346C6
:1023DC00B3F1FF3F08D1002231492E4803F076FFBC
:1023EC000346B3F1FF3F01D0012300E00023002B93
:1023FC0047D00021274803F039FE03461B780D2BEC
:10240C0007D00021234803F031FE03461B780A2B2A
:10241C0001D1012300E00023002B09D0012200216F
:10242C001C4803F04BFE034619461A4803F011FEF4
:10243C000021184803F01AFE03461B780D2B07D019
:10244C000021144803F012FE03461B780A2B01D11D
:10245C00012300E00023002B09D0012200210D48AC
:10246C0003F02CFE034619460A4803F0F2FD094816
:10247C0003F0FEFE38603868FFF736FC054803F0C1
:10248C00F0FD00BF0837BD4680BD00BF00380140DD
:10249C00F4020020F802002071230008749D00084B
:1024AC00789D000880B483B000AF03463960FB719F
:1024BC0097F90730002B0BDA0D49FB7903F00F036A
:1024CC00043B3A68D2B21201D2B20B441A7609E03C
:1024DC00084997F907303A68D2B21201D2B20B44CC
:1024EC0083F8002300BF0C37BD4680BC704700BF8B
:1024FC0000ED00E000E100E080B582B000AF786054
:10250C007B68013BB3F1807F01D301230FE00A4AC2
:10251C007B68013B53600F214FF0FF30FFF7C2FF88
:10252C00054B00229A60044B07221A6000231846C0
:10253C000837BD4680BD00BF10E000E080B586B016
:10254C0000AFFEF7A5F94FF48030FEF7CFF9FEF798
:10255C000BFA0346FB75FB7D012B32D10020FEF7F5
:10256C00EFFA0020FEF75CFB4FF48060FEF724FBD3
:10257C000220FDF76DFF1020FDF794FF4FF4E011E2
:10258C004FF48030FEF718FA0120FEF785FA392057
:10259C00FEF710FD0346002B0CBF01230023DBB21A
:1025AC00002B00D0F3E70220FEF792FAFEF7BAFAFE
:1025BC000346082B14BF01230023DBB2002B00D0F1
:1025CC00F4E701210420FEF781FC01210820FEF72D
:1025DC007DFC01211020FEF779FC01212020FEF763
:1025EC0075FC01214FF40010FEF7AAFC01214FF4F9
:1025FC008050FEF76BFC01210120FEF767FC0121E6
:10260C0041F20500FEF762FC3B461846FEF7AEFBB6
:10261C007B68064AA2FB03239B09013B1846FFF784
:10262C006BFF00BF1837BD4680BD00BFD34D621095
:10263C0080B483B000AF0346FB71084997F90730AB
:10264C005B09FA7902F01F02012000FA02F241F84C
:10265C00232000BF0C37BD4680BC704700E100E072
:10266C0080B500AF01214FF0C050FEF769FC01208E
:10267C00FEF7F4F8144805F0EBFCFEF793FD082088
:10268C00FEF7B8FD4FF48070FEF730FBFEF78AFDC5
:10269C000120FEF7FBFAFEF785FD0120FEF74AFB51
:1026AC00FEF780FD4FF40040FEF758FDFEF77AFD73
:1026BC0001210120FEF7DEFC0320FFF7B9FFFEF736
:1026CC0081FD00BF80BD00BF809D000880B586B035
:1026DC0000AF10233B800323BB701023FB703B46E1
:1026EC0019461D48FDF702FFA0233B800323BB7056
:1026FC001823FB703B4619461748FDF7F7FE4FF4BD
:10270C004043BB804FF48273FB804FF400633B81EA
:10271C0000237B810023BB814FF40073FB810823D2
:10272C003B8200237B820723BB823B1D19460B484F
:10273C00FEF7E2FD00210948FEF752FF0121074890
:10274C00FEF7C2FE012210210348FDF7F7FF00BF80
:10275C001837BD4680BD00BF000801400030014065
:10276C0080B584B000AF0346FB800023FB60FB8880
:10277C0019460D48FEF7EAFE02210B48FEF772FFE0
:10278C000346002B0CBF01230023DBB2002B00D02F
:10279C00F2E70548FEF700FF0346FB60FB681846AE
:1027AC001037BD4680BD00BF0030014080B483B0FF
:1027BC0000AF0346FB71084997F907305B09FA79BA
:1027CC0002F01F02012000FA02F241F8232000BFA0
:1027DC000C37BD4680BC704700E100E080B586B088
:1027EC0000AF012144F20500FEF770FB4FF40073BB
:1027FC00BB820323BB751823FB7507F11403194621
:10280C001D48FDF773FE4FF48063BB820323BB7539
:10281C000423FB7507F1140319461748FDF766FEF0
:10282C0001214FF48040FEF751FB4FF4E1337B6004
:10283C0000233B8100237B810023BB810C23FB8184
:10284C0000233B823B1D19460C48FEF75BFF0B4AED
:10285C000A4B9B899BB243F4005343F02C039BB26D
:10286C009381064BAA229A802520FFF79FFF00BF79
:10287C001837BD4680BD00BF00080140003801403C
:10288C0080B582B000AF78600B46FB70FB78002BF4
:10289C001AD00F4B1B889BB203F08003002B0CBF8C
:1028AC0001230023DBB2002B00D0F2E77B681B78FE
:1028BC009BB219460648FFF781F87B6801337B60B1
:1028CC00FB78013BFB70E1E700BF0837BD4680BDDC
:1028DC000038014080B483B000AF78600B46FB70C9
:1028EC007B68FA781A707B6818460C37BD4680BC3A
:1028FC00704700BF80B483B000AF03460A46FB713B
:10290C001346BB71BB791B021AB2FB791BB2134382
:10291C001BB29BB218460C37BD4680BC704700BF3B
:10292C0080B483B000AF78607B68002B03D07B68E9
:10293C00013B7B60F8E700BF0C37BD4680BC70479D
:10294C0080B582B000AF78607B681B781A46002196
:10295C000F2000F083F87B681B781A4601210C20AD
:10296C0000F07CF87B681B781A460021092000F0E7
:10297C0075F87B681B781A4607210B2000F06EF85F
:10298C007B681B781A460F210A2000F067F87868DC
:10299C0000F004F800BF0837BD4680BD80B584B098
:1029AC0000AF78600023FB73FB7B072B0CD8FB7B01
:1029BC000133D8B27B681B781A46002100F04EF820
:1029CC00FB7B0133FB73EFE700BF1037BD4680BDC7
:1029DC0080B586B000AF78600B46FB701E4B7B61F8
:1029EC00786900F043F90346FB60786900F052F90E
:1029FC000346BB6007F1080207F10C0311461846A9
:102A0C0000F05CF90346002B22D007F10C031846AA
:102A1C0000F07CF903461B683B613B691B78DB00CB
:102A2C00FF2202FA03F31A467B681A403B691B78B3
:102A3C00DB0022FA03F3D9B23B691A78FB7818460B
:102A4C0000F00CF807F10C03184600F04FF9D1E731
:102A5C0000BF1837BD4680BD1003002080B584B080
:102A6C0000AF0346FB710B46BB7113467B717B7940
:102A7C00032B05D92D4B2E4A5B212E48FFF7E0F88E
:102A8C00002210212C48FDF759FE4FF4FA70FFF785
:102A9C0047FF0023FB73FA7B7B79C3F103039A4254
:102AAC000BDA0021FF20FFF725FF0346184600F044
:102ABC0047F8FB7B0133FB73EDE7FA79BB791146E1
:102ACC001846FFF717FF0346184600F039F8FB7954
:102ADC00002B0BD0FB79082B08D87A79FB79013BBA
:102AEC001649D2000A441344BA791A700023BB73F6
:102AFC00BA7B7B799A420BD20021FF20FFF7FAFEBA
:102B0C000346184600F01CF8BB7B0133BB73EFE7A0
:102B1C00012210210848FDF711FE4FF4FA70FFF75F
:102B2C00FFFE00BF1037BD4680BD00BF909D000862
:102B3C00F89D0008B49D0008000801401C0300200B
:102B4C0080B582B000AF0346FB80FB881846FFF7C8
:102B5C0007FE3220FFF7E4FE00BF0837BD4680BDFC
:102B6C0080B582B000AF7860786800F0DBF87B68E5
:102B7C0018460837BD4680BD80B582B000AF78607E
:102B8C00786800F0D9F87B6818460837BD4680BDD8
:102B9C0080B483B000AF78607B681B6818460C3734
:102BAC00BD4680BC704700BF80B483B000AF786076
:102BBC007B685B6818460C37BD4680BC704700BF0D
:102BCC0090B583B000AF78607868FFF7E1FF0446FA
:102BDC007868FFF7E9FF03469B00234418460C373F
:102BEC00BD4690BDB0B586B000AFF860381D80E82A
:102BFC0006003B60FB683968184600F0B3F83B1DD3
:102C0C001846FFF7C5FF04463B1D1846FFF7D8FFD3
:102C1C0002462B462146F86800F0CEF8FB6805E02A
:102C2C00FB68184600F0AEF802F0CCFF18461837D7
:102C3C00BD46B0BDB0B582B000AF78607B681C6893
:102C4C007B685D687B68184600F0E6F803461A4618
:102C5C002946204600F0EAF87B68184600F092F806
:102C6C007B6818460837BD46B0BD00BF80B584B040
:102C7C0000AF78607B681B68FB6007F10C0207F102
:102C8C0008031146184600F0DFF8BB6818461037E9
:102C9C00BD4680BD80B584B000AF78607B685B6852
:102CAC00FB6007F10C0207F108031146184600F00F
:102CBC00CBF8BB6818461037BD4680BD90B583B0C5
:102CCC0000AF78603960786800F0CEF803461C6875
:102CDC00386800F0C9F803461B689C4214BF0123F6
:102CEC000023DBB218460C37BD4690BD80B483B0D0
:102CFC0000AF78607B681B681A1D7B681A607B6864
:102D0C0018460C37BD4680BC704700BF80B483B0FA
:102D1C0000AF78607B681B6818460C37BD4680BCDA
:102D2C00704700BF80B483B000AF78607B681846F2
:102D3C000C37BD4680BC704780B483B000AF786060
:102D4C007B6818460C37BD4680BC704780B582B096
:102D5C0000AF78607868FFF70FFF7B68184608377C
:102D6C00BD4680BD80B582B000AF786039607B68AD
:102D7C003968184600F082F87B6818460837BD465B
:102D8C0080BD00BF80B582B000AF78607B681968E9
:102D9C007B689B681A467B681B68D31A9B101A4683
:102DAC00786800F083F87B681846FFF7CFFF7B68E4
:102DBC0018460837BD4680BD90B587B000AFF860A7
:102DCC00B9607A603B707968B86800F083F80346A4
:102DDC007B61FB687969184600F090F80246FB6845
:102DEC001A60FB681A687B699B001A44FB689A603E
:102DFC00FB681C68FB68184600F00EF80346224678
:102E0C007968B86800F08EF80246FB685A6000BF1B
:102E1C001C37BD4690BD00BF80B483B000AF786056
:102E2C007B6818460C37BD4680BC704780B584B0B3
:102E3C0000AFF860B9607A60B968F86800F084F89F
:102E4C0000BF1037BD4680BD80B483B000AF786042
:102E5C0039603B681A687B681A607B6818460C37C7
:102E6C00BD4680BC704700BF80B483B000AF7860B3
:102E7C007B6818460C37BD4680BC704780B582B065
:102E8C0000AF786039603968786800F06BF87B685F
:102E9C0000221A607B6800225A607B6800229A60CC
:102EAC007B6818460837BD4680BD00BF80B584B02E
:102EBC0000AFF860B9607A60BB68002B05D0FB6886
:102ECC007A68B968184600F05BF800BF1037BD4649
:102EDC0080BD00BFB0B584B000AF786039607C684D
:102EEC003B1D184600F05CF82A463968204600F075
:102EFC0061F8034618461037BD46B0BD80B582B0A8
:102F0C0000AF786039603B68002B06D07B6839686D
:102F1C00184600F05FF8034600E000231846083717
:102F2C00BD4680BD80B584B000AFF860B9607A60F2
:102F3C003B607A68B968F86800F05CF8034618469C
:102F4C001037BD4680BD00BF80B582B000AF786041
:102F5C0039603968786800F05FF800BF0837BD4603
:102F6C0080BD00BF80B582B000AF78603960396831
:102F7C00786800F05BF87B6818460837BD4680BD62
:102F8C0080B584B000AFF860B9607A607A68B968CF
:102F9C00F86800F057F800BF1037BD4680BD00BF81
:102FAC0080B483B000AF786018460C37BD4680BC47
:102FBC00704700BF80B485B000AFF860B9603A715B
:102FCC00BA68FB68D31A9B1018461437BD4680BCF0
:102FDC00704700BF80B582B000AF786039600022C6
:102FEC003968786800F03CF8034618460837BD4647
:102FFC0080BD00BF80B586B000AFF860B9607A6064
:10300C000123FB757A68B968F86800F047F8034645
:10301C0018461837BD4680BD80B483B000AF7860C9
:10302C00396000BF0C37BD4680BC704780B483B09C
:10303C0000AF786039607B6818460C37BD4680BCA1
:10304C00704700BF80B584B000AFF860B9607A609B
:10305C00B86802F027FA00BF1037BD4680BD00BF2C
:10306C0080B584B000AFF860B9607A60F86800F0A1
:10307C0025F80246BB689A4234BF01230023DBB219
:10308C00002B01D002F0C6FEBB689B00184602F074
:10309C0047FD034618461037BD4680BD80B584B049
:1030AC0000AFF860B9607A607A68B968F86800F0C7
:1030BC0011F8034618461037BD4680BD80B483B066
:1030CC0000AF78606FF0404318460C37BD4680BCAB
:1030DC00704700BF90B585B000AFF860B9607A60FA
:1030EC00F86800F00FF80446B86800F00BF80346D7
:1030FC007A681946204600F011F803461846143732
:10310C00BD4690BD80B582B000AF7860786800F0A5
:10311C0021F8034618460837BD4680BDB0B584B0CB
:10312C0000AFF860B9607A60F86800F01DF80446EA
:10313C00B86800F019F80546786800F021F80346E5
:10314C001A462946204600F027F803461846103741
:10315C00BD46B0BD80B483B000AF78607B681846C4
:10316C000C37BD4680BC704780B582B000AF78602C
:10317C007868FFF7EFFF034618460837BD4680BD59
:10318C0080B582B000AF7860786800F017F803461D
:10319C0018460837BD4680BD80B586B000AFF860D4
:1031AC00B9607A600123FB757A68B968F86800F039
:1031BC000FF8034618461837BD4680BD80B483B05F
:1031CC0000AF78607B6818460C37BD4680BC7047F2
:1031DC0080B586B000AFF860B9607A60BA68FB68F9
:1031EC00D31A9B107B617B69002B06D07B699B00FB
:1031FC001A46F968786804F05DFE7B699B007A6872
:10320C00134418461837BD4680BD00BF90B58BB02F
:10321C0000AF786039607B68012B43D13B684FF677
:10322C00FF7293423ED1012002F07AFC03461C4609
:10323C0000212046FFF74EFB7C61012002F070FC60
:10324C0003461C4601212046FFF744FBBC610120CC
:10325C0002F066FC03461C4602212046FFF73AFBAF
:10326C00FC61012002F05CFC03461C460321204655
:10327C00FFF730FB3C6207F11403FB6004233B6156
:10328C0007F124031846FFF76BFC07F1240307F141
:10329C000C0206CA0F48FFF7A5FC07F124031846D9
:1032AC00FFF76AFC7B68002B0FD13B684FF6FF726F
:1032BC0093420AD10748FFF7BDFC06E007F124034F
:1032CC001846FFF759FC02F07DFC00BF2C37BD46B9
:1032DC0090BD00BF1003002080B500AF4FF6FF710A
:1032EC000120FFF793FF80BD80B500AF4FF6FF7153
:1032FC000020FFF78BFF80BD80B483B000AF034686
:10330C00FB71FB79DB00034A134418460C37BD46AE
:10331C0080BC7047449E00082DE9F043A3B000AF79
:10332C0078600B467B80786802F099FEF867FB6F3B
:10333C00002B05D1854B864A1B218648FEF780FC65
:10334C00786802F095FF03461A4681498248FEF7D9
:10335C00A9FC042387F88730002387F8863097F878
:10336C008630042B21D897F8863007F14802DB0011
:10337C00D61897F8872097F88630C3F10403D31A30
:10338C001946786802F072FE03461B781846FFF760
:10339C00B3FF014608231A46304604F080FD97F827
:1033AC008630013387F88630D9E7FB6F042B01D9BF
:1033BC00082300E0012387F87B30002387F8853051
:1033CC0097F8852097F87B309A4280F0AB800023E9
:1033DC0087F8843097F88430072B00F28D8007F142
:1033EC00080340220021184604F07FFD002387F8D3
:1033FC00833097F88330042B3BD897F88320FB6FEE
:10340C009A4230D297F8840097F88330991097F845
:10341C00842097F883309B10520013449B0007F1D3
:10342C008802134453F8803C97F8836097F8842003
:10343C00F60007F1880E76443244403A12789646EC
:10344C0097F8836097F8832092109200B21AD200FA
:10345C000EFA02F21A4343000B449B0007F1880159
:10346C000B4443F8802C97F88330013387F8833072
:10347C00BFE797F88430DB0007F18802134453F858
:10348C007C3C1A464FF0000391464FF0000897F829
:10349C008430DB0007F18802134453F8803C1A4651
:1034AC004FF0000342EA080243EA0903C7E91C2370
:1034BC0097F88510D7E91C23C1F12006A1F1200053
:1034CC0022FA01F403FA06F6344323FA00F004431B
:1034DC0023FA01F5C7E91C453A6F97F88430C3F11C
:1034EC000803DBB219461046FFF772FA97F88430DE
:1034FC00013387F884306DE797F88530002B07D1BE
:10350C0097F88730042B03D10120FEF77DFE03E0F2
:10351C007B881846FEF758FE97F88530013387F8FC
:10352C0085304DE797F88730013387F8873097F867
:10353C008720FB6F9A4200D20EE70120FEF764FE53
:10354C0000BF8C37BD46BDE8F08300BF44A2000825
:10355C00A0A2000850A2000874A2000880B582B096
:10356C0000AF1948FFF782FB03463B601648FFF794
:10357C0091FB03467B603A1D3B4611461846FFF70C
:10358C009DFB0346002B1BD03B461846FFF7BEFBAA
:10359C0003461B681B785A1C04230C490C48FEF785
:1035AC0081FB3B461846FFF7B1FB03461B681846E8
:1035BC00FFF7C6F93B460021184600F00BF8D5E79B
:1035CC0000BF0837BD4680BD10030020F4A20008E0
:1035DC0088A2000880B584B000AF786039607B6841
:1035EC001B68191D7A681160FB6007F10C0207F16A
:1035FC00080311461846FFF727FCBB68184610371E
:10360C00BD4680BD80B483B000AF786039603B6844
:10361C0018460C37BD4680BC704700BF80B483B0E1
:10362C0000AF7860396000BF0C37BD4680BC704776
:10363C0080B483B000AF78607B6818460C37BD4609
:10364C0080BC704780B483B000AF78607B6818464C
:10365C000C37BD4680BC704780B483B000AF786037
:10366C007B6800229A607B6818460C37BD4680BC8C
:10367C00704700BF80B582B000AF78607B689B68F4
:10368C00002B05D07B689B68786879680322984783
:10369C007B6818460837BD4680BD00BF80B483B038
:1036AC0000AF78607B689B68002B0CBF0123002364
:1036BC00DBB218460C37BD4680BC704780B582B073
:1036CC0000AF78607B681846FFF7D4FF7B6818461C
:1036DC000837BD4680BD00BF80B582B000AF7860B2
:1036EC007B68184602F0A8FC7B681833184602F079
:1036FC00A3FC7B683033184600F04EF97B68184603
:10370C000837BD4680BD00BF80B582B000AF786081
:10371C007B6830331846FFF7D1FF7B6818331846A7
:10372C0002F091FC7B68184602F08DFC7B68184611
:10373C000837BD4680BD00BFB0B5ADF5207D00AFEC
:10374C003B4609241D46B4F1FF3F05D02846FFF740
:10375C00C3FF4035013CF6E73B464F49184602F0A3
:10376C004AFD3B4618334D49184602F044FD3B4692
:10377C0030334B49184600F055F93B461946494839
:10378C0000F070F93B4640334749184602F033FDD0
:10379C003B4658334149184602F02DFD3B467033E9
:1037AC004249184600F03EF93B46403319463D4825
:1037BC0000F058F93B4680333D49184602F01BFD9A
:1037CC003B4698333549184602F015FD3B46B0335D
:1037DC003849184600F026F93B46803319463148E3
:1037EC0000F040F93B46C0333349184602F003FD64
:1037FC003B46D8333149184602F0FDFC3B46F033CA
:10380C002F49184600F00EF93B46C03319462D4897
:10381C0000F028F93B4603F580732B49184602F05B
:10382C00EAFC3B4603F58C732449184602F0E3FC92
:10383C003B4603F598732549184600F0F3F83B46D0
:10384C0003F5807319461F4800F00CF91549204800
:10385C0000F02AF91B491E4800F026F93C4604F5F5
:10386C0020743B469C4204D0403C2046FFF74CFF62
:10387C00F7E70CE03C4604F520743B469C4204D030
:10388C00403C2046FFF740FFF7E702F09BF907F5B5
:10389C002077BD46B0BD00BF6CA3000870A3000824
:1038AC00E13800084803002074A30008F938000828
:1038BC0078A30008113900087CA3000880A3000835
:1038CC00293900085403002084A30008413900085A
:1038DC003C03002080B500AF02490348FEF7E2F933
:1038EC0000BF80BDB8A3000888A3000880B500AF56
:1038FC0002490348FEF7D6F900BF80BDECA30008CF
:10390C0088A3000880B500AF02490348FEF7CAF946
:10391C0000BF80BD20A4000888A3000880B500AFBC
:10392C0002490348FEF7BEF900BF80BD54A400084D
:10393C0088A3000880B500AF02490348FEF7B2F92E
:10394C0000BF80BD88A4000888A3000880B582B0A1
:10395C0000AF78607B68184600F0D4F87B68184696
:10396C000837BD4680BD00BF80B582B000AF78601F
:10397C007B68184600F000F97B6818460837BD468E
:10398C0080BD00BF80B483B000AF78607B68184600
:10399C000C37BD4680BC704780B582B000AF7860F4
:1039AC007868FFF7EFFF7B681846FFF755FE7B68DA
:1039BC0018460837BD4680BD80B582B000AF786030
:1039CC0039607868FFF7DEFF7B681846FFF744FE26
:1039DC00386800F01BF90346002B0DD03B689B6840
:1039EC0078683968022298473B68DA687B68DA6045
:1039FC003B689A687B689A607B6805E07B68184630
:103A0C00FFF738FE02F0DEF818460837BD4680BDD9
:103A1C0080B483B000AF78607B6818460C37BD4625
:103A2C0080BC704780B586B000AF7860396038686C
:103A3C00FFF7EEFF024607F108031146184600F0A7
:103A4C00FFF807F108037968184600F0BDF807F194
:103A5C0008031846FFF732FE7B6818461837BD4638
:103A6C0080BD00BF80B582B000AF786039607B68E4
:103A7C005A687B689B689A420DD078687B685B6853
:103A8C003A68194600F01AF97B685B6803F140024A
:103A9C007B685A6003E03968786800F023F900BF4E
:103AAC000837BD4680BD00BF80B582B000AF7860DE
:103ABC0039607B685A687B689B689A420DD078683D
:103ACC007B685B683A68194600F0A8F97B685B680C
:103ADC0003F10C027B685A6003E03968786800F0E7
:103AEC00B1F900BF0837BD4680BD00BF80B582B0BC
:103AFC0000AF7860786800F05FFA7B68184608378A
:103B0C00BD4680BD80B582B000AF78607B6818463A
:103B1C0000F03CFA7B6818460837BD4680BD00BFF4
:103B2C0080B582B000AF78607B6819687B689B6851
:103B3C001A467B681B68D31A9B10084A02FB03F3D6
:103B4C001A46786800F044FA7B681846FFF7CEFFF7
:103B5C007B6818460837BD4680BD00BFABAAAAAA31
:103B6C0080B582B000AF7860786800F05BFA7B6853
:103B7C0018460837BD4680BD80B582B000AF78606E
:103B8C007B68184600F038FA7B6818460837BD4643
:103B9C0080BD00BF80B582B000AF78607B681968CB
:103BAC007B689B681A467B681B68D31A9B111A4664
:103BBC00786800F043FA7B681846FFF7D1FF7B6802
:103BCC0018460837BD4680BD80B582B000AF78601E
:103BDC0039607B683A681146184600F04DFA7B68EC
:103BEC0003F108023B6808331946104600F076FAD8
:103BFC007B6803F10C023B680C331946104600F04D
:103C0C0097FA00BF0837BD4680BD00BF80B582B0B3
:103C1C0000AF78607B681846FFF740FD034683F0E1
:103C2C000103DBB218460837BD4680BD80B483B0B3
:103C3C0000AF78607B6818460C37BD4680BC704777
:103C4C0090B583B000AF786039607868FFF79AFE62
:103C5C007B681846FFF700FD3B68184600F088FAB1
:103C6C000346002B0FD07C683B461846FFF7DEFF5F
:103C7C0003461946204600F08BFA7B68084ADA6046
:103C8C007B68084A9A607B6805E07B681846FFF7FA
:103C9C00F1FC01F097FF18460C37BD4690BD00BFF4
:103CAC00C1410008DD41000880B483B000AF7860EA
:103CBC007B6818460C37BD4680BC704780B584B015
:103CCC0000AFF860B9607A607868FFF7EDFF0346E3
:103CDC001A46B968F86800F0D3FA00BF1037BD4631
:103CEC0080BD00BFB0B586B000AF78603960454A82
:103CFC000121786800F0E6FA03463B617B6839697C
:103D0C00184600F027FB0346FB60FB687B617C6870
:103D1C00786800F033FB03469B01FA68D5183868C5
:103D2C00FFF7C2FF03461A4629462046FFF7C6FF97
:103D3C0000237B617B681C687B685D687B68184628
:103D4C0000F02CFB0346FA682946204600F030FBB5
:103D5C0003467B617B6940337B617B681C687B68B5
:103D6C005D687B68184600F019FB03461A46294625
:103D7C00204600F045FB78687B6819687B689B6877
:103D8C001A467B681B68D31A9B111A4600F056F929
:103D9C007B68FA681A607B687A695A603B699B0198
:103DAC00FA681A447B689A6029E00346184601F0C9
:103DBC0098FB7B69002B0CD17C68786800F0DEFAEC
:103DCC0003469B01FA6813441946204600F00AFB8F
:103DDC0009E07B68184600F0E1FA03461A46796957
:103DEC00F86800F00DFB7B683A69F968184600F03A
:103DFC0025F901F0C5FB01F09EFB01F0E3FE18373D
:103E0C00BD46B0BD9CA3000880B483B000AF786001
:103E1C007B6818460C37BD4680BC704780B584B0B3
:103E2C0000AFF860B9607A607868FFF7EDFF034681
:103E3C001A46B968F86800F0F1FA00BF1037BD46B1
:103E4C0080BD00BFB0B586B000AF786039604D4A18
:103E5C000121786800F004FB03463B617B683969FB
:103E6C00184600F045FB0346FB60FB687B617C68F1
:103E7C00786800F051FB024613465B0013449B002C
:103E8C001A46FB689D183868FFF7BEFF03461A46B2
:103E9C0029462046FFF7C2FF00237B617B681C6824
:103EAC007B685D687B68184600F04CFB0346FA683B
:103EBC002946204600F050FB03467B617B690C339E
:103ECC007B617B681C687B685D687B68184600F0CA
:103EDC0039FB03461A462946204600F065FB7868F4
:103EEC007B6819687B689B681A467B681B68D31AC9
:103EFC009B10254A02FB03F31A4600F069F87B6815
:103F0C00FA681A607B687A695A603A6913465B00F2
:103F1C0013449B001A46FB681A447B689A602DE098
:103F2C000346184601F0DDFA7B69002B10D17C6842
:103F3C00786800F0F1FA024613465B0013449B00CC
:103F4C001A46FB6813441946204600F01FFB09E093
:103F5C007B68184600F0F6FA03461A467969F86849
:103F6C0000F022FB7B683A69F968184600F030F8DB
:103F7C0001F006FB01F0DFFA01F024FE1837BD4614
:103F8C00B0BD00BF9CA30008ABAAAAAA80B582B0A2
:103F9C0000AF7860786800F015FB7B6800221A602F
:103FAC007B6800225A607B6800229A607B68184606
:103FBC000837BD4680BD00BF80B582B000AF7860C9
:103FCC00786800F00BFB7B6818460837BD4680BD4F
:103FDC0080B584B000AFF860B9607A60BB68002B24
:103FEC0005D0FB687A68B968184600F001FB00BF81
:103FFC001037BD4680BD00BF80B582B000AF786081
:10400C00786800F005FB7B6800221A607B68002250
:10401C005A607B6800229A607B6818460837BD4658
:10402C0080BD00BF80B582B000AF7860786800F0CA
:10403C00FBFA7B6818460837BD4680BD80B584B056
:10404C0000AFF860B9607A60BB68002B05D0FB68E4
:10405C007A68B968184600F0F1FA00BF1037BD460F
:10406C0080BD00BF80B483B000AF78607B68184619
:10407C000C37BD4680BC704780B584B000AF78600B
:10408C0039607868FFF7EEFF024607F1080392E803
:10409C00030083E803003868FFF7E4FF02467B68FF
:1040AC0092E8030083E8030007F108031846FFF7C2
:1040BC00D9FF02463B6892E8030083E8030000BF87
:1040CC001037BD4680BD00BF80B483B000AF7860B0
:1040DC007B6818460C37BD4680BC704780B584B0F1
:1040EC0000AF786039607868FFF7EEFF03461B6815
:1040FC00FB603868FFF7E8FF03461A687B681A60B4
:10410C0007F10C031846FFF7DFFF03461A683B68FC
:10411C001A6000BF1037BD4680BD00BF80B483B0AD
:10412C0000AF78607B6818460C37BD4680BC704782
:10413C0080B584B000AF786039607868FFF7EEFF27
:10414C0003461B68FB603868FFF7E8FF03461A68F4
:10415C007B681A6007F10C031846FFF7DFFF034674
:10416C001A683B681A6000BF1037BD4680BD00BF9F
:10417C0080B483B000AF78607B68002B14BF012340
:10418C000023DBB218460C37BD4680BC704700BF1D
:10419C0090B585B000AF786039603868FFF746FDA0
:1041AC00034622461946786800F058FA00BF1437C7
:1041BC00BD4690BD80B582B000AF7860786800F0E5
:1041CC0069FA03461B68984700BF0837BD4680BD97
:1041DC00B0B586B000AFF860B9601346FB71FB79DF
:1041EC00022B0DD0032B11D0012B14D1F86800F049
:1041FC0063FA0446B86800F04DFA034623600AE0FF
:10420C002A46B968F86800F063FA04E02146F868B9
:10421C0000F07AFA00BF002318461837BD46B0BD2F
:10422C0080B582B000AF786039607B683A6811461F
:10423C00184602F07DF87B6803F118023B681833CE
:10424C001946104602F074F87B6803F130023B68A3
:10425C00303319461046FFF7AFFB7B680BE07B68E9
:10426C001833184601F0EFFEFFE77B68184601F0A3
:10427C00EAFE01F0A7FC18460837BD4680BD00BF1A
:10428C00F0B585B000AFF860B9607A607868FFF778
:10429C000BFD0646BD6829464020FFF7B3F90446DE
:1042AC00002C0AD031462046FFF7BAFF05E029461C
:1042BC002046FFF7B3F901F085FC00BF1437BD466B
:1042CC00F0BD00BF90B587B000AFF860B9607A6000
:1042DC00F86800F025FA0446F86800F04FF8034639
:1042EC00E21ABB689A4234BF01230023DBB2002BD5
:1042FC0002D0786801F094FDF86800F03FF80446AD
:10430C00F86800F03BF803463B6107F1080207F13F
:10431C0010031146184600F015FA03461B68234497
:10432C007B61F86800F02AF802467B699A4206D84D
:10433C00F86800F0F5F902467B699A4204D2F868F5
:10434C0000F0EEF9034600E07B6918461C37BD46C9
:10435C0090BD00BF80B582B000AF786039603B681B
:10436C00002B06D07B683968184600F0FFF903462D
:10437C0000E0002318460837BD4680BD80B483B0EA
:10438C0000AF78607B685B681A467B681B68D31A41
:10439C009B1118460C37BD4680BC704780B483B067
:1043AC0000AF78607B6818460C37BD4680BC704700
:1043BC0090B585B000AFF860B9607A603B60F86882
:1043CC0000F0E4F90446B86800F0E0F901463B68F7
:1043DC007A68204600F0E4F9034618461437BD46C7
:1043EC0090BD00BF80B582B000AF7860396039688D
:1043FC00786800F0E7F900BF0837BD4680BD00BF04
:10440C0080B584B000AFF860B9607A60B968F868BC
:10441C0000F0E4F900BF1037BD4680BDF0B585B0A3
:10442C0000AFF860B9607A607868FFF7EDFC06467B
:10443C00BD6829460C20FFF7E5F80446002C0AD08D
:10444C003146204600F0D8F905E029462046FFF712
:10445C00E5F801F0B7FB00BF1437BD46F0BD00BF57
:10446C0090B587B000AFF860B9607A60F86800F07A
:10447C000FFA0446F86800F04FF80346E21ABB68DE
:10448C009A4234BF01230023DBB2002B02D07868A0
:10449C0001F0C6FCF86800F03FF80446F86800F03C
:1044AC003BF803463B6107F1080207F11003114684
:1044BC00184600F047F903461B6823447B61F868F3
:1044CC0000F02AF802467B699A4206D8F86800F098
:1044DC00DFF902467B699A4204D2F86800F0D8F9F9
:1044EC00034600E07B6918461C37BD4690BD00BFF3
:1044FC0080B582B000AF786039603B68002B06D085
:10450C007B683968184600F0D5F9034600E00023B3
:10451C0018460837BD4680BD80B483B000AF7860C4
:10452C007B685B681A467B681B68D31A9B10044A2D
:10453C0002FB03F318460C37BD4680BC704700BF26
:10454C00ABAAAAAA80B483B000AF78607B68184687
:10455C000C37BD4680BC704790B585B000AFF86095
:10456C00B9607A603B60F86800F0B4F90446B8684A
:10457C0000F0B0F901463B687A68204600F0BAF9C1
:10458C00034618461437BD4690BD00BF80B582B0B7
:10459C0000AF786039603968786800F0BDF900BF09
:1045AC000837BD4680BD00BF80B584B000AFF86051
:1045BC00B9607A60B968F86800F0BAF900BF1037D2
:1045CC00BD4680BD80B582B000AF7860786800F0E1
:1045DC00BDF97B6818460837BD4680BD80B483B0F2
:1045EC0000AF78607B6818460C37BD4680BC7047BE
:1045FC0080B584B000AFF860B9607A607A68B96849
:10460C00F86800F0ADF900BF1037BD4680BD00BFA3
:10461C0080B582B000AF7860786800F0AFF97B6845
:10462C0018460837BD4680BD80B483B000AF7860B3
:10463C007B6818460C37BD4680BC704780B584B08B
:10464C0000AFF860B9607A607A68B968F86800F011
:10465C009FF900BF1037BD4680BD00BF90B585B037
:10466C0000AFF860B9603A71B868FFF7DFFA03463B
:10467C001C68F868FEF7DCFF034619460420FEF7B9
:10468C00C1FF0346002B00D01C6000BF1437BD4691
:10469C0090BD00BF80B584B000AF7860786800F042
:1046AC0085F90346184600F08DF9F860FB6818464A
:1046BC001037BD4680BD00BF80B582B000AF7860BA
:1046CC007868FEF7B5FF034618460837BD4680BD2F
:1046DC0090B585B000AFF860B9603A71B86800F079
:1046EC0065F903461C68F868FEF7A2FF03461946F5
:1046FC000420FEF787FF0346002B00D01C6000BF90
:10470C001437BD4690BD00BF80B582B000AF786055
:10471C003970786800F060F900BF0837BD4680BD7D
:10472C0080B582B000AF78607B68184600F06CF9F9
:10473C000346184600F05CF9034618460837BD4698
:10474C0080BD00BF80B483B000AF786039607B68F7
:10475C001A683B681B689A4201D23B6800E07B6890
:10476C0018460C37BD4680BC704700BF80B582B080
:10477C0000AF7860396000223968786800F04EF933
:10478C00034618460837BD4680BD00BF80B483B0D1
:10479C0000AF78607B6818460C37BD4680BC70470C
:1047AC0080B584B000AFF860B9607A603B607A681D
:1047BC00B968F86800F050F9034618461037BD4642
:1047CC0080BD00BF80B582B000AF786039603868BA
:1047DC00FEF79AFF00BF0837BD4680BD80B582B09A
:1047EC0000AF786039603968786800F047F900BF2D
:1047FC000837BD4680BD00BFF0B585B000AF78600E
:10480C0039607C683868FFF7B9FD05463B68184687
:10481C0000F0FAF8024607F10C031146184600F0B6
:10482C0045F907F10C031A462946204600F04CF9CD
:10483C0007F10C031846FFF7F5FB386800F060F938
:10484C000546386800F070F906467B681C687B6882
:10485C001846FFF7A3FD034622463146284600F0D2
:10486C0077F902467B685A607B680CE007F10C0311
:10487C001846FFF7D7FB01F0A5F97B681846FFF740
:10488C0089F901F09FF918461437BD46F0BD00BFF9
:10489C0080B582B000AF78607B68184600F076F97E
:1048AC000346184600F066F9034618460837BD461D
:1048BC0080BD00BF80B582B000AF78603960002247
:1048CC003968786800F06CF9034618460837BD461D
:1048DC0080BD00BF80B584B000AF786007F10C03D9
:1048EC007968184600F07EF9FB6818461037BD460B
:1048FC0080BD00BF80B584B000AFF860B9607A604D
:10490C003B607A68B968F86800F07AF90346184693
:10491C001037BD4680BD00BF80B582B000AF786057
:10492C003960386800F07EF900BF0837BD4680BD9D
:10493C0080B582B000AF786039603968786800F073
:10494C008DF900BF0837BD4680BD00BF80B483B071
:10495C0000AF78607B6818460C37BD4680BC70474A
:10496C0080B584B000AFF860B9607A60B86800F0C8
:10497C0099FD00BF1037BD4680BD00BF80B483B029
:10498C0000AF78607B6818460C37BD4680BC70471A
:10499C0080B584B000AFF860B9607A60B86800F098
:1049AC0081FD00BF1037BD4680BD00BF80B582B011
:1049BC0000AF78607868FEF745FE03461846083766
:1049CC00BD4680BD80B483B000AF78607B6818466C
:1049DC000C37BD4680BC704780B582B000AF7860A4
:1049EC007868FEF725FE034618460837BD4680BD9D
:1049FC0080B582B000AF7860786800F047F9034664
:104A0C0018460837BD4680BD80B483B000AF7860CF
:104A1C007B6818460C37BD4680BC704780B584B0A7
:104A2C0000AFF860B9607A60F86800F02FF90246C0
:104A3C00BB689A4234BF01230023DBB2002B01D0A8
:104A4C0001F0E8F9BB689B01184601F069F80346D0
:104A5C0018461037BD4680BD80B586B000AFF860F3
:104A6C00B9607A600123FB757A68B968F86800F060
:104A7C0019F9034618461837BD4680BD80B582B07B
:104A8C0000AF786039607A683B689A420AD07868DF
:104A9C0000F038F90346184600F03EF97B684033C5
:104AAC007B60F0E700BF0837BD4680BD80B582B0A3
:104ABC0000AF786039607B683968184600F038F9C7
:104ACC0078680837BD4680BD80B584B000AFF8600B
:104ADC00B9607A60FB687968184600F045F9B968E6
:104AEC00F86800F059F9FB6805E0FB681846FFF719
:104AFC0037F801F067F818461037BD4680BD00BF87
:104B0C0080B584B000AF78607B681B68FB6007F1F0
:104B1C000C0207F108031146184600F059F9BB685E
:104B2C0018461037BD4680BD80B584B000AF7860A4
:104B3C007B685B68FB6007F10C0207F10803114608
:104B4C00184600F045F9BB6818461037BD4680BDC5
:104B5C0080B584B000AFF860B9607A603B607A6869
:104B6C00B968F86800F044F9034618461037BD469A
:104B7C0080BD00BF80B582B000AF7860786800F06F
:104B8C0049F9034618460837BD4680BD80B483B04A
:104B9C0000AF78607B6818460C37BD4680BC704708
:104BAC0080B584B000AFF860B9607A60F86800F046
:104BBC0031F90246BB689A4234BF01230023DBB2B1
:104BCC00002B01D001F026F9BA6813465B001344A0
:104BDC009B00184600F0A4FF034618461037BD464C
:104BEC0080BD00BF80B483B000AF786039607B6853
:104BFC003A681A607B6818460C37BD4680BC704713
:104C0C0080B586B000AFF860B9607A600123FB759F
:104C1C007A68B968F86800F009F90346184618373D
:104C2C00BD4680BDB0B582B000AF78607B681C68B3
:104C3C007B685D687B681846FFF7B0FB03461A4635
:104C4C0029462046FFF7DCFB7B681846FEF7A2FFDF
:104C5C007B6818460837BD46B0BD00BF80B582B032
:104C6C0000AF786039607A683B689A420AD07868FD
:104C7C0000F01AF90346184600F020F97B680C3353
:104C8C007B60F0E700BF0837BD4680BD80B483B0C1
:104C9C0000AF78606FF07C4318460C37BD4680BC83
:104CAC00704700BF80B586B000AFF860B9607A601D
:104CBC007B687B61FA68BB689A420ED0786900F019
:104CCC0021F80346F968184600F00EF9FB684033EA
:104CDC00FB607B6940337B61ECE77B690DE003464D
:104CEC00184600F0FEFB79697868FFF777FD00F055
:104CFC0047FC00F020FC00F065FF18461837BD4655
:104D0C0080BD00BF80B483B000AF78607B6818466C
:104D1C000C37BD4680BC704780B582B000AF786060
:104D2C007868FEF7F1FC00BF0837BD4680BD00BFB8
:104D3C0080B582B000AF786039603968786800F06F
:104D4C0005F878680837BD4680BD00BF80B582B0D5
:104D5C0000AF786039603968786800F0E5F87B68F6
:104D6C0018460837BD4680BD80B582B000AF78606C
:104D7C00396039687868FFF7E9FF7B6800221A60B0
:104D8C007B6800225A607B6800229A607B68184618
:104D9C000837BD4680BD00BF80B582B000AF7860DB
:104DAC00396039687868FFF7D5FA02467B681A6073
:104DBC007B681A687B685A607B681A683B689B0141
:104DCC001A447B689A6000BF0837BD4680BD00BF9F
:104DDC0080B483B000AF786039603B681A687B6838
:104DEC001A607B6818460C37BD4680BC704700BF04
:104DFC0080B586B000AFF860B9607A600123FB75AE
:104E0C007A68B968F86800F09BF8034618461837BA
:104E1C00BD4680BD80B483B000AF7860024B1846AD
:104E2C000C37BD4680BC70475555551590B587B0AD
:104E3C0000AFF860B9607A607B687B6107F10802AB
:104E4C0007F10C031146184600F0B8F80346002B86
:104E5C0016D0786900F028F8044607F10C031846C0
:104E6C0000F0CEF803461946204600F0DFF807F1B3
:104E7C000C03184600F0B4F87B690C337B61DDE75A
:104E8C007B690DE00346184600F02BFB79697868C6
:104E9C00FFF74EFD00F074FB00F04DFB00F092FEAE
:104EAC0018461C37BD4690BD80B483B000AF786007
:104EBC007B6818460C37BD4680BC704780B582B005
:104ECC0000AF78607868FFF7ADFE00BF0837BD46CD
:104EDC0080BD00BF80B483B000AF78607B6818469B
:104EEC000C37BD4680BC7047F0B583B000AF78601E
:104EFC0039603868FFF7EEFF06467D68294640208A
:104F0C00FEF780FB0446002C0AD031462046FFF702
:104F1C0087F905E029462046FEF780FB00F052FE9B
:104F2C0000BF0C37BD46F0BD80B483B000AF7860D5
:104F3C0039607B6818460C37BD4680BC704700BF93
:104F4C0090B587B000AFF860B9607A607B687B6120
:104F5C0007F1080207F10C031146184600F080F81F
:104F6C000346002B16D07869FFF7CCFE044607F1F8
:104F7C000C03184600F09CF803461946204600F036
:104F8C00A3F807F10C03184600F082F87B69403354
:104F9C007B61DDE77B690DE00346184600F0A1FA62
:104FAC0079697868FFF71AFC00F0EAFA00F0C3FAA6
:104FBC0000F008FE18461C37BD4690BD80B582B087
:104FCC0000AF786039603968786800F09DF8034666
:104FDC0083F00103DBB218460837BD4680BD00BF25
:104FEC0080B483B000AF78607B681B6803F10C025F
:104FFC007B681A607B6818460C37BD4680BC7047CE
:10500C0080B483B000AF78607B681B6818460C379F
:10501C00BD4680BC704700BF80B483B000AF7860E1
:10502C007B6818460C37BD4680BC704790B583B082
:10503C0000AF786039603868FFF7EEFF04467B6894
:10504C0019460C20FEF7DEFA0346002B03D021464E
:10505C00184600F079F800BF0C37BD4690BD00BF74
:10506C0090B583B000AF78603960786800F080F854
:10507C0003461C68386800F07BF803461B689C42AA
:10508C0014BF01230023DBB218460C37BD4690BD7C
:10509C0080B483B000AF78607B681B6803F140027A
:1050AC007B681A607B6818460C37BD4680BC70471D
:1050BC0080B483B000AF78607B681B6818460C37EF
:1050CC00BD4680BC704700BFF0B583B000AF7860C0
:1050DC0039603868FEF7E8FD06467D6829464020B1
:1050EC00FEF790FA0446002C0AD031462046FFF712
:1050FC0097F805E029462046FEF790FA00F062FD8D
:10510C0000BF0C37BD46F0BD90B583B000AF7860E2
:10511C003960786800F036F80446386800F032F8E8
:10512C0003469C420CBF01230023DBB218460C370C
:10513C00BD4690BD80B483B000AF78607B681846E4
:10514C000C37BD4680BC704790B583B000AF78601B
:10515C0039607C683868FFF7EDFF03461946204636
:10516C0000F026F87B6818460C37BD4690BD00BF92
:10517C0080B483B000AF78607B6818460C37BD46AE
:10518C0080BC704780B483B000AF78607B681B68CC
:10519C0018460C37BD4680BC704700BF80B483B046
:1051AC0000AF78607B6818460C37BD4680BC7047F2
:1051BC0090B583B000AF786039607C683868FFF7D1
:1051CC00EDF803461846FFF7E9FF0346194620465B
:1051DC0000F00CF87B683A681146184600F022F88B
:1051EC007B6818460C37BD4690BD00BF80B582B0B9
:1051FC0000AF786039603868FFF7D0FF0346194676
:10520C007868FFF7A3FD7B6800221A607B68002298
:10521C005A607B6800229A607B6818460837BD4646
:10522C0080BD00BF80B582B000AF786039607B680C
:10523C003A681146184600F01FF87B681A1D3B6847
:10524C0004331946104600F017F87B6803F1080286
:10525C003B6808331946104600F00EF800BF0837BB
:10526C00BD4680BD80B483B000AF78607B681846C3
:10527C000C37BD4680BC704780B584B000AF7860F9
:10528C0039607868FFF7EEFF03461B68FB603868EF
:10529C00FFF7E8FF03461A687B681A6007F10C03F6
:1052AC001846FFF7DFFF03461A683B681A6000BF19
:1052BC001037BD4680BD00BF80B582B000AF7860AE
:1052CC0039607B68012B13D13B684FF6FF72934218
:1052DC000ED11548FEF73AFB1448FEF745FB14486F
:1052EC00FEF742FB1348FEF7F7F9134800F0A4FE53
:1052FC007B68002B13D13B684FF6FF7293420ED1A3
:10530C000D4800F0A0FE0B48FEF7FEF90848FFF729
:10531C0089FC0648FFF786FC034800F00FF800BF35
:10532C000837BD4680BD00BF3C0300204803002069
:10533C005403002060030020A0030020B0B582B00D
:10534C0000AF78607B681C687B685D687B6818467A
:10535C00FFF7F8F803461A4629462046FFF724F9CA
:10536C007B681846FEF7DCFB7B6818460837BD46A1
:10537C00B0BD00BF80B500AF4FF6FF710120FFF745
:10538C009BFF80BD80B500AF4FF6FF710020FFF78B
:10539C0093FF80BD80B590B000AF78607A682C49DF
:1053AC002C48FCF77FFC07F12003184600F030FD79
:1053BC0007F1200207F108032549184600F0EAFF1F
:1053CC0007F1080314211846FDF7A6FF07F108039F
:1053DC00184600F038FE07F12003184600F019FDBE
:1053EC0007F13C03184600F013FD07F13C0207F1EE
:1053FC0024031949184600F0CDFF07F124031421AA
:10540C001846FDF789FF07F12403184600F01BFE30
:10541C0007F13C03184600F0FCFCFEE707F108031B
:10542C00184600F010FEFFE707F12003184600F0C5
:10543C00F0FC00F0C7FB07F12403184600F003FE54
:10544C00FFE707F13C03184600F0E3FC00F0BAFB61
:10545C0024A50008BCA40008E4A4000880B582B010
:10546C0000AF786039600C490C48FCF71BFCFCF76A
:10547C0029FFFDF763F8FDF7F3F8FDF727F9FDF7C2
:10548C00ADF9FEF76BF8FEF757F90548FCF70AFC87
:10549C00FCF7EAFEFCE700BF34A50008F4A4000802
:1054AC0010A5000802F0C4BC0378472B17D1437831
:1054BC004E2B14D18378552B11D1C378432B0ED19D
:1054CC000379432B0BD143792B2B08D183792B2BCD
:1054DC0005D1C07901288CBF002001207047002025
:1054EC00704738B5054600F031FB01460268284686
:1054FC00A5F12004FFF7D8FF28B90AB100F036FB5C
:10550C000C60144615E055F80C3C2846002BB4BF33
:10551C00C3F10103013345F80C3C4B68A24203F183
:10552C00FF334B601CBF45F8102C0C606C6A01F00B
:10553C00A5FD204638BD10B500F004FB02680146FD
:10554C00EAB102F120042046FFF7AEFF08B908606B
:10555C000BE05369002B04DA01330FD1106908609A
:10556C000CE0013B06D113690B602046BDE81040EE
:10557C0001F086BD591C01D100F0F8FA536110BD41
:10558C0008B500F0E3FA426803680132426053B395
:10559C0093F82020472A28D193F821204E2A24D191
:1055AC0093F82220552A20D193F82320432A1CD18A
:1055BC0093F82420432A18D193F825202B2A14D1B0
:1055CC0093F826202B2A10D193F82720012A0CD8E7
:1055DC005A6952425A6103F12004204602F018F92C
:1055EC002046FFF77EFF00F0C1FA00220260F2E7CE
:1055FC0070B50023A0EBC006C0EBC00210F8015B35
:10560C00941905F07F02A24013432A06F4D40B60D0
:10561C0070BD00231A4630B510F8014B04F07F051D
:10562C0095402B43250602F10702F5D41F2A06D814
:10563C00640642BF4FF0FF3404FA02F213430B60CE
:10564C0030BD5028F7B505460F4614461E4605D109
:10565C00D01C20F0030050F8043B33E000F00F03A3
:10566C000C2B23D8DFE803F01A07121A1E22222271
:10567C00220C161A1E0001A92046FFF7B9FF03E001
:10568C0001A92046FFF7C5FF019B11E0204630F829
:10569C00023B0DE0204630F9023B09E0204650F871
:1056AC00043B05E0204650F8083B01E002F092FA7A
:1056BC0043B105F07002102A18BF3C462A06234459
:1056CC0048BF1B68336003B0F0BD08B50346FF2B21
:1056DC0008461CD003F07003202B0ED003D8B3B1B6
:1056EC00102B12D113E0402B0BD0502B0FD0302BA2
:1056FC000BD1BDE8084002F067BABDE8084002F0E3
:10570C005FBABDE8084002F04BBA02F063FA002021
:10571C0008BD70B50C460146204615461E46FFF7DF
:10572C00D4FF33462A4601462046BDE87040FFF7B9
:10573C0088BF73B50E461446054610B102F030FA18
:10574C00FFE720603178721CFF2905D0231D284605
:10575C00FFF7DFFF024600E060601378501CFF2B60
:10576C00237507D01023237501A9FFF741FF019B77
:10577C00034400E00023E360037801A96375013062
:10578C00FFF736FF019B0344236102B070BD1FB5C8
:10579C0003AB009300230A46194601F077FC0398EB
:1057AC0005B05DF804FB00002DE9F04F002391B02B
:1057BC00049300F00303012B07460C4615460ED04C
:1057CC0002D3022B02D0EFE0020717D52946204660
:1057DC0002F0D2F908B109209FE108209DE100F008
:1057EC00080202F0FF065AB9D1F8208028460D2194
:1057FC00FFF7CDFF804520D1062602E0012600E010
:10580C00022610AB43F82C4D009307F00807002339
:10581C003E430C221946284601F05EFC062E17D199
:10582C00D4F83080A76AB8F1000FD4F82C900CBFD4
:10583C004FF0010A4FF0030A05E110AA42F82C4D73
:10584C000092334631460C22284601F045FC0226D4
:10585C00284602F0ABF981460028B7D00AAA0146C7
:10586C002846FFF766FF294680469DF83C00FFF767
:10587C002CFF0F210C902846FFF789FF20F0010028
:10588C00471E0E9B984580F03F81424606AB9DF823
:10589C003D100020FFF73DFF07AB02469DF83D1081
:1058AC000020FFF736FF08AB02469DF83D100020A4
:1058BC00FFF72FFF09A9FFF79BFE069B0A9A80466C
:1058CC0013449F4202D2DDF83880DAE7079A13447A
:1058DC009F42D6D2089818B10B9B00EB030800E04E
:1058EC008046099810B10E9F01383844B8F1000F6A
:1058FC003FF46CAF002800F00C8116F00803029303
:10590C0014D0472323704E2363705523A370432375
:10591C00E370462323714F2363715223A371002339
:10592C00E3714FF0000A6FF0030B1BE0E379012BDE
:10593C000CBF54F8203C04F158030493F1E70427FE
:10594C000D9A09AB07FB11220C99FFF77AFE099906
:10595C00002900F0D5806CBB089F002F59D0039B09
:10596C003B44184607A9FFF754FE08A90390FFF71C
:10597C0050FE0799002949D025DD9DF83C00FF28F1
:10598C0014D000F00703042B0ED801A252F823F018
:10599C004B590008B5590008BD5900084B5900086F
:1059AC00B15900080827CBE702F014F90027C7E724
:1059BC000227C5E704AB0022204600F027F9002897
:1059CC0040F09E80C8E70D9F4A1CB4B1029BA3B95E
:1059DC000BFB0272049B171F069357F8041F41B16F
:1059EC0006AB00223944204600F010F90028F4D010
:1059FC00012181F00101C9B205E00BFB02F2B9589B
:105A0C00B1FA81F149090029A6D079E04FF0010AD9
:105A1C00A2E7BAF1000F3FF4D9AE4FF0020AF30738
:105A2C0011D5BAF1020F3FF4D1AE0D212846049ED8
:105A3C00FFF7ADFE66622062A762C4F82C90C4F832
:105A4C003080062069E016F0080608D0BAF1010F84
:105A5C0001D100F08BF8002F24DA00F099F8BAF19C
:105A6C00010F02D1204600F056FD002F1ADA0AAAC7
:105A7C0049462846FFF75DFE29469DF83C00FFF796
:105A8C0024FE6FF0030307FB03330D9A0C901344B1
:105A9C0053F826200AB10136FAE70422A662E06226
:105AAC002263636310AB43F81C4D009300231A462A
:105ABC001946284601F010FB10AB43F8207D0093EB
:105ACC00002319460122284601F006FB0F21284627
