:020000040800F2
:100000000050002021020008290200082D020008EB
:10001000A1020008A5020008ED020008000000008F
:100020000000000000000000000000003503000890
:1000300039030008000000003D03000859140008BF
:1000400051030008510300085103000889130008F8
:100050005103000851030008510300085103000830
:100060005103000851030008510300085103000820
:100070005103000851030008510300085103000810
:100080005103000851030008510300085103000800
:1000900051030008510300085103000851030008F0
:1000A00051030008510300085103000851030008E0
:1000B00051030008510300085103000851030008D0
:1000C00051030008510300085103000851030008C0
:1000D00051030008510300085103000851030008B0
:1000E00051030008510300085103000800000000FC
:1000F0000000000000000000000000000000000000
:1001000000000000000000005FF808F100B583B0B7
:1001100000F0BAFF304B314A1360314A1360314B63
:10012000314A03E011681960043304322F498B42CD
:10013000F8D32A4B1A682E4B9A4204D1284B1A68DE
:100140002C4B9A4200D0FEE7234B2B4A13602B4ADC
:1001500013602B4B02E000221A600433294A9342B9
:10016000F9D3254B1B6813B9244B1B6803B1FEE779
:1001700000F096FF694601A800F0FCFE224C234BDC
:100180001C1BA410002504E01F4B53F82530984792
:100190000135AC42F8DC1E4C1E4B1C1BA410002584
:1001A00004E01B4B53F8253098470135AC42F8DC8E
:1001B0000099019801F0C0FC0546174C174B1C1B19
:1001C000A41004E0013C144B53F824309847002C51
:1001D000F8DC284600F0A0FEBABADECA0000002013
:1001E0005C0200200000002018730008600200205C
:1001F0007856341232547698600200201804002099
:10020000600200201C0400207C0300087C0300081E
:100210007C03000894030008940300089803000876
:1002200008B5FFF773FF00BF00BEFEE71EF0040F26
:100230000CBFEFF30880EFF309807146414A104785
:100240002DE9F04182B004468846134B5E6B9F6BEC
:100250009D6A1B6B13F0020F0DD00F4BDB6A002B56
:1002600009DA4BF6AB6100F097FF20B14FF0004286
:10027000094BDA620CE0094800F0A8FECDF80080D6
:100280003B4632462946204600F00EFF00BEFEE700
:1002900002B0BDE8F08100BF00ED00E0446300085B
:1002A00000BEFEE71EF0040F0CBFEFF30880EFF373
:1002B00009807146244A10472DE9F04182B0044676
:1002C0008846084B5E6B9F6B9D6A074800F07EFE78
:1002D000CDF800803B4632462946204600F0E4FE39
:1002E00000BEFEE700ED00E0546300081EF0040FBE
:1002F0000CBFEFF30880EFF309807146134A1047F3
:100300002DE9F04182B004468846084B5E6B9F6B36
:100310009D6A074800F05AFECDF800803B46324601
:100320002946204600F0C0FE00BEFEE700ED00E0DA
:100330006063000800BEFEE700BEFEE700BEFEE709
:100340007047000041020008B902000801030008DC
:0403500000BEFEE706
:1003540018730008000000206002002018730008D1
:100364000000000000000000600200201C040020C7
:1003740000000000000000005D1A00089121000840
:100384008528000849290008CD290008912A000879
:040394006D1A0008D6
:1003980010B50446022804D940F20311044800F0BD
:1003A80007FE044B186800F038002043186010BDA1
:1003B800546000080020024010B50446102805D0FB
:1003C80020B140F22F11064800F0F2FD054B1A68E3
:1003D80022F010021A6018682043186010BD00BF90
:1003E8005460000800200240F8B505460C46464B0C
:1003F80098421BD003F58063984217D003F58063B9
:10040800984213D003F5806398420FD003F58063B8
:1004180098420BD003F58063984207D003F58063B8
:10042800984203D0B221394800F0C2FDE3788BB17D
:10043800042B0FD0282B0DD0482B0BD0142B09D010
:10044800102B07D01C2B05D0182B03D0B3212F4815
:1004580000F0AEFD23881BB9B4212C4800F0A8FD9C
:10046800E37803F00F06304613F0100F0AD0A37894
:10047800013BDBB2022B03D9BB21244800F098FDD5
:10048800A07830432378E3B12E68002316E00122D8
:100498009A40218832EA01010FD199000F278F4035
:1004A80026EA070600FA01F10E43E178282901D16E
:1004B8006A6102E0482900D12A610133072BE6D995
:1004C8002E602388FF2B1ED96E68002318E003F1E5
:1004D800080101228A40218832EA01010FD19900DE
:1004E8000F278F4026EA070600FA01F10E43E1784C
:1004F800282900D16A61E178482900D12A610133AD
:10050800072BE4D96E60F8BD000801408860000838
:1005180070B504460D4616462C4B98421CD003F580
:100528008063984218D003F58063984214D003F58D
:100538008063984210D003F5806398420CD003F58D
:100548008063984208D003F58063984204D040F253
:100558008D111F4800F02CFD6B1E9BB2012B28D972
:10056800042D26D0082D24D0102D22D0202D20D0C7
:10057800402D1ED0802D1CD0B5F5807F19D0B5F543
:10058800007F16D0B5F5806F13D0B5F5006F10D089
:10059800B5F5805F0DD0B5F5005F0AD0B5F5804F91
:1005A80007D0B5F5004F04D04FF4C771084800F0E4
:1005B800FFFC012E04D940F28F11054800F0F8FC29
:1005C8000EB1256170BD656170BD00BF00080140B6
:1005D8008860000810B50446012803D97F21034824
:1005E80000F0E6FC024B1C6010BD00BFBC600008B8
:1005F80020000E420D4B1A6842F001021A60596839
:100608000B4A0A405A601A6822F0847222F4803237
:100618001A601A6822F480221A605A6822F4FE02CC
:100628005A604FF41F029A60704700BF00100240E2
:100638000000FFF810B5044650B1B0F5803F07D070
:10064800B0F5802F04D040F211110F4800F0B0FC33
:100658000E4B1A6822F480321A601A6822F480223B
:100668001A60B4F5803F03D0B4F5802F06D010BDD2
:10067800064A136843F48033136010BD034A1368B5
:1006880043F4A023136010BDEC6000080010024082
:1006980038B50C46054650B1B0F5803F07D0B0F5E7
:1006A800403F04D040F27F111D4800F081FC74B334
:1006B800B4F5802F2BD0B4F5002F28D0B4F5402FF7
:1006C80025D0B4F5801F22D0B4F5A01F1FD0B4F5F3
:1006D800C01F1CD0B4F5E01F19D0B4F5001F16D008
:1006E800B4F5101F13D0B4F5201F10D0B4F5301F87
:1006F8000DD0B4F5401F0AD0B4F5501F07D0B4F59B
:10070800601F04D04FF4C071054800F051FC054A41
:10071800536823F47C132C431C43546038BD00BF3A
:10072800EC6000080010024010B50446012804D906
:100738004FF4CA71024800F03BFC024B1C6010BD2C
:10074800EC6000086000424210B50446022804D953
:100758004FF40E71044800F02BFC044B586820F04D
:1007680003002043586010BDEC60000800100240F0
:10077800024B586800F00C00704700BF00100240A0
:1007880010B50446A0B1802812D0902810D0A02817
:100798000ED0B0280CD0C0280AD0D02808D0E02825
:1007A80006D0F02804D04FF41971054800F000FC79
:1007B800044B586820F0F0002043586010BD00BF7B
:1007C800EC6000080010024010B5044680B1B0F596
:1007D800806F0DD0B0F5A06F0AD0B0F5C06F07D00C
:1007E800B0F5E06F04D040F27E21054800F0E0FB50
:1007F800044B586820F4E0602043586010BD00BFE7
:10080800EC6000080010024010B5044680B1B0F555
:10081800806F0DD0B0F5A06F0AD0B0F5C06F07D0CB
:10082800B0F5E06F04D04FF42671054800F0C0FB26
:10083800044B586820F4605040EAC400586010BD6A
:10084800EC6000080010024010B50446012806D9E3
:10085800042804D04FF45071094800F0A9FB094B53
:1008680000221A701A70012C02D0042C04D010BD7A
:100878000122044B1A7010BD0522024B1A7010BDDC
:10088800EC6000082010024010B50446B0F5807FE7
:100898000AD0B0F5007F07D0B0F5407F04D040F211
:1008A8007231044800F084FB034A136A1C43146243
:1008B80010BD00BFEC6000080010024010B50446EF
:1008C800012804D94FF46071024800F071FB024B13
:1008D8001C6010BDEC6000083C04424210B4294B77
:1008E8005B6803F00C03042B05D0082B06D013BB60
:1008F800254B036021E0244B03601EE0214A536826
:100908005268C3F38343023312F4803F04D11F4A71
:1009180002FB03F3036010E01A4A526812F4003F26
:1009280004D01A4A02FB03F3036006E0164A02FBEE
:1009380003F3036001E0144B036012494B68C3F3EF
:100948000313134CE35CDAB20368D34043604A688C
:10095800C2F30222A25CD2B223FA02F282604A688F
:10096800C2F3C222A25CD2B2D340C3604A68C2F3C7
:10097800813208498A5CD2B2B3FBF2F3036110BC3E
:10098800704700BF0010024000127A0000093D00C5
:10099800080000200400002038B504460D460E4B20
:1009A800034003B920B940F24A410C4800F000FB6B
:1009B800012D04D940F24B41084800F0F9FA25B15D
:1009C800074A93691C43946138BD054A936923EA31
:1009D8000404946138BD00BF0200C0FFEC60000849
:1009E8000010024038B504460D460E4B184200D19F
:1009F80020B940F269410C4800F0DAFA012D04D917
:100A080040F26A41084800F0D3FA25B1074AD36991
:100A18001C43D46138BD054AD36923EA0404D46170
:100A280038BD00BF00360181EC60000800100240AC
:100A380010B50446212818D0312816D0392814D0EA
:100A4800412812D0612810D07A280ED07B280CD0EB
:100A58007C280AD07D2808D07E2806D07F2804D09C
:100A680040F234510D4800F0A3FA6309012B02D17A
:100A78000B4B1B6806E0022B02D1094B1B6A01E0F5
:100A8800074B5B6A04F01F0423FA04F414F0010F07
:100A980001D0012010BD002010BD00BFEC6000088F
:100AA8000010024000B583B0002301933120FFF706
:100AB800BFFF019B01330193019BB3F5A06F01D0E8
:100AC8000028F3D03120FFF7B3FF08B1012000E080
:100AD800002003B05DF804FB38B504460D4620F04D
:100AE80007039BB203B918B95D210B4800F060FAFF
:100AF800012D03D95E21084800F05AFA2DB1074AA2
:100B080013889BB21C43148038BD044A1388E443FD
:100B1800A4B21C40148038BD1C61000800280040A5
:100B2800034A93889BB243F010039380704700BF39
:100B380000280040034A93889BB223F010039BB21D
:100B48009380704700280040034A938B9BB2108B18
:100B580043EA0040704700BF0028004010B5044633
:100B6800B0F5801F03D3A921064800F021FAFFF74A
:100B7800D7FFC4F30342044B1A81A4B29C81FFF748
:100B8800D9FF10BD1C61000800280040034B9B885A
:100B980003F020039BB2002BF8D0704700280040D8
:100BA800074A93889BB223F008039BB29380044BB7
:100BB8009B8803F008039BB2002BF8D0704700BF56
:100BC8000028004010B5044620F00F039BB203B97B
:100BD80020B940F21F11054800F0EAF9044A938849
:100BE800E443A4B21C40948010BD00BF1C610008FF
:100BF8000028004010B50446042808D0022806D072
:100C0800012804D04FF49971084800F0D1F9084A36
:100C18009388E1B20B401288144202D01BB900201D
:100C280010BD002010BD012010BD00BF1C610008D0
:100C38000028004010B5044620F007039BB203B912
:100C480020B94FF4A671054800F0B2F9044A938818
:100C5800E443A4B21C40948010BD00BF1C6100088E
:100C6800002800402DE9F04105460C46464B9842C5
:100C78000BD0A3F57843984207D003F580639842D8
:100C880003D0A321414800F093F9238863B1B3F559
:100C9800806F09D0B3F5004F06D0B3F5404F03D0AD
:100CA800A6213A4800F084F96388B3F5827F04D01E
:100CB8001BB1A721354800F07BF9A388B3F5006F75
:100CC80004D01BB1A821314800F072F9E3882BB198
:100CD800022B03D0A9212D4800F06AF92389012BA2
:100CE80003D9AA21294800F063F96389B3F5007F85
:100CF80004D01BB1AB21254800F05AF9A3898BB168
:100D0800082B0FD0102B0DD0182B0BD0202B09D06F
:100D1800282B07D0302B05D0382B03D0AC211B480B
:100D280000F046F9E3892BB1802B03D0AD21174899
:100D380000F03EF9238A1BB9AE21144800F038F9B7
:100D48002B8803F4415720886688A188B4F8068068
:100D58002289B4F80AC0A389B4F80EE030430843E6
:100D680048EA000111434CEA01021A434EEA020321
:100D78003B432B80AB8B9BB223F400639BB2AB83CA
:100D8800238A2B82BDE8F081003001404C610008C5
:100D980038B504460D46124B98420CD0A3F578435B
:100DA800984208D003F58063984204D040F2B71106
:100DB8000C4800F0FDF8012D04D94FF4DC71094806
:100DC80000F0F6F82DB123889BB243F0400323804E
:100DD80038BD23889BB223F040039BB2238038BDE3
:100DE800003001404C61000838B504460D46094BF7
:100DF80098420CD0A3F57843984208D003F5806355
:100E0800984204D040F23A21034800F0D1F8A58175
:100E180038BD00BF003001404C61000810B50446E1
:100E2800094B98420CD0A3F57843984208D003F5B3
:100E38008063984204D040F24A21044800F0B8F890
:100E4800A08980B210BD00BF003001404C6100088D
:100E580038B504460D46124B98420CD0A3F578439A
:100E6800984208D003F58063984204D040F2AE213E
:100E78000C4800F09DF8012D04D940F2AF21094833
:100E880000F096F82DB123889BB243F400532380D9
:100E980038BD23889BB223F400539BB2238038BD0E
:100EA800003001404C61000838B505460C46164B29
:100EB80098420CD0A3F57843984208D003F5806394
:100EC800984204D040F21631104800F071F8802C96
:100ED80012D0402C10D0202C0ED0102C0CD0082C66
:100EE8000AD0042C08D0022C06D0012C04D040F2E1
:100EF8001731064800F05CF82B891C4201D001200C
:100F080038BD002038BD00BF003001404C610008EA
:100F1800FEE700BF08B5034800F06CF80120FFF7B2
:100F2800F7FF00BF7C61000808B50D4B1B6813B9BB
:100F38000C4A0B4B1A600A4B1A68C31C23F00303B4
:100F4800134409498B4206D902F052FD0C23036071
:100F58004FF0FF3008BD02490B60104608BD00BFC6
:100F6800640200201C040020004C002001230360C0
:100F7800014B0B60704700BF1800002000B583B01C
:100F88000C46194613460AB1064A00E0064A03B958
:100F9800054B0193009223460246044800F012F8DC
:100FA800FFF7B8FF9061000824620008A0610008FC
:100FB80008B50A460146024800F004F8FFF7AAFF00
:100FC800D06100080FB400B583B004AB53F8042B0C
:100FD80001938021064803F0A7FF002803DD01469E
:100FE800034800F049F803B05DF804EB04B070471B
:100FF8006C02002010B5044603F022FD014620468D
:1010080000F03AF80121024800F036F810BD00BFA0
:10101800C06200082DE9F04385B004460F46435CE2
:1010280013BB042528462146ABBE04461FE03546BF
:10103800102E28BF1025002306E014F8011B04AA6F
:101048001A4402F8101C0133AB42F6D304AA134425
:10105800002203F8102CE9464FF0040840464946A0
:10106800ABBE8046761B00E00E46002EDFD1384628
:1010780005B0BDE8F08300BF08B5FFF7CBFF08BD9A
:1010880008B500F0FBF8024B024A9A6008BD00BFA1
:1010980000ED00E00000000808B500F017F908BDF1
:1010A800F8B504460D4617461E462648FFF78AFF40
:1010B80021682548FFF786FF61682448FFF782FF0B
:1010C800A1682348FFF77EFFE1682248FFF77AFF0F
:1010D80021692148FFF776FF61692048FFF772FF11
:1010E800A1691F48FFF76EFFE1691E48FFF76AFF15
:1010F8001D48FFF767FF29461C48FFF763FF1C4C94
:10110800E16A1C48FFF75EFF216B1B48FFF75AFF97
:10111800E16B1A48FFF756FF15F0800F03D03946E8
:101128001748FFF74FFF15F4004F03D03146154815
:10113800FFF748FF1448FFF745FF06991348FFF7E4
:1011480041FFF8BD286200083862000848620008BC
:10115800586200086862000878620008886200081F
:1011680098620008A8620008B8620008C462000813
:1011780000ED00E0D4620008E4620008F4620008B0
:101188000463000814630008246300082C63000843
:1011980083691A888A4207D10268033A012A05D866
:1011A8000233836101207047002070470020704798
:1011B80082B00023019300932C4A136843F48033D0
:1011C80013602A4B1B6803F400330093019B01331F
:1011D8000193009B1BB9019BB3F5A06FF1D1234B81
:1011E8001B6813F4003F02D00123009301E00023A1
:1011F8000093009B012B36D11D4B1A6842F0100258
:101208001A601A6822F003021A601A6842F0020291
:101218001A60A3F580535A685A605A685A605A6827
:1012280042F480625A605A6822F47C125A605A6802
:1012380042F4E8125A601A6842F080721A600B4B46
:101248001B6813F0007FFAD0084B5A6822F003029B
:101258005A605A6842F002025A60044B5B6803F015
:101268000C03082BF9D102B0704700BF00100240F0
:101278000020024008B5FFF79BFF08BD08B5104BDA
:101288001A6842F001021A6059680E4A0A405A6008
:101298001A6822F0847222F480321A601A6822F4E2
:1012A80080221A605A6822F4FE025A604FF41F0224
:1012B8009A60FFF7DFFF4FF00062034B9A6008BDAA
:1012C800001002400000FFF800ED00E01F4B5B68D3
:1012D80003F00C03042B06D0082B08D03BBB1C4A98
:1012E8001C4B1A6026E01A4A1A4B1A6022E0174A69
:1012F80053685268C3F38343023312F4803F05D125
:10130800154A02FB03F3134A136013E00F4A5268AD
:1013180012F4003F05D0104A02FB03F30D4A136094
:1013280008E00B4A02FB03F30A4A136002E0084A8A
:10133800084B1A60054B5B68C3F30313074AD35C79
:10134800DAB204490B68D3400B60704700100240C2
:1013580000127A003000002000093D002000002023
:1013680082B0064B1B680193044B1B680093019BDA
:101378000344009A9342F7D802B07047EC02002069
:1013880030B591B00120FFF735FC002855D0FFF7A4
:10139800DBFB10AB43F8380D184602F02FFB284B47
:1013A8001860029A274882FB00011144D317C3EB47
:1013B8006113C3EB0313A2EB8303B3FA83F35B0953
:1013C800214A1370002B33D0002414700CAB0A93FD
:1013D8000B948DF830401A4B1B681C4A502102A808
:1013E80003F01CFB0B9D02A803F02AFB009002AB44
:1013F8002A4621460AA801F09BF80A98FFF7E2FD61
:1014080007E00A980CAB984201D000F0E9FB00F025
:10141800CFFE0A980CAB98420AD000F0E1FB07E037
:101428000A980CAB984201D000F0DAFB00F0C0FE3D
:101438000120FFF7FFFBFFF7A9FB11B030BD00BF8C
:101448001C03002089888888340000207063000805
:10145800024A136801331360704700BFEC02002092
:1014680000B587B0FFF7C6F84FF48030FFF7E2F811
:10147800FFF718FB012824D10020FFF781F900208D
:10148800FFF7C2F94FF48060FFF79EF90220FEF7DC
:101498007FFF1020FEF790FF4FF4E0114FF48030EB
:1014A800FFF7F6F80120FFF73FF93920FFF7C0FAF8
:1014B8000028FAD00220FFF747F9FFF759F9082862
:1014C800FBD101210420FFF767FA01210820FFF76B
:1014D80063FA01211020FFF75FFA01212020FFF7AE
:1014E8005BFA01214FF40010FFF77CFA01214FF459
:1014F8008050FFF751FA01210846FFF74DFA012104
:1015080041F20500FFF748FA01A8FFF7E7F90B4A8F
:10151800029BA2FB03239B09023BB3F1807F09D204
:10152800074A5360F021074B83F823100023936088
:101538000723136007B05DF804FB00BFD34D6210AA
:1015480010E000E000ED00E008B501214FF0C050C8
:10155800FFF748FA0120FFF73DF8FFF717FB0820CF
:10156800FFF730FB4FF48070FFF78EF9FFF70EFBA3
:101578000120FFF769F9FFF709FB0120FFF79EF942
:10158800FFF704FB4FF40040FFF7E8FAFFF7FEFA15
:1015980001210846FFF7A0FA0822024B1A60FFF75C
:1015A800FFFA08BD00E100E0F0B587B01026ADF8FD
:1015B800006003248DF802408DF80360204D6946D1
:1015C8002846FEF711FFA023ADF800308DF8024041
:1015D80018238DF8033069462846FEF705FF4FF4B7
:1015E8004043ADF804304FF48273ADF806304FF441
:1015F8000063ADF808300024ADF80A40ADF80C409F
:101608004FF40073ADF80E300823ADF81030ADF884
:1016180012400723ADF814300A4F01A93846FFF7E6
:1016280021FB21463846FFF713FC01213846FFF716
:10163800AFFB012231462846FEF76AFF07B0F0BD2E
:10164800000801400030014008B501460648FFF790
:10165800CBFB02210448FFF727FC0028F9D00248F9
:10166800FFF7DCFB08BD00BF003001402DE9F04F5B
:101678009DB0019145682DB96A4B6B4A1B216B4897
:10168800FFF77CFC83464FF0040A5446AAF1040392
:10169800DBF80020D15C0822654B03EBC10112A8DE
:1016A80002F09EFA012D0BD9AAF10303DBF8002002
:1016B800D15C08225E4B03EBC10114A802F090FA3A
:1016C800022D0AD9A31EDBF80020D15C0822584B52
:1016D80003EBC10116A802F083FA032D0AD9013CD5
:1016E800DBF80030195D0822514B03EBC10118A843
:1016F80002F076FA042D0AD9DBF8003013F80A1044
:1017080008224B4B03EBC1011AA802F069FA042D19
:1017180001D9082700E001270026BE4277D200241D
:10172800072C65D821461CAB234413F8282C00232A
:101738001CA800EBC40040E91A23012D0BD91CA8F2
:10174800204410F8200C00020DF1700E0EEBC40EB0
:1017580002434EE91A23022D0CD91CAB0B4413F893
:10176800180C00041CAB03EBC10E5EE91A230243FC
:101778004EE91A23032D0ED91CAB0B4413F8100C99
:1017880000061CAB03EBC10E5EE91A23024343EAD1
:10179800E0734EE91A23042D10D91CAB0B4413F83F
:1017A800089C4FF000081CAB03EBC10050E91A235A
:1017B80042EA080243EA090340E91A231CAB03EB97
:1017C800C10151F8683C51F8641CC6F12002A6F129
:1017D8002000F34001FA02F2134321FA00F0C4F1A9
:1017E8000801C9B2184300F01DF90134E4B297E7C3
:1017F8003EB9BAF1040F04D14FF47A70FFF7B0FD87
:1018080002E00198FFF7ACFD0136F6B285E70AF170
:10181800010A5FFA8AFA55453FF637AF1DB0BDE8B1
:10182800F08F00BF0C680008B8630008186800084B
:101838000C64000810B50A4B1C68094B5B689C4295
:101848000CD023681A780423013206490648FFF7AA
:10185800B9FB54F8040B00F0C5F8EEE710BD00BF63
:101868001003002080630008306800082DE9F04369
:1018780089B004460D4601284CD14FF6FF739942B2
:1018880048D1012000F046FC002606700490012093
:1018980000F040FC012707700590384600F03AFC3C
:1018A800022303700690384600F034FC03230370CB
:1018B800079004AB02930423039302AA92E803005F
:1018C8008DE803001A4B1E605E609E6081468E00A4
:1018D800B71046B1B7F1804F01D300F08FFDB800C3
:1018E80000F018FC00E00020114B186000EB06081F
:1018F800C3F808801FB13246494602F07CF90C4B08
:10190800C3F8048006E00A4B186808B100F068F9CB
:1019180000F04EFC44B94FF6FF739D4204D1044BCE
:10192800186808B100F05CF909B0BDE8F08300BFA1
:101938001003002008B5FFF787FE08BD2DE9F04128
:10194800032A05D91B4B1C4A5B211C48FFF716FBD1
:10195800074688461546002210211948FEF7D8FD8B
:101968000024C5F103039C4205DAFF20FFF7E2FFDC
:101978000134E4B2F5E748EA0720FFF7DBFF7B1EF6
:10198800DBB2072B05D8013F0E4B03EBC50606F863
:1019980007800024AC4205D2FF20FFF7CBFF0134BB
:1019A800E4B2F7E7012210210548FEF7B1FDBDE8D2
:1019B800F08100BFD068000848680008BC680008CB
:1019C80000080140F002002038B505460024072C25
:1019D80007D80134E4B22A7800212046FFF7AEFF89
:1019E800F5E738BD10B50446027800210F20FFF74F
:1019F800A5FF227801210C20FFF7A0FF2278002103
:101A08000920FFF79BFF227807210B20FFF796FF9D
:101A180022780F210A20FFF791FF2046FFF7D4FF15
:101A280010BD00BFF8B507460E46094B1C685D6837
:101A3800AC420CD054F8043B1A78D300FF219940EB
:101A48003940D940C9B23046FFF778FFF0E7F8BD12
:101A58001003002008B54FF6FF710120FFF706FFBD
:101A680008BD00BF08B54FF6FF710020FFF7FEFE66
:101A780008BD00BF30B591B0FFF766F810AB43F86A
:101A8800380D184601F0BAFF254B1860029A254810
:101A980082FB00011144D317C3EB6113C3EB03139B
:101AA800A2EB8303B3FA83F35B091F4A1370002B7D
:101AB80033D0002414700CAB0A930B948DF830408B
:101AC800174B1B68194A502102A802F0A7FF0B9D6B
:101AD80002A802F0B5FF009002AB2A4621460AA8E8
:101AE80000F026FD0A98FFF76DFA07E00A980CAB9C
:101AF800984201D000F074F800F05AFB0A980CAB39
:101B080098420AD000F06CF807E00A980CAB9842AB
:101B180001D000F065F800F04BFB11B030BD00BFFC
:101B28001C0300208988888834000020706300081E
:101B380030B591B024492548FFF744FA244802F00B
:101B48001FF903F037F8FFF795FFFFF789FCFFF758
:101B5800FBFCFFF729FDFFF76DFE1E48FFF732FA81
:101B68000CAB0A9300240B948DF830401A4B1B6879
:101B78001A4A502102A802F051FF0B9D02A802F058
:101B88005FFF009002AB2A4621460AA800F0D0FC6D
:101B980032210AA8FFF76AFD07E00A980CAB9842C1
:101BA80001D000F01DF800F003FB0A980CAB984236
:101BB800D6D000F015F8D3E70A980CAB984201D0BC
:101BC80000F00EF800F0F4FAF46800080C69000858
:101BD80028690008346900081C03002070630008A5
:101BE80001F0D6BF70B50023A0EBC006C0EBC00261
:101BF80010F8015B941905F07F02A24013432A06EE
:101C0800F4D40B6070BD00231A4630B510F8014BB0
:101C180004F07F0595402B43250602F10702F5D411
:101C28001F2A06D8640642BF4FF0FF3404FA02F2B6
:101C380013430B6030BD5028F7B505460F461446D0
:101C48001E4605D1D01C20F0030050F8043B33E0B9
:101C580000F00F030C2B23D8DFE803F01A07121A41
:101C68001E222222220C161A1E0001A92046FFF766
:101C7800B9FF03E001A92046FFF7C5FF019B11E06A
:101C8800204630F8023B0DE0204630F9023B09E0DF
:101C9800204650F8043B05E0204650F8083B01E098
:101CA800FFF738F943B105F07002102A18BF3C4617
:101CB8002A06234448BF1B68336003B0F0BD08B54B
:101CC8000346FF2B08461CD003F07003202B0ED0D0
:101CD80003D8B3B1102B12D113E0402B0BD0502BEB
:101CE8000FD0302B0BD1BDE8084001F07DBEBDE818
:101CF800084001F075BEBDE8084001F061BEFFF77D
:101D080009F9002008BD70B50C4601462046154665
:101D18001E46FFF7D4FF33462A4601462046BDE853
:101D28007040FFF788BF73B50E461446054610B1DC
:101D380001F046FEFFE720603178721CFF2905D0CC
:101D4800231D2846FFF7DFFF024600E06060137896
:101D5800501CFF2B237507D01023237501A9FFF70B
:101D680041FF019B034400E00023E360037801A9DD
:101D780063750130FFF736FF019B0344236102B00E
:101D880070BD1FB503AB009300230A46194601F046
:101D98008DF8039805B05DF804FB00002DE9F04FBD
:101DA800002391B0049300F00303012B07460C466F
:101DB80015460ED002D3022B02D0EFE0020717D54A
:101DC8002946204601F0E8FD08B109209FE10820D6
:101DD8009DE100F0080202F0FF065AB9D1F8208010
:101DE80028460D21FFF7CDFF804520D1062602E0C9
:101DF800012600E0022610AB43F82C4D009307F0B3
:101E0800080700233E430C221946284601F074F8BF
:101E1800062E17D1D4F83080A76AB8F1000FD4F88D
:101E28002C900CBF4FF0010A4FF0030A05E110AAED
:101E380042F82C4D0092334631460C22284601F0D8
:101E48005BF80226284601F0C1FD81460028B7D07C
:101E58000AAA01462846FFF766FF294680469DF8EC
:101E68003C00FFF72CFF0F210C902846FFF789FF55
:101E780020F00100471E0E9B984580F03F814246A6
:101E880006AB9DF83D100020FFF73DFF07AB02466B
:101E98009DF83D100020FFF736FF08AB02469DF87D
:101EA8003D100020FFF72FFF09A9FFF79BFE069BB7
:101EB8000A9A804613449F4202D2DDF83880DAE756
:101EC800079A13449F42D6D2089818B10B9B00EB8F
:101ED800030800E08046099810B10E9F0138384485
:101EE800B8F1000F3FF46CAF002800F00C8116F039
:101EF8000803029314D0472323704E23637055239D
:101F0800A3704323E370462323714F236371522345
:101F1800A3710023E3714FF0000A6FF0030B1BE07D
:101F2800E379012B0CBF54F8203C04F158030493C7
:101F3800F1E704270D9A09AB07FB11220C99FFF76B
:101F48007AFE0999002900F0D5806CBB089F002F04
:101F580059D0039B3B44184607A9FFF754FE08A92C
:101F68000390FFF750FE0799002949D025DD9DF819
:101F78003C00FF2814D000F00703042B0ED801A260
:101F880052F823F03B1F0008A51F0008AD1F0008EA
:101F98003B1F0008A11F00080827CBE7FEF7BAFF80
:101FA8000027C7E70227C5E704AB0022204600F058
:101FB80023F9002840F09E80C8E70D9F4A1CB4B161
:101FC800029BA3B90BFB0272049B171F069357F8D9
:101FD800041F41B106AB00223944204600F00CF939
:101FE8000028F4D0012181F00101C9B205E00BFB02
:101FF80002F2B958B1FA81F149090029A6D079E06D
:102008004FF0010AA2E7BAF1000F3FF4D9AE4FF042
:10201800020AF30711D5BAF1020F3FF4D1AE0D2130
:102028002846049EFFF7ADFE66622062A762C4F8E8
:102038002C90C4F83080062069E016F0080608D015
:10204800BAF1010F01D100F087F8002F24DA00F06F
:1020580095F8BAF1010F02D1204600F000FB002FDD
:102068001ADA0AAA49462846FFF75DFE29469DF86E
:102078003C00FFF724FE6FF0030307FB03330D9AC0
:102088000C90134453F826200AB10136FAE70422CB
:10209800A662E0622263636310AB43F81C4D0093B1
:1020A80000231A461946284600F026FF10AB43F8CD
:1020B800207D0093002319460122284600F01CFFCA
:1020C8000F212846FFF75DFE00F0010010AB40EA43
:1020D800080043F8240D009300230F2219462846D0
:1020E80000F00AFFBAF1020F02D1204600F0E0F832
:1020F80007200CE0079F4FF0030A8AE74FF000081B
:102108004FF0010A01E04FF0020A002781E711B001
:10211800BDE8F08F10B5002814BF044601242046FE
:1021280001F02EFD30B900F0BDFA08B9FEF7F2FE55
:102138008047F4E710BD00000048704720030020E6
:1021480008B58047FEF7E6FE024B1868BFF35F8FBD
:10215800704700BF3800002008B5FFF7F5FFFFF70C
:10216800EFFF08B58047FFF7F7FF0000024B18683C
:10217800BFF35F8F704700BF3C00002008B5FFF732
:10218800F5FFFFF7EEFF000038B5084C4FF41E6569
:102198002846E56001F0F4FCA06010B9E0606060DA
:1021A80038BD002360600560436038BD2C03002003
:1021B8001EB400F09AF81EBC01F028FA0378472BE9
:1021C80017D143784E2B14D18378552B11D1C3786E
:1021D800432B0ED10379432B0BD143792B2B08D1F9
:1021E80083792B2B05D1C07901288CBF00200120D1
:1021F80070470020704700002DE9F3411D46037821
:102208000E46472B0246C17943D143784E2B40D125
:102218008378552B3DD1C378432B3AD10379462B8C
:1022280037D143794F2B34D18379522B31D10029BF
:102238002FD108460123002401947BB980B90129D4
:102248000ABF52F8203CA2F12003783B01290CBFB9
:1022580052F8202C58321C68019202E0124C00E01F
:10226800124C236820469B68984720B1019B02279F
:102278001B68019300E00127336801AAD3F8108096
:10228800214601233046C04758B1019B38462B6090
:1022980007E01046FFF792FF80F00100C0B200236C
:1022A800C9E702B0BDE8F0816869000894690008D0
:1022B80010B50446FFF740FF02462046A4F120016E
:1022C800FFF77CFF50B154F8043C0133012B44F86C
:1022D800043C08D1936844F8083C03E093680BB1C8
:1022E800FFF73AFF9160012010BD10B5FFF724FFFA
:1022F800826801460AB9FFF72FFF02F12004204641
:10230800FFF75CFF38B1D369013BD36123B990690A
:102318008860936100E08860204610BD7FB5102377
:1023280002930368002415469E6900946B468DF855
:10233800044003941268B0479DF8043003F0060384
:10234800062B11BF2046009B01202B6004B070BDF6
:10235800009890420CBF06200120704710B5044633
:10236800024B036000F070FA204610BDA469000813
:1023780010B50446FFF7F2FF2046FFF731FC204670
:1023880010BD38B515461C4600F061FA20B1082387
:10239800E36006232560237138BD2DE9F041069ED0
:1023A8009846089B07469E421546099C03D1079903
:1023B80000F04DFA48B94146384600F048FA28B1CD
:1023C800012326602571A37100E065710020BDE836
:1023D800F0812DE9F04105460C4616461F4600F0EF
:1023E80036FA48B9032F07D82368324629462046CB
:1023F800BDE8F0415B691847BDE8F08108B5FEF714
:1024080089FD08B5FEF786FD0AB101F0E9BB704702
:1024180008B50B68B3F1004F02D30A48FFF7F1FF84
:10242800934209D95200934206D2B2F1004F2ABF13
:102438006FF000430A600B600868BDE8084001308F
:10244800FFF768BEF6690008034653F8080B984280
:1024580001D0FFF7C5BB704710B544686FF0004066
:10246800001B0144914202D21846FFF7CAFF10BD73
:1024780002688A4206D84368D018814294BF002077
:102488000120704701207047012A10B502D10A784F
:10249800027010BDFFF7B8FF10BD012A30B402D199
:1024A8000B78037003E012B130BC01F0A4BB30BC60
:1024B80070472DE9F3470A9D994643681746C1EBD3
:1024C80003082B449B1AC2EB08080268019300F129
:1024D80008039A420E4614BF82680F2201A90446D7
:1024E800FFF796FF82461EB132462168FFF7CCFF00
:1024F800B9F1000F06D02DB12A4649460AEB06006D
:10250800FFF7C2FFB8F1000F07D0216837447019F0
:10251800424639445044FFF7B7FF2046FFF794FF7F
:10252800019BC4F800A0A36002B0BDE8F0870000DA
:102538002DE9F347164681460A9C0F4698463146D0
:10254800374B2246FFF788FF4B4653F8085BD9F80C
:1025580004109D4204EB010A18BFD9F80830C6EBF5
:102568000A0A08BF0F23534530D3C91B3D444846C8
:102578008F1B4146FFF77CFF58B137B1A64204D004
:102588003A46A9192819FFF788FFECB322464146B5
:102598000DE0B4B3A64221D3224641462846FFF7B0
:1025A8007CFF2EE0984504D32246A11B41442846CF
:1025B80009E0C8EB0306324641462846FFF76DFF9F
:1025C800A21B2919A819FFF75FFF1DE000944346D5
:1025D800324639464846FFF76CFF15E037B13A46B0
:1025E800A9192819FFF759FFA6420DD2AB1908EB14
:1025F80004029342D6D3224641462846FFF74DFFB0
:1026080002E00FB1A642EAD14846D9F800300022CC
:10261800C9F804A003F80A2002B0BDE8F08700BF9B
:10262800E56A00080378472B17D143784E2B14D15D
:102638008378552B11D1C378432B0ED10379432BC3
:102648000BD143792B2B08D183792B2B05D1C0795A
:1026580001288CBF0020012070470020704710B56A
:10266800044648B100F043F82046FFF7DBFF18B1F5
:1026780054F8140CFFF764FDFFF76EFD38B50246F9
:10268800FFF7D0FF18B152F8184C002501E00446B6
:102698000125104600F02BF80DB1FFF76FFD20461D
:1026A800FFF75FFD024B1868BFF35F8F704700BFED
:1026B8003C0300200378472B17D143784E2B14D1C5
:1026C8008378552B11D1C378432B0ED10379432B33
:1026D8000BD143792B2B08D183792B2B05D1C079CA
:1026E80001288CBF0020012070470020704738B5B2
:1026F8000546FFF721FD014602682846A5F120049A
:10270800FFF7D8FF28B90AB1FFF726FD0C60144679
:1027180015E055F80C3C2846002BB4BFC3F1010363
:10272800013345F80C3C4B68A24203F1FF334B6080
:102738001CBF45F8102C0C606C6A00F0AFFB2046FB
:1027480038BD000010B50446024B0360FFF706FED3
:10275800204610BDC46B000810B50446FFF7F2FF11
:102768002046FFF73DFA204610BD2DE9F14F0E46F1
:1027780019468346174699460A9CDDF82CA0DDF8D1
:1027880030800D9D00F063F878B1002E2C602F7119
:1027980006DB3444A0450CBF06240124AC711EE0BE
:1027A80002361CD10123AB7119E0444504D15146CE
:1027B800584600F04CF888B9DBF808003A46036838
:1027C8000D95CDF83080CDF82CA00A94DC693146FF
:1027D8004B46A44601B0BDE8F04F60476F7100203A
:1027E80001B0BDE8F08F2DE9F041069E8046964283
:1027F8000F4614461D4603D1194600F028F858B96B
:10280800D8F808002246036806961E6A39462B4601
:10281800B446BDE8F04160470620BDE8F0812DE9E7
:10282800F04104460D4616461F46FFF7AAFD48B973
:10283800A0683246036829469C693B46A446BDE821
:10284800F0416047BDE8F081704700207047814241
:1028580008B50ED0406803782A2B0CD049680B784D
:102868002A2B08BF013101F09BFBB0FA80F0400928
:1028780008BD012008BD002008BD0000244B1A68CF
:10288800D0075CBF01221A60224B1A68D1075CBFCF
:1028980001221A60204B1A68D2075CBF01221A6015
:1028A8001E4B1A68D0075CBF01221A601C4B1A68BD
:1028B800D1075CBF01221A601A4B1A68D2075CBFA5
:1028C80001221A60184B1A68D0075CBF01221A60EF
:1028D800164B1A68D1075CBF01221A60144B1A689C
:1028E800D2075CBF01221A60124B1A68D0075CBF7E
:1028F80001221A60104B1A68D1075CBF01221A60C6
:102908000E4B1A68D2075CBF01221A60704700BFDD
:102918006C0300206803002064030020600300208B
:102928005C030020580300205403002050030020BB
:102938004C030020480300204403002040030020EB
:10294800184B1A68D1075CBF01221A60164B1A6827
:10295800D2075CBF01221A60144B1A68D0075CBF0B
:1029680001221A60124B1A68D1075CBF01221A6053
:10297800104B1A68D2075CBF01221A600E4B1A6806
:10298800D0075CBF01221A600C4B1A68D1075CBFE4
:1029980001221A600A4B1A68D2075CBF01221A602A
:1029A800704700BF8C0300208803002084030020A8
:1029B800800300207C03002078030020740300209B
:1029C80070030020244B1A68D0075CBF01221A60EC
:1029D800224B1A68D1075CBF01221A60204B1A6883
:1029E800D2075CBF01221A601E4B1A68D0075CBF71
:1029F80001221A601C4B1A68D1075CBF01221A60B9
:102A08001A4B1A68D2075CBF01221A60184B1A6861
:102A1800D0075CBF01221A60164B1A68D1075CBF49
:102A280001221A60144B1A68D2075CBF01221A608F
:102A3800124B1A68D0075CBF01221A60104B1A6843
:102A4800D1075CBF01221A600E4B1A68D2075CBF1F
:102A580001221A60704700BFBC030020B8030020A1
:102A6800B4030020B0030020AC030020A80300201A
:102A7800A4030020A00300209C030020980300204A
:102A88009403002090030020184B1A68D1075CBFFC
:102A980001221A60164B1A68D2075CBF01221A601D
:102AA800144B1A68D0075CBF01221A60124B1A68CF
:102AB800D1075CBF01221A60104B1A68D2075CBFAD
:102AC80001221A600E4B1A68D0075CBF01221A60F7
:102AD8000C4B1A68D1075CBF01221A600A4B1A68AE
:102AE800D2075CBF01221A60704700BFDC030020D8
:102AF800D8030020D4030020D0030020CC030020FA
:102B0800C8030020C4030020C003002003685A0043
:102B18004CBF43F0004323F000431844704700BF04
:102B280061B32DE9F84F01F1FF3A90460646D146C8
:102B3800002707EB090404EBD4746410E50071194D
:102B48000846FFF7E3FFA245834605F10800304435
:102B580009D0FFF7DBFFC34500F1FF3005D840453A
:102B680009D2671CE5E7C34505D9A74202D004F19D
:102B7800FF39DEE700210846BDE8F88F08467047B0
:102B8800012807D0022807D0044B00280CBF18469C
:102B98000020704702487047024870479D3200087D
:102BA800A1320008A532000830B5254B83B0044691
:102BB8008D1E7BB301A92846AFF3008020B301998D
:102BC8002A46FFF7ADFF0146F0B1FFF79FFF4B68BC
:102BD800A064012B12D0002B01F1040021DBFFF7C8
:102BE80095FF0023E06423650368002B1DDBFFF7D6
:102BF8008DFF00232061184603B030BD00232361F8
:102C08000523184603B030BD002323610923184665
:102C180003B030BD0B490C4B0846591AC910019135
:102C2800CEE70123E0642365DEE7C3F30360FFF723
:102C3800A7FF0028206114BF00230923DBE700BF9A
:102C480000000000D071000818730008036810B570
:102C5800DA07044606D49B0700F1480009D500F0BE
:102C68005BFC2368590709D51A070ED5DB0613D56F
:102C780010BD00F049FC23685907F5D404F1D000D1
:102C880000F052FC23681A07F0D404F5A87000F08D
:102C980053FC2368DB06EBD404F5E870BDE810406C
:102CA80000F08EBC03680BB1184470471846704793
:102CB80009207047704700BF70B504460D4608E00C
:102CC8002A6C2369626121462A4601209847082810
:102CD80008D1296C2046FFF767FF06460028EFD089
:102CE800FEF718F90728FBD13046296CFFF7E2FFF9
:102CF800281D00F0FDFB00BF2DE9F0470646ADF5A5
:102D0800727D03AD0C1D17460FCC0FC50FCC0FC538
:102D18000FCC0FC594E80F0002ACD6F80C80D6F89B
:102D2800189085E80F0000233046216C2360FFF7D8
:102D38003BFF0546002F14BF0A2709277DB1A36B67
:102D480047F010018DE810023246636401203346D3
:102D5800C04778BB28460DF5727DBDE8F087236C27
:102D68004FF4F072736121467AA800F039FF336995
:102D78007AAA314638469847889B82468DE81002E1
:102D880039466364324633460120C04790B94FF450
:102D9800F0727AA9204600F023FFBAF1080F06D195
:102DA800216C3046FFF700FF09270546C6E7BAF150
:102DB800070F04D009200DF5727DBDE8F08728467D
:102DC800216CFFF777FF03A800F092FB406C704777
:102DD800F0B5CB6BF9B00B640E1D01AD0F46044680
:102DE8000FCE0FC50FCE0FC50FCE0FC596E80F003B
:102DF8004FF0FF3685E80F00009606E023696A4623
:102E0800214698470828054608D110992046FFF71B
:102E1800CBFE0028F2D0092079B0F0BD6846FFF754
:102E280015FF062DF7D139462046FFF745FF00BFAD
:102E380030B4DD6BC160826119461D64002230BC6C
:102E48005AE700BF70B54369C6680B6426B1012212
:102E5800FFF752FFFEF75EF803690A4604460D467F
:102E6800014602209847072807D0082803D1294699
:102E78002046FFF721FFFEF74DF83046296CFFF793
:102E880019FF281D00F034FBC2682AB110B4CC6BBE
:102E980000220C6410BC2FE79AE700BF704700BF00
:102EA800836813B1014601201847704700B504290B
:102EB80007D8DFE801F00309060909000BB90F2A52
:102EC80005D902205DF804FB01205DF804FB00EB46
:102ED800820252681846019B1A605DF804FB00BF25
:102EE80010B584B0002303AC0A4600941946FFF7D6
:102EF800DDFF039804B010BD00B5042907D8DFE84A
:102F080001F00309060909000BB90F2A05D90220A7
:102F18005DF804FB01205DF804FB019900EB8202D7
:102F28000968184651605DF804FB00BF10B584B00D
:102F380004AC44F8042D00230A4600941946FFF710
:102F4800DBFF04B010BD00BFF0B5D36BADF50F7D4E
:102F58001364151D17AC07460E460FCD0FC40FCDD1
:102F68000FC40FCD0FC495E80F004FF0FF3584E86C
:102F78000F00169511E016A86A46FFF7D7FF3146ED
:102F880016A8B84780B9049B16AA6946082098472E
:102F98000528044609D0092806D026996846FFF76F
:102FA80003FE0C210028E6D0092416A8FFF74EFEE0
:102FB80020460DF50F7DF0BD2DE9F04FCC6C914604
:102FC80022688BB004340D460792089400F0030B76
:102FD8001E46002B64D11202032307928DF8256048
:102FE8008DF824302B6DBBF1020F08BFAC6B13F0CA
:102FF800010343D100F00800C2B20392019327688D
:10300800002F3DD0022E47D02788B4F80280043420
:10301800AB6C28F0010A0F2148469A44FFF760FF7D
:10302800824537D827F001039A4450452CBF002029
:1030380001204FEA480808F0020807F0010748EAAB
:103048000708B8F1010F41D038D3B8F1020F1DD1EC
:10305800236823F000420292BBF1000F79D130B10E
:103068000399002900F08180002A00F0A880002B35
:1030780079DB029B013304EB8304C0E7002301934F
:10308800022E40DDFFF714FE002842D009200BB0C5
:10309800BDE8F08F0020CCE7D4F804800834B7E707
:1030A800022B9FDC130CD9B212048DF825300223B1
:1030B80004EB810407928DF8243093E7BBF1000FED
:1030C80002D0002840F0B080043498E7BBF1000F2C
:1030D80026D1B0B194E80C00991C4FEAD272D5D031
:1030E80005F158010133069100F09480201DFFF787
:1030F800D9FD06AB01462846FFF77EF8002840F0C8
:10310800B88008347BE707A9484600F0F3FA00289E
:10311800BCD1019B002B5CD108200BB0BDE8F08F1F
:103128000D2148462F6AFFF7DBFE8742E9D1AB6ADB
:103138009C42E6D12046FFF7E9FC0F2102464846AB
:10314800FFF7F4FE48462A460021FFF7EFFE072066
:103158009DE70D2148462F6AFFF7C2FE874248D0F7
:103168002368002B85DA043483E7029B3BB305F11F
:103178005803271DCDF810B0DDF80C80A346DDF804
:1031880008A01C46059602E0B245B04616D038465F
:103198000694FFF787FD06AB014600222846FFF795
:1031A8002BF808F1010604370028EDD0029B5C4695
:1031B8004345DDF810B0059ED2D100E05C46484694
:1031C8000D21FFF78DFE069B2862AC626B6206201C
:1031D8005DE70F214846FFF783FE0E210246484669
:1031E800FFF7A4FE48462A4A0F21FFF79FFE072053
:1031F8004DE7AB6A9C42B3D1042202990027A31879
:10320800A962EF622A636B632368BB421FDB012359
:1032180001932EE748460D21FFF762FE2862069BC0
:103228006B62AC62062032E72046FFF76FFC04347D
:103238000646AC632846FFF73BF800283FF426AF64
:10324800484632460F21FFF771FE07201FE7084660
:10325800013004EB8000FFF759FC0F210246484675
:10326800FFF764FE48462A463946FFF75FFE072007
:103278000DE707460D214846FFF732FE022F286268
:10328800CDD12B46069A43F82C2F6B62C9E700BFB5
:103298008526000800238FE601238DE602238BE6AE
:1032A800F0B50446C5B004290DD8DFE801F057038E
:1032B8000C310F00012B4FEA124695B266D17219F4
:1032C800102A40F29F80022045B0F0BD002BFAD1B1
:1032D800102AF8D82368D80600F1C98022AE3046F3
:1032E800019200F077F9A06B019A0023012505FAF5
:1032F80003F1114203D00168043046F8231001336A
:10330800042BF4D1A063304600F05AF90020DBE723
:10331800032BD8D1150C97B2EB19102BD3D82368EF
:103328001E0700F1B88022AE30467F0000F026F973
:1033380006EBC5027B1EA56B57B12946043A51F826
:10334800040B013B42F8040F581CF8D105EB870524
:103358003046A56300F0F0F80020B5E7002BB2D1A5
:10336800A56B97B2201D012606FA03F1394203F135
:10337800010302D0296804350160102B00F1040014
:10338800F2D112F400503BD1A5639DE7052B9AD1E9
:103398007719202F97D80F2E65D92F46002D48D1A1
:1033A8002A460027002AA06B71DD00EBC202014605
:1033B80044A800EBC6008C3851F8045B914240F8F1
:1033C800045FF9D1084697B13246102E44A938BF98
:1033D800102201EBC202A2F5C4727900043A00EB94
:1033E800810150F8045B814242F8045FF9D1012B56
:1033F80047D00F2EA16332D917B102A800F094F874
:10340800002061E70F2E3FF65EAF00272268D10744
:103418000DD522F00101052B21600193204652D0E1
:1034280022F0030240F8482B00F072F8019B002FAD
:1034380051D02268510736D4012B3ED00F2E06D822
:1034480022A8019300F06CF8019B002FA8D002A8D5
:10345800019300F06DF8019BC6F11002A2E722A8C3
:1034680000F05AF8C8E7102FCFD9103FCEE723F065
:103478001003236004F5E870019200F0ABF8019A9C
:103488002CE70431A16322A800F03EF8B8E7002F2A
:103498009AD10146ABE723F00803236004F5A8702E
:1034A80000F06CF83FE7204622F0040240F8D02BE9
:1034B800019300F03DF8019BBEE722A8019300F0BC
:1034C80027F8019BC8E741F0020140F8481B00F0CB
:1034D80027F8019BABE7012B03D00F2E3FF660AF17
:1034E800AEE722A8019300F013F8019B58E700BF4C
:1034F80000F1340191E838009C46A6464CF8045D7A
:1035080090E8FF0FE54600BD90EC210B704700BF27
:1035180080EC210B704700BF90EC200B704700BF78
:1035280080EC200B704700BFD0EC200B704700BF29
:10353800C0EC200B704700BFF0EC0201F0EC021168
:10354800F0EC0221F0EC0231F0EC0241F0EC025117
:10355800F0EC0261F0EC0271F0EC0281F0EC029107
:10356800F0EC02A1F0EC02B1F0EC02C1F0EC02D1F7
:10357800F0EC02E1F0EC02F1704700BFE0EC020170
:10358800E0EC0211E0EC0221E0EC0231E0EC024157
:10359800E0EC0251E0EC0261E0EC0271E0EC028147
:1035A800E0EC0291E0EC02A1E0EC02B1E0EC02C137
:1035B800E0EC02D1E0EC02E1E0EC02F1704700BF80
:1035C800B0FC0181B0FC0191B0FC01A1B0FC01B1DB
:1035D800704700BFA0FC0181A0FC0191A0FC01A1E3
:1035E800A0FC01B1704700BFEC4600B52DE90050C2
:1035F8002DE9FF1F4FF000032DE90C0001A9FFF78B
:10360800E7FBDDF840E012B0704700BFEC4600B5BC
:103618002DE900502DE9FF1F4FF000032DE90C00A4
:1036280001A9FFF70FFCDDF840E012B0704700BFBA
:10363800EC4600B52DE900502DE9FF1F4FF00003BF
:103648002DE90C0001A9FFF71FFCDDF840E012B0DE
:10365800704700BFEC4600B52DE900502DE9FF1F6B
:103668004FF000032DE90C0001ABFFF7E1FBDDF89B
:1036780040E012B0704700BFEC4600B52DE900509D
:103688002DE9FF1F4FF000032DE90C0001AAFFF7F9
:103698005BFCDDF840E012B0704700BF037A1BB94D
:1036A800437A43B9B02070475A1E036802721A025F
:1036B8000260180E70474268013B10B443721368E9
:1036C8000321141D01721A024460026010BC180E16
:1036D800704700BF00B585B003AA002300921946C1
:1036E8000C22FFF7E3FB039805B05DF804FB00BF6D
:1036F800F0E700BF2DE9F04306460D4685B04FF0D0
:1037080000082846FFF7CAFFB028044600F0B48036
:1037180020F07F0313F0FF0320D000F0F003802B8C
:103728007AD0902B35D0A02B48D0B02B5CD0C02BB2
:1037380000F0898000F0F803D02B0BD100F00702CD
:10374800013242F40022052301213046FFF7A8FD8B
:103758000028D6D0092005B0BDE8F0830DF10C098A
:1037680019468700CDF800900D223046FFF79EFBE2
:10377800FFB2039B043760064CBFDF1BFF18002312
:10378800CDF8009019460D2230460397FFF7B4FB99
:10379800B7E700F00D030D2BDCD003AF002300F0DA
:1037A8000F02194600973046FFF780FB0023009769
:1037B80019460D223046FFF79FFBA2E7C2434FF49C
:1037C8007F6302F0070243FA02F2010702EA0302EA
:1037D8004FF0000348BF42F4804219463046FFF7D5
:1037E8005FFD0028B6D18CE7B1284AD0B22853D063
:1037F800B32800F0818000F0FC03B42BAAD000F0BD
:1038080007020132012342F4002219463046FFF72D
:1038180047FD00289ED174E72846FFF73FFF2402A2
:103828002043B0F5004F95D004010023A2B21946F9
:103838003046FFF735FD00288CD114F4004F18BF2F
:103848004FF001085DE7C62862D0C7286CD000F0A9
:10385800F803C02B7BD0C82800F09180C9287FF4DA
:1038680079AF2846FFF71AFF020300F00F0002F4B1
:1038780070220130024366E7B8F1000F6ED00020D5
:1038880069E72846FFF70AFF024600283FF462AFBF
:1038980010F0F003B9D05DE700230DF10C090D22FB
:1038A8001946CDF800903046FFF700FB2846FFF791
:1038B800F5FE02064FF002040CD5039B00F07F00D2
:1038C800A040034428460393FFF7E8FE030604F1EB
:1038D8000704F2D4039B00F07F0000FA04F203F51A
:1038E800017400231444CDF8009019460D22304687
:1038F8000394FFF701FB04E72846FFF7CFFE010317
:1039080000F00F0001F47021421C01230A437CE7F8
:103918002846FFF7C3FE010300F00F0001F47021F1
:10392800421C03230A4370E72846FFF7B7FE024606
:1039380000283FF40FAF10F0F0037FF40BAF042121
:103948003046FFF7ADFC00287FF404AFD9E600F05D
:103958000F020132032342F4202256E703AC434608
:103968000E22414600943046FFF7A0FA00943046F4
:1039780043460F224146FFF7BFFA4046EBE628468A
:10398800FFF78CFE00F0F00200F00F031032013355
:1039980043EA0232D7E600BF10B5C36C84B00320F7
:1039A8005A688DF80C00DC7912020833084601A920
:1039B80001928DF80D400293FFF79CFE04B010BDF4
:1039C80008B5FFF795FE806C08BD00BF08B5FFF786
:1039D8008FFEC36CD87903EB8000083008BD00BFA8
:1039E80008B5FDF797FA00BF08B5FFF7F9FF00BF64
:1039F800014B1868704700BFA000002038B5074B7E
:103A080005461C68E36B1BB9242000F0B9F8E06395
:103A1800E16B2846BDE8384000F002B8A00000205D
:103A28000268464BF0B592FBF3F403FB1422002A1C
:103A3800BCBF02F5A83202F5C0724FF4616092FB78
:103A4800F0F300FB13224FF03C008B6092FBF0F385
:103A580000FB132204F52F24ACBF04F66C2404F6F3
:103A68006B244B600A600723E21C92FBF3F3344D8E
:103A7800C3EBC30394FBF5F5D31A48F6AC6240F2E6
:103A8800B4578B612F4B304803FB0544B4FBF2F26B
:103A9800B4FBF7F3B4FBF0F02244D21A48F694666C
:103AA800131A40F26D12B3FBF6F6B3FBF2F0B3FB58
:103AB800F7F33444E31A02FB103303EB830299242F
:103AC8000232B2FBF4F25443A61C0524B6FBF4F40C
:103AD8000A2A34BF02266FF0090616444FF4C8724A
:103AE80002FB05055F1C012E98BF0135B3F5997FD0
:103AF800A7EB040702D3A3F5997214E0820705D156
:103B08006424B0FBF4F204FB12024AB94FF4C87201
:103B1800B0FBF2F402FB1400B0FA80F2520900E0A4
:103B280001223B331A44A5F26C750023CA614D612A
:103B38000E61CF600B620846F0BD00BF80510100E6
:103B4800B13A02004FC5FDFFB03A0200034B1B68B3
:103B5800186A034B002808BF18467047A0000020C9
:103B6800A4000020D0F8EC007047000008B5034B13
:103B78001868FFF7EBFFD0F8EC0008BDA0000020A4
:103B8800024B0146186800F09DB800BFA000002055
:103B9800024B0146186800F049B800BFA000002099
:103BA80082B001B901A93AB143B113780B60127818
:103BB800101C18BF012003E0104601E06FF001005F
:103BC80002B0704710B5C9B202449042034605D00E
:103BD8001C7801308C42F8D1184610BD002010BD69
:103BE80010B5431E0A44914204D011F8014B03F862
:103BF800014FF8E710BD884210B501EB020301D868
:103C0800421E0BE09842FBD28118D21AD34204D04C
:103C180013F8014D01F8014DF8E710BD994204D0A1
:103C280011F8014B02F8014FF8E710BD38B5054609
:103C3800002944D051F8043C0C1F002BB8BFE418ED
:103C480001F0E0F91E4A1368114613B96360146065
:103C580030E0A3420DD92268A018834201BF18683A
:103C68005B681218226063600C6023E0A24203D8EC
:103C780013465A68002AF9D118681918A1420BD1BD
:103C88002168014458188242196013D1106852689B
:103C9800014419605A600DE002D90C232B6009E039
:103CA80021686018824201BF1068526809182160B3
:103CB80062605C602846BDE8384001F0A4B938BDB0
:103CC800E403002070B5CD1C25F0030508350C2D44
:103CD80038BF0C25002D064601DBA94202D90C236A
:103CE800336046E001F08EF9234B1C681A462146E2
:103CF800A1B10B685B1B0ED40B2B03D90B60CC183E
:103D0800CD501EE08C420BBF63684B681360636044
:103D180018BF0C4615E00C464968E9E7174C2368BC
:103D28001BB9304600F056F820602946304600F0AE
:103D380051F8431C18D0C41C24F00304A0420DD130
:103D48002560304601F05FF904F10B00231D20F0D7
:103D58000700C31A0ED05A42E25070BD211A3046ED
:103D680000F038F80130EBD10C233360304601F015
:103D78004AF9002070BD00BFE4030020E0030020E2
:103D8800024B0146186800F003B800BFA0000020ED
:103D980070B5054600F00EF90646C0B13D2100F0A9
:103DA800F1F820B931462846FFF740FF0FE00246F8
:103DB800002302F8013B31460123284600F01AF897
:103DC800044631462846FFF731FF204670BD0120E2
:103DD80070BD000038B5064C002305460846236030
:103DE800FDF7A2F8431C02D1236803B12B6038BD4C
:103DF800140400202DE9F74F0E4605463D213046B4
:103E08001746984600F0BEF820B1FFF7F1FD1623DB
:103E1800036037E0284601F0A6F8384600F010FEA7
:103E280001AA81463146284601F0A0F8044698B117
:103E3800B8F1000F04D1284601F096F800206EE092
:103E480000F0FEFD81453AD8013C17F8013B04F823
:103E5800013F002BF9D1EEE7324B9A46196851F829
:103E680024300BB10134FAE72F4BA21C186860B15B
:103E78009200284601F0C8F8CAF80000C0B92846E0
:103E880001F072F84FF0FF3049E001214FEA820853
:103E9800196028464146FFF715FF83460028EED0F3
:103EA800A8F10802DAF80010FFF79AFECAF800B085
:103EB800DAF80030621C002143F8221001943146E0
:103EC8000B4613F8012B9AB9891B164C4944023149
:103ED8002846DDF804A0D4F80080FFF7F3FE48F880
:103EE8002A000028CBD02368019A53F8223006E034
:103EF8003D2AE9D01946E3E73D2A07D00B46194683
:103F080016F8012B01F8012B002AF5D13D221A7071
:103F180017F8012B03F8012F002AF9D18BE703B01A
:103F2800BDE8F08F18020020E80300200EB430B579
:103F38009CB01FAC4FF4017254F8045BADF8142028
:103F48000290069000F07CFD0B4B03900B9300232E
:103F58000F9314934FF6FF7307900848ADF8163087
:103F68002A46234602A90068019401F01DFA1CB0F4
:103F7800BDE8304003B07047893F0008A00000202A
:103F880000207047C9B2034610F8012B1AB19142BC
:103F9800F9D11846704700290CBF18460020704711
:103FA80010F8012B11F8013B012A28BF9A42F7D0DB
:103FB800D01A704770B5064608460C4600F040FD1A
:103FC800451C29463046FFF77DFE064618B12A46AD
:103FD8002146FFF705FE304670BD416910B58B07D5
:103FE8000CD140F26C730029A8BF6FF063030B4437
:103FF800642493FBF4F204FB123383B940F26C732C
:104008000029A8BF6FF063034FF4C8720B4493FBF9
:10401800F2F102FB1133B3FA83F2520900E00122F4
:104028008369C1695B0003EB01131344212B0EDC88
:10403800202B2FDA0D2B02DC0A2B05DB2AE0102BB4
:1040480026DB112B26DD1C3B012B23D920E041F276
:10405800C66293420EDC41F2C262934216DA41F222
:10406800A262934212D013DBA3F5B553123B022B85
:104078000CD90DE041F2D562934207D041F2D762E4
:10408800934203D041F2D362934201D1012010BD83
:10409800002010BD4FF0FF3010BD00002DE9F04F9B
:1040A80007460E4693B01D46002306931C464B1E3A
:1040B80003931378002B00F09D84252B07D00399D8
:1040C8008C4280F09B843B5501320134F1E792F831
:1040D80001A0BAF1300F07D0BAF12B0F04D002F1CA
:1040E80001094FF0000A01E002F1020999F80030D5
:1040F800313B082B08D848460A220AA900F03CFDA3
:10410800DDF82890804601E04FF0000899F800306B
:10411800452B01D04F2B01D109F1010999F8000075
:10412800A0F12503552B00F26984DFE813F056044B
:10413800670467046704670467046704670467041F
:10414800670467046704670467046704670467040F
:1041580067046704670467046704670467046704FF
:104168006704670467046F00A100D6001C01670498
:104178004101A40144024B02670467046704620218
:10418800670467046A0267049D0223032B03410343
:104198004903A003C600BA032B0467046704670435
:1041A80067046704670456008900BA000E010E010F
:1041B80067047501890067045B0244024B025F02D1
:1041C800640267046A026704BE00A202250334037E
:1041D80067049903C200AC03F303AB69B94A183307
:1041E80052F82380404600F02BFC08F1FF383B19B9
:1041F8002044844200F0F783039A944280F0FE83BF
:1042080018F8012F013403F8012BF2E7AA69AD4B26
:1042180003EB8203D3F87C80404600F011FC08F1E0
:10422800FF383B192044844200F0DD83039A94420E
:1042380080F0E48318F8012F013403F8012BF2E72A
:10424800A04B2A6953F82280404600F0F9FB08F198
:10425800FF383B192044844200F0C583039A9442F6
:1042680080F0CC8318F8012F013403F8012BF2E712
:104278002B69944A0C3352F82380404600F0E0FB47
:1042880008F1FF383B192044844200F0AC83039ABC
:10429800944280F0B38318F8012F013403F8012BFE
:1042A800F2E7884BD3F8A0800AE0864BD3F8E48085
:1042B80006E0844BD3F89C8002E0824BD3F89880C8
:1042C800404600F0BDFB98F80030002B00F08B83CF
:1042D8001C9B424600932B4695E07B49D5F814B0C9
:1042E8008B45ACBF00210121BBF1000F04DB64202A
:1042F8009BFBF0F0133008E00BF26C70079100F0B4
:104308002EFE642390FBF3F00799BAF1000F08D052
:10431800632809DD6D4B6E4ABAF12B0F18BF13469F
:1043280003E06B4B6B4A01E0694B6B4AB8F1010F34
:1043380098BF4FF00208C1EB080101900091624854
:1043480066498345B8BF0B4622E2654A6549EB6872
:10435800642808BF0A46311B381901F0A1FC00285F
:1043680080F20C834AE368692B69002803F1010B8A
:1043780007EB0408C4EB060AEB6805DB642290FB34
:10438800F2F102FB11000AE000F26C70079300F0F2
:10439800E6FD642290FBF2F101FB1200079B0190FD
:1043A800009351465B4640464F4A01F079FCD6E7F8
:1043B80025238DF82830BAF1000F07D0B8F1050F82
:1043C8008DF829A098BF4FF0060804E02B238DF83C
:1043D80029304FF00A08B8F1060302D10DF12A007E
:1043E8000AE0424A1E210DF12A0001F059FC00287A
:1043F800F4DD0DF12A0318443D4901F083FC1C9BB0
:104408000AAA00932B46311B3819FFF747FE0028EC
:1044180040F3F4820444E6E22846FFF7DEFD8046D6
:104428006869002805DB642290FBF2F102FB1100A9
:1044380008E000F26C7000F092FD642290FBF2F349
:1044480003FB1200B8F1000F06DA6A69294B9A4299
:10445800B8BF4FF0010806E005D06A691A4B9A42C6
:10446800B8BF4FF0FF386423404490FBF3F203FBDE
:10447800120018440FE2144B696928469942ACBFF0
:104488000023012308910793FFF7A7FD08998346A6
:10449800002904DB642391FBF3F3133308E001F2F2
:1044A8006C70089100F05BFD642390FBF3F30899AE
:1044B8006869002820DB4FF0640E90FBFEFC0EFBC1
:1044C8001C0027E0246F000894F8FFFFAD6D00087A
:1044D800617000089E6D0008A56D0008AF700008A7
:1044E800AF6D0008BD6D0008B36D0008C26D00080F
:1044F800C66D000895F8FFFF00F26C7009910893EB
:1045080000F02DFD4FF0640E90FBFEFC0CFB1E002E
:104518000999089BBBF1000F08DA6969AF4A914213
:104528000ADA4FF0010BCDF81CB005E004D0AC4A14
:104538009142B8BF4FF0FF3B0BEB0002501C02D179
:10454800013B632203E0642A04BF01330022642094
:1045580000FB0323079A42B12D228DF82820B8F1D9
:10456800000F13D008F1FF3810E0BAF12B0F10D16B
:1045780042F20F7293420CD98DF828A0B8F1000FBF
:10458800F0D112AA252102F81F1D0AE00DF1290217
:1045980000E00AAA25211170BAF1000F01D1501CC0
:1045A80002E03021901C51708E49079301F0AAFB5C
:1045B800079B0093A9E18C4A8C49AB686B2808BF1C
:1045C8000A46C8E6A9680C2331B1994216BF91FB87
:1045D800F3F20B4603FB1213844A8349492808BFA8
:1045E8000A46B8E6EB69824A0133B4E62B6901331F
:1045F80055E16B6853E1039B9C4280F0FF810A23DD
:10460800EFE1AB687B4A0B2BCCBFA423A023134458
:10461800D3F804A007EB040B504600F011FA231856
:104628009C4200F0E081039A944280F0E78199F877
:1046380000200134502A10D19AF800800793FFF720
:1046480095FA40444278079B02F00302012A08BF0A
:1046580008F120085FFA88F801E09AF800800BF862
:10466800018B0AF1010ADBE76B68634A0093AB68C8
:104678004DE12B6A002B17DB00F094FA069B1BB95F
:1046880000F092FA0123069300F0B4FC2B6A1C2276
:10469800002BD4BF0023012302FB0300036AC3F1EC
:1046A800000800F080FA01E04FF00008D5F814E0A7
:1046B800C4EB060C7046BEF145024FEAE07141F1C9
:1046C800FF33002A73F1000B07EB040A03DABEF18B
:1046D800420241F1FF33910841EA83719B10049132
:1046E80005930EF1FF31642391FBF3F1DDE9042317
:1046F800521A63EBE1730EF22B104FF4C87190FB62
:10470800F1F1521843EBE17340F26D11AEF1460E30
:1047180001FB0EFEE96912EB0E0243EBEE73521831
:104728004FF0180E43EBE173A2FB0E010EFB0311D1
:10473800AB684FF03C0EC01841EBE371A0FB0E23B1
:104748000EFB01336968521843EBE173A2FB0E01BB
:104758000EFB03112B68294AC01841EBE371B0EB3B
:10476800080061EBE871CDE900016146504601F0AF
:1047780097FAF4E52B6892E0039B9C4280F03E8117
:1047880009232EE12B681E4A01936B680093AB68DE
:10479800311B381909E6039B9C4280F02F81AB69D5
:1047A800621C0BB9372300E030333B5514461AE13D
:1047B800EB69AA6907339B1A072293FBF2F36EE0B1
:1047C8002846FFF70AFCAA690AB1531E00E006232F
:1047D800002843DCEA6915D10A324FE095F8FFFF5B
:1047E80094F8FFFFCE6D0008BD6D0008AF6D00089E
:1047F800D26D0008246F0008E16D0008D76D00082D
:10480800DC6D000840F26B719A1A6B69002BB4BF1B
:1048180008466FF064001844810707D14FF0640E12
:10482800014690FBFEF00EFB101181B940F26B714E
:10483800002BA8BF6FF0640119444FF4C87391FBB3
:10484800F3F003FB1011B1FA81F1490900E00121ED
:10485800521A052AB4BF3523342320E001231EE071
:10486800039B9C4280F0CA80AB693033B9E0AA69E7
:104878000AB1531E00E00623EA690732D21A072359
:1048880092FBF3F30BE06869002803DA00F26C701E
:1048980000F065FB642390FBF3F202FB13035A4A12
:1048A80059E56B69594A03F26C7B934205DA2D236B
:1048B8008DF82830CBF1000B08E0BAF12B0F0DD1A1
:1048C80042F20F739B4511D98DF828A0B8F1000F5B
:1048D80001D008F1FF380DF1290300E00AAB2522C9
:1048E8001A70BAF1000F08D1581C09E0B8F1000F8E
:1048F800F4D125238DF828300AAB3022981C5A7041
:10490800434901F0FFF9CDF800B043460AAA311B2C
:10491800381930E02B6A002B65DB00F043F9069B61
:104928001BB900F041F90123069300F063FB2B6AE1
:104938001C22002BD4BF0023012302FB0300036ABF
:1049480007EB040AC3F1000800F02DF93C2398FB9B
:10495800F3F0079300F052FB079BC4EB060B90FBA8
:10496800F3F202FB13004FF46163009098FBF3F33A
:1049780059465046274A01F093F9F0E40444A64208
:1049880031D83BE02B6A002B2DDB00F00BF9069B9E
:104998001BB900F009F9012306932B6A1E4A002B64
:1049A800D4BF0023012352F82380404600F048F882
:1049B80008F1FF383B19204484420BD0039A9442F3
:1049C80005D218F8012F013403F8012BF4E700F0A1
:1049D800EAF813E000F0E7F805E0039B9C420DD2EB
:1049E80025233B55013499F800301BB109F1010228
:1049F800FFF75FBB26B100233B5501E0002000E034
:104A0800204613B0BDE8F08FBD6D000894F8FFFF95
:104A1800CE6D0008EB6D00081002002037B5064C7B
:104A2800064D2468246A002C08BF2C460094FFF722
:104A380035FB03B030BD00BFA0000020A40000205B
:104A4800034613F8012B002AFBD1181A01387047C6
:104A58002DE9F0478046894692461E460F463D4658
:104A6800089815F8014BFFF77DF82044437803F0C8
:104A7800080303F0FF020BB12F46F0E72D2C03D1FA
:104A8800BD1C7C78012203E02B2C04BF7C78BD1C64
:104A980016B1102E0AD157E0302C53D12B7803F0E1
:104AA800DF03582B49D16C78102602354FF0FF31BF
:104AB800B1FBF6F106FB01FE00236FEA0E0E184665
:104AC800A4F13007092F01D83C460AE0A4F14107B8
:104AD800192F01D8373C04E0A4F16107192F13D826
:104AE800573CA64210DD002B09DB814207D301D1D8
:104AF800A64503DB00FB0640012302E008464FF011
:104B0800FF3315F8014BDBE7002B09DA2223C8F83D
:104B180000304FF0FF30BAF1000F07D1BDE8F08741
:104B280002B14042BAF1000F11D00BB1013D00E0D3
:104B38004D46CAF80050BDE8F0873024002EB5D1A4
:104B48000826B3E70A26B1E7302CA7D0AEE7BDE8C0
:104B5800F087000037B5064C064D2468246A002CFF
:104B680008BF2C460094FFF773FF03B030BD00BFA9
:104B7800A0000020A4000020084B37B51C68084D91
:104B8800236A002B08BF2B46009313460A460146AA
:104B98002046FFF75DFF03B030BD00BFA000002036
:104BA800A400002070477047014B186800F010B847
:104BB800A000002008B5FFF7F5FF044B186800F0C7
:104BC80007F8BDE80840FFF7EEBF00BFA0000020CF
:104BD8002DE9F04F8DB0074600F00CFAB0490446B5
:104BE800384600F0FFF9AF4E054660B9AE4BAF4A04
:104BF8001860AF4B1860AF4B30681A605A60FEF708
:104C0800C7FF356048E1316879B93068FEF7C0FF01
:104C18002846FFF715FF411C3846FFF753F8306068
:104C280048B1294601F06EF805E0FFF7B9F9002808
:104C380000F03281E9E72B780AAE3A2B08BF01353C
:104C480033469D4A9D492846FFF770F9002840F3EE
:104C580023810A9BEF18EB5C2D2B03D101374FF012
:104C6800FF3503E02B2B08BF013701250DF1200A82
:104C78000DF11E0B4FF000080396CDF808A0019621
:104C8800CDF800B0334607AA8D493846ADF81E80E6
:104C9800ADF82080FFF74AF9404540F3FD80BDF8A4
:104CA8001E20BDF820303C2101FB0233BDF81C203A
:104CB8004FF4616101FB02335D437F4B25627D4DFB
:104CC800DFF808922B600A9B4A461F447B4933460B
:104CD8003846FFF72BF9404508DC2B68226A6B60E1
:104CE800714B1A60724BC3F80080D5E00A9BC5F877
:104CF8000490FD18FB5C2D2B03D101354FF0FF37D5
:104D080003E02B2B08BF013501270023ADF81C3029
:104D1800ADF81E30ADF820300A930396CDF808A000
:104D28000196CDF800B0334607AA65492846FFF733
:104D3800FDF8002804DC236AA3F56163E3630EE051
:104D4800BDF81E20BDF820303C2101FB0233BDF820
:104D58001C204FF4616101FB02335F43E763274680
:104D68000A9B4FF000091D442B782C2B08BF0135F6
:104D780095F80080B8F14D0F26D10DF12603029366
:104D880009AB00930396019633460DF122024D4973
:104D98002846FFF7CBF803287ED1BDF822104B1E1A
:104DA8000B2B79D8BDF82420531E042B74D8BDF8DA
:104DB8002630062B70D887F80880F9603A617B6145
:104DC8000A9B05EB03082AE0B8F14A0F06BF4346E1
:104DD800013544230A220BA928460593FFF7CCFE88
:104DE800DDF82C80ADF826004545059B14D14D23F0
:104DF800B9F1000F07D123720323E3600223236173
:104E0800C4F814900BE084F824300B23A362012328
:104E1800E3620023236302E080B23B7278610223DD
:104E2800ADF81C300023ADF81E30ADF820300A93E1
:104E380098F800302F2B0BD10396CDF808A00196D7
:104E4800CDF800B0334607AA1F494046FFF76EF871
:104E5800BDF81E20BDF820303C2101FB0233BDF80F
:104E68001C204FF4616101FB0233BB610A9D09F10B
:104E78000109B9F1020F454407F11C077FF474AF2B
:104E8800606800F0F7FF226A074B1A60E36B9B1A11
:104E9800074A18BF012313600DB0BDE8F08F00BFAB
:104EA80020700008040400200C040020237000086F
:104EB8000804002010020020F703002027700008D3
:104EC8004A7000083670000849700008EC0300209A
:104ED80030B5141E05469BB0184604DA8B232B60A8
:104EE8004FF0FF301DE04FF40273ADF80C300CBFEB
:104EF800234604F1FF33029305934FF6FF730091A5
:104F08000491ADF80E3002461E9B6946284600F013
:104F1800FBF8431CBCBF8B232B6014B1009B002201
:104F28001A701BB030BD000007B5009313460A463F
:104F3800014603480068FFF7CBFF03B05DF804FBA8
:104F4800A000002049B1FF2A85BF8A2303600A70A8
:104F58004FF0FF3098BF012070470846704700287F
:104F6800B8BF404270477047704700002DE9F84FBE
:104F780007468B469046FFF7F6FF194B1D689A4681
:104F88003DB15C46234613F8012B42B13D2A1C462D
:104F9800F8D13846FFF7E8FF0020BDE8F88FCBEBE3
:104FA8000404A94659F8040B0028F2D022465946B1
:104FB80000F0B0FE88B959F8043C1E191B5D3D2B62
:104FC8000BD1DAF800303846ED1AAD10C8F80050A9
:104FD800FFF7CAFF701CBDE8F88F4D46E1E700BF38
:104FE8001802002007B501AAFFF7C0FF03B05DF85B
:104FF80004FB0000004870471C0200200028B8BFCE
:105008004042704770477047F8B5074615460E4648
:1050180021B91146BDE8F840FEF754BE1AB9FEF7AB
:1050280005FE2846F8BD01F006F885420ED9294646
:105038003846FEF747FE044650B131462A46FEF789
:10504800CFFD31463846FEF7F1FD01E03046F8BDA8
:105058002046F8BD2DE9F0478E6882469E420C46F0
:10506800914698463ED88A8912F4906F3AD02568BE
:10507800096902236F1A656905EB450595FBF3F588
:105088007B1C43449D4238BF1D4653050FD5294616
:10509800FEF718FE064698B13A462169FEF7A0FDCC
:1050A800A38923F4906343F08003A38113E02A4685
:1050B800FFF7AAFF064670B921695046FEF7B6FD0C
:1050C8000C23CAF80030A3894FF0FF3043F04003A7
:1050D800A381BDE8F08726613E44266046466561A7
:1050E800ED1BA560464528BF46464946324620681E
:1050F800FEF781FDA36800209B1BA36023681E4464
:105108002660BDE8F08700002DE9F04F9DB00393BD
:105118008B8980461C060D4616460DD50B695BB972
:105128004021FEF7CFFD2860286118B90C23C8F884
:105138000030CDE040236B610023099320238DF8D4
:105148002930DFF89CB130238DF82A3037463C46A9
:1051580014F8013B1BB9B7EB060910D003E0252B67
:10516800F9D02746F3E74B46324629464046FFF733
:1051780071FF013000F0A780099B4B4409933B78ED
:10518800002B00F0A08000234FF0FF320493079318
:10519800059206938DF853301A930126052221783B
:1051A8004E48FEF70FFD671C049B38B14B4A3C463E
:1051B800801A06FA00F018430490EFE7D90644BFB6
:1051C80020228DF853201A0744BF2B228DF8532034
:1051D80022782A2A03D0079A00210A200BE0039A92
:1051E800111D12680391002A10DA524243F002009E
:1051F800079204900BE027463B780134303B092B9B
:1052080003D800FB02320121F5E701B107923B7890
:105218002E2B1ED17B782A2B0AD1039B02371A1D0D
:105228001B680392002BB8BF4FF0FF33059310E0C3
:10523800002319460593781C0A2407463A7801305A
:10524800303A092A03D804FB01210123F5E703B109
:105258000591032239782248FEF7B4FC40B1402377
:10526800CBEB000003FA00F0049B013718430490CD
:10527800397806221B487E1C8DF82810FEF7A2FC00
:1052880088B1194B33B9039B073323F0070308335D
:10529800039314E003AB00932A46144B04A9404639
:1052A800AFF3008007E003AB00932A460F4B04A935
:1052B800404600F047FAB0F1FF3F824603D0099B11
:1052C8005344099342E7AB895B0601D4099801E08E
:1052D8004FF0FF301DB0BDE8F08F00BF5C700008D4
:1052E8006270000866700008000000005D50000849
:1052F8004B1C70B50D46144602D14FF0FF3633E013
:105308009389CEB223F020039381536B526883B103
:10531800A36B9A4207DA23685A1E226003F8015CDD
:10532800636801331FE0214600F04CFE0028F2D0EC
:10533800E3E72169236851B1994208D213F8011CA7
:105348008E4204D1013B0132236062600CE0E363CA
:1053580004F1440363630323A3632346226403F82D
:10536800465F236001236360304670BD10B50C466C
:10537800496B69B104F14403994201D0FEF756FC28
:10538800236C00206063636013B1E36B236010BD7E
:1053980023694FF0FF30236000236360A38943F043
:1053A8002003A38110BD00002DE9F04F07460C46ED
:1053B8009346ADF5257D0193002346934793A24B71
:1053C8000DF10C09A293A14BDFF884A2CDF820912E
:1053D800A3934FF00A089BF80030002B00F02B81B4
:1053E800FEF7C4FB9BF800502844437803F00803F9
:1053F80003F0FF01EBB16368002B10DDFEF7B6FB8D
:1054080023681978084441780D070ED54799013368
:10541800013147916168236001396160EBE7A39B23
:105428002146384698470028E8D00BF10106B346D4
:10543800D1E7252D0BF1010654D1459143919BF8F5
:1054480001302A2B03D1102343930BF10206317844
:105458003546A1F13003092B06F1010605D8459B15
:1054680008FB0313303B4593F1E703227848FEF726
:10547800A9FB40B135460123CAEB000003FA00F04E
:10548800439B034343936E1C2D78672D17D8652DD6
:1054980080F08180472D07D8452D7CD2002D00F063
:1054A800CC80252D1ED078E05B2D52D002D8582D07
:1054B8003ED072E0632D58D0642D3FD06DE0702D42
:1054C80032D007D86E2D56D03BD8692D65D1002330
:1054D80044933CE0752D31D0782D29D0732D5CD1C3
:1054E800022340E06368002B0DDD23681A7895429B
:1054F80040F0A180013362682360479B013A013381
:105508006260479393E7A39B214638469847002853
:10551800EBD04698002800F09080A38913F0400F44
:1055280018BF4FF0FF308AE0439B43F020034393BA
:10553800439B43F400734393102303E0CDF8108199
:1055480001E0082344936E2D01DD04230BE00323BF
:1055580009E03146484600F073FB0646439B43F09A
:1055680040034393012349931BE0439B43F04003CB
:1055780043930023F7E7439AD0063FF558AF12F05C
:10558800010F019A479B02F104010191126814BFAF
:10559800138013604BE70523E5E703234993CDF810
:1055A80010816368002B03DD439B590611D518E071
:1055B800A39B2146384698470028F5D0A9E7479A83
:1055C800013247926268013A002A626013DD0133B2
:1055D8002360FEF7CBFA23681A7810444278120742
:1055E800EDD4499B022B0DDC01AB224643A938467A
:1055F80000F0CEF919E0A39B2146384698470028C9
:10560800E7D086E7042B06DC01AB224643A93846DF
:1056180000F024FA09E00F4B002B3FF408AF01AB70
:10562800224643A93846AFF30080012803D0022858
:105638007FF4FDAE6DE7469801E04FF0FF300DF5C1
:10564800257DBDE8F08F00BFF952000875530008AA
:1056580062700008000000002DE9F04791461F46DF
:105668000A698B6806469342B8BF1346C9F80030EA
:1056780091F843200C46DDF8208012B10133C9F8B7
:1056880000302368990642BFD9F800300233C9F8C0
:105698000030256815F0060510D104F1190A07E055
:1056A8000123524639463046C04701301AD00135E9
:1056B800E368D9F800209B1A9D42F1DB94F8433047
:1056C8002268003318BF012392060FD5E118302055
:1056D80081F843005A1C94F845102244023382F89A
:1056E800431003E04FF0FF30BDE8F08704F14302B8
:1056F80039463046C0470130F4D02268D9F8005006
:10570800E36802F00602042A08BF5D1B2269A36849
:105718000CBF25EAE57500259342C4BF9B1AED1816
:105728004FF000091A344D4509D001232246394665
:105738003046C0470130D5D009F10109F3E7002010
:10574800BDE8F0872DE9F04317460A7E85B06E2A3A
:10575800984606460C460C9B01F1430E00F0AE80BD
:1057680011D8632A22D009D8002A00F0BB80582A11
:1057780040F0CA8081F84520834955E0642A1ED04C
:10578800692A1CD0C0E0732A00F0B08009D86F2ABB
:105798002ED0702A40F0B8800A6842F020020A60D1
:1057A8003EE0752A24D0782A3AD0ADE01A6801F193
:1057B8004205111D1960136884F84230A8E0216879
:1057C8001A6811F0800F02D0111D196008E011F05D
:1057D800400F02F10401196002D0B2F9003000E074
:1057E8001368002B3CDA2D225B4284F8432037E013
:1057F80021681A6811F0800F02D0111D196007E0A6
:1058080011F0400F02F10401196001D0138800E083
:105818001368227E5C496F2A14BF0A2208221BE003
:1058280078225A4984F845202268186812F0800FB7
:1058380000F104051D6003D1550601D5038800E079
:105848000368D00744BF42F0200222601BB92268D7
:1058580022F0200222601022002084F8430001E098
:1058680049490A226568002DA56008DB206820F0F8
:10587800040020602BB9002D7DD175460CE0002B6B
:1058880079D07546B3FBF2F002FB1033CB5C05F818
:10589800013D03460028F5D1082A0BD12368DA0711
:1058A80008D5236962689A42DEBF302305F8013CB7
:1058B80005F1FF35C5EB0E0323612EE008681A6871
:1058C80010F0800F496903D0101D1860136808E0B4
:1058D80010F0400F02F104001860136801D019801D
:1058E80000E0196000232361754616E01A68111D4F
:1058F80019601568002162682846FEF763F908B147
:10590800401B6060636804E004F1420584F84220AB
:1059180001232361002384F84330CDF800803B46FF
:1059280003AA21463046FFF797FE013002D14FF017
:10593800FF3026E023692A4639463046C047013001
:10594800F5D023689B0710D5002504F1190907E055
:1059580001234A4639463046C0470130E7D0013571
:10596800E368039A9B1A9D42F2DBE068039B984226
:10597800B8BF184605E00B7804F1420584F84230B8
:105988008AE705B0BDE8F0836D7000087E700008F6
:105998002DE9F04115468A6880460C4632B98A6975
:1059A800002A0CBF01224FF0FF328A6022680026CD
:1059B800D1065FBF1A68111D19601768A369FBB982
:1059C80023680136DA065EBF2B681B783B702A68AD
:1059D8006B6802F101022A60A26803F1FF3302F149
:1059E800FF326B6058BF0137A2603AB3002BE5DC89
:1059F800D4F880312946404698470028DED01DE07B
:105A0800012B06D12B6862691B78D35C002BD7D198
:105A180012E0022B01D04EB110E0FEF7A7F82B6878
:105A28001B78184443781B07CAD5F4E7A369012BF0
:105A380004D10120BDE8F081002EFAD0236813F0CC
:105A4800100305D1E2680132E260A26902B13B703D
:105A5800236900201E442661BDE8F0812DE9F04F3E
:105A68000C469A46724B87B08346164693E8070061
:105A780003ABA76883E807006E4BA1696E4A04F17F
:105A88001C09032918BF1A467B1EB3F5AE7F84BFD5
:105A980040F25D13A360236888BF6FF4AE7543F4CA
:105AA800506323604B4600928CBF7F1900274FF04C
:105AB80000083168019303AB53F8280002220978E3
:105AC800FEF780F8019B002833D0B8F1010F0BD105
