:020000040800F2
:100000000050002021020008290200082D020008EB
:10001000A1020008A5020008ED020008000000008F
:100020000000000000000000000000003503000890
:1000300039030008000000003D030008C117000854
:10004000510300085103000851030008611700081C
:100050005103000851030008510300085103000830
:100060005103000851030008510300085103000820
:100070005103000851030008510300085103000810
:100080005103000851030008510300085103000800
:1000900051030008510300085103000851030008F0
:1000A00051030008510300085103000851030008E0
:1000B00051030008510300085103000851030008D0
:1000C00051030008510300085103000851030008C0
:1000D00051030008D117000851030008510300081C
:1000E00051030008510300085103000800000000FC
:1000F0000000000000000000000000000000000000
:1001000000000000000000005FF808F100B583B0B7
:1001100001F040F9304B314A1360314A1360314BE2
:10012000314A03E011681960043304322F498B42CD
:10013000F8D32A4B1A682E4B9A4204D1284B1A68DE
:100140002C4B9A4200D0FEE7234B2B4A13602B4ADC
:1001500013602B4B02E000221A600433294A9342B9
:10016000F9D3254B1B6813B9244B1B6803B1FEE779
:1001700001F01CF9694601A801F094F8224C234BC8
:100180001C1BA410002504E01F4B53F82530984792
:100190000135AC42F8DC1E4C1E4B1C1BA410002584
:1001A00004E01B4B53F8253098470135AC42F8DC8E
:1001B0000099019802F0DEFD0546174C174B1C1BF9
:1001C000A41004E0013C144B53F824309847002C51
:1001D000F8DC284602F090FDBABADECA0000002022
:1001E0006402002000000020309600086802002011
:1001F000785634123254769868020020D04D002090
:1002000068020020D44D00207C0300087C03000815
:100210007C0300089C0300089C030008A803000856
:1002200008B5FFF773FF00BF00BEFEE71EF0040F26
:100230000CBFEFF30880EFF309807146414A104785
:100240002DE9F04182B004468846134B5E6B9F6BEC
:100250009D6A1B6B13F0020F0DD00F4BDB6A002B56
:1002600009DA4BF6AB6101F01DF920B14FF0004205
:10027000094BDA620CE0094801F03EF8CDF8008045
:100280003B4632462946204601F094F800BEFEE780
:1002900002B0BDE8F08100BF00ED00E0A4800008DE
:1002A00000BEFEE71EF0040F0CBFEFF30880EFF373
:1002B00009807146244A10472DE9F04182B0044676
:1002C0008846084B5E6B9F6B9D6A074801F014F8E7
:1002D000CDF800803B4632462946204601F06AF8B8
:1002E00000BEFEE700ED00E0B48000081EF0040F41
:1002F0000CBFEFF30880EFF309807146134A1047F3
:100300002DE9F04182B004468846084B5E6B9F6B36
:100310009D6A074800F0F0FFCDF800803B4632466A
:100320002946204601F046F800BEFEE700ED00E059
:10033000C080000800BEFEE700BEFEE700BEFEE78C
:100340007047000041020008B902000801030008DC
:0403500000BEFEE706
:100354003096000800000020680200203096000853
:10036400000000000000000068020020D44D0020BE
:10037400000000000000000041170008D51C000820
:10038400D92C0008893D000821440008E5440008F0
:10039400694500082D46000851170008E51C0008AF
:0403A400E92C000838
:1003A80010B50446022804D940F20311044802F0AB
:1003B80053FD044B186800F038002043186010BD46
:1003C800C07D00080020024010B50446102805D062
:1003D80020B140F22F11064802F03EFD054B1A6885
:1003E80022F010021A6018682043186010BD00BF80
:1003F800C07D000800200240F8B505460C46464B73
:1004080098421BD003F58063984217D003F58063A8
:10041800984213D003F5806398420FD003F58063A8
:1004280098420BD003F58063984207D003F58063A8
:10043800984203D0B221394802F00EFDE3788BB11F
:10044800042B0FD0282B0DD0482B0BD0142B09D000
:10045800102B07D01C2B05D0182B03D0B3212F4805
:1004680002F0FAFC23881BB9B4212C4802F0F4FCF2
:10047800E37803F00F06304613F0100F0AD0A37884
:10048800013BDBB2022B03D9BB21244802F0E4FC78
:10049800A07830432378E3B12E68002316E00122C8
:1004A8009A40218832EA01010FD199000F278F4025
:1004B80026EA070600FA01F10E43E178282901D15E
:1004C8006A6102E0482900D12A610133072BE6D985
:1004D8002E602388FF2B1ED96E68002318E003F1D5
:1004E800080101228A40218832EA01010FD19900CE
:1004F8000F278F4026EA070600FA01F10E43E1783C
:10050800282900D16A61E178482900D12A6101339C
:10051800072BE4D96E60F8BD00080140F47D00089F
:1005280070B504460D4616462C4B98421CD003F570
:100538008063984218D003F58063984214D003F57D
:100548008063984210D003F5806398420CD003F57D
:100558008063984208D003F58063984204D040F243
:100568008D111F4802F078FC6B1E9BB2012B28D915
:10057800042D26D0082D24D0102D22D0202D20D0B7
:10058800402D1ED0802D1CD0B5F5807F19D0B5F533
:10059800007F16D0B5F5806F13D0B5F5006F10D079
:1005A800B5F5805F0DD0B5F5005F0AD0B5F5804F81
:1005B80007D0B5F5004F04D04FF4C771084802F0D2
:1005C8004BFC012E04D940F28F11054802F044FC7F
:1005D8000EB1256170BD656170BD00BF00080140A6
:1005E800F47D000810B50446012803D97F2103488B
:1005F80002F032FC024B1C6010BD00BF287E0008D0
:1006080020000E420D4B1A6842F001021A60596828
:100618000B4A0A405A601A6822F0847222F4803227
:100628001A601A6822F480221A605A6822F4FE02BC
:100638005A604FF41F029A60704700BF00100240D2
:100648000000FFF810B5044650B1B0F5803F07D060
:10065800B0F5802F04D040F211110F4802F0FCFBD6
:100668000E4B1A6822F480321A601A6822F480222B
:100678001A60B4F5803F03D0B4F5802F06D010BDC2
:10068800064A136843F48033136010BD034A1368A5
:1006980043F4A023136010BD587E000800100240E8
:1006A80038B50C46054650B1B0F5803F07D0B0F5D7
:1006B800403F04D040F27F111D4802F0CDFB74B3D7
:1006C800B4F5802F2BD0B4F5002F28D0B4F5402FE7
:1006D80025D0B4F5801F22D0B4F5A01F1FD0B4F5E3
:1006E800C01F1CD0B4F5E01F19D0B4F5001F16D0F8
:1006F800B4F5101F13D0B4F5201F10D0B4F5301F77
:100708000DD0B4F5401F0AD0B4F5501F07D0B4F58A
:10071800601F04D04FF4C071054802F09DFB054AE4
:10072800536823F47C132C431C43546038BD00BF2A
:10073800587E00080010024010B50446012804D96C
:100748004FF4CA71024802F087FB024B1C6010BDCF
:10075800587E00086000424210B50446022804D9B9
:100768004FF40E71044802F077FB044B586820F0F0
:1007780003002043586010BD587E00080010024056
:10078800024B586800F00C00704700BF0010024090
:1007980010B50446A0B1802812D0902810D0A02807
:1007A8000ED0B0280CD0C0280AD0D02808D0E02815
:1007B80006D0F02804D04FF41971054802F04CFB1C
:1007C800044B586820F0F0002043586010BD00BF6B
:1007D800587E00080010024010B5044680B1B0F5FC
:1007E800806F0DD0B0F5A06F0AD0B0F5C06F07D0FC
:1007F800B0F5E06F04D040F27E21054802F02CFBF2
:10080800044B586820F4E0602043586010BD00BFD6
:10081800587E00080010024010B5044680B1B0F5BB
:10082800806F0DD0B0F5A06F0AD0B0F5C06F07D0BB
:10083800B0F5E06F04D04FF42671054802F00CFBC8
:10084800044B586820F4605040EAC400586010BD5A
:10085800587E00080010024010B50446012806D949
:10086800042804D04FF45071094802F0F5FA094BF6
:1008780000221A701A70012C02D0042C04D010BD6A
:100888000122044B1A7010BD0522024B1A7010BDCC
:10089800587E00082010024010B50446B0F5807F4D
:1008A8000AD0B0F5007F07D0B0F5407F04D040F201
:1008B8007231044802F0D0FA034A136A1C431462E6
:1008C80010BD00BF587E00080010024010B5044655
:1008D800012804D94FF46071024802F0BDFA024BB6
:1008E8001C6010BD587E00083C04424210B4294BDD
:1008F8005B6803F00C03042B05D0082B06D013BB50
:10090800254B036021E0244B03601EE0214A536815
:100918005268C3F38343023312F4803F04D11F4A61
:1009280002FB03F3036010E01A4A526812F4003F16
:1009380004D01A4A02FB03F3036006E0164A02FBDE
:1009480003F3036001E0144B036012494B68C3F3DF
:100958000313134CE35CDAB20368D34043604A687C
:10096800C2F30222A25CD2B223FA02F282604A687F
:10097800C2F3C222A25CD2B2D340C3604A68C2F3B7
:10098800813208498A5CD2B2B3FBF2F3036110BC2E
:10099800704700BF0010024000127A0000093D00B5
:1009A800080000200400002038B504460D460E4B10
:1009B800034003B920B940F24A410C4802F04CFA0E
:1009C800012D04D940F24B41084802F045FA25B1FF
:1009D800074A93691C43946138BD054A936923EA21
:1009E8000404946138BD00BF0200C0FF587E0008AF
:1009F8000010024038B504460D460E4B184200D18F
:100A080020B940F269410C4802F026FA012D04D9B8
:100A180040F26A41084802F01FFA25B1074AD36933
:100A28001C43D46138BD054AD36923EA0404D46160
:100A380038BD00BF00360181587E00080010024012
:100A480010B50446212818D0312816D0392814D0DA
:100A5800412812D0612810D07A280ED07B280CD0DB
:100A68007C280AD07D2808D07E2806D07F2804D08C
:100A780040F234510D4802F0EFF96309012B02D11D
:100A88000B4B1B6806E0022B02D1094B1B6A01E0E5
:100A9800074B5B6A04F01F0423FA04F414F0010FF7
:100AA80001D0012010BD002010BD00BF587E0008F5
:100AB8000010024000B583B0002301933120FFF7F6
:100AC800BFFF019B01330193019BB3F5A06F01D0D8
:100AD8000028F3D03120FFF7B3FF08B1012000E070
:100AE800002003B05DF804FB38B504460D4620F03D
:100AF80007039BB203B918B95D210B4802F0ACF9A2
:100B0800012D03D95E21084802F0A6F92DB1074A44
:100B180013889BB21C43148038BD044A1388E443ED
:100B2800A4B21C40148038BD887E0008002800400C
:100B3800034A93889BB243F010039380704700BF29
:100B480000280040034A93889BB223F010039BB20D
:100B58009380704700280040034A938B9BB2108B08
:100B680043EA0040704700BF0028004010B5044623
:100B7800B0F5801F03D3A921064802F06DF9FFF7ED
:100B8800D7FFC4F30342044B1A81A4B29C81FFF738
:100B9800D9FF10BD887E000800280040034B9B88C1
:100BA80003F020039BB2002BF8D0704700280040C8
:100BB800074A93889BB223F008039BB29380044BA7
:100BC8009B8803F008039BB2002BF8D0704700BF46
:100BD8000028004010B5044620F00F039BB203B96B
:100BE80020B940F21F11054802F036F9044A9388EB
:100BF800E443A4B21C40948010BD00BF887E000866
:100C08000028004010B50446042808D0022806D061
:100C1800012804D04FF49971084802F01DF9084AD8
:100C28009388E1B20B401288144202D01BB900200D
:100C380010BD002010BD012010BD00BF887E000837
:100C48000028004010B5044620F007039BB203B902
:100C580020B94FF4A671054802F0FEF8044A9388BB
:100C6800E443A4B21C40948010BD00BF887E0008F5
:100C7800002800402DE9F04105460C46464B9842B5
:100C88000BD0A3F57843984207D003F580639842C8
:100C980003D0A321414802F0DFF8238863B1B3F5FC
:100CA800806F09D0B3F5004F06D0B3F5404F03D09D
:100CB800A6213A4802F0D0F86388B3F5827F04D0C1
:100CC8001BB1A721354802F0C7F8A388B3F5006F18
:100CD80004D01BB1A821314802F0BEF8E3882BB13B
:100CE800022B03D0A9212D4802F0B6F82389012B45
:100CF80003D9AA21294802F0AFF86389B3F5007F28
:100D080004D01BB1AB21254802F0A6F8A3898BB10A
:100D1800082B0FD0102B0DD0182B0BD0202B09D05F
:100D2800282B07D0302B05D0382B03D0AC211B48FB
:100D380002F092F8E3892BB1802B03D0AD2117483C
:100D480002F08AF8238A1BB9AE21144802F084F80D
:100D58002B8803F4415720886688A188B4F8068058
:100D68002289B4F80AC0A389B4F80EE030430843D6
:100D780048EA000111434CEA01021A434EEA020311
:100D88003B432B80AB8B9BB223F400639BB2AB83BA
:100D9800238A2B82BDE8F08100300140B87E00082C
:100DA80038B504460D46124B98420CD0A3F578434B
:100DB800984208D003F58063984204D040F2B711F6
:100DC8000C4802F049F8012D04D94FF4DC710948A8
:100DD80002F042F82DB123889BB243F040032380F0
:100DE80038BD23889BB223F040039BB2238038BDD3
:100DF80000300140B87E000838B504460D46094B5E
:100E080098420CD0A3F57843984208D003F5806344
:100E1800984204D040F23A21034802F01DF8A58117
:100E280038BD00BF00300140B87E000810B5044648
:100E3800094B98420CD0A3F57843984208D003F5A3
:100E48008063984204D040F24A21044802F004F832
:100E5800A08980B210BD00BF00300140B87E0008F4
:100E680038B504460D46124B98420CD0A3F578438A
:100E7800984208D003F58063984204D040F2AE212E
:100E88000C4801F0E9FF012D04D940F2AF210948CF
:100E980001F0E2FF2DB123889BB243F40053238075
:100EA80038BD23889BB223F400539BB2238038BDFE
:100EB80000300140B87E000838B505460C46164B90
:100EC80098420CD0A3F57843984208D003F5806384
:100ED800984204D040F21631104801F0BDFF802C32
:100EE80012D0402C10D0202C0ED0102C0CD0082C56
:100EF8000AD0042C08D0022C06D0012C04D040F2D1
:100F08001731064801F0A8FF2B891C4201D00120A7
:100F180038BD002038BD00BF00300140B87E000851
:100F280030B587B004460D46644B984213D0A3F5FC
:100F3800744398420FD003F5806398420BD003F5B1
:100F48008063984207D003F58063984203D0B821A4
:100F58005B4801F081FF2B68013B5A4A934203D951
:100F6800B921574801F078FFAB8833B1B3F5805FFA
:100F780003D0BA21524801F06FFFEB8863B1B3F593
:100F8800805F09D0B3F5005F06D0B3F5405F03D0AA
:100F9800BB214B4801F060FF2B894BB1B3F5806F43
:100FA80006D0B3F5C06F03D0BC21454801F054FF0B
:100FB8006A8922F00C039BB203B91AB9BD214048D3
:100FC80001F04AFFAB8963B1B3F5807F09D0B3F56F
:100FD800007F06D0B3F5407F03D0BE21384801F02A
:100FE8003BFFAB8973B1354B9C420BD0A3F57443DF
:100FF8009C4207D003F580639C4203D0C22130484D
:1010080001F02AFF238A9BB2EA8823F44053134352
:101018002382A3899BB2AA88298968890A43024343
:1010280023F4B05323F00C031343A381A38A9BB288
:10103800AA8923F440731343A38201A8FFF756FC3F
:101048001E4B9C4201D1049A00E0039AA38913F431
:10105800004F08D002EB820202EB820229684900A5
:10106800B2FBF1F107E002EB820202EB820229688F
:101078008900B2FBF1F1144BA3FB01235B091B01AF
:101088001A09642000FB1212A18911F4004F08D03C
:10109800D20032320C49A1FB0212C2F342121A43A7
:1010A80007E0120132320849A1FB0212C2F34312CF
:1010B8001A4392B2228107B030BD00BF0038014008
:1010C800E87E00081FAA44001F85EB5110B50446AE
:1010D8000D4B984214D0A3F57443984210D003F5F1
:1010E800806398420CD003F58063984208D003F5DA
:1010F8008063984204D04FF41C71044801F0ACFEA0
:10110800A088C0F3080010BD00380140E87E000840
:1011180038B505460C46264B984214D0A3F57443BF
:10112800984210D003F5806398420CD003F5806391
:10113800984208D003F58063984204D040F2863183
:101148001C4801F089FE012C18D0802C16D0402CA8
:1011580014D0202C12D0102C10D0B4F5807F0DD0D4
:10116800B4F5007F0AD0082C08D0042C06D0022C35
:1011780004D040F287310F4801F06EFEB4F5007FCD
:101188000FD10B4B9D420CD0A3F574439D4208D060
:1011980003F580639D4204D040F28B31054801F08D
:1011A8005BFE2B881C4201D0012038BD002038BDD1
:1011B80000380140E87E000838B505460C46244B47
:1011C800984214D0A3F57443984210D003F5806375
:1011D80098420CD003F58063984208D003F58063E9
:1011E800984204D040F222411A4801F035FE40F2FC
:1011F80026639C4210D040F225539C420CD040F606
:1012080046039C4208D040F66A139C4204D040F240
:101218002341104801F020FE40F66A139C420FD18A
:101228000B4B9D420CD0A3F574439D4208D003F5A7
:1012380080639D4204D040F22741064801F00CFE2D
:10124800240A0123A3409BB2DB439BB22B8038BD09
:1012580000380140E87E000808B50D4B1B6813B93B
:101268000C4A0B4B1A600A4B1A68C31C23F0030381
:10127800134409498B4206D904F090F90C23036002
:101288004FF0FF3008BD02490B60104608BD00BF93
:101298006C020020D44D0020004C00200123036084
:1012A800014B0B60704700BF1800002008B504F020
:1012B80075F9582303604FF0FF3008BD00B583B0BF
:1012C8000C46194613460AB1064A00E0064A03B915
:1012D800054B0193009223460246044800F008F8A3
:1012E80004F054F91C7F0008308100082C7F0008A6
:1012F8000FB400B583B004AB53F8042B01938021DD
:10130800064805F0D9FC002803DD0146034800F033
:1013180039F803B05DF804EB04B07047740200209C
:101328002DE9F04385B004460F46435C13BB042502
:1013380028462146ABBE04461FE03546102E28BF7E
:101348001025002306E014F8011B04AA1A4402F829
:10135800101C0133AB42F6D304AA1344002203F84D
:10136800102CE9464FF0040840464946ABBE80467B
:10137800761B00E00E46002EDFD1384605B0BDE8EA
:10138800F08300BF08B5FFF7CBFF08BD08B500F034
:10139800FBF8024B024A9A6008BD00BF00ED00E06E
:1013A8000000000808B500F017F908BDF8B50446B4
:1013B8000D4617461E462648FFF79AFF216825481E
:1013C800FFF796FF61682448FFF792FFA16823485A
:1013D800FFF78EFFE1682248FFF78AFF216921485D
:1013E800FFF786FF61692048FFF782FFA1691F4860
:1013F800FFF77EFFE1691E48FFF77AFF1D48FFF7F8
:1014080077FF29461C48FFF773FF1C4CE16A1C480C
:10141800FFF76EFF216B1B48FFF76AFFE16B1A4865
:10142800FFF766FF15F0800F03D039461748FFF71E
:101438005FFF15F4004F03D031461548FFF758FFFA
:101448001448FFF755FF06991348FFF751FFF8BDF9
:10145800887F0008987F0008A87F0008B87F0008E8
:10146800C87F0008D87F0008E87F0008F87F0008D8
:1014780008800008188000082480000800ED00E0BB
:101488003480000844800008548000086480000804
:1014980074800008848000088C80000883691A889A
:1014A8008A4207D10268033A012A05D802338361C8
:1014B80001207047002070470020704782B0002349
:1014C800019300932C4A136843F4803313602A4B2A
:1014D8001B6803F400330093019B01330193009BC5
:1014E8001BB9019BB3F5A06FF1D1234B1B6813F413
:1014F800003F02D00123009301E000230093009BEA
:10150800012B36D11D4B1A6842F010021A601A6876
:1015180022F003021A601A6842F002021A60A3F568
:1015280080535A685A605A685A605A6842F480620E
:101538005A605A6822F47C125A605A6842F4E812D7
:101548005A601A6842F080721A600B4B1B6813F0DD
:10155800007FFAD0084B5A6822F003025A605A6892
:1015680042F002025A60044B5B6803F00C03082B3C
:10157800F9D102B0704700BF0010024000200240BD
:1015880008B5FFF79BFF08BD08B5104B1A6842F075
:1015980001021A6059680E4A0A405A601A6822F015
:1015A800847222F480321A601A6822F480221A6047
:1015B8005A6822F4FE025A604FF41F029A60FFF73D
:1015C800DFFF4FF00062034B9A6008BD0010024035
:1015D8000000FFF800ED00E01F4B5B6803F00C0310
:1015E800042B06D0082B08D03BBB1C4A1C4B1A60A6
:1015F80026E01A4A1A4B1A6022E0174A53685268C2
:10160800C3F38343023312F4803F05D1154A02FB2A
:1016180003F3134A136013E00F4A526812F4003FB1
:1016280005D0104A02FB03F30D4A136008E00B4A89
:1016380002FB03F30A4A136002E0084A084B1A60E7
:10164800054B5B68C3F30313074AD35CDAB204495A
:101658000B68D3400B6070470010024000127A00FC
:101668003000002000093D002000002082B0064B19
:101678001B680193044B1B680093019B0344009A69
:101688009342F7D802B07047F402002030B583B017
:1016980004460D4601280BD14FF6FF73994207D136
:1016A80000220A4B1A6001AA09490A4802F0BAFD49
:1016B80054B94FF6FF739D4206D1064B53F8080BF9
:1016C800984201D001F0E0FF03B030BD10030020C4
:1016D80030810008F802002070B582B005460E4639
:1016E80019B9914203D1002302E0002300E001234D
:1016F80013B1104802F081FC941B01940F2C07D9F8
:10170800002201A9284602F083FC2860019BAB60F7
:101718002868012C02D13378037004E01CB12246FA
:10172800314604F083F8019B6B602A680021D1548C
:1017380002B070BD5081000808B54FF6FF71012056
:10174800FFF7A4FF08BD00BF08B54FF6FF710020E2
:10175800FFF79CFF08BD00BF00B583B00120FFF76D
:1017680051FAF8B1FFF7F8F902AB43F8040D18463F
:1017780003F01AFF0D4B1860019A0D4882FB000117
:101788001144D317C3EB6113C3EB031399008A42C7
:1017980014BF00220122074B1A700120FFF752FAEA
:1017A800FFF7FCF903B05DF804FB00BFBC030020A1
:1017B8008988888834000020024A1368013313603E
:1017C800704700BFF402002070B582B02021154890
:1017D800FFF79EFC20B31348FFF778FCC6B2124B04
:1017E8005D686C1C53F8082B9A4202D00E4B9B681C
:1017F80000E00F239C4207D90123009300231A46D7
:101808002946094802F055FC074B1A6856555C6092
:101818001B6800221A5540F225510248FFF7CCFCFC
:1018280002B070BD00380140F802002000B587B052
:10183800FEF7E8FE4FF48030FEF704FFFFF73AF9B1
:10184800012824D10020FEF7A3FF0020FEF7E4FFC3
:101858004FF48060FEF7C0FF0220FEF7A1FD1020C4
:10186800FEF7B2FD4FF4E0114FF48030FEF718FF99
:101878000120FEF761FF3920FFF7E2F80028FAD0CF
:101888000220FEF769FFFEF77BFF0828FBD1012144
:101898000420FFF789F801210820FFF785F80121C6
:1018A8001020FFF781F801212020FFF77DF80121A2
:1018B8004FF40010FFF79EF801214FF48050FFF716
:1018C80073F801210846FFF76FF8012141F205007E
:1018D800FFF76AF801A8FFF709F80B4A029BA2FB79
:1018E80003239B09023BB3F1807F09D2074A536067
:1018F800F021074B83F8231000239360072313601C
:1019080007B05DF804FB00BFD34D621010E000E0A3
:1019180000ED00E008B501214FF0C050FFF76AF86C
:101928000120FEF75FFE144804F058F8FFF736F977
:101938000820FFF74FF94FF48070FEF7ADFFFFF76F
:101948002DF90120FEF788FFFFF728F90120FEF79F
:10195800BDFFFFF723F94FF40040FFF707F9FFF742
:101968001DF901210846FFF7BFF80822034B1A604A
:10197800FFF71EF908BD00BFBC81000800E100E0C8
:10198800F0B587B01026ADF8006003248DF802404A
:101998008DF80360204D69462846FEF72DFDA023EB
:1019A800ADF800308DF8024018238DF803306946F1
:1019B8002846FEF721FD4FF44043ADF804304FF4BC
:1019C8008273ADF806304FF40063ADF80830002498
:1019D800ADF80A40ADF80C404FF40073ADF80E3086
:1019E8000823ADF81030ADF812400723ADF81430D5
:1019F8000A4F01A93846FFF73DF921463846FFF757
:101A08002FFA01213846FFF7CBF901223146284643
:101A1800FEF786FD07B0F0BD000801400030014028
:101A280008B501460648FFF7E7F902210448FFF721
:101A380043FA0028F9D00248FFF7F8F908BD00BFBB
:101A48000030014030B587B0012144F20500FEF7AF
:101A5800ABFF4FF40073ADF8143003258DF8165022
:101A680018238DF817301D4C05A92046FEF7C4FC35
:101A78004FF48063ADF814308DF8165004238DF8B8
:101A8800173005A92046FEF7B7FC01214FF4804026
:101A9800FEF78AFF4FF4E13301930023ADF80830D5
:101AA800ADF80A30ADF80C300C22ADF80E20ADF8C8
:101AB800103004F5405401A92046FFF731FAA389F4
:101AC8009BB243F4005343F02C03A381AA23A380C1
:101AD8002022034B5A6007B030BD00BF0008014008
:101AE80000E100E02DE9F04389B004460D460128E5
:101AF8004CD14FF6FF73994248D1012002F002F908
:101B0800002606700490012002F0FCF801270770F7
:101B18000590384602F0F6F802230370069038461E
:101B280002F0F0F803230370079004AB0293042338
:101B3800039302AA92E803008DE803001A4B1E6083
:101B48005E609E6081468E00B71046B1B7F1804F47
:101B580001D302F04FFAB80002F0D4F800E00020F8
:101B6800114B186000EB0608C3F808801FB1324615
:101B7800494603F066FE0C4BC3F8048006E00A4BA6
:101B8800186808B101F080FD02F00EF944B94FF66B
:101B9800FF739D4204D1044B186808B101F074FD2D
:101BA80009B0BDE8F08300BF3403002008B5FFF793
:101BB80037FF08BD2DE9F041032A05D91B4B1C4A04
:101BC8005B211C48FFF77AFB07468846154600222A
:101BD80010211948FEF7A4FC0024C5F103039C4218
:101BE80005DAFF20FFF7E2FF0134E4B2F5E748EA3F
:101BF8000720FFF7DBFF7B1EDBB2072B05D8013F71
:101C08000E4B03EBC50606F807800024AC4205D24C
:101C1800FF20FFF7CBFF0134E4B2F7E701221021E0
:101C28000548FEF77DFCBDE8F08100BF5C82000836
:101C3800CC810008408200080008014014030020FD
:101C480038B505460024072C07D80134E4B22A78B1
:101C580000212046FFF7AEFFF5E738BD10B5044672
:101C6800027800210F20FFF7A5FF227801210C2020
:101C7800FFF7A0FF227800210920FFF79BFF2278B9
:101C880007210B20FFF796FF22780F210A20FFF784
:101C980091FF2046FFF7D4FF10BD00BFF8B50746F7
:101CA8000E46094B1C685D68AC420CD054F8043BE6
:101CB8001A78D300FF2199403940D940C9B230463B
:101CC800FFF778FFF0E7F8BD3403002008B54FF6BA
:101CD800FF710120FFF706FF08BD00BF08B54FF6EA
:101CE800FF710020FFF7FEFE08BD00BF2DE9F04F91
:101CF8009DB0019145682DB9454B464A1B21464880
:101D0800FFF7DCFA8346026842494448FFF7F0FAD5
:101D18004FF0040A0024042C12D8C4F10403C3EBC6
:101D28000A03DBF80020D15C08223D4B03EBC1011C
:101D380012AB03EBC40003F079FD0134E4B2EAE727
:101D4800042D01D9082700E001270026BE4252D2FF
:101D58000024072C40D84022002102A803F08CFD63
:101D68000023042B1AD89D4215D99A101CA901EBFF
:101D7800C301214411F8280CA3EB8201C90000FA21
:101D880001F102EB44021CA800EB820252F8680C35
:101D9800014342F8681C0133DBB2E2E71CAB03EBFA
:101DA800C40353F8649C4FF0000853F8683C48EAB1
:101DB8000300C6F12002A6F12003F04009FA02F25E
:101DC800104329FA03F3C4F10801C9B21843FFF715
:101DD80065FF0134E4B2BCE73EB9BAF1040F04D19F
:101DE8004FF47A70FFF742FC02E00198FFF73EFCDF
:101DF8000136F6B2AAE70AF1010A5FFA8AFA5545EE
:101E080088D84FF47A70FFF731FC1DB0BDE8F08F29
:101E18000C870008B8820008188700083C8700086B
:101E28000C83000810B50A4B1C68094B5B689C4280
:101E38000CD023681A780423013206490648FFF7B4
:101E480057FA54F8040BFFF709FFEEE710BD00BF7F
:101E580034030020808200085087000808B5036812
:101E6800984708BD012A02D0022A02D004E0016086
:101E780002E00B6800B103600020704708B5024912
:101E88000248FFF735FA08BD9C870008D08700088C
:101E980008B502490248FFF72BFA08BD5C8800081C
:101EA800D087000808B502490248FFF721FA08BDA3
:101EB80090880008D087000808B502490248FFF753
:101EC80017FA08BDC4880008D087000808B5024979
:101ED8000248FFF70DFA08BD68870008D087000898
:101EE80010B50446836B1BB1303003220146984776
:101EF800A06904F12003984201D001F0C5FB2346F4
:101F080053F8080B984201D001F0BEFB204610BDE3
:101F180038B50446002383608B687BB10D460222E6
:101F28009847EB68E360AB68A36007E0A3681BB160
:101F3800032221462046984701F036FF204638BD47
:101F48000023836029B100B10160024BC360024BDA
:101F580083607047651E00086D1E000870B582B06A
:101F680005460E4619B9914203D1002302E0002329
:101F780000E0012313B1104802F03FF8941B0194CC
:101F88000F2C07D9002201A9284602F041F8286041
:101F9800019BAB602868012C02D13378037004E000
:101FA8001CB12246314603F041FC019B6B602A6854
:101FB8000021D15402B070BD508100082DE9F04FC6
:101FC80083B080460D460123009342680368D31A04
:101FD8009B1101930BB9694600E001A909680B44FC
:101FE800D8F80010521AB3EBA21F04D3B3F1806FD4
:101FF80004D2994604E06FF07C4901E06FF07C4917
:10200800B9F1000F0AD0B9F1806F01D301F0F2FFE6
:102018004FEA891001F076FE824601E04FF0000A8F
:10202800D8F80430D8F800209B1A1AEB03042ED0F5
:1020380004F108064AF8036029686A684FF000034B
:102048000A442046FFF78AFF04F12007A761A9691F
:10205800EA694FF000030A4404F11800FFF77EFF15
:1020680005F1300104F13000FFF752FF0FE005469B
:10207800A069874203D001F007FB00E0054620680D
:10208800864201D001F000FB2846554677E0D8F893
:102098000050D8F804B05446AB4530D064B304F1CE
:1020A8000806266029686A684FF000030A4420463B
:1020B800FFF754FF04F12007A761A969EA694FF007
:1020C80000030A4404F11800FFF748FF05F1300146
:1020D80004F13000FFF71CFF0EE00546A0698742B7
:1020E80003D001F0D1FA00E005462068864201D00D
:1020F80001F0CAFA284608E040354034CCE74034BD
:10210800D8F80050D8F8046011E001F0DCFA554620
:10211800AC4204D02846FFF7E3FE4035F8E701F06B
:1021280021FB044601F0F9FA2046002527E0AE42DB
:1021380016D0AB6B23B105F1300003220146984756
:10214800A86905F12003984201D001F09DFA2B46B9
:1021580053F8080B984201D001F096FA4035E6E7AB
:10216800D8F8000008B101F08FFAC8F800A0C8F844
:1021780004400AEB8913C8F8083020E0554601F0FE
:10218800A2FA45B9D8F80430D8F80000181A504413
:10219800FFF7A6FE07E05446A54204D02046FFF705
:1021A8009FFE4034F8E7BAF1000F02D0504601F024
:1021B8006BFA01F0D7FA01F0B0FA01F0F5FD03B0BF
:1021C800BDE8F08F70B5064604684568A54216D08C
:1021D800A36B23B104F13000032201469847A0699C
:1021E80004F12003984201D001F04EFA234653F837
:1021F800080B984201D001F047FA4034E6E730680E
:1022080008B101F041FA304670BD00BF2DE9F04F2A
:1022180085B00D4601230293436802689A1A91100B
:102228008F4A02FB01F28F49914202D18E4801F098
:10223800E7FE824603920AB902A900E003A90968E9
:102248000A44DAF800105B1A9B10854901FB03F376
:102258009A4204D3834B9A4204D8914604E0DFF8AB
:10226800049201E0DFF8FC91B9F1000F0BD07D4B2F
:10227800994501D901F0BEFE09EB4900800001F043
:1022880041FD009001E000230093DAF80430DAF809
:1022980000209B1A009911EB030B70D06C682A6818
:1022A800A41A0022CA50CBF80420CBF80820A011A9
:1022B80009D0B0F1806F01D301F09CFE800101F0DC
:1022C80021FD019001E0002301930199CBF8001052
:1022D800CBF804100C44CBF808402B68D5F80480E0
:1022E8000C461D46434531D064B304F10806266008
:1022F80019685A684FF000030A442046FFF72EFE7B
:1023080004F12007A761A969EA694FF000030A44AC
:1023180004F11800FFF722FE05F1300104F1300046
:10232800FFF7F6FD0EE00546A069874203D001F0ED
:10233800ABF900E005462068864201D001F0A4F917
:10234800284606E005F140034034CAE7CBF80440CC
:1023580015E001F0B8F9019DAC4204D02846FFF71A
:10236800BFFD4035F8E701F0FDF9044601F0D5F965
:10237800DBF8000008B101F087F9204654E0DAF8EC
:102388000020DAF80400009E1346824213D076B18A
:10239800002232607260B260196831601A60726837
:1023A800596871605A60B2689968B1609A6003F1BF
:1023B8000C020C36E8E70C36DAF80070DAF804801C
:1023C800B84520D03C687D68A54216D0A36B23B1E0
:1023D80004F13000032201469847A06904F1200364
:1023E800984201D001F050F9234653F8080B98425F
:1023F80001D001F049F94034E6E7386808B101F046
:1024080043F90C37DCE7DAF8000008B101F03CF9D1
:10241800009BCAF80030CAF8046009EB490903EBCD
:102428008903CAF8083017E001F04DF9009B43B959
:10243800DAF80430DAF80000181A009B1844FFF79D
:10244800C1FE009B13B1184601F01EF901F08AF98C
:1024580001F063F901F0A8FC05B0BDE8F08F00BFFA
:10246800ABAAAAAA55555515248800082DE9F047A6
:10247800ADF53A7D092106ABB1F1FF3F0FD003F16D
:1024880008021A6000225A601A7203F1200098614B
:10249800DA6183F820209A6340330139ECE7079B1F
:1024A800039302230093A24B039A002106A801F08C
:1024B8003FFE01E0A6AC82E30D9A012300939D4BF9
:1024C80000210CA801F034FE01E0A6AC77E3A6AC2D
:1024D80099492046FFF734FD04AA94E8030082E8EE
:1024E800030012AB93E8030084E8030092E80300BA
:1024F80083E80300A89A149BA8931492A99A1599A3
:10250800A99115921BB10322A6A9084698478B4B9F
:102518005C689B689C4232D064B304F1080525606E
:102528000699079A4FF000030A442046FFF716FD64
:1025380001E0A6AC43E304F12006A6610C990D9ACC
:102548004FF000030A4404F11800FFF707FD12A931
:1025580004F13000FFF7DCFC0CE0A069864202D0F1
:1025680001F092F8FFE72068854201D001F08CF86D
:10257800A6AC24E3714A53684033536006E006A9C9
:102588006E48FFF71BFD01E0A6AC18E3179A02237B
:1025980000936B4B002116A801F0CAFD01E0A6AC20
:1025A8000DE31D9A01230093624B00211CA801F042
:1025B800BFFD01E0A6AC02E3AAAC62492046FFF7E2
:1025C800BFFC04AA94E8030082E8030022AB93E866
:1025D800030084E8030092E8030083E80300AC9A50
:1025E800249BAC932492AD9A2599AD9125921BB169
:1025F8000322AAA908469847504B5C689B689C42EE
:1026080032D064B304F1080525601699179A4FF083
:1026180000030A442046FFF7A1FC01E0A6ACCEE285
:1026280004F12006A6611C991D9A4FF000030A4484
:1026380004F11800FFF792FC22A904F13000FFF71B
:1026480067FC0CE0A069864202D001F01DF8FFE7A4
:102658002068854201D001F017F8A6ACAFE2374AEE
:1026680053684033536006E016A93448FFF7A6FCC8
:1026780001E0A6ACA3E2279A02230093324B002183
:1026880026A801F055FD01E0A6AC98E22D9A012399
:102698000093284B00212CA801F04AFD01E0A6ACCC
:1026A8008DE2AEAC29492046FFF74AFC04AA94E81B
:1026B800030082E8030032AB93E8030084E80300D8
:1026C80092E8030083E80300B09A349BB0933492F5
:1026D800B19A3599B19135921BB10322AEA908463A
:1026E8009847164B5C689B689C4243D0002C3CD0B2
:1026F80004F1080525602699279A4FF000030A443B
:102708002046FFF72BFC01E0A6AC58E204F12006B6
:10271800A6612C992D9A4FF000030A4404F1180081
:10272800FFF71CFC32A904F13000FFF7F1FB1CE0B5
:102738004088000844880008851E000840030020DF
:1027480048880008991E00084C880008AD1E00083B
:10275800A069864202D000F097FFFFE72068854213
:1027680001D000F091FFA6AC29E2A74A5368403394
:10277800536006E026A9A448FFF720FC01E0A6ACB8
:102788001DE2379A02230093A04B002136A801F0DE
:10279800CFFC01E0A6AC12E23D9A012300939C4BCA
:1027A80000213CA801F0C4FC01E0A6AC07E2B2ACF1
:1027B80098492046FFF7C4FB04AA94E8030082E87E
:1027C800030042AB93E8030084E8030092E80300A7
:1027D80083E80300B49A449BB4934492B59A45990C
:1027E800B59145921BB10322B2A9084698478A4B76
:1027F8005C689B689C4232D064B304F1080525608C
:102808003699379A4FF000030A442046FFF7A6FB93
:1028180001E0A6ACD3E104F12006A6613C993D9AFB
:102828004FF000030A4404F11800FFF797FB42A990
:1028380004F13000FFF76CFB0CE0A069864202D07F
:1028480000F022FFFFE72068854201D000F01CFF5E
:10285800A6ACB4E1704A53684033536006E036A929
:102868006D48FFF7ABFB01E0A6ACA8E1479A02234D
:1028780000936A4B002146A801F05AFC01E0A6AC7F
:102888009DE14D9A01230093614B00214CA801F072
:102898004FFC01E0A6AC92E1B6AC61492046FFF7D7
:1028A8004FFB04AA94E8030082E8030052AB93E8C4
:1028B800030084E8030092E8030083E80300B89A61
:1028C800549BB8935492B99A5599B99155921BB1A2
:1028D8000322B6A9084698474F4B5C689B689C4200
:1028E80032D064B304F1080525604699479A4FF041
:1028F80000030A442046FFF731FB01E0A6AC5EE185
:1029080004F12006A6614C994D9A4FF000030A4441
:1029180004F11800FFF722FB52A904F13000FFF779
:10292800F7FA0CE0A069864202D000F0ADFEFFE79E
:102938002068854201D000F0A7FEA6AC3FE1364AE8
:1029480053684033536006E046A93348FFF736FB27
:1029580001E0A6AC33E1334B5F689B689F4200F00F
:102968008A80002F00F08280274A536814681C1B55
:1029780000233B607B60BB60A0110DD0B0F1806F7D
:1029880003D301F037FBA6AC19E1800101F0BAF9D5
:10299800804603E0A6AC12E14FF00008C7F80080BB
:1029A800C7F804804444BC60174A13685668444614
:1029B8001D46B34244D0002C3ED004F10809C4F8A7
:1029C800009019685A684FF000030A442046FFF740
:1029D800C5FA04F1200AC4F818A0A969EA694FF0F9
:1029E80000030A4404F11800FFF7B8FA05F13001B2
:1029F80004F13000FFF78CFA1EE00546A069824515
:102A080013D000F041FE10E0400300205088000879
:102A180054880008C11E00084C030020588800088C
:102A2800D51E0008B003002005462068814501D066
:102A380000F02AFE284605E005F140034034B7E7D8
:102A48007C6013E000F03FFE444505D04046FFF7A8
:102A580047FA08F14008F7E700F084FE00F05DFE51
:102A6800386808B100F010FEA6ACA8E05B4A5368CD
:102A78000C33536006E05A495848FFF7C7FB01E09A
:102A8800A6AC9CE0554B5F689B689F4277D0002FAF
:102A980070D0544A536814681C1B00233B607B6049
:102AA800BB60A0110DD0B0F1806F03D301F0A2FA82
:102AB800A6AC84E0800101F025F9804603E0A6ACCD
:102AC8007DE04FF00008C7F80080C7F80480444450
:102AD800BC60444A1368566844461D46B34233D026
:102AE80074B304F10809C4F8009019685A684FF0E3
:102AF80000030A442046FFF731FA04F1200AC4F81B
:102B080018A0A969EA694FF000030A4404F1180003
:102B1800FFF724FA05F1300104F13000FFF7F8F966
:102B28000EE00546A069824503D000F0ADFD00E047
:102B380005462068814501D000F0A6FD284605E03D
:102B480005F140034034C8E77C6013E000F0BBFDAA
:102B5800444505D04046FFF7C3F908F14008F7E7B8
:102B680000F000FE00F0D9FD386808B100F08CFDD7
:102B7800A6AC24E0194A53680C33536003E01949A2
:102B88001648FFF743FBA6AC06AB9C4221D0403C5D
:102B9800A36B23B104F13000032201469847A069D2
:102BA80004F12003984201D000F06EFD234653F84B
:102BB800080B9842E8D000F067FDE5E7A6AC06AB45
:102BC8009C4204D0403C2046FFF78AF9F7E701F021
:102BD800EBF80DF53A7DBDE8F08700BFB0030020A3
:102BE800400300204C030020F8B5012823D14FF6FC
:102BF800FF7399421FD1314A0023136053609360D9
:102C08002F4A1360536093602E4A13605360936099
:102C18002D4A02F1080414605360137202F1200473
:102C28009461D36182F820309363284A02F1080442
:102C380014605360137200283ED14FF6FF73994217
:102C48003AD1224B53F8080B984201D000F01CFDF2
:102C58001D48FFF745F91B48FFF7B4FA1848FFF776
:102C6800B1FA164B1E685F68B74220D034687568A1
:102C7800A54216D0A36B23B104F13000032201460C
:102C88009847A06904F12003984201D000F0FCFCA9
:102C9800234653F8080B984201D000F0F5FC403465
:102CA800E6E7306808B100F0EFFC0C36DCE7034BD0
:102CB800186808B100F0E8FCF8BD00BFB0030020B8
:102CC800400300204C03002070030020580300201C
:102CD80008B54FF6FF710120FFF786FF08BD00BF5A
:102CE80008B54FF6FF710020FFF77EFF08BD00BF53
:102CF80010B58EB01A4C024621461A48FEF7F8FA6B
:102D080006AA2146684601F08DFA14216846FEF7A6
:102D1800EDFF009802AB984201D000F0B5FC0DAA77
:102D2800114907A801F07EFA142107A8FEF7DEFF73
:102D3800079809AB984201D000F0A6FCFEE700987E
:102D480002AB984201D000F09FFC01F02DF80798E3
:102D580009AB984201D000F097FC01F025F800BFBC
:102D6800F8880008208900084889000870B590B0E4
:102D780031493248FEF7BCFAFDF7EEFE10AC44F8D4
:102D8800380D204602F010FC2D4E3060029A2D4876
:102D980082FB00011144D317C3EB6113C3EB031388
:102DA80099008A4214BF00220122274B1A70FEF7AD
:102DB8003DFDFEF7AFFDFEF7E3FDFEF743FEFFF72F
:102DC80031F8FFF753FB0CAB0A9300250B958DF8F0
:102DD800305033681D4A2021204603F04DFC0B9EDD
:102DE800204603F05BFC00902346324629460AA899
:102DF80001F09EF914210AA8FEF778FF07E00A9867
:102E08000CAB984201D000F03FFC00F0CDFF0A98CF
:102E18000CAB984201D000F037FC0D48FEF768FA79
:102E280000F0B0FAFCE70A980CAB984201D000F029
:102E38002BFC00F0B9FF00BF08890008588900087A
:102E4800BC03002089888888340000207489000821
:102E580084890008FEE700BFFEE700BF074B23F0A8
:102E68000703074A136000205060064A44F2F871CD
:102E78005160106059601A60704700BFD00300208D
:102E8800C0030020CC4B002070B5044600F0AAFA1D
:102E9800224B1B6823B9FFF7E1FF01221F4B1A6081
:102EA80034B1083414F0070F02D024F007040834B2
:102EB800621E44F2F6739A4228D819490B6801E059
:102EC800194613465A68944202D91A68002AF7D15B
:102ED800144A93421CD00D6808351A680A605A686B
:102EE800121B102A0CD91E1972605C6074680C4998
:102EF80000E011460A6850688442FAD832600E60D1
:102F08005968094A13685B1A136002E0002500E05B
:102F1800002500F0F5FA284670BD00BFC84B002018
:102F2800C0030020CC4B002038000020D0B170B581
:102F38000546A0F1080600F055FA55F8044C0A4A6F
:102F480000E01A46136859688C42FAD845F8083CDC
:102F5800166055F8043C054A11680B44136000F0EC
:102F6800CFFA70BD704700BFC003002038000020B2
:102F780082B0002301934FF0BF0383F31188BFF39E
:102F88006F8FBFF34F8F019B002BFCD002B07047AF
:102F980006480068006880F3088862B661B6BFF327
:102FA8004F8FBFF36F8F00DF00BF000008ED00E018
:102FB8004FF0807340F8043C21F0010140F8081CF0
:102FC800034B40F80C3C40F8202C4038704700BFB9
:102FD800792F00084FF0BF0383F31188BFF36F8F79
:102FE800BFF34F8F024A136801331360704700BF65
:102FF8003C000020034A1368013B13600BB983F3BC
:10300800118870473C000020054B00221A600549D2
:103018000A600549054A116007221A60704700BF17
:1030280010E000E018E000E03F19010014E000E0C3
:1030380010B50B4B1A6842F47F021A601A6842F006
:103048007F421A60FFF7E0FF0024064B1C60FFF781
:103058009FFF00F0C5FAFFF78BFF204610BD00BFA9
:1030680020ED00E03C00002000F1080343604FF031
:10307800FF328260C360036100230360704700BFB2
:1030880000230361704700BF43684B609A688A60F9
:103098009A6851609960086103680133036070475A
:1030A80003694268816891608268416851605A6822
:1030B800904201D182685A60002202611A68013A7E
:1030C8001A601868704700BF0A4B1B681B680BB969
:1030D800012300E0002323B14FF0FF32064B1A60B2
:1030E8007047044B1B68DB68DB685A68024B1A6040
:1030F800704700BFD84B00208C4C002010B5044608
:10310800006BFFF713FF2046FFF710FF10BD00BF4D
:103118002DE9F04781460D4617469A46089EDDF888
:1031280024800A9C9200A521206B02F0A5FB236B4A
:1031380007F18042013A03EB820727F007070023D3
:1031480006E0E95CE21882F83410EA5C12B1013357
:103158000F2BF6D9002384F84330042E00D9042617
:10316800E662E66400252565201DFFF789FF04F166
:103178001800FFF785FF2461C6F10506A6616462A1
:10318800656584F85850524649463846FFF710FF9F
:103198002060B8F1000F01D0C8F80040BDE8F08702
:1031A80038B5002407E004EB840293000E48184465
:1031B800FFF75AFF0134042CF5D90C4D2846FFF7C8
:1031C80053FF0B4C2046FFF74FFF0A48FFF74CFF11
:1031D8000948FFF749FF0948FFF746FF084B1D60FC
:1031E800084B1C6038BD00BFFC4B0020944C0020ED
:1031F800A84C0020704C0020E04B0020BC4C002064
:10320800D84B0020F44B002010B50446FFF7E2FE2F
:10321800214A136801331360204B1B683BB91F4BCD
:103228001C601368012B0DD1FFF7BAFF0AE01C4B95
:103238001B683BB9194B1B68DA6AE36A9A4201D8E2
:10324800164B1C60174A1368013313606364E36A02
:10325800012202FA03F1144802680A43026003EBF0
:1032680083039A00211D11481044FFF70DFFFFF753
:10327800C1FE0B4B1B686BB1084B1B68DA6AE36A2B
:103288009A4207D24FF08052094B1A60BFF34F8F12
:10329800BFF36F8F10BD00BF684C00206C4C00203E
:1032A800DC4B0020904C0020D04C0020FC4B002030
:1032B80004ED00E010B514E0FFF78CFE0B4BDB6863
:1032C800DC68201DFFF7ECFE094A1368013B136018
:1032D800084A1368013B1360FFF78CFE2046FFF78E
:1032E8000DFF044B1B68002BE6D110BDE04B0020FE
:1032F800684C0020644C002008B5FFF7DBFF064B44
:103308001B68012BF9D94FF08052044B1A60BFF3A8
:103318004F8FBFF36F8FF0E7FC4B002004ED00E008
:103328002DE9F04385B006460F46154698469000AD
:10333800FFF7AAFD60B181465C20FFF7A5FD0446B2
:1033480010B1C0F8309004E04846FFF7EFFD00E008
:1033580000248CB10023039302940D9B01930C9BD2
:10336800009343462A4639463046FFF7D1FE2046A9
:10337800FFF74AFF012001E04FF0FF3005B0BDE83C
:10338800F08300BF00B583B0104B01930023009376
:1033980078220F490F48FFF7C3FF012813D14FF0D8
:1033A800BF0383F31188BFF36F8FBFF34F8F4FF0C5
:1033B800FF32094B1A600122084B1A600022084BA1
:1033C8001A60FFF735FE03B05DF804FB844C00205B
:1033D80098890008013300088C4C0020DC4B002041
:1033E800884C0020024A136801331360704700BFFD
:1033F800604C0020F8B5374B1B68002B5CD1364B6E
:103408001E6801361E605EB9344A1168344B18686C
:1034180010601960334A136801331360FFF754FED4
:10342800314B1B689E4203D200273AE0012700E097
:1034380000272A4B1B681B680BB9012300E00023F7
:1034480023B14FF0FF32284B1A602AE0234B1B6848
:10345800DB68DC6863689E4202D2234A136020E07E
:10346800251D2846FFF71CFEA36A1BB104F11800AE
:10347800FFF716FEE36A012202FA03F11B4802680D
:103488000A43026003EB83039A0029461848104454
:10349800FFF7FAFDE26A174B1B68DB6A9A42C5D24E
:1034A800C7E7144B1B68DB6A03EB83039A00104BD6
:1034B8009B58012B06D806E00F4A136801331360A6
:1034C800002700E001270D4B1B6803B10127384690
:1034D800F8BD00BF604C0020884C0020D84B00206D
:1034E800F44B0020D44B00208C4C0020D04C002002
:1034F800FC4B00206C4C0020F84B0020D44C0020E2
:1035080038B5FFF767FD2D4B1A68013A1A601B683A
:10351800002B4CD12A4B1B6833BB00244AE0294BB3
:10352800DB68DC6804F11800FFF7BAFD251D2846A2
:10353800FFF7B6FDE36A012202FA03F122480268A6
:103548000A43026003EB83039A0029461F4810448C
:10355800FFF79AFDE26A1E4B1B68DB6A9A4204D3A6
:1035680001221C4B1A6000E00024164B1B68002B3C
:10357800D5D10CB1FFF7A8FD174B1C6854B1FFF764
:1035880039FF10B10122134B1A60013CF7D1002218
:10359800114B1A600F4B1B685BB14FF080520F4BF9
:1035A8001A60BFF34F8FBFF36F8F012402E000242E
:1035B80000E00024FFF71EFD204638BD604C0020C7
:1035C800684C0020704C0020D04C0020FC4B0020A0
:1035D8006C4C0020D44C0020F84B002004ED00E097
:1035E80038B5244B1B681BB10122234B1A6038BD28
:1035F8000022214B1A60214B1B681B6B1A68B2F121
:10360800A53F0BD15A68B2F1A53F07D19A68B2F12C
:10361800A53F03D1DB68B3F1A53F05D0174B186868
:1036280019683431FFF716FC154B1B68B3FA83F39E
:10363800DBB2C3F11F03134D9900CA189000284448
:1036480042685468446019448A0008322A44944203
:1036580005D1606803EB83018A002A44506003EBBC
:1036680083039A00074B1A445368DA68034B1A60BD
:1036780038BD00BF604C0020D44C00206C4C0020AA
:10368800D04C0020FC4B002002F0A8B80378472B50
:1036980017D143784E2B14D18378552B11D1C37889
:1036A800432B0ED10379432B0BD143792B2B08D114
:1036B80083792B2B05D1C07901288CBF00200120EC
:1036C80070470020704738B5054600F031FB0146C9
:1036D80002682846A5F12004FFF7D8FF28B90AB1E7
:1036E80000F036FB0C60144615E055F80C3C2846F3
:1036F800002BB4BFC3F10103013345F80C3C4B6800
:10370800A24203F1FF334B601CBF45F8102C0C603C
:103718006C6A01F091F9204638BD10B500F004FB41
:1037280002680146EAB102F120042046FFF7AEFF25
:1037380008B908600BE05369002B04DA01330FD194
:10374800106908600CE0013B06D113690B60204644
:10375800BDE8104001F072B9591C01D100F0F8FA27
:10376800536110BD08B500F0E3FA426803680132FE
:10377800426053B393F82020472A28D193F8212098
:103788004E2A24D193F82220552A20D193F82320B9
:10379800432A1CD193F82420432A18D193F82520D2
:1037A8002B2A14D193F826202B2A10D193F82720FE
:1037B800012A0CD85A6952425A6103F12004204662
:1037C80001F004FD2046FFF77EFF00F0C1FA002259
:1037D8000260F2E770B50023A0EBC006C0EBC002A0
:1037E80010F8015B941905F07F02A24013432A06E2
:1037F800F4D40B6070BD00231A4630B510F8014BA5
:1038080004F07F0595402B43250602F10702F5D405
:103818001F2A06D8640642BF4FF0FF3404FA02F2AA
:1038280013430B6030BD5028F7B505460F461446C4
:103838001E4605D1D01C20F0030050F8043B33E0AD
:1038480000F00F030C2B23D8DFE803F01A07121A35
:103858001E222222220C161A1E0001A92046FFF75A
:10386800B9FF03E001A92046FFF7C5FF019B11E05E
:10387800204630F8023B0DE0204630F9023B09E0D3
:10388800204650F8043B05E0204650F8083B01E08C
:1038980001F07CFE43B105F07002102A18BF3C46C7
:1038A8002A06234448BF1B68336003B0F0BD08B53F
:1038B8000346FF2B08461CD003F07003202B0ED0C4
:1038C80003D8B3B1102B12D113E0402B0BD0502BDF
:1038D8000FD0302B0BD1BDE8084001F053BEBDE836
:1038E800084001F04BBEBDE8084001F037BE01F0CA
:1038F8004DFE002008BD70B50C4601462046154611
:103908001E46FFF7D4FF33462A4601462046BDE847
:103918007040FFF788BF73B50E461446054610B1D0
:1039280001F01CFEFFE720603178721CFF2905D0EA
:10393800231D2846FFF7DFFF024600E0606013788A
:10394800501CFF2B237507D01023237501A9FFF7FF
:1039580041FF019B034400E00023E360037801A9D1
:1039680063750130FFF736FF019B0344236102B002
:1039780070BD1FB503AB009300230A46194601F03A
:1039880063F8039805B05DF804FB00002DE9F04FDB
:10399800002391B0049300F00303012B07460C4663
:1039A80015460ED002D3022B02D0EFE0020717D53E
:1039B8002946204601F0BEFD08B109209FE10820F4
:1039C8009DE100F0080202F0FF065AB9D1F8208004
:1039D80028460D21FFF7CDFF804520D1062602E0BD
:1039E800012600E0022610AB43F82C4D009307F0A7
:1039F800080700233E430C221946284601F04AF8DE
:103A0800062E17D1D4F83080A76AB8F1000FD4F881
:103A18002C900CBF4FF0010A4FF0030A05E110AAE1
:103A280042F82C4D0092334631460C22284601F0CC
:103A380031F80226284601F097FD81460028B7D0C4
:103A48000AAA01462846FFF766FF294680469DF8E0
:103A58003C00FFF72CFF0F210C902846FFF789FF49
:103A680020F00100471E0E9B984580F03F8142469A
:103A780006AB9DF83D100020FFF73DFF07AB02465F
:103A88009DF83D100020FFF736FF08AB02469DF871
:103A98003D100020FFF72FFF09A9FFF79BFE069BAB
:103AA8000A9A804613449F4202D2DDF83880DAE74A
:103AB800079A13449F42D6D2089818B10B9B00EB83
:103AC800030800E08046099810B10E9F0138384479
:103AD800B8F1000F3FF46CAF002800F00C8116F02D
:103AE8000803029314D0472323704E236370552391
:103AF800A3704323E370462323714F23637152233A
:103B0800A3710023E3714FF0000A6FF0030B1BE071
:103B1800E379012B0CBF54F8203C04F158030493BB
:103B2800F1E704270D9A09AB07FB11220C99FFF75F
:103B38007AFE0999002900F0D5806CBB089F002FF8
:103B480059D0039B3B44184607A9FFF754FE08A920
:103B58000390FFF750FE0799002949D025DD9DF80D
:103B68003C00FF2814D000F00703042B0ED801A254
:103B780052F823F02B3B0008953B00089D3B0008BA
:103B88002B3B0008913B00080827CBE701F0FEFC1F
:103B98000027C7E70227C5E704AB0022204600F04C
:103BA80027F9002840F09E80C8E70D9F4A1CB4B151
:103BB800029BA3B90BFB0272049B171F069357F8CD
:103BC800041F41B106AB00223944204600F010F929
:103BD8000028F4D0012181F00101C9B205E00BFBF6
:103BE80002F2B958B1FA81F149090029A6D079E061
:103BF8004FF0010AA2E7BAF1000F3FF4D9AE4FF037
:103C0800020AF30711D5BAF1020F3FF4D1AE0D2124
:103C18002846049EFFF7ADFE66622062A762C4F8DC
:103C28002C90C4F83080062069E016F0080608D009
:103C3800BAF1010F01D100F08BF8002F24DA00F05F
:103C480099F8BAF1010F02D1204600F01EFB002FAF
:103C58001ADA0AAA49462846FFF75DFE29469DF862
:103C68003C00FFF724FE6FF0030307FB03330D9AB4
:103C78000C90134453F826200AB10136FAE70422BF
:103C8800A662E0622263636310AB43F81C4D0093A5
:103C980000231A461946284600F0FCFE10AB43F8EC
:103CA800207D0093002319460122284600F0F2FEE9
:103CB8000F212846FFF75DFE00F0010010AB40EA37
:103CC800080043F8240D009300230F2219462846C4
:103CD80000F0E0FEBAF1020F02D1204600F0E4F84D
:103CE80007200CE0079F4FF0030A8AE74FF000080F
:103CF8004FF0010A01E04FF0020A002781E711B0F6
:103D0800BDE8F08F10B5002814BF044601242046F2
:103D180001F05CFD30B900F0DBFA08B901F036FCBF
:103D28008047F4E710BD000000487047D84C0020D9
:103D380000487047D84C002008B5804701F026FCA1
:103D4800024B1868BFF35F8F704700BF4000002028
:103D580008B5FFF7F5FFFFF7EFFF08B58047FFF756
:103D6800F7FF0000024B1868BFF35F8F704700BF72
:103D78004400002008B5FFF7F5FFFFF7EEFF00004D
:103D880038B5084C4FF41E652846E56001F01EFD65
:103D9800A06010B9E060606038BD00236060056015
:103DA800436038BDE44C00201EB400F09AF81EBCF5
:103DB80001F0FAF90378472B17D143784E2B14D129
:103DC8008378552B11D1C378432B0ED10379432B1C
:103DD8000BD143792B2B08D183792B2B05D1C079B3
:103DE80001288CBF00200120704700207047000088
:103DF8002DE9F3411D4603780E46472B0246C1794B
:103E080043D143784E2B40D18378552B3DD1C3788D
:103E1800432B3AD10379462B37D143794F2B34D1F1
:103E28008379522B31D100292FD108460123002450
:103E380001947BB980B901290ABF52F8203CA2F14C
:103E48002003783B01290CBF52F8202C58321C68FB
:103E5800019202E0124C00E0124C236820469B6855
:103E6800984720B1019B02271B68019300E00127B6
:103E7800336801AAD3F81080214601233046C04791
:103E880058B1019B38462B6007E01046FFF792FFB8
:103E980080F00100C0B20023C9E702B0BDE8F0819C
:103EA800C0890008EC89000810B50446FFF740FFF8
:103EB80002462046A4F12001FFF77CFF50B154F8D8
:103EC800043C0133012B44F8043C08D1936844F8BE
:103ED800083C03E093680BB1FFF73AFF91600120BB
:103EE80010BD10B5FFF724FF826801460AB9FFF735
:103EF8002FFF02F120042046FFF75CFF38B1D36999
:103F0800013BD36123B990698860936100E08860C0
:103F1800204610BD7FB51023029303680024154680
:103F28009E6900946B468DF8044003941268B0476C
:103F38009DF8043003F00603062B11BF2046009BB2
:103F480001202B6004B070BD009890420CBF062081
:103F58000120704710B50446024B036000F042FA96
:103F6800204610BDFC89000810B50446FFF7F2FF93
:103F78002046FFF789FB204610BD38B515461C467C
:103F880000F033FA20B10823E3600623256023718B
:103F980038BD2DE9F041069E9846089B07469E428B
:103FA8001546099C03D1079900F01FFA48B9414604
:103FB800384600F01AFA28B1012326602571A3714A
:103FC80000E065710020BDE8F0812DE9F04105466B
:103FD8000C4616461F4600F008FA48B9032F07D8C2
:103FE8002368324629462046BDE8F0415B691847F8
:103FF800BDE8F08108B501F0C9FA08B501F0C6FAC4
:1040080008B501F0C3FA0AB101F010BC704700000E
:1040180008B50B68B3F1004F02D30A48FFF7F0FF69
:10402800934209D95200934206D2B2F1004F2ABFF7
:104038006FF000430A600B600868BDE80840013073
:10404800FFF760BE4E8A0008034653F8080B9842F3
:1040580001D0FFF719BB704710B544686FF00040F6
:10406800001B0144914202D21846FFF7C9FF10BD58
:1040780002688A4206D84368D018814294BF00205B
:104088000120704701207047012A10B502D10A7833
:10409800027010BDFFF7B7FF10BD012A30B402D17E
:1040A8000B78037003E012B130BC01F0CABB30BC1E
:1040B80070472DE9F3470A9D994643681746C1EBB7
:1040C80003082B449B1AC2EB08080268019300F10D
:1040D80008039A420E4614BF82680F2201A90446BB
:1040E800FFF796FF82461EB132462168FFF7CCFFE4
:1040F800B9F1000F06D02DB12A4649460AEB060051
:10410800FFF7C2FFB8F1000F07D0216837447019D4
:10411800424639445044FFF7B7FF2046FFF794FF63
:10412800019BC4F800A0A36002B0BDE8F0870000BE
:104138002DE9F347164681460A9C0F4698463146B4
:10414800374B2246FFF788FF4B4653F8085BD9F8F0
:1041580004109D4204EB010A18BFD9F80830C6EBD9
:104168000A0A08BF0F23534530D3C91B3D444846AC
:104178008F1B4146FFF77CFF58B137B1A64204D0E8
:104188003A46A9192819FFF788FFECB32246414699
:104198000DE0B4B3A64221D3224641462846FFF794
:1041A8007CFF2EE0984504D32246A11B41442846B3
:1041B80009E0C8EB0306324641462846FFF76DFF83
:1041C800A21B2919A819FFF75FFF1DE000944346B9
:1041D800324639464846FFF76CFF15E037B13A4694
:1041E800A9192819FFF759FFA6420DD2AB1908EBF8
:1041F80004029342D6D3224641462846FFF74DFF94
:1042080002E00FB1A642EAD14846D9F800300022B0
:10421800C9F804A003F80A2002B0BDE8F08700BF7F
:104228003D8B000838B500F10803044603600D46CD
:1042380021B1084602F032FA2A1801E04FF0FF32A5
:1042480020464FF000032946FDF746FA204638BDC0
:104258000378472B17D143784E2B14D18378552BED
:1042680011D1C378432B0ED10379432B0BD143795A
:104278002B2B08D183792B2B05D1C07901288CBF32
:104288000020012070470020704710B5044648B14F
:10429800FFF719FA2046FFF7DBFF18B154F8140CA2
:1042A800FFF74AFDFFF754FD38B50246FFF7D0FF88
:1042B80018B152F8184C002501E0044601251046B3
:1042C800FFF701FA0DB1FFF755FD2046FFF745FD51
:1042D800024B1868BFF35F8F704700BFF44C002093
:1042E80010B50446024B0360FFF734FE204610BDAC
:1042F8001C8C000810B50446FFF7F2FF2046FFF7B4
:10430800C3F9204610BD2DE9F14F0E4619468346E4
:10431800174699460A9CDDF82CA0DDF830800D9DE3
:1043280000F063F878B1002E2C602F7106DB34445E
:10433800A0450CBF06240124AC711EE002361CD136
:104348000123AB7119E0444504D15146584600F0A9
:104358004CF888B9DBF808003A4603680D95CDF8A3
:104368003080CDF82CA00A94DC6931464B46A4462F
:1043780001B0BDE8F04F60476F71002001B0BDE8A3
:10438800F08F2DE9F041069E804696420F4614466E
:104398001D4603D1194600F028F858B9D8F8080086
:1043A8002246036806961E6A39462B46B446BDE87F
:1043B800F04160470620BDE8F0812DE9F041044650
:1043C8000D4616461F46FFF7D8FD48B9A068324685
:1043D800036829469C693B46A446BDE8F04160470E
:1043E800BDE8F081704700207047814208B50ED0C3
:1043F800406803782A2B0CD049680B782A2B08BF11
:10440800013101F0FBFBB0FA80F0400908BD012042
:1044180008BD002008BD0000244B1A68D0075CBF07
:1044280001221A60224B1A68D1075CBF01221A6068
:10443800204B1A68D2075CBF01221A601E4B1A680B
:10444800D0075CBF01221A601C4B1A68D1075CBFF9
:1044580001221A601A4B1A68D2075CBF01221A603F
:10446800184B1A68D0075CBF01221A60164B1A68ED
:10447800D1075CBF01221A60144B1A68D2075CBFCF
:1044880001221A60124B1A68D0075CBF01221A6019
:10449800104B1A68D1075CBF01221A600E4B1A68CC
:1044A800D2075CBF01221A60704700BF244D00206C
:1044B800204D00201C4D0020184D0020144D0020D8
:1044C800104D00200C4D0020084D0020044D002008
:1044D800004D0020FC4C0020F84C0020184B1A68B6
:1044E800D1075CBF01221A60164B1A68D2075CBF5D
:1044F80001221A60144B1A68D0075CBF01221A60A7
:10450800124B1A68D1075CBF01221A60104B1A6857
:10451800D2075CBF01221A600E4B1A68D0075CBF35
:1045280001221A600C4B1A68D1075CBF01221A607D
:104538000A4B1A68D2075CBF01221A60704700BF95
:10454800444D0020404D00203C4D0020384D0020B7
:10455800344D0020304D00202C4D0020284D0020E7
:10456800244B1A68D0075CBF01221A60224B1A68D4
:10457800D1075CBF01221A60204B1A68D2075CBFC2
:1045880001221A601E4B1A68D0075CBF01221A600C
:104598001C4B1A68D1075CBF01221A601A4B1A68B3
:1045A800D2075CBF01221A60184B1A68D0075CBF9B
:1045B80001221A60164B1A68D1075CBF01221A60E3
:1045C800144B1A68D2075CBF01221A60124B1A6892
:1045D800D0075CBF01221A60104B1A68D1075CBF74
:1045E80001221A600E4B1A68D2075CBF01221A60BA
:1045F800704700BF744D0020704D00206C4D0020A6
:10460800684D0020644D0020604D00205C4D002066
:10461800584D0020544D0020504D00204C4D002096
:10462800484D0020184B1A68D1075CBF01221A6058
:10463800164B1A68D2075CBF01221A60144B1A681D
:10464800D0075CBF01221A60124B1A68D1075CBF01
:1046580001221A60104B1A68D2075CBF01221A6047
:104668000E4B1A68D0075CBF01221A600C4B1A68FF
:10467800D1075CBF01221A600A4B1A68D2075CBFD7
:1046880001221A60704700BF944D0020904D002011
:104698008C4D0020884D0020844D0020804D002046
:1046A8007C4D0020784D002003685A004CBF43F031
:1046B800004323F000431844704700BF61B32DE95D
:1046C800F84F01F1FF3A90460646D146002707EB1E
:1046D800090404EBD4746410E50071190846FFF767
:1046E800E3FFA245834605F10800304409D0FFF7EF
:1046F800DBFFC34500F1FF3005D8404509D2671CF0
:10470800E5E7C34505D9A74202D004F1FF39DEE742
:1047180000210846BDE8F88F08467047012807D0F1
:10472800022807D0044B00280CBF18460020704709
:104738000248704702487047394E00083D4E00084D
:10474800414E000830B5254B83B004468D1E7BB31F
:1047580001A92846AFF3008020B301992A46FFF744
:10476800ADFF0146F0B1FFF79FFF4B68A064012B36
:1047780012D0002B01F1040021DBFFF795FF002385
:10478800E06423650368002B1DDBFFF78DFF002322
:104798002061184603B030BD002323610523184665
:1047A80003B030BD002323610923184603B030BD90
:1047B8000B490C4B0846591AC9100191CEE7012341
:1047C800E0642365DEE7C3F30360FFF7A7FF002873
:1047D800206114BF00230923DBE700BF00000000AD
:1047E8004094000830960008036810B5DA070446BC
:1047F80006D49B0700F1480009D500F05BFC23684C
:10480800590709D51A070ED5DB0613D510BD00F0D8
:1048180049FC23685907F5D404F1D00000F052FC94
:1048280023681A07F0D404F5A87000F053FC236835
:10483800DB06EBD404F5E870BDE8104000F08EBC50
:1048480003680BB118447047184670470920704731
:10485800704700BF70B504460D4608E02A6C23690E
:10486800626121462A4601209847082808D1296C08
:104878002046FFF767FF06460028EFD000F086FEC7
:104888000728FBD13046296CFFF7E2FF281D00F00E
:10489800FDFB00BF2DE9F0470646ADF5727D03AD7F
:1048A8000C1D17460FCC0FC50FCC0FC50FCC0FC56D
:1048B80094E80F0002ACD6F80C80D6F8189085E87A
:1048C8000F0000233046216C2360FFF73BFF0546AD
:1048D800002F14BF0A2709277DB1A36B47F01001E9
:1048E8008DE810023246636401203346C04778BB26
:1048F80028460DF5727DBDE8F087236C4FF4F07201
:10490800736121467AA800F091FF33697AAA31468B
:1049180038469847889B82468DE81002394663647A
:10492800324633460120C04790B94FF4F0727AA955
:10493800204600F07BFFBAF1080F06D1216C304603
:10494800FFF700FF09270546C6E7BAF1070F04D0AD
:1049580009200DF5727DBDE8F0872846216CFFF728
:1049680077FF03A800F092FB406C7047F0B5CB6B63
:10497800F9B00B640E1D01AD0F4604460FCE0FC5EE
:104988000FCE0FC50FCE0FC596E80F004FF0FF36BC
:1049980085E80F00009606E023696A462146984795
:1049A8000828054608D110992046FFF7CBFE0028B5
:1049B800F2D0092079B0F0BD6846FFF715FF062D43
:1049C800F7D139462046FFF745FF00BF30B4DD6B0D
:1049D800C160826119461D64002230BC5AE700BFDD
:1049E80070B54369C6680B6426B10122FFF752FF10
:1049F80000F0CCFD03690A4604460D460146022034
:104A08009847072807D0082803D129462046FFF7EA
:104A180021FF00F0BBFD3046296CFFF719FF281D68
:104A280000F034FBC2682AB110B4CC6B00220C64CD
:104A380010BC2FE79AE700BF704700BF836813B127
:104A4800014601201847704700B5042907D8DFE858
:104A580001F00309060909000BB90F2A05D902203C
:104A68005DF804FB01205DF804FB00EB820252684C
:104A78001846019B1A605DF804FB00BF10B584B0AE
:104A8800002303AC0A4600941946FFF7DDFF03989C
:104A980004B010BD00B5042907D8DFE801F0030908
:104AA800060909000BB90F2A05D902205DF804FB95
:104AB80001205DF804FB019900EB820209681846A1
:104AC80051605DF804FB00BF10B584B004AC44F835
:104AD800042D00230A4600941946FFF7DBFF04B0B3
:104AE80010BD00BFF0B5D36BADF50F7D1364151D78
:104AF80017AC07460E460FCD0FC40FCD0FC40FCD10
:104B08000FC495E80F004FF0FF3584E80F001695A5
:104B180011E016A86A46FFF7D7FF314616A8B8472E
:104B280080B9049B16AA69460820984705280446B8
:104B380009D0092806D026996846FFF703FE0C21FC
:104B48000028E6D0092416A8FFF74EFE20460DF5EA
:104B58000F7DF0BD2DE9F04FCC6C914622688BB0EB
:104B680004340D460792089400F0030B1E46002BF0
:104B780064D11202032307928DF825608DF8243042
:104B88002B6DBBF1020F08BFAC6B13F0010343D1CF
:104B980000F00800C2B2039201932768002F3DD0AD
:104BA800022E47D02788B4F802800434AB6C28F072
:104BB800010A0F2148469A44FFF760FF824537D81B
:104BC80027F001039A4450452CBF002001204FEAEA
:104BD800480808F0020807F0010748EA0708B8F192
:104BE800010F41D038D3B8F1020F1DD1236823F04B
:104BF80000420292BBF1000F79D130B1039900292C
:104C080000F08180002A00F0A880002B79DB029B4D
:104C1800013304EB8304C0E700230193022E40DD37
:104C2800FFF714FE002842D009200BB0BDE8F08F32
:104C38000020CCE7D4F804800834B7E7022B9FDCC7
:104C4800130CD9B212048DF82530022304EB810429
:104C580007928DF8243093E7BBF1000F02D00028AB
:104C680040F0B080043498E7BBF1000F26D1B0B112
:104C780094E80C00991C4FEAD272D5D005F158017E
:104C88000133069100F09480201DFFF7D9FD06AB93
:104C980001462846FFF7ACF8002840F0B8800834F1
:104CA8007BE707A9484600F0F3FA0028BCD1019B2E
:104CB800002B5CD108200BB0BDE8F08F0D214846D1
:104CC8002F6AFFF7DBFE8742E9D1AB6A9C42E6D147
:104CD8002046FFF7E9FC0F2102464846FFF7F4FE9D
:104CE80048462A460021FFF7EFFE07209DE70D21E1
:104CF80048462F6AFFF7C2FE874248D02368002B38
:104D080085DA043483E7029B3BB305F15803271D7A
:104D1800CDF810B0DDF80C80A346DDF808A01C46DD
:104D2800059602E0B245B04616D038460694FFF71D
:104D380087FD06AB014600222846FFF759F808F11F
:104D4800010604370028EDD0029B5C464345DDF898
:104D580010B0059ED2D100E05C4648460D21FFF711
:104D68008DFE069B2862AC626B6206205DE70F2110
:104D78004846FFF783FE0E2102464846FFF7A4FE89
:104D880048462A4A0F21FFF79FFE07204DE7AB6AE6
:104D98009C42B3D1042202990027A318A962EF62AA
:104DA8002A636B632368BB421FDB012301932EE751
:104DB80048460D21FFF762FE2862069B6B62AC62D3
:104DC800062032E72046FFF76FFC04340646AC6342
:104DD8002846FFF769F800283FF426AF48463246D0
:104DE8000F21FFF771FE07201FE70846013004EB8B
:104DF8008000FFF759FC0F2102464846FFF764FE82
:104E080048462A463946FFF75FFE07200DE7074662
:104E18000D214846FFF732FE022F2862CDD12B46DE
:104E2800069A43F82C2F6B62C9E700BFB14200080D
:104E380000238FE601238DE602238BE6F0B50446B6
:104E4800C5B004290DD8DFE801F057030C310F0075
:104E5800012B4FEA124695B266D17219102A40F218
:104E68009F80022045B0F0BD002BFAD1102AF8D857
:104E78002368D80600F1C98022AE3046019200F0BE
:104E880077F9A06B019A0023012505FA03F1114275
:104E980003D00168043046F823100133042BF4D101
:104EA800A063304600F05AF90020DBE7032BD8D185
:104EB800150C97B2EB19102BD3D823681E0700F1F5
:104EC800B88022AE30467F0000F026F906EBC50216
:104ED8007B1EA56B57B12946043A51F8040B013BD8
:104EE80042F8040F581CF8D105EB87053046A56336
:104EF80000F0F0F80020B5E7002BB2D1A56B97B20F
:104F0800201D012606FA03F1394203F1010302D0FC
:104F1800296804350160102B00F10400F2D112F465
:104F280000503BD1A5639DE7052B9AD17719202F17
:104F380097D80F2E65D92F46002D48D12A4600272D
:104F4800002AA06B71DD00EBC202014644A800EB09
:104F5800C6008C3851F8045B914240F8045FF9D1DF
:104F6800084697B13246102E44A938BF102201EBEB
:104F7800C202A2F5C4727900043A00EB810150F82C
:104F8800045B814242F8045FF9D1012B47D00F2E10
:104F9800A16332D917B102A800F094F8002061E7A4
:104FA8000F2E3FF65EAF00272268D1070DD522F0FD
:104FB8000101052B21600193204652D022F0030203
:104FC80040F8482B00F072F8019B002F51D022685E
:104FD800510736D4012B3ED00F2E06D822A80193B4
:104FE80000F06CF8019B002FA8D002A8019300F0F4
:104FF8006DF8019BC6F11002A2E722A800F05AF84A
:10500800C8E7102FCFD9103FCEE723F01003236055
:1050180004F5E870019200F0ABF8019A2CE704312E
:10502800A16322A800F03EF8B8E7002F9AD1014604
:10503800ABE723F00803236004F5A87000F06CF8D0
:105048003FE7204622F0040240F8D02B019300F0FD
:105058003DF8019BBEE722A8019300F027F8019BC9
:10506800C8E741F0020140F8481B00F027F8019B0F
:10507800ABE7012B03D00F2E3FF660AFAEE722A8B7
:10508800019300F013F8019B58E700BF00F13401C9
:1050980091E838009C46A6464CF8045D90E8FF0F5E
:1050A800E54600BD90EC210B704700BF80EC210B5A
:1050B800704700BF90EC200B704700BF80EC200BBE
:1050C800704700BFD0EC200B704700BFC0EC200B2E
:1050D800704700BFF0EC0201F0EC0211F0EC022185
:1050E800F0EC0231F0EC0241F0EC0251F0EC02611C
:1050F800F0EC0271F0EC0281F0EC0291F0EC02A10C
:10510800F0EC02B1F0EC02C1F0EC02D1F0EC02E1FB
:10511800F0EC02F1704700BFE0EC0201E0EC021194
:10512800E0EC0221E0EC0231E0EC0241E0EC02515B
:10513800E0EC0261E0EC0271E0EC0281E0EC02914B
:10514800E0EC02A1E0EC02B1E0EC02C1E0EC02D13B
:10515800E0EC02E1E0EC02F1704700BFB0FC018135
:10516800B0FC0191B0FC01A1B0FC01B1704700BFD7
:10517800A0FC0181A0FC0191A0FC01A1A0FC01B14F
:10518800704700BFEC4600B52DE900502DE9FF1F20
:105198004FF000032DE90C0001A9FFF7E7FBDDF84C
:1051A80040E012B0704700BFEC4600B52DE9005052
:1051B8002DE9FF1F4FF000032DE90C0001A9FFF7AF
:1051C8000FFCDDF840E012B0704700BFEC4600B5B8
:1051D8002DE900502DE9FF1F4FF000032DE90C00C9
:1051E80001A9FFF71FFCDDF840E012B0704700BFCF
:1051F800EC4600B52DE900502DE9FF1F4FF00003E4
:105208002DE90C0001ABFFF7E1FBDDF840E012B03F
:10521800704700BFEC4600B52DE900502DE9FF1F8F
:105228004FF000032DE90C0001AAFFF75BFCDDF845
:1052380040E012B0704700BF037A1BB9437A43B904
:10524800B02070475A1E036802721A020260180ED4
:1052580070474268013B10B4437213680321141D60
:1052680001721A024460026010BC180E704700BF39
:1052780000B585B003AA0023009219460C22FFF757
:10528800E3FB039805B05DF804FB00BFF0E700BF3F
:105298002DE9F04306460D4685B04FF00008284634
:1052A800FFF7CAFFB028044600F0B48020F07F035F
:1052B80013F0FF0320D000F0F003802B7AD0902B5E
:1052C80035D0A02B48D0B02B5CD0C02B00F0898003
:1052D80000F0F803D02B0BD100F00702013242F4A2
:1052E8000022052301213046FFF7A8FD0028D6D06B
:1052F800092005B0BDE8F0830DF10C0919468700B7
:10530800CDF800900D223046FFF79EFBFFB2039BBD
:10531800043760064CBFDF1BFF180023CDF8009050
:1053280019460D2230460397FFF7B4FBB7E700F0A4
:105338000D030D2BDCD003AF002300F00F0219463C
:1053480000973046FFF780FB0023009719460D228F
:105358003046FFF79FFBA2E7C2434FF47F6302F09A
:10536800070243FA02F2010702EA03024FF00003C0
:1053780048BF42F4804219463046FFF75FFD0028D7
:10538800B6D18CE7B1284AD0B22853D0B32800F060
:10539800818000F0FC03B42BAAD000F00702013290
:1053A800012342F4002219463046FFF747FD002842
:1053B8009ED174E72846FFF73FFF24022043B0F54B
:1053C800004F95D004010023A2B219463046FFF7DA
:1053D80035FD00288CD114F4004F18BF4FF0010898
:1053E8005DE7C62862D0C7286CD000F0F803C02B50
:1053F8007BD0C82800F09180C9287FF479AF28466F
:10540800FFF71AFF020300F00F0002F470220130C8
:10541800024366E7B8F1000F6ED0002069E728461E
:10542800FFF70AFF024600283FF462AF10F0F003CE
:10543800B9D05DE700230DF10C090D221946CDF80E
:1054480000903046FFF700FB2846FFF7F5FE0206FE
:105458004FF002040CD5039B00F07F00A0400344EA
:1054680028460393FFF7E8FE030604F10704F2D485
:10547800039B00F07F0000FA04F203F50174002397
:105488001444CDF8009019460D2230460394FFF7D6
:1054980001FB04E72846FFF7CFFE010300F00F00E9
:1054A80001F47021421C01230A437CE72846FFF7D8
:1054B800C3FE010300F00F0001F47021421C032316
:1054C8000A4370E72846FFF7B7FE024600283FF474
:1054D8000FAF10F0F0037FF40BAF04213046FFF755
:1054E800ADFC00287FF404AFD9E600F00F020132CA
:1054F800032342F4202256E703AC43460E224146DA
:1055080000943046FFF7A0FA0094304643460F2235
:105518004146FFF7BFFA4046EBE62846FFF78CFE08
:1055280000F0F00200F00F031032013343EA0232B8
:10553800D7E600BF10B5C36C84B003205A688DF855
:105548000C00DC7912020833084601A901928DF893
:105558000D400293FFF79CFE04B010BD08B5FFF79D
:1055680095FE806C08BD00BF08B5FFF78FFEC36CC1
:10557800D87903EB8000083008BD00BF08B500F0FB
:1055880005F800BF08B5FFF7F9FF00BF08B506200A
:10559800FBF78CFE0120FDF7ABFB0000014B186800
:1055A800704700BFA800002038B5074B05461C68A7
:1055B800E36B1BB9242000F009F9E063E16B28468E
:1055C800BDE8384000F002B8A80000202DE9F041FD
:1055D8000C46804601F0D6FB21460746404601F0BE
:1055E800D5FB4669044606F26C76B30705D16422FA
:1055F80096FBF2F302FB13634BB94FF4C87596FBA5
:10560800F5F305FB1365B5FA85F35B0900E00123A3
:105618005F4A302505FB032501F09AF901F09AF954
:105628005C4B1B68F3B17B689E4205D13968D8F89A
:105638000030FA6941B90AE0304601F0E1F8002883
:10564800F4D14FF0FF330DE0934208DB01E09342C1
:1056580007DABA6B9342ACBF0023012302E00023B0
:1056680000E001232362236A3C20012B0CBFF96B65
:10567800396A4FF4616391FBF3F603FB161393FB4E
:10568800F0F200FB123061682368891AA2681B1ABD
:10569800921B3B2B23606160A26003DD01316160D6
:1056A8003C3B04E0002B03DA013961603C332360A2
:1056B80063683B2B03DD0132A2603C3B04E0002B16
:1056C80003DA013AA2603C336360A368172B22DD3A
:1056D800E269183B0132E261A269A3600132062A3D
:1056E800C8BF0022A261E26823690132E26055F86E
:1056F80023108A4246DD01330C2B08BF6369A2EBF5
:105708000102E26005BF013300222361226104BF68
:105718006361E26136E0002B34DAE2691833013A5A
:10572800E261A269A360013A48BF0622A261E26869
:10573800013AE26032BB2369013B01D423611DE0D9
:105748000B23236163695A1E12F0030F626103F28F
:105758006B7305D1642193FBF1F201FB12324AB954
:105768004FF4C87193FBF1F201FB1233B3FA83F3E0
:105778005B0900E0012303F5B673E361236955F87B
:105788002330E36001F0E5F82046BDE8F08100BF72
:10579800F88D0008C04D0020034B1B68186A034BA6
:1057A800002808BF18467047A8000020AC00002059
:1057B800D0F8EC007047000008B5034B1868FFF7F5
:1057C800EBFFD0F8EC0008BDA8000020024B014612
:1057D800186800F0A5B800BFA8000020024B0146D9
:1057E800186800F051B800BFA800002082B001B9C5
:1057F80001A93AB143B113780B601278101C18BF95
:10580800012003E0104601E06FF0010002B070478C
:1058180010B5C9B202449042034605D01C78013045
:105828008C42F8D1184610BD002010BD10B5431E9B
:105838000A44914204D011F8014B03F8014FF8E7EC
:1058480010BD884210B501EB020301D8421E0BE0DF
:105858009842FBD28118D21AD34204D013F8014DD2
:1058680001F8014DF8E710BD994204D011F8014B39
:1058780002F8014FF8E710BD03460244934202D0F4
:1058880003F8011BFAE7704738B50546002944D0EC
:1058980051F8043C0C1F002BB8BFE41801F010FBB2
:1058A8001E4A1368114613B96360146030E0A342BE
:1058B8000DD92268A018834201BF18685B681218C6
:1058C800226063600C6023E0A24203D813465A6842
:1058D800002AF9D118681918A1420BD1216801448E
:1058E80058188242196013D110685268014419602F
:1058F8005A600DE002D90C232B6009E0216860187A
:10590800824201BF106852680918216062605C60B9
:105918002846BDE8384001F0D4BA38BD9C4D002077
:1059280070B5CD1C25F0030508350C2D38BF0C25A6
:10593800002D064601DBA94202D90C23336046E05C
:1059480001F0BEFA234B1C681A462146A1B10B6828
:105958005B1B0ED40B2B03D90B60CC18CD501EE06B
:105968008C420BBF63684B681360636018BF0C46BA
:1059780015E00C464968E9E7174C23681BB930461F
:1059880000F056F820602946304600F051F8431CD4
:1059980018D0C41C24F00304A0420DD12560304661
:1059A80001F08FFA04F10B00231D20F00700C31A41
:1059B8000ED05A42E25070BD211A304600F038F835
:1059C8000130EBD10C233360304601F07AFA002025
:1059D80070BD00BF9C4D0020984D0020024B014631
:1059E800186800F003B800BFA800002070B505468D
:1059F80000F00EF90646C0B13D2100F0F1F820B9DB
:105A080031462846FFF740FF0FE00246002302F820
:105A1800013B31460123284600F01AF80446314676
:105A28002846FFF731FF204670BD012070BD0000F9
:105A380038B5064C0023054608462360FBF70CFCE6
:105A4800431C02D1236803B12B6038BDCC4D002024
:105A58002DE9F74F0E4605463D2130461746984634
:105A680000F0BEF820B1FFF799FD1623036037E078
:105A7800284601F040F9384600F010FE01AA814698
:105A88003146284601F03AF9044698B1B8F1000FBA
:105A980004D1284601F030F900206EE000F0FEFD48
:105AA80081453AD8013C17F8013B04F8013F002B27
:105AB800F9D1EEE7324B9A46196851F824300BB108
:105AC8000134FAE72F4BA21C186860B192002846EF
