:020000040800F2
:100000000050002021020008290200082D020008EB
:10001000A1020008A5020008ED020008000000008F
:100020000000000000000000000000003503000890
:1000300039030008000000003D030008D91700083C
:100040005103000851030008510300087917000804
:100050005103000851030008510300085103000830
:100060005103000851030008510300085103000820
:100070005103000851030008510300085103000810
:100080005103000851030008510300085103000800
:1000900051030008510300085103000851030008F0
:1000A00051030008510300085103000851030008E0
:1000B00051030008510300085103000851030008D0
:1000C00051030008510300085103000851030008C0
:1000D00051030008E9170008510300085103000804
:1000E00051030008510300085103000800000000FC
:1000F0000000000000000000000000000000000000
:1001000000000000000000005FF808F100B583B0B7
:1001100001F06CF9304B314A1360314A1360314BB6
:10012000314A03E011681960043304322F498B42CD
:10013000F8D32A4B1A682E4B9A4204D1284B1A68DE
:100140002C4B9A4200D0FEE7234B2B4A13602B4ADC
:1001500013602B4B02E000221A600433294A9342B9
:10016000F9D3254B1B6813B9244B1B6803B1FEE779
:1001700001F048F9694601A801F0AEF8224C234B82
:100180001C1BA410002504E01F4B53F82530984792
:100190000135AC42F8DC1E4C1E4B1C1BA410002584
:1001A00004E01B4B53F8253098470135AC42F8DC8E
:1001B0000099019801F06CFD0546174C174B1C1B6C
:1001C000A41004E0013C144B53F824309847002C51
:1001D000F8DC284601F052F8BABADECA0000002066
:1001E0005C020020000000209C62000860020020E9
:1001F0007856341232547698600200201804002099
:10020000600200201C0400207C0300087C0300081E
:100210007C03000894030008940300089803000876
:1002200008B5FFF773FF00BF00BEFEE71EF0040F26
:100230000CBFEFF30880EFF309807146414A104785
:100240002DE9F04182B004468846134B5E6B9F6BEC
:100250009D6A1B6B13F0020F0DD00F4BDB6A002B56
:1002600009DA4BF6AB6101F049F920B14FF00042D9
:10027000094BDA620CE0094801F05AF8CDF8008029
:100280003B4632462946204601F0C0F800BEFEE754
:1002900002B0BDE8F08100BF00ED00E09459000815
:1002A00000BEFEE71EF0040F0CBFEFF30880EFF373
:1002B00009807146244A10472DE9F04182B0044676
:1002C0008846084B5E6B9F6B9D6A074801F030F8CB
:1002D000CDF800803B4632462946204601F096F88C
:1002E00000BEFEE700ED00E0A45900081EF0040F78
:1002F0000CBFEFF30880EFF309807146134A1047F3
:100300002DE9F04182B004468846084B5E6B9F6B36
:100310009D6A074801F00CF8CDF800803B46324654
:100320002946204601F072F800BEFEE700ED00E02D
:10033000B059000800BEFEE700BEFEE700BEFEE7C3
:100340007047000041020008B902000801030008DC
:0403500000BEFEE706
:100354009C62000800000020600200209C620008EB
:100364000000000000000000600200201C040020C7
:100374000000000000000000391C0008B52200083D
:10038400CD2700089128000815290008D92900085C
:04039400491C0008F8
:1003980010B50446022804D940F20311044800F0BD
:1003A800B9FF044B186800F038002043186010BDEE
:1003B800705600080020024010B50446102805D0E9
:1003C80020B140F22F11064800F0A4FF054B1A682F
:1003D80022F010021A6018682043186010BD00BF90
:1003E8007056000800200240F8B505460C46464BFA
:1003F80098421BD003F58063984217D003F58063B9
:10040800984213D003F5806398420FD003F58063B8
:1004180098420BD003F58063984207D003F58063B8
:10042800984203D0B221394800F074FFE3788BB1C9
:10043800042B0FD0282B0DD0482B0BD0142B09D010
:10044800102B07D01C2B05D0182B03D0B3212F4815
:1004580000F060FF23881BB9B4212C4800F05AFF34
:10046800E37803F00F06304613F0100F0AD0A37894
:10047800013BDBB2022B03D9BB21244800F04AFF21
:10048800A07830432378E3B12E68002316E00122D8
:100498009A40218832EA01010FD199000F278F4035
:1004A80026EA070600FA01F10E43E178282901D16E
:1004B8006A6102E0482900D12A610133072BE6D995
:1004C8002E602388FF2B1ED96E68002318E003F1E5
:1004D800080101228A40218832EA01010FD19900DE
:1004E8000F278F4026EA070600FA01F10E43E1784C
:1004F800282900D16A61E178482900D12A610133AD
:10050800072BE4D96E60F8BD00080140A456000826
:1005180070B504460D4616462C4B98421CD003F580
:100528008063984218D003F58063984214D003F58D
:100538008063984210D003F5806398420CD003F58D
:100548008063984208D003F58063984204D040F253
:100558008D111F4800F0DEFE6B1E9BB2012B28D9BF
:10056800042D26D0082D24D0102D22D0202D20D0C7
:10057800402D1ED0802D1CD0B5F5807F19D0B5F543
:10058800007F16D0B5F5806F13D0B5F5006F10D089
:10059800B5F5805F0DD0B5F5005F0AD0B5F5804F91
:1005A80007D0B5F5004F04D04FF4C771084800F0E4
:1005B800B1FE012E04D940F28F11054800F0AAFEC1
:1005C8000EB1256170BD656170BD00BF00080140B6
:1005D800A456000810B50446012803D97F21034812
:1005E80000F098FE024B1C6010BD00BFD8560008F2
:1005F80020000E420D4B1A6842F001021A60596839
:100608000B4A0A405A601A6822F0847222F4803237
:100618001A601A6822F480221A605A6822F4FE02CC
:100628005A604FF41F029A60704700BF00100240E2
:100638000000FFF810B5044650B1B0F5803F07D070
:10064800B0F5802F04D040F211110F4800F062FE7F
:100658000E4B1A6822F480321A601A6822F480223B
:100668001A60B4F5803F03D0B4F5802F06D010BDD2
:10067800064A136843F48033136010BD034A1368B5
:1006880043F4A023136010BD08570008001002406F
:1006980038B50C46054650B1B0F5803F07D0B0F5E7
:1006A800403F04D040F27F111D4800F033FE74B380
:1006B800B4F5802F2BD0B4F5002F28D0B4F5402FF7
:1006C80025D0B4F5801F22D0B4F5A01F1FD0B4F5F3
:1006D800C01F1CD0B4F5E01F19D0B4F5001F16D008
:1006E800B4F5101F13D0B4F5201F10D0B4F5301F87
:1006F8000DD0B4F5401F0AD0B4F5501F07D0B4F59B
:10070800601F04D04FF4C071054800F003FE054A8D
:10071800536823F47C132C431C43546038BD00BF3A
:10072800085700080010024010B50446012804D9F3
:100738004FF4CA71024800F0EDFD024B1C6010BD79
:10074800085700086000424210B50446022804D940
:100758004FF40E71044800F0DDFD044B586820F09A
:1007680003002043586010BD0857000800100240DD
:10077800024B586800F00C00704700BF00100240A0
:1007880010B50446A0B1802812D0902810D0A02817
:100798000ED0B0280CD0C0280AD0D02808D0E02825
:1007A80006D0F02804D04FF41971054800F0B2FDC6
:1007B800044B586820F0F0002043586010BD00BF7B
:1007C800085700080010024010B5044680B1B0F583
:1007D800806F0DD0B0F5A06F0AD0B0F5C06F07D00C
:1007E800B0F5E06F04D040F27E21054800F092FD9C
:1007F800044B586820F4E0602043586010BD00BFE7
:10080800085700080010024010B5044680B1B0F542
:10081800806F0DD0B0F5A06F0AD0B0F5C06F07D0CB
:10082800B0F5E06F04D04FF42671054800F072FD72
:10083800044B586820F4605040EAC400586010BD6A
:10084800085700080010024010B50446012806D9D0
:10085800042804D04FF45071094800F05BFD094B9F
:1008680000221A701A70012C02D0042C04D010BD7A
:100878000122044B1A7010BD0522024B1A7010BDDC
:10088800085700082010024010B50446B0F5807FD4
:100898000AD0B0F5007F07D0B0F5407F04D040F211
:1008A8007231044800F036FD034A136A1C4314628F
:1008B80010BD00BF085700080010024010B50446DC
:1008C800012804D94FF46071024800F023FD024B5F
:1008D8001C6010BD085700083C04424210B4294B64
:1008E8005B6803F00C03042B05D0082B06D013BB60
:1008F800254B036021E0244B03601EE0214A536826
:100908005268C3F38343023312F4803F04D11F4A71
:1009180002FB03F3036010E01A4A526812F4003F26
:1009280004D01A4A02FB03F3036006E0164A02FBEE
:1009380003F3036001E0144B036012494B68C3F3EF
:100948000313134CE35CDAB20368D34043604A688C
:10095800C2F30222A25CD2B223FA02F282604A688F
:10096800C2F3C222A25CD2B2D340C3604A68C2F3C7
:10097800813208498A5CD2B2B3FBF2F3036110BC3E
:10098800704700BF0010024000127A0000093D00C5
:10099800080000200400002038B504460D460E4B20
:1009A800034003B920B940F24A410C4800F0B2FCB8
:1009B800012D04D940F24B41084800F0ABFC25B1A9
:1009C800074A93691C43946138BD054A936923EA31
:1009D8000404946138BD00BF0200C0FF0857000836
:1009E8000010024038B504460D460E4B184200D19F
:1009F80020B940F269410C4800F08CFC012D04D963
:100A080040F26A41084800F085FC25B1074AD369DD
:100A18001C43D46138BD054AD36923EA0404D46170
:100A280038BD00BF00360181085700080010024099
:100A380010B50446212818D0312816D0392814D0EA
:100A4800412812D0612810D07A280ED07B280CD0EB
:100A58007C280AD07D2808D07E2806D07F2804D09C
:100A680040F234510D4800F055FC6309012B02D1C6
:100A78000B4B1B6806E0022B02D1094B1B6A01E0F5
:100A8800074B5B6A04F01F0423FA04F414F0010F07
:100A980001D0012010BD002010BD00BF085700087C
:100AA8000010024000B583B0002301933120FFF706
:100AB800BFFF019B01330193019BB3F5A06F01D0E8
:100AC8000028F3D03120FFF7B3FF08B1012000E080
:100AD800002003B05DF804FB38B504460D4620F04D
:100AE80007039BB203B918B95D210B4800F012FC4B
:100AF800012D03D95E21084800F00CFC2DB1074AEE
:100B080013889BB21C43148038BD044A1388E443FD
:100B1800A4B21C40148038BD385700080028004093
:100B2800034A93889BB243F010039380704700BF39
:100B380000280040034A93889BB223F010039BB21D
:100B48009380704700280040034A938B9BB2108B18
:100B580043EA0040704700BF0028004010B5044633
:100B6800B0F5801F03D3A921064800F0D3FBFFF797
:100B7800D7FFC4F30342044B1A81A4B29C81FFF748
:100B8800D9FF10BD3857000800280040034B9B8848
:100B980003F020039BB2002BF8D0704700280040D8
:100BA800074A93889BB223F008039BB29380044BB7
:100BB8009B8803F008039BB2002BF8D0704700BF56
:100BC8000028004010B5044620F00F039BB203B97B
:100BD80020B940F21F11054800F09CFB044A938895
:100BE800E443A4B21C40948010BD00BF38570008ED
:100BF8000028004010B50446042808D0022806D072
:100C0800012804D04FF49971084800F083FB084A82
:100C18009388E1B20B401288144202D01BB900201D
:100C280010BD002010BD012010BD00BF38570008BE
:100C38000028004010B5044620F007039BB203B912
:100C480020B94FF4A671054800F064FB044A938864
:100C5800E443A4B21C40948010BD00BF385700087C
:100C6800002800402DE9F04105460C46464B9842C5
:100C78000BD0A3F57843984207D003F580639842D8
:100C880003D0A321414800F045FB238863B1B3F5A5
:100C9800806F09D0B3F5004F06D0B3F5404F03D0AD
:100CA800A6213A4800F036FB6388B3F5827F04D06A
:100CB8001BB1A721354800F02DFBA388B3F5006FC1
:100CC80004D01BB1A821314800F024FBE3882BB1E4
:100CD800022B03D0A9212D4800F01CFB2389012BEE
:100CE80003D9AA21294800F015FB6389B3F5007FD1
:100CF80004D01BB1AB21254800F00CFBA3898BB1B4
:100D0800082B0FD0102B0DD0182B0BD0202B09D06F
:100D1800282B07D0302B05D0382B03D0AC211B480B
:100D280000F0F8FAE3892BB1802B03D0AD211748E6
:100D380000F0F0FA238A1BB9AE21144800F0EAFA51
:100D48002B8803F4415720886688A188B4F8068068
:100D58002289B4F80AC0A389B4F80EE030430843E6
:100D680048EA000111434CEA01021A434EEA020321
:100D78003B432B80AB8B9BB223F400639BB2AB83CA
:100D8800238A2B82BDE8F0810030014068570008B3
:100D980038B504460D46124B98420CD0A3F578435B
:100DA800984208D003F58063984204D040F2B71106
:100DB8000C4800F0AFFA012D04D94FF4DC71094852
:100DC80000F0A8FA2DB123889BB243F0400323809A
:100DD80038BD23889BB223F040039BB2238038BDE3
:100DE800003001406857000838B504460D46094BE5
:100DF80098420CD0A3F57843984208D003F5806355
:100E0800984204D040F23A21034800F083FAA581C1
:100E180038BD00BF003001406857000810B50446CF
:100E2800094B98420CD0A3F57843984208D003F5B3
:100E38008063984204D040F24A21044800F06AFADC
:100E4800A08980B210BD00BF00300140685700087B
:100E580038B504460D46124B98420CD0A3F578439A
:100E6800984208D003F58063984204D040F2AE213E
:100E78000C4800F04FFA012D04D940F2AF2109487F
:100E880000F048FA2DB123889BB243F40053238025
:100E980038BD23889BB223F400539BB2238038BD0E
:100EA800003001406857000838B505460C46164B17
:100EB80098420CD0A3F57843984208D003F5806394
:100EC800984204D040F21631104800F023FA802CE2
:100ED80012D0402C10D0202C0ED0102C0CD0082C66
:100EE8000AD0042C08D0022C06D0012C04D040F2E1
:100EF8001731064800F00EFA2B891C4201D0012058
:100F080038BD002038BD00BF0030014068570008D8
:100F180030B587B004460D46644B984213D0A3F50C
:100F2800744398420FD003F5806398420BD003F5C1
:100F38008063984207D003F58063984203D0B821B4
:100F48005B4800F0E7F92B68013B5A4A934203D902
:100F5800B921574800F0DEF9AB8833B1B3F5805FAB
:100F680003D0BA21524800F0D5F9EB8863B1B3F544
:100F7800805F09D0B3F5005F06D0B3F5405F03D0BA
:100F8800BB214B4800F0C6F92B894BB1B3F5806FF4
:100F980006D0B3F5C06F03D0BC21454800F0BAF9BC
:100FA8006A8922F00C039BB203B91AB9BD214048E3
:100FB80000F0B0F9AB8963B1B3F5807F09D0B3F520
:100FC800007F06D0B3F5407F03D0BE21384800F03B
:100FD800A1F9AB8973B1354B9C420BD0A3F574438F
:100FE8009C4207D003F580639C4203D0C22130485D
:100FF80000F090F9238A9BB2EA8823F44053134304
:101008002382A3899BB2AA88298968890A43024353
:1010180023F4B05323F00C031343A381A38A9BB298
:10102800AA8923F440731343A38201A8FFF756FC4F
:101038001E4B9C4201D1049A00E0039AA38913F441
:10104800004F08D002EB820202EB820229684900B5
:10105800B2FBF1F107E002EB820202EB820229689F
:101068008900B2FBF1F1144BA3FB01235B091B01BF
:101078001A09642000FB1212A18911F4004F08D04C
:10108800D20032320C49A1FB0212C2F342121A43B7
:1010980007E0120132320849A1FB0212C2F34312DF
:1010A8001A4392B2228107B030BD00BF0038014018
:1010B800985700081FAA44001F85EB514FF4165398
:1010C800036000238380C38003810C2242818381D3
:1010D800704700BF38B504460D46124B984214D0ED
:1010E800A3F57443984210D003F5806398420CD05E
:1010F80003F58063984208D003F58063984204D0D2
:1011080040F25F21084800F005F9B5F5007F04D3E7
:101118004FF41871044800F0FDF8C5F30805A580E0
:1011280038BD00BF003801409857000838B505465B
:101138000C46264B984214D0A3F57443984210D01D
:1011480003F5806398420CD003F58063984208D079
:1011580003F58063984204D040F286311C4800F0C1
:10116800D9F8012C18D0802C16D0402C14D0202C63
:1011780012D0102C10D0B4F5807F0DD0B4F5007FBC
:101188000AD0082C08D0042C06D0022C04D040F237
:1011980087310F4800F0BEF8B4F5007F0FD10B4B34
:1011A8009D420CD0A3F574439D4208D003F580639B
:1011B8009D4204D040F28B31054800F0ABF82B88F3
:1011C8001C4201D0012038BD002038BD0038014044
:1011D8009857000838B505460C46244B984214D059
:1011E800A3F57443984210D003F5806398420CD05D
:1011F80003F58063984208D003F58063984204D0D1
:1012080040F222411A4800F085F840F226639C42D9
:1012180010D040F225539C420CD040F646039C4225
:1012280008D040F66A139C4204D040F2234110488B
:1012380000F070F840F66A139C420FD10B4B9D42A8
:101248000CD0A3F574439D4208D003F580639D42FA
:1012580004D040F22741064800F05CF8240A012334
:10126800A3409BB2DB439BB22B8038BD00380140C2
:1012780098570008FEE700BF08B5034800F06CF86F
:101288000120FFF7F7FF00BFCC57000808B50D4B4A
:101298001B6813B90C4A0B4B1A600A4B1A68C31C1B
:1012A80023F00303134409498B4206D902F044FB97
:1012B8000C2303604FF0FF3008BD02490B60104655
:1012C80008BD00BF640200201C040020004C002060
:1012D80001230360014B0B60704700BF180000201A
:1012E80000B583B00C46194613460AB1064A00E019
:1012F800064A03B9054B0193009223460246044867
:1013080000F012F8FFF7B8FFE0570008745800081B
:10131800F057000808B50A460146024800F004F8EC
:10132800FFF7AAFF205800080FB400B583B004AB3C
:1013380053F8042B01938021064803F04FF9002845
:1013480003DD0146034800F049F803B05DF804EBFB
:1013580004B070476C02002010B5044602F031FE5C
:101368000146204600F03AF80121024800F036F81C
:1013780010BD00BF105900082DE9F04385B00446A0
:101388000F46435C13BB042528462146ABBE0446E2
:101398001FE03546102E28BF1025002306E014F85C
:1013A800011B04AA1A4402F8101C0133AB42F6D3FD
:1013B80004AA1344002203F8102CE9464FF004084D
:1013C80040464946ABBE8046761B00E00E46002EDE
:1013D800DFD1384605B0BDE8F08300BF08B5FFF798
:1013E800CBFF08BD08B500F0FBF8024B024A9A6033
:1013F80008BD00BF00ED00E00000000808B500F0DF
:1014080017F908BDF8B504460D4617461E46264886
:10141800FFF78AFF21682548FFF786FF616824489F
:10142800FFF782FFA1682348FFF77EFFE1682248A3
:10143800FFF77AFF21692148FFF776FF61692048A5
:10144800FFF772FFA1691F48FFF76EFFE1691E48A9
:10145800FFF76AFF1D48FFF767FF29461C48FFF79B
:1014680063FF1C4CE16A1C48FFF75EFF216B1B48B9
:10147800FFF75AFFE16B1A48FFF756FF15F0800F88
:1014880003D039461748FFF74FFF15F4004F03D034
:1014980031461548FFF748FF1448FFF745FF0699FE
:1014A8001348FFF741FFF8BD78580008885800082E
:1014B80098580008A8580008B8580008C8580008E4
:1014C800D8580008E8580008F858000808590008D3
:1014D8001459000800ED00E02459000834590008A8
:1014E8004459000854590008645900087459000800
:1014F8007C59000883691A888A4207D10268033A2E
:10150800012A05D802338361012070470020704703
:101518000020704782B00023019300932C4A13687F
:1015280043F4803313602A4B1B6803F400330093A1
:10153800019B01330193009B1BB9019BB3F5A06F7D
:10154800F1D1234B1B6813F4003F02D00123009311
:1015580001E000230093009B012B36D11D4B1A6834
:1015680042F010021A601A6822F003021A601A6820
:1015780042F002021A60A3F580535A685A605A680A
:101588005A605A6842F480625A605A6822F47C129F
:101598005A605A6842F4E8125A601A6842F0807237
:1015A8001A600B4B1B6813F0007FFAD0084B5A687F
:1015B80022F003025A605A6842F002025A60044B51
:1015C8005B6803F00C03082BF9D102B0704700BF29
:1015D800001002400020024008B5FFF79BFF08BD3D
:1015E80008B5104B1A6842F001021A6059680E4A91
:1015F8000A405A601A6822F0847222F480321A6013
:101608001A6822F480221A605A6822F4FE025A608C
:101618004FF41F029A60FFF7DFFF4FF00062034BA1
:101628009A6008BD001002400000FFF800ED00E0DD
:101638001F4B5B6803F00C03042B06D0082B08D063
:101648003BBB1C4A1C4B1A6026E01A4A1A4B1A600C
:1016580022E0174A53685268C3F38343023312F4F3
:10166800803F05D1154A02FB03F3134A136013E0C8
:101678000F4A526812F4003F05D0104A02FB03F3E8
:101688000D4A136008E00B4A02FB03F30A4A136091
:1016980002E0084A084B1A60054B5B68C3F3031362
:1016A800074AD35CDAB204490B68D3400B60704731
:1016B8000010024000127A003000002000093D00AE
:1016C8002000002070B582B005460E4619B9914237
:1016D80003D1002302E0002300E0012313B11048E6
:1016E80000F021FF941B01940F2C07D9002201A9B7
:1016F800284600F01FFF2860019BAB602868012C7A
:1017080002D13378037004E01CB12246314602F05E
:101718005BFA019B6B602A680021D15402B070BD4E
:10172800C059000800B587B002AB00930F494FF0CD
:1017380000030A4607396846FFF7C4FF9DF80410FE
:10174800009800F089F9009802AB98420AD000F09E
:10175800D9FA07E0009802AB984201D000F0D2FA1B
:1017680000F0B8FD012007B05DF804FBF35900084C
:1017780000B583B00120FFF73DFAF8B1FFF7E4F9AF
:1017880002AB43F8040D184602F0DCF80D4B186064
:10179800019A0D4882FB00011144D317C3EB611372
:1017A800C3EB031399008A4214BF00220122074B9E
:1017B8001A700120FFF73EFAFFF7E8F903B05DF869
:1017C80004FB00BF1C03002089888888340000209F
:1017D800024A136801331360704700BFEC0200200F
:1017E80008B540210448FFF7A1FC20B140F226616A
:1017F8000148FFF7EFFC08BD0038014000B587B08D
:10180800FEF7F8FE4FF48030FEF714FFFFF74AF9B1
:10181800012824D10020FEF7B3FF0020FEF7F4FFD3
:101828004FF48060FEF7D0FF0220FEF7B1FD1020D4
:10183800FEF7C2FD4FF4E0114FF48030FEF728FFA9
:101848000120FEF771FF3920FFF7F2F80028FAD0DF
:101858000220FEF779FFFEF78BFF0828FBD1012154
:101868000420FFF799F801210820FFF795F80121D6
:101878001020FFF791F801212020FFF78DF80121B2
:101888004FF40010FFF7AEF801214FF48050FFF736
:1018980083F801210846FFF77FF8012141F205008E
:1018A800FFF77AF801A8FFF719F80B4A029BA2FB89
:1018B80003239B09023BB3F1807F09D2074A536097
:1018C800F021074B83F8231000239360072313604C
:1018D80007B05DF804FB00BFD34D621010E000E0D4
:1018E80000ED00E008B501214FF0C050FFF77AF88D
:1018F8000120FEF76FFE144802F036FAFFF746F9AA
:101908000820FFF75FF94FF48070FEF7BDFFFFF77F
:101918003DF90120FEF798FFFFF738F90120FEF79F
:10192800CDFFFFF733F94FF40040FFF717F9FFF742
:101938002DF901210846FFF7CFF80822034B1A605A
:10194800FFF72EF908BD00BFF459000800E100E0D8
:10195800F0B587B01026ADF8006003248DF802407A
:101968008DF80360204D69462846FEF73DFDA0230B
:10197800ADF800308DF8024018238DF80330694621
:101988002846FEF731FD4FF44043ADF804304FF4DC
:101998008273ADF806304FF40063ADF808300024C8
:1019A800ADF80A40ADF80C404FF40073ADF80E30B6
:1019B8000823ADF81030ADF812400723ADF8143005
:1019C8000A4F01A93846FFF74DF921463846FFF777
:1019D8003FFA01213846FFF7DBF901223146284654
:1019E800FEF796FD07B0F0BD000801400030014049
:1019F80008B501460648FFF7F7F902210448FFF742
:101A080053FA0028F9D00248FFF708FA08BD00BFCA
:101A18000030014010B584B001214FF48040FEF73A
:101A2800BBFF6846FFF74AFB094C69462046FFF7AB
:101A38006FFAA3899BB243F4015343F02C03A381AB
:101A4800AA23A3802022034B5A6004B010BD00BF14
:101A58000038014000E100E038B505460C463CB1CD
:101A680015F8011B0348FFF735FB013CE4B2F6E724
:101A780038BD00BF003801402DE9F04389B0044665
:101A88000D4601284CD14FF6FF73994248D10120E9
:101A980000F0D2FB002606700490012000F0CCFB79
:101AA800012707700590384600F0C6FB0223037033
:101AB8000690384600F0C0FB03230370079004AB80
:101AC80002930423039302AA92E803008DE803001B
:101AD8001A4B1E605E609E6081468E00B71046B14C
:101AE800B7F1804F01D300F01BFDB80000F0A4FB54
:101AF80000E00020114B186000EB0608C3F80880CE
:101B08001FB13246494602F06AF80C4BC3F804800C
:101B180006E00A4B186808B100F0F4F800F0DAFBA8
:101B280044B94FF6FF739D4204D1044B186808B1BD
:101B380000F0E8F809B0BDE8F08300BF100300200A
:101B480008B5FFF755FF08BD2DE9F041032A05D96F
:101B58001B4B1C4A5B211C48FFF7C2FB0746884603
:101B68001546002210211948FEF7D2FC0024C5F1C1
:101B780003039C4205DAFF20FFF7E2FF0134E4B2D9
:101B8800F5E748EA0720FFF7DBFF7B1EDBB2072BF0
:101B980005D8013F0E4B03EBC50606F80780002465
:101BA800AC4205D2FF20FFF7CBFF0134E4B2F7E7E0
:101BB800012210210548FEF7ABFCBDE8F08100BF0B
:101BC800945A0008045A0008785A0008000801408E
:101BD800F002002038B505460024072C07D8013448
:101BE800E4B22A7800212046FFF7AEFFF5E738BDBA
:101BF80010B50446027800210F20FFF7A5FF2278D0
:101C080001210C20FFF7A0FF227800210920FFF70F
:101C18009BFF227807210B20FFF796FF22780F21E0
:101C28000A20FFF791FF2046FFF7D4FF10BD00BF41
:101C380008B54FF6FF710120FFF71EFF08BD00BF72
:101C480008B54FF6FF710020FFF716FF08BD00BF6B
:101C580010B50A4B1C68094B5B689C420CD0236882
:101C68001A780423013206490648FFF75DFB54F849
:101C7800040BFFF7BDFFEEE710BD00BF1003002007
:101C8800B85A0008205B000800B583B01749184807
:101C9800FFF74AFBFEF758FF02AB43F8040D18465E
:101CA80001F050FE134B1860019A134882FB0001A3
:101CB8001144D317C3EB6113C3EB031399008A4292
:101CC80014BF002201220D4B1A70FFF797FDFFF792
:101CD80009FEFFF73DFEFFF79DFEFFF7B9FF084835
:101CE800FFF722FBFFF71EFDFCE700BF385B00088B
:101CF800505B00081C030020898888883400002075
:101D08006C5B000801F038BF70B50023A0EBC0067B
:101D1800C0EBC00210F8015B941905F07F02A240E5
:101D280013432A06F4D40B6070BD00231A4630B55D
:101D380010F8014B04F07F0595402B43250602F16E
:101D48000702F5D41F2A06D8640642BF4FF0FF34B5
:101D580004FA02F213430B6030BD5028F7B505466C
:101D68000F4614461E4605D1D01C20F0030050F83B
:101D7800043B33E000F00F030C2B23D8DFE803F01B
:101D88001A07121A1E222222220C161A1E0001A954
:101D98002046FFF7B9FF03E001A92046FFF7C5FF7A
:101DA800019B11E0204630F8023B0DE0204630F957
:101DB800023B09E0204650F8043B05E0204650F875
:101DC800083B01E0FFF758FA43B105F07002102A0A
:101DD80018BF3C462A06234448BF1B68336003B03B
:101DE800F0BD08B50346FF2B08461CD003F070036E
:101DF800202B0ED003D8B3B1102B12D113E0402BF7
:101E08000BD0502B0FD0302B0BD1BDE8084001F080
:101E18008FBDBDE8084001F087BDBDE8084001F06E
:101E280073BDFFF729FA002008BD70B50C460146BE
:101E3800204615461E46FFF7D4FF33462A4601467C
:101E48002046BDE87040FFF788BF73B50E461446BC
:101E5800054610B101F058FDFFE720603178721C8B
:101E6800FF2905D0231D2846FFF7DFFF024600E0C3
:101E780060601378501CFF2B237507D0102323753F
:101E880001A9FFF741FF019B034400E00023E36041
:101E9800037801A963750130FFF736FF019B0344FE
:101EA800236102B070BD1FB503AB009300230A463F
:101EB800194600F09FFF039805B05DF804FB000089
:101EC8002DE9F04F002391B0049300F00303012B98
:101ED80007460C4615460ED002D3022B02D0EFE07F
:101EE800020717D52946204601F0FAFC08B1092057
:101EF8009FE108209DE100F0080202F0FF065AB9B0
:101F0800D1F8208028460D21FFF7CDFF804520D14C
:101F1800062602E0012600E0022610AB43F82C4D0D
:101F2800009307F0080700233E430C221946284671
:101F380000F086FF062E17D1D4F83080A76AB8F1D2
:101F4800000FD4F82C900CBF4FF0010A4FF0030A91
:101F580005E110AA42F82C4D0092334631460C2276
:101F6800284600F06DFF0226284601F0D3FC814682
:101F78000028B7D00AAA01462846FFF766FF294677
:101F880080469DF83C00FFF72CFF0F210C90284657
:101F9800FFF789FF20F00100471E0E9B984580F04F
:101FA8003F81424606AB9DF83D100020FFF73DFFFC
:101FB80007AB02469DF83D100020FFF736FF08AB3F
:101FC80002469DF83D100020FFF72FFF09A9FFF7F3
:101FD8009BFE069B0A9A804613449F4202D2DDF874
:101FE8003880DAE7079A13449F42D6D2089818B186
:101FF8000B9B00EB030800E08046099810B10E9F88
:1020080001383844B8F1000F3FF46CAF002800F0F5
:102018000C8116F00803029314D0472323704E2333
:1020280063705523A3704323E370462323714F2322
:1020380063715223A3710023E3714FF0000A6FF01C
:10204800030B1BE0E379012B0CBF54F8203C04F18F
:1020580058030493F1E704270D9A09AB07FB1122F3
:102068000C99FFF77AFE0999002900F0D5806CBB1E
:10207800089F002F59D0039B3B44184607A9FFF738
:1020880054FE08A90390FFF750FE0799002949D08C
:1020980025DD9DF83C00FF2814D000F00703042B31
:1020A8000ED801A252F823F05F200008C9200008CA
:1020B800D12000085F200008C52000080827CBE7CA
:1020C800FFF7DAF80027C7E70227C5E704AB0022C5
:1020D800204600F023F9002840F09E80C8E70D9FB5
:1020E8004A1CB4B1029BA3B90BFB0272049B171FD5
:1020F800069357F8041F41B106AB00223944204625
:1021080000F00CF90028F4D0012181F00101C9B2D6
:1021180005E00BFB02F2B958B1FA81F1490900292F
:10212800A6D079E04FF0010AA2E7BAF1000F3FF418
:10213800D9AE4FF0020AF30711D5BAF1020F3FF4F6
:10214800D1AE0D212846049EFFF7ADFE66622062DF
:10215800A762C4F82C90C4F83080062069E016F015
:10216800080608D0BAF1010F01D100F087F8002F56
:1021780024DA00F095F8BAF1010F02D1204600F0F8
:1021880012FA002F1ADA0AAA49462846FFF75DFE16
:1021980029469DF83C00FFF724FE6FF0030307FB78
:1021A80003330D9A0C90134453F826200AB10136D4
:1021B800FAE70422A662E0622263636310AB43F885
:1021C8001C4D009300231A461946284600F038FE95
:1021D80010AB43F8207D00930023194601222846BE
:1021E80000F02EFE0F212846FFF75DFE00F00100EB
:1021F80010AB40EA080043F8240D009300230F2297
:102208001946284600F01CFEBAF1020F02D12046FA
:1022180000F0E0F807200CE0079F4FF0030A8AE778
:102228004FF000084FF0010A01E04FF0020A0027C2
:1022380081E711B0BDE8F08F10B5002814BF04463F
:102248000124204601F090FC30B900F0CFF908B91C
:10225800FFF712F88047F4E710BD00000048704708
:102268002003002008B58047FFF706F8024B1868DE
:10227800BFF35F8F704700BF3800002008B5FFF735
:10228800F5FFFFF7EFFF08B58047FFF7F7FF0000FE
:10229800024B1868BFF35F8F704700BF3C000020F7
:1022A80008B5FFF7F5FFFFF7EEFF000038B5084C5B
:1022B8004FF41E652846E56001F056FCA06010B991
:1022C800E060606038BD002360600560436038BD31
:1022D8002C0300201EB400F09AF81EBC01F03AF955
:1022E8000378472B17D143784E2B14D18378552B7D
:1022F80011D1C378432B0ED10379432B0BD14379EA
:102308002B2B08D183792B2B05D1C07901288CBFC1
:102318000020012070470020704700002DE9F3419C
:102328001D4603780E46472B0246C17943D14378B0
:102338004E2B40D18378552B3DD1C378432B3AD1CE
:102348000379462B37D143794F2B34D18379522BDC
:1023580031D100292FD108460123002401947BB9EB
:1023680080B901290ABF52F8203CA2F12003783B2A
:1023780001290CBF52F8202C58321C68019202E047
:10238800124C00E0124C236820469B68984720B105
:10239800019B02271B68019300E00127336801AA0B
:1023A800D3F81080214601233046C04758B1019B1D
:1023B80038462B6007E01046FFF792FF80F00100D7
:1023C800C0B20023C9E702B0BDE8F081A05B0008F5
:1023D800CC5B000810B50446FFF740FF02462046D4
:1023E800A4F12001FFF77CFF50B154F8043C0133FD
:1023F800012B44F8043C08D1936844F8083C03E0F6
:1024080093680BB1FFF73AFF9160012010BD10B53A
:10241800FFF724FF826801460AB9FFF72FFF02F190
:1024280020042046FFF75CFF38B1D369013BD36134
:1024380023B990698860936100E08860204610BDE8
:102448007FB5102302930368002415469E69009403
:102458006B468DF8044003941268B0479DF8043029
:1024680003F00603062B11BF2046009B01202B60BA
:1024780004B070BD009890420CBF06200120704740
:1024880010B50446024B036000F082F9204610BDE7
:10249800DC5B000810B50446FFF7F2FF2046FFF7A3
:1024A80031FC204610BD38B515461C4600F073F9BE
:1024B80020B10823E36006232560237138BD2DE988
:1024C800F041069E9846089B07469E421546099C81
:1024D80003D1079900F05FF948B94146384600F042
:1024E8005AF928B1012326602571A37100E06571AE
:1024F8000020BDE8F0812DE9F04105460C4616465E
:102508001F4600F048F948B9032F07D82368324618
:1025180029462046BDE8F0415B691847BDE8F081CF
:1025280008B5FEF7A9FE08B5FEF7A6FE08B5FEF742
:10253800A3FE000008B50B68B3F1004F02D30A48A8
:10254800FFF7F4FF934209D95200934206D2B2F141
:10255800004F2ABF6FF000430A600B600868BDE8AF
:1025680008400130FFF768BE2E5C00080378472B4F
:1025780017D143784E2B14D18378552B11D1C378BA
:10258800432B0ED10379432B0BD143792B2B08D145
:1025980083792B2B05D1C07901288CBF002001201D
:1025A80070470020704710B5044648B100F043F862
:1025B8002046FFF7DBFF18B154F8140CFFF752FE62
:1025C800FFF75CFE38B50246FFF7D0FF18B152F8A6
:1025D800184C002501E004460125104600F02BF8B0
:1025E8000DB1FFF75DFE2046FFF74DFE024B186860
:1025F800BFF35F8F704700BF3C0300200378472B71
:1026080017D143784E2B14D18378552B11D1C37829
:10261800432B0ED10379432B0BD143792B2B08D1B4
:1026280083792B2B05D1C07901288CBF002001208C
:1026380070470020704738B50546FFF70FFE014682
:1026480002682846A5F12004FFF7D8FF28B90AB187
:10265800FFF714FE0C60144615E055F80C3C2846AC
:10266800002BB4BFC3F10103013345F80C3C4B68A0
:10267800A24203F1FF334B601CBF45F8102C0C60DD
:102688006C6A00F0AFFB204638BD000010B5044668
:10269800024B0360FFF7F4FE204610BDFC5D000806
:1026A80010B50446FFF7F2FF2046FFF72BFB204644
:1026B80010BD2DE9F14F0E46194683461746994637
:1026C8000A9CDDF82CA0DDF830800D9D00F063F841
:1026D80078B1002E2C602F7106DB3444A0450CBF66
:1026E80006240124AC711EE002361CD10123AB7113
:1026F80019E0444504D15146584600F04CF888B9D1
:10270800DBF808003A4603680D95CDF83080CDF81F
:102718002CA00A94DC6931464B46A44601B0BDE8BA
:10272800F04F60476F71002001B0BDE8F08F2DE9D0
:10273800F041069E804696420F4614461D4603D138
:10274800194600F028F858B9D8F808002246036856
:1027580006961E6A39462B46B446BDE8F0416047E6
:102768000620BDE8F0812DE9F04104460D461646E5
:102778001F46FFF798FE48B9A06832460368294605
:102788009C693B46A446BDE8F0416047BDE8F0813E
:10279800704700207047814208B50ED04068037822
:1027A8002A2B0CD049680B782A2B08BF013101F07D
:1027B800EBFBB0FA80F0400908BD012008BD0020FD
:1027C80008BD0000244B1A68D0075CBF01221A60BC
:1027D800224B1A68D1075CBF01221A60204B1A6885
:1027E800D2075CBF01221A601E4B1A68D0075CBF73
:1027F80001221A601C4B1A68D1075CBF01221A60BB
:102808001A4B1A68D2075CBF01221A60184B1A6863
:10281800D0075CBF01221A60164B1A68D1075CBF4B
:1028280001221A60144B1A68D2075CBF01221A6091
:10283800124B1A68D0075CBF01221A60104B1A6845
:10284800D1075CBF01221A600E4B1A68D2075CBF21
:1028580001221A60704700BF6C0300206803002043
:1028680064030020600300205C030020580300205C
:1028780054030020500300204C030020480300208C
:102888004403002040030020184B1A68D1075CBF9E
:1028980001221A60164B1A68D2075CBF01221A601F
:1028A800144B1A68D0075CBF01221A60124B1A68D1
:1028B800D1075CBF01221A60104B1A68D2075CBFAF
:1028C80001221A600E4B1A68D0075CBF01221A60F9
:1028D8000C4B1A68D1075CBF01221A600A4B1A68B0
:1028E800D2075CBF01221A60704700BF8C0300202A
:1028F8008803002084030020800300207C0300203C
:10290800780300207403002070030020244B1A6809
:10291800D0075CBF01221A60224B1A68D1075CBF3E
:1029280001221A60204B1A68D2075CBF01221A6084
:102938001E4B1A68D0075CBF01221A601C4B1A682C
:10294800D1075CBF01221A601A4B1A68D2075CBF14
:1029580001221A60184B1A68D0075CBF01221A605E
:10296800164B1A68D1075CBF01221A60144B1A680B
:10297800D2075CBF01221A60124B1A68D0075CBFED
:1029880001221A60104B1A68D1075CBF01221A6035
:102998000E4B1A68D2075CBF01221A60704700BF4D
:1029A800BC030020B8030020B4030020B0030020BB
:1029B800AC030020A8030020A4030020A0030020EB
:1029C8009C0300209803002094030020900300201B
:1029D800184B1A68D1075CBF01221A60164B1A6897
:1029E800D2075CBF01221A60144B1A68D0075CBF7B
:1029F80001221A60124B1A68D1075CBF01221A60C3
:102A0800104B1A68D2075CBF01221A600E4B1A6875
:102A1800D0075CBF01221A600C4B1A68D1075CBF53
:102A280001221A600A4B1A68D2075CBF01221A6099
:102A3800704700BFDC030020D8030020D403002027
:102A4800D0030020CC030020C8030020C4030020CA
:102A5800C003002003685A004CBF43F0004323F032
:102A680000431844704700BF61B32DE9F84F01F1E6
:102A7800FF3A90460646D146002707EB090404EBC7
:102A8800D4746410E50071190846FFF7E3FFA24506
:102A9800834605F10800304409D0FFF7DBFFC34542
:102AA80000F1FF3005D8404509D2671CE5E7C3456A
:102AB80005D9A74202D004F1FF39DEE70021084614
:102AC800BDE8F88F08467047012807D0022807D0CC
:102AD800044B00280CBF1846002070470248704776
:102AE80002487047E5310008E9310008ED31000877
:102AF80030B5254B83B004468D1E7BB301A928460B
:102B0800AFF3008020B301992A46FFF7ADFF0146D5
:102B1800F0B1FFF79FFF4B68A064012B12D0002B88
:102B280001F1040021DBFFF795FF0023E064236532
:102B38000368002B1DDBFFF78DFF0023206118467B
:102B480003B030BD002323610523184603B030BD10
:102B5800002323610923184603B030BD0B490C4BF1
:102B68000846591AC9100191CEE70123E06423658C
:102B7800DEE7C3F30360FFF7A7FF0028206114BF57
:102B880000230923DBE700BF000000004C610008B8
:102B98009C620008036810B5DA07044606D49B0750
:102BA80000F1480009D500F05BFC2368590709D5F6
:102BB8001A070ED5DB0613D510BD00F049FC2368B3
:102BC8005907F5D404F1D00000F052FC23681A0725
:102BD800F0D404F5A87000F053FC2368DB06EBD4AE
:102BE80004F5E870BDE8104000F08EBC03680BB136
:102BF800184470471846704709207047704700BF4F
:102C080070B504460D4608E02A6C236962612146C6
:102C18002A4601209847082808D1296C2046FFF742
:102C280067FF06460028EFD0FEF726FB0728FBD1F2
:102C38003046296CFFF7E2FF281D00F0FDFB00BFBE
:102C48002DE9F0470646ADF5727D03AD0C1D17461C
:102C58000FCC0FC50FCC0FC50FCC0FC594E80F00D4
:102C680002ACD6F80C80D6F8189085E80F0000233F
:102C78003046216C2360FFF73BFF0546002F14BF49
:102C88000A2709277DB1A36B47F010018DE81002D0
:102C98003246636401203346C04778BB28460DF5A9
:102CA800727DBDE8F087236C4FF4F07273612146A2
:102CB8007AA800F089FF33697AAA314638469847DE
:102CC800889B82468DE81002394663643246334653
:102CD8000120C04790B94FF4F0727AA9204600F05D
:102CE80073FFBAF1080F06D1216C3046FFF700FFD9
:102CF80009270546C6E7BAF1070F04D009200DF5E4
:102D0800727DBDE8F0872846216CFFF777FF03A89E
:102D180000F092FB406C7047F0B5CB6BF9B00B64D8
:102D28000E1D01AD0F4604460FCE0FC50FCE0FC5C1
:102D38000FCE0FC596E80F004FF0FF3685E80F005D
:102D4800009606E023696A46214698470828054602
:102D580008D110992046FFF7CBFE0028F2D00920B1
:102D680079B0F0BD6846FFF715FF062DF7D1394653
:102D78002046FFF745FF00BF30B4DD6BC1608261BC
:102D880019461D64002230BC5AE700BF70B543697C
:102D9800C6680B6426B10122FFF752FFFEF76CFAF2
:102DA80003690A4604460D4601460220984707284B
:102DB80007D0082803D129462046FFF721FFFEF750
:102DC8005BFA3046296CFFF719FF281D00F034FB29
:102DD800C2682AB110B4CC6B00220C6410BC2FE777
:102DE8009AE700BF704700BF836813B1014601200E
:102DF8001847704700B5042907D8DFE801F0030930
:102E0800060909000BB90F2A05D902205DF804FB51
:102E180001205DF804FB00EB820252681846019B12
:102E28001A605DF804FB00BF10B584B0002303AC42
:102E38000A4600941946FFF7DDFF039804B010BD59
:102E480000B5042907D8DFE801F0030906090900DD
:102E58000BB90F2A05D902205DF804FB01205DF8A3
:102E680004FB019900EB82020968184651605DF87D
:102E780004FB00BF10B584B004AC44F8042D002353
:102E88000A4600941946FFF7DBFF04B010BD00BFE7
:102E9800F0B5D36BADF50F7D1364151D17AC074660
:102EA8000E460FCD0FC40FCD0FC40FCD0FC495E83C
:102EB8000F004FF0FF3584E80F00169511E016A8B3
:102EC8006A46FFF7D7FF314616A8B84780B9049B72
:102ED80016AA6946082098470528044609D00928F3
:102EE80006D026996846FFF703FE0C210028E6D095
:102EF800092416A8FFF74EFE20460DF50F7DF0BDFC
:102F08002DE9F04FCC6C914622688BB004340D4605
:102F18000792089400F0030B1E46002B64D112029E
:102F2800032307928DF825608DF824302B6DBBF1B3
:102F3800020F08BFAC6B13F0010343D100F0080087
:102F4800C2B2039201932768002F3DD0022E47D0CA
:102F58002788B4F802800434AB6C28F0010A0F21EA
:102F680048469A44FFF760FF824537D827F00103A7
:102F78009A4450452CBF002001204FEA480808F029
:102F8800020807F0010748EA0708B8F1010F41D025
:102F980038D3B8F1020F1DD1236823F00042029202
:102FA800BBF1000F79D130B10399002900F081807D
:102FB800002A00F0A880002B79DB029B013304EB88
:102FC8008304C0E700230193022E40DDFFF714FEBF
:102FD800002842D009200BB0BDE8F08F0020CCE7D4
:102FE800D4F804800834B7E7022B9FDC130CD9B25D
:102FF80012048DF82530022304EB810407928DF822
:10300800243093E7BBF1000F02D0002840F0B080D5
:10301800043498E7BBF1000F26D1B0B194E80C0056
:10302800991C4FEAD272D5D005F1580101330691A7
:1030380000F09480201DFFF7D9FD06AB0146284615
:10304800FFF76CF9002840F0B88008347BE707A93F
:10305800484600F0F3FA0028BCD1019B002B5CD154
:1030680008200BB0BDE8F08F0D2148462F6AFFF706
:10307800DBFE8742E9D1AB6A9C42E6D12046FFF7E6
:10308800E9FC0F2102464846FFF7F4FE48462A4667
:103098000021FFF7EFFE07209DE70D2148462F6A24
:1030A800FFF7C2FE874248D02368002B85DA043434
:1030B80083E7029B3BB305F15803271DCDF810B0F9
:1030C800DDF80C80A346DDF808A01C46059602E052
:1030D800B245B04616D038460694FFF787FD06ABD2
:1030E800014600222846FFF719F908F101060437BE
:1030F8000028EDD0029B5C464345DDF810B0059EE4
:10310800D2D100E05C4648460D21FFF78DFE069BB4
:103118002862AC626B6206205DE70F214846FFF724
:1031280083FE0E2102464846FFF7A4FE48462A4A77
:103138000F21FFF79FFE07204DE7AB6A9C42B3D1F2
:10314800042202990027A318A962EF622A636B631D
:103158002368BB421FDB012301932EE748460D215C
:10316800FFF762FE2862069B6B62AC62062032E7BC
:103178002046FFF76FFC04340646AC632846FFF789
:1031880029F900283FF426AF484632460F21FFF7B9
:1031980071FE07201FE70846013004EB8000FFF7A7
:1031A80059FC0F2102464846FFF764FE48462A4666
:1031B8003946FFF75FFE07200DE707460D21484611
:1031C800FFF732FE022F2862CDD12B46069A43F82C
:1031D8002C2F6B62C9E700BFCD25000800238FE6BE
:1031E80001238DE602238BE6F0B50446C5B0042919
:1031F8000DD8DFE801F057030C310F00012B4FEA1F
:10320800124695B266D17219102A40F29F800220A8
:1032180045B0F0BD002BFAD1102AF8D82368D8069B
:1032280000F1C98022AE3046019200F077F9A06B18
:10323800019A0023012505FA03F1114203D0016820
:10324800043046F823100133042BF4D1A063304630
:1032580000F05AF90020DBE7032BD8D1150C97B200
:10326800EB19102BD3D823681E0700F1B88022AEC3
:1032780030467F0000F026F906EBC5027B1EA56BE1
:1032880057B12946043A51F8040B013B42F8040FA0
:10329800581CF8D105EB87053046A56300F0F0F817
:1032A8000020B5E7002BB2D1A56B97B2201D0126EF
:1032B80006FA03F1394203F1010302D02968043503
:1032C8000160102B00F10400F2D112F400503BD140
:1032D800A5639DE7052B9AD17719202F97D80F2E34
:1032E80065D92F46002D48D12A460027002AA06B11
:1032F80071DD00EBC202014644A800EBC6008C3821
:1033080051F8045B914240F8045FF9D1084697B13F
:103318003246102E44A938BF102201EBC202A2F592
:10332800C4727900043A00EB810150F8045B8142D1
:1033380042F8045FF9D1012B47D00F2EA16332D98F
:1033480017B102A800F094F8002061E70F2E3FF6AD
:103358005EAF00272268D1070DD522F00101052BA9
:1033680021600193204652D022F0030240F8482BF6
:1033780000F072F8019B002F51D02268510736D413
:10338800012B3ED00F2E06D822A8019300F06CF82E
:10339800019B002FA8D002A8019300F06DF8019BB3
:1033A800C6F11002A2E722A800F05AF8C8E7102FC9
:1033B800CFD9103FCEE723F01003236004F5E8705F
:1033C800019200F0ABF8019A2CE70431A16322A81E
:1033D80000F03EF8B8E7002F9AD10146ABE723F09A
:1033E8000803236004F5A87000F06CF83FE7204656
:1033F80022F0040240F8D02B019300F03DF8019B25
:10340800BEE722A8019300F027F8019BC8E741F026
:10341800020140F8481B00F027F8019BABE7012B9D
:1034280003D00F2E3FF660AFAEE722A8019300F05D
:1034380013F8019B58E700BF00F1340191E8380008
:103448009C46A6464CF8045D90E8FF0FE54600BD93
:1034580090EC210B704700BF80EC210B704700BF38
:1034680090EC200B704700BF80EC200B704700BF2A
:10347800D0EC200B704700BFC0EC200B704700BF9A
:10348800F0EC0201F0EC0211F0EC0221F0EC023158
:10349800F0EC0241F0EC0251F0EC0261F0EC027148
:1034A800F0EC0281F0EC0291F0EC02A1F0EC02B138
:1034B800F0EC02C1F0EC02D1F0EC02E1F0EC02F128
:1034C800704700BFE0EC0201E0EC0211E0EC0221E1
:1034D800E0EC0231E0EC0241E0EC0251E0EC026188
:1034E800E0EC0271E0EC0281E0EC0291E0EC02A178
:1034F800E0EC02B1E0EC02C1E0EC02D1E0EC02E168
:10350800E0EC02F1704700BFB0FC0181B0FC019112
:10351800B0FC01A1B0FC01B1704700BFA0FC018163
:10352800A0FC0191A0FC01A1A0FC01B1704700BF63
:10353800EC4600B52DE900502DE9FF1F4FF00003C0
:103548002DE90C0001A9FFF7E7FBDDF840E012B018
:10355800704700BFEC4600B52DE900502DE9FF1F6C
:103568004FF000032DE90C0001A9FFF70FFCDDF86F
:1035780040E012B0704700BFEC4600B52DE900509E
:103588002DE9FF1F4FF000032DE90C0001A9FFF7FB
:103598001FFCDDF840E012B0704700BFEC4600B5F4
:1035A8002DE900502DE9FF1F4FF000032DE90C0015
:1035B80001ABFFF7E1FBDDF840E012B0704700BF58
:1035C800EC4600B52DE900502DE9FF1F4FF0000330
:1035D8002DE90C0001AAFFF75BFCDDF840E012B012
:1035E800704700BF037A1BB9437A43B9B0207047CC
:1035F8005A1E036802721A020260180E7047426867
:10360800013B10B4437213680321141D01721A029E
:103618004460026010BC180E704700BF00B585B04A
:1036280003AA0023009219460C22FFF7E3FB039834
:1036380005B05DF804FB00BFF0E700BF2DE9F043DB
:1036480006460D4685B04FF000082846FFF7CAFF2A
:10365800B028044600F0B48020F07F0313F0FF0385
:1036680020D000F0F003802B7AD0902B35D0A02BFF
:1036780048D0B02B5CD0C02B00F0898000F0F80354
:10368800D02B0BD100F00702013242F400220523AF
:1036980001213046FFF7A8FD0028D6D0092005B043
:1036A800BDE8F0830DF10C0919468700CDF80090AC
:1036B8000D223046FFF79EFBFFB2039B04376006DE
:1036C8004CBFDF1BFF180023CDF8009019460D22D0
:1036D80030460397FFF7B4FBB7E700F00D030D2B57
:1036E800DCD003AF002300F00F02194600973046E4
:1036F800FFF780FB0023009719460D223046FFF79D
:103708009FFBA2E7C2434FF47F6302F0070243FA2C
:1037180002F2010702EA03024FF0000348BF42F435
:10372800804219463046FFF75FFD0028B6D18CE786
:10373800B1284AD0B22853D0B32800F0818000F0D5
:10374800FC03B42BAAD000F007020132012342F493
:10375800002219463046FFF747FD00289ED174E73E
:103768002846FFF73FFF24022043B0F5004F95D0CD
:1037780004010023A2B219463046FFF735FD0028A0
:103788008CD114F4004F18BF4FF001085DE7C6282C
:1037980062D0C7286CD000F0F803C02B7BD0C828B3
:1037A80000F09180C9287FF479AF2846FFF71AFF07
:1037B800020300F00F0002F470220130024366E7B2
:1037C800B8F1000F6ED0002069E72846FFF70AFF1E
:1037D800024600283FF462AF10F0F003B9D05DE76D
:1037E80000230DF10C090D221946CDF80090304642
:1037F800FFF700FB2846FFF7F5FE02064FF002042C
:103808000CD5039B00F07F00A04003442846039397
:10381800FFF7E8FE030604F10704F2D4039B00F067
:103828007F0000FA04F203F5017400231444CDF874
:10383800009019460D2230460394FFF701FB04E778
:103848002846FFF7CFFE010300F00F0001F47021B6
:10385800421C01230A437CE72846FFF7C3FE010305
:1038680000F00F0001F47021421C03230A4370E7A3
:103878002846FFF7B7FE024600283FF40FAF10F0C6
:10388800F0037FF40BAF04213046FFF7ADFC0028AE
:103898007FF404AFD9E600F00F020132032342F4AB
:1038A800202256E703AC43460E2241460094304698
:1038B800FFF7A0FA0094304643460F224146FFF72F
:1038C800BFFA4046EBE62846FFF78CFE00F0F00210
:1038D80000F00F031032013343EA0232D7E600BF8B
:1038E80010B5C36C84B003205A688DF80C00DC79DD
:1038F80012020833084601A901928DF80D4002937F
:10390800FFF79CFE04B010BD08B5FFF795FE806C6C
:1039180008BD00BF08B5FFF78FFEC36CD87903EB6D
:103928008000083008BD00BF08B5FDF7A5FC00BF42
:1039380008B5FFF7F9FF00BF014B1868704700BFD3
:10394800A000002038B5074B05461C68E36B1BB97F
:10395800242000F009F9E063E16B2846BDE838400F
:1039680000F002B8A00000202DE9F0410C46804686
:1039780000F096FE21460746404600F095FE46694F
:10398800044606F26C76B30705D1642296FBF2F37F
:1039980002FB13634BB94FF4C87596FBF5F305FBAF
:1039A8001365B5FA85F35B0900E001235F4A30250A
:1039B80005FB032500F05EFC00F05EFC5C4B1B6819
:1039C800F3B17B689E4205D13968D8F80030FA69AE
:1039D80041B90AE0304600F0A5FB0028F4D14FF0C9
:1039E800FF330DE0934208DB01E0934207DABA6B3C
:1039F8009342ACBF0023012302E0002300E001232F
:103A08002362236A3C20012B0CBFF96B396A4FF4FF
:103A1800616391FBF3F603FB161393FBF0F200FBD3
:103A2800123061682368891AA2681B1A921B3B2B03
:103A380023606160A26003DD013161603C3B04E00A
:103A4800002B03DA013961603C33236063683B2B48
:103A580003DD0132A2603C3B04E0002B03DA013AAB
:103A6800A2603C336360A368172B22DDE269183B30
:103A78000132E261A269A3600132062AC8BF0022AE
:103A8800A261E26823690132E26055F823108A4294
:103A980046DD01330C2B08BF6369A2EB0102E2602B
:103AA80005BF013300222361226104BF6361E26123
:103AB80036E0002B34DAE2691833013AE261A26990
:103AC800A360013A48BF0622A261E268013AE260B7
:103AD80032BB2369013B01D423611DE00B23236121
:103AE80063695A1E12F0030F626103F26B7305D10A
:103AF800642193FBF1F201FB12324AB94FF4C87109
:103B080093FBF1F201FB1233B3FA83F35B0900E094
:103B1800012303F5B673E361236955F82330E360A5
:103B280000F0A9FB2046BDE8F08100BFD85F00087F
:103B380008040020034B1B68186A034B002808BFC1
:103B480018467047A0000020A4000020D0F8EC0020
:103B58007047000008B5034B1868FFF7EBFFD0F873
:103B6800EC0008BDA0000020024B0146186800F0D8
:103B78009DB800BFA0000020024B0146186800F065
:103B880049B800BFA000002082B001B901A93AB12C
:103B980043B113780B601278101C18BF012003E0A2
:103BA800104601E06FF0010002B0704710B5C9B2CD
:103BB80002449042034605D01C7801308C42F8D16B
:103BC800184610BD002010BD10B5431E0A4491428E
:103BD80004D011F8014B03F8014FF8E710BD8842F3
:103BE80010B501EB020301D8421E0BE09842FBD24C
:103BF8008118D21AD34204D013F8014D01F8014DAF
:103C0800F8E710BD994204D011F8014B02F8014FB2
:103C1800F8E710BD38B50546002944D051F8043CF2
:103C28000C1F002BB8BFE41800F0D4FD1E4A13681F
:103C3800114613B96360146030E0A3420DD92268BD
:103C4800A018834201BF18685B681218226063607D
:103C58000C6023E0A24203D813465A68002AF9D11F
:103C680018681918A1420BD12168014458188242DA
:103C7800196013D110685268014419605A600DE048
:103C880002D90C232B6009E021686018824201BF29
:103C9800106852680918216062605C602846BDE8B7
:103CA800384000F098BD38BDE403002070B5CD1C45
:103CB80025F0030508350C2D38BF0C25002D0646C8
:103CC80001DBA94202D90C23336046E000F082FDF3
:103CD800234B1C681A462146A1B10B685B1B0ED406
:103CE8000B2B03D90B60CC18CD501EE08C420BBFB8
:103CF80063684B681360636018BF0C4615E00C4698
:103D08004968E9E7174C23681BB9304600F056F8B4
:103D180020602946304600F051F8431C18D0C41CD6
:103D280024F00304A0420DD12560304600F053FD75
:103D380004F10B00231D20F00700C31A0ED05A42CD
:103D4800E25070BD211A304600F038F80130EBD14E
:103D58000C233360304600F03EFD002070BD00BFEC
:103D6800E4030020E0030020024B0146186800F03D
:103D780003B800BFA000002070B5054600F00EF99A
:103D88000646C0B13D2100F0F1F820B93146284679
:103D9800FFF740FF0FE00246002302F8013B3146DF
:103DA8000123284600F01AF8044631462846FFF752
:103DB80031FF204670BD012070BD000038B5064CAB
:103DC8000023054608462360FDF760FA431C02D12C
:103DD800236803B12B6038BD140400202DE9F74F88
:103DE8000E4605463D2130461746984600F0BEF877
:103DF80020B1FFF7A1FD1623036037E0284600F045
:103E080008FC384600F0DDF801AA8146314628460C
:103E180000F002FC044698B1B8F1000F04D128461E
:103E280000F0F8FB00206EE000F0CBF881453AD8AE
:103E3800013C17F8013B04F8013F002BF9D1EEE7EC
:103E4800324B9A46196851F824300BB10134FAE71D
:103E58002F4BA21C186860B19200284600F0BCFCE9
:103E6800CAF80000C0B9284600F0D4FB4FF0FF3074
:103E780049E001214FEA8208196028464146FFF7C8
:103E880015FF83460028EED0A8F10802DAF80010E2
:103E9800FFF79AFECAF800B0DAF80030621C002179
:103EA80043F82210019431460B4613F8012B9AB9B6
:103EB800891B164C494402312846DDF804A0D4F881
:103EC8000080FFF7F3FE48F82A000028CBD02368CB
:103ED800019A53F8223006E03D2AE9D01946E3E773
:103EE8003D2A07D00B46194616F8012B01F8012B7D
:103EF800002AF5D13D221A7017F8012B03F8012F7B
:103F0800002AF9D18BE703B0BDE8F08F1802002032
:103F1800E80300200EB430B59CB01FAC4FF401721A
:103F280054F8045BADF814200290069000F049F8AC
:103F38000B4B03900B9300230F9314934FF6FF73CF
:103F480007900848ADF816302A46234602A90068AB
:103F5800019400F011FE1CB0BDE8304003B070477A
:103F6800713F0008A000002000207047C9B2034636
:103F780010F8012B1AB19142F9D11846704700295F
:103F88000CBF18460020704710F8012B11F8013BB0
:103F9800012A28BF9A42F7D0D01A704770B5064652
:103FA80008460C4600F00DF8451C29463046FFF738
:103FB8007DFE064618B12A462146FFF705FE304623
:103FC80070BD034613F8012B002AFBD1181A0138DB
:103FD80070472DE9F0478046894692461E460F46AF
:103FE8003D46089815F8014BFFF7B0FD204443788B
:103FF80003F0080303F0FF020BB12F46F0E72D2C66
:1040080003D1BD1C7C78012203E02B2C04BF7C78F3
:10401800BD1C16B1102E0AD157E0302C53D12B7885
:1040280003F0DF03582B49D16C78102602354FF086
:10403800FF31B1FBF6F106FB01FE00236FEA0E0E1D
:104048001846A4F13007092F01D83C460AE0A4F12C
:104058004107192F01D8373C04E0A4F16107192F53
:1040680013D8573CA64210DD002B09DB814207D349
:1040780001D1A64503DB00FB0640012302E0084608
:104088004FF0FF3315F8014BDBE7002B09DA222349
:10409800C8F800304FF0FF30BAF1000F07D1BDE883
:1040A800F08702B14042BAF1000F11D00BB1013DC7
:1040B80000E04D46CAF80050BDE8F0873024002ED5
:1040C800B5D10826B3E70A26B1E7302CA7D0AEE76A
:1040D800BDE8F08737B5064C064D2468246A002CE5
:1040E80008BF2C460094FFF774FF03B030BD00BF33
:1040F800A0000020A4000020084B37B51C68084D1C
:10410800236A002B08BF2B46009313460A46014634
:104118002046FFF75EFF03B030BD00BFA0000020BF
:10412800A40000202DE9F74F044600F0B9FA40F248
:10413800B1739C4240F3968040F26D156FF4F663BC
:10414800E318A4F2B2729B1005FB0235A4F26D725B
:104158006FF0630392FBF3F36FF4C8622B44A51866
:104168004FF4C87294FBF2F795FBF2F502FB174780
:104178001D44642394FBF3F6B7FA87FE014603FB5C
:10418800164600F13803019304F0030344604FEA34
:104198005E1E00934FF0070C0B7A4A2B0ED14B6929
:1041A800009AEC1802B906B927B93B2BD4BF0023F3
:1041B800012300E000232344013B3FE0442B02D1CC
:1041C8004B692B443AE0009B2BB9002E0CBFF046FC
:1041D8004FF0010800E0F046A946244B302202FBCC
:1041E8000838CC68A8F1040A0123A34204DA5AF873
:1041F80004BF0133D944F8E709F1040393FBFCFB3E
:10420800CBEBCB0ACAEB030A4B69012CB8BF0124DC
:10421800B3EB0A0A0B6904F1804403F1FF3304F19C
:10422800FF3448BF0AF1070AC3EBC30358F8244018
:104238005344A34201DB073BFBE74B448C690C4A20
:1042480002FB03430C6A234441F81C3F019B99423B
:10425800A2D1C369826B9342ACBF002301230360E0
:10426800012000E0002003B0BDE8F08FD85F00080F
:104278008051010070477047014B186800F002B880
:10428800A00000202DE9F04F8DB0074600F008FA95
:10429800B0490446384600F0FBF9AF4E054660B910
:1042A800AE4BAF4A1860AF4B1860AF4B30681A601E
:1042B8005A60FFF761FC356048E1316879B93068C8
:1042C800FFF75AFC2846FFF77CFE411C3846FFF7EB
:1042D800EDFC306048B1294601F0CAF805E0FFF767
:1042E80053FE002800F03281E9E72B780AAE3A2B1A
:1042F80008BF013533469D4A9D492846FFF70AFE07
:10430800002840F323810A9BEF18EB5C2D2B03D187
:1043180001374FF0FF3503E02B2B08BF013701258C
:104328000DF1200A0DF11E0B4FF000080396CDF891
:1043380008A00196CDF800B0334607AA8D49384643
:10434800ADF81E80ADF82080FFF7E4FD404540F34E
:10435800FD80BDF81E20BDF820303C2101FB023352
:10436800BDF81C204FF4616101FB02335D437F4BB4
:1043780025627D4DDFF808922B600A9B4A461F4450
:104388007B4933463846FFF7C5FD404508DC2B68B6
:10439800226A6B60714B1A60724BC3F80080D5E0DB
:1043A8000A9BC5F80490FD18FB5C2D2B03D1013541
:1043B8004FF0FF3703E02B2B08BF013501270023FF
:1043C800ADF81C30ADF81E30ADF820300A930396D6
:1043D800CDF808A00196CDF800B0334607AA654984
:1043E8002846FFF797FD002804DC236AA3F56163DC
:1043F800E3630EE0BDF81E20BDF820303C2101FB30
:104408000233BDF81C204FF4616101FB02335F43A6
:10441800E76327460A9B4FF000091D442B782C2B95
:1044280008BF013595F80080B8F14D0F26D10DF180
:104438002603029309AB00930396019633460DF1C8
:1044480022024D492846FFF765FD03287ED1BDF8B5
:1044580022104B1E0B2B79D8BDF82420531E042B99
:1044680074D8BDF82630062B70D887F80880F96014
:104478003A617B610A9B05EB03082AE0B8F14A0F11
:1044880006BF4346013544230A220BA92846059353
:10449800FFF732FEDDF82C80ADF826004545059B78
:1044A80014D14D23B9F1000F07D123720323E36020
:1044B80002232361C4F814900BE084F824300B2302
:1044C800A3620123E3620023236302E080B23B720C
:1044D80078610223ADF81C300023ADF81E30ADF82A
:1044E80020300A9398F800302F2B0BD10396CDF883
:1044F80008A00196CDF800B0334607AA1F494046E8
:10450800FFF708FDBDF81E20BDF820303C2101FB57
:104518000233BDF81C204FF4616101FB0233BB611B
:104528000A9D09F10109B9F1020F454407F11C0779
:104538007FF474AF6068FFF7F5FD226A074B1A60D5
:10454800E36B9B1A074A18BF012313600DB0BDE83F
:10455800F08F00BF38600008040400200C0400201D
:104568003B6000080804002010020020F703002028
:104578003F600008626000084E6000086160000843
:10458800EC03002030B5141E05469BB0184604DA2B
:104598008B232B604FF0FF301DE04FF40273ADF812
:1045A8000C300CBF234604F1FF33029305934FF6FA
:1045B800FF7300910491ADF80E3002461E9B6946C8
:1045C800284600F089F9431CBCBF8B232B6014B12B
:1045D800009B00221A701BB030BD000007B5009385
:1045E80013460A46014603480068FFF7CBFF03B0AD
:1045F8005DF804FBA000002049B1FF2A85BF8A238B
:1046080003600A704FF0FF3098BF012070470846DA
:1046180070477047704700002DE9F84F07468B46F2
:104628009046FFF7F6FF194B1D689A463DB15C4668
:10463800234613F8012B42B13D2A1C46F8D13846CF
:10464800FFF7E8FF0020BDE8F88FCBEB0404A9468C
:1046580059F8040B0028F2D02246594600F010FF02
:1046680088B959F8043C1E191B5D3D2B0BD1DAF8AB
:1046780000303846ED1AAD10C8F80050FFF7CAFFF1
:10468800701CBDE8F88F4D46E1E700BF1802002016
:1046980007B501AAFFF7C0FF03B05DF804FB0000EF
:1046A800004870471C0200200268464BF0B592FB98
:1046B800F3F403FB1422002ABCBF02F5A83202F56A
:1046C800C0724FF4616092FBF0F300FB13224FF0CD
:1046D8003C008B6092FBF0F300FB132204F52F24BF
:1046E800ACBF04F66C2404F66B244B600A60072305
:1046F800E21C92FBF3F3344DC3EBC30394FBF5F5D3
:10470800D31A48F6AC6240F2B4578B612F4B30484D
:1047180003FB0544B4FBF2F2B4FBF7F3B4FBF0F08F
:104728002244D21A48F69466131A40F26D12B3FB6B
:10473800F6F6B3FBF2F0B3FBF7F33444E31A02FBEB
:10474800103303EB830299240232B2FBF4F2544390
:10475800A61C0524B6FBF4F40A2A34BF02266FF01F
:10476800090616444FF4C87202FB05055F1C012EAA
:1047780098BF0135B3F5997FA7EB040702D3A3F5DA
:10478800997214E0820705D16424B0FBF4F204FBAB
:1047980012024AB94FF4C872B0FBF2F402FB1400DB
:1047A800B0FA80F2520900E001223B331A44A5F224
:1047B8006C750023CA614D610E61CF600B620846BB
:1047C800F0BD00BF80510100B13A02004FC5FDFFA6
:1047D800B03A020070477047F8B5074615460E46CE
:1047E80021B91146BDE8F840FFF760BA1AB9FFF7DA
:1047F80011FA2846F8BD00F02CFF85420ED929464B
:104808003846FFF753FA044650B131462A46FFF7B7
:10481800DBF931463846FFF7FDF901E03046F8BDCF
:104828002046F8BD2DE9F0478E6882469E420C4628
:10483800914698463ED88A8912F4906F3AD02568F6
:10484800096902236F1A656905EB450595FBF3F5C0
:104858007B1C43449D4238BF1D4653050FD529464E
:10486800FFF724FA064698B13A462169FFF7ACF9F2
:10487800A38923F4906343F08003A38113E02A46BD
:10488800FFF7AAFF064670B921695046FFF7C2F93B
:104898000C23CAF80030A3894FF0FF3043F04003DF
:1048A800A381BDE8F08726613E44266046466561DF
:1048B800ED1BA560464528BF464649463246206856
:1048C800FFF78DF9A36800209B1BA36023681E4493
:1048D8002660BDE8F08700002DE9F04F9DB00393F6
:1048E8008B8980461C060D4616460DD50B695BB9AB
:1048F8004021FFF7DBF92860286118B90C23C8F8B4
:104908000030CDE040236B610023099320238DF80C
:104918002930DFF89CB130238DF82A3037463C46E1
:1049280014F8013B1BB9B7EB060910D003E0252B9F
:10493800F9D02746F3E74B46324629464046FFF76B
:1049480071FF013000F0A780099B4B4409933B7825
:10495800002B00F0A08000234FF0FF320493079350
:10496800059206938DF853301A9301260522217873
:104978004E48FFF71BF9671C049B38B14B4A3C466D
:10498800801A06FA00F018430490EFE7D90644BFEE
:1049980020228DF853201A0744BF2B228DF853206C
:1049A80022782A2A03D0079A00210A200BE0039ACA
:1049B800111D12680391002A10DA524243F00200D6
:1049C800079204900BE027463B780134303B092BD3
:1049D80003D800FB02320121F5E701B107923B78C9
:1049E8002E2B1ED17B782A2B0AD1039B02371A1D46
:1049F8001B680392002BB8BF4FF0FF33059310E0FC
:104A0800002319460593781C0A2407463A78013092
:104A1800303A092A03D804FB01210123F5E703B141
:104A28000591032239782248FFF7C0F840B14023A6
:104A3800CBEB000003FA00F0049B01371843049005
:104A4800397806221B487E1C8DF82810FFF7AEF82F
:104A580088B1194B33B9039B073323F00703083395
:104A6800039314E003AB00932A46144B04A9404671
:104A7800AFF3008007E003AB00932A460F4B04A96D
:104A8800404600F047FAB0F1FF3F824603D0099B49
:104A98005344099342E7AB895B0601D4099801E0C6
:104AA8004FF0FF301DB0BDE8F08F00BF7460000804
:104AB8007A6000087E600008000000002D480008A9
:104AC8004B1C70B50D46144602D14FF0FF3633E04B
:104AD8009389CEB223F020039381536B526883B13C
:104AE800A36B9A4207DA23685A1E226003F8015C16
:104AF800636801331FE0214600F072FD0028F2D000
:104B0800E3E72169236851B1994208D213F8011CDF
:104B18008E4204D1013B0132236062600CE0E36302
:104B280004F1440363630323A3632346226403F865
:104B3800465F236001236360304670BD10B50C46A4
:104B4800496B69B104F14403994201D0FFF762F857
:104B5800236C00206063636013B1E36B236010BDB6
:104B680023694FF0FF30236000236360A38943F07B
:104B78002003A38110BD00002DE9F04F07460C4625
:104B88009346ADF5257D0193002346934793A24BA9
:104B98000DF10C09A293A14BDFF884A2CDF8209166
:104BA800A3934FF00A089BF80030002B00F02B81EC
:104BB800FEF7D0FF9BF800502844437803F0080321
:104BC80003F0FF01EBB16368002B10DDFEF7C2FFB5
:104BD80023681978084441780D070ED547990133A1
:104BE800013147916168236001396160EBE7A39B5C
:104BF8002146384698470028E8D00BF10106B3460D
:104C0800D1E7252D0BF1010654D1459143919BF82D
:104C180001302A2B03D1102343930BF1020631787C
:104C28003546A1F13003092B06F1010605D8459B4D
:104C380008FB0313303B4593F1E703227848FEF75E
:104C4800B5FF40B135460123CAEB000003FA00F076
:104C5800439B034343936E1C2D78672D17D8652D0E
:104C680080F08180472D07D8452D7CD2002D00F09B
:104C7800CC80252D1ED078E05B2D52D002D8582D3F
:104C88003ED072E0632D58D0642D3FD06DE0702D7A
:104C980032D007D86E2D56D03BD8692D65D1002368
:104CA80044933CE0752D31D0782D29D0732D5CD1FB
:104CB800022340E06368002B0DDD23681A789542D3
:104CC80040F0A180013362682360479B013A0133B9
:104CD8006260479393E7A39B21463846984700288C
:104CE800EBD04698002800F09080A38913F0400F7D
:104CF80018BF4FF0FF308AE0439B43F020034393F3
:104D0800439B43F400734393102303E0CDF81081D1
:104D180001E0082344936E2D01DD04230BE00323F7
:104D280009E03146484600F073FB0646439B43F0D2
:104D380040034393012349931BE0439B43F0400303
:104D480043930023F7E7439AD0063FF558AF12F094
:104D5800010F019A479B02F104010191126814BFE7
:104D6800138013604BE70523E5E703234993CDF848
:104D780010816368002B03DD439B590611D518E0A9
:104D8800A39B2146384698470028F5D0A9E7479ABB
:104D9800013247926268013A002A626013DD0133EA
:104DA8002360FEF7D7FE23681A781044427812076A
:104DB800EDD4499B022B0DDC01AB224643A93846B2
:104DC80000F0CEF919E0A39B214638469847002801
:104DD800E7D086E7042B06DC01AB224643A9384618
:104DE80000F024FA09E00F4B002B3FF408AF01ABA9
:104DF800224643A93846AFF30080012803D0022891
:104E08007FF4FDAE6DE7469801E04FF0FF300DF5F9
:104E1800257DBDE8F08F00BFC94A0008454B000852
:104E28007A600008000000002DE9F04791461F460F
:104E38000A698B6806469342B8BF1346C9F8003022
:104E480091F843200C46DDF8208012B10133C9F8EF
:104E580000302368990642BFD9F800300233C9F8F8
:104E68000030256815F0060510D104F1190A07E08D
:104E78000123524639463046C04701301AD0013521
:104E8800E368D9F800209B1A9D42F1DB94F843307F
:104E98002268003318BF012392060FD5E11830208D
:104EA80081F843005A1C94F845102244023382F8D2
:104EB800431003E04FF0FF30BDE8F08704F14302F0
:104EC80039463046C0470130F4D02268D9F800503E
:104ED800E36802F00602042A08BF5D1B2269A36882
:104EE8000CBF25EAE57500259342C4BF9B1AED184F
:104EF8004FF000091A344D4509D00123224639469E
:104F08003046C0470130D5D009F10109F3E7002048
:104F1800BDE8F0872DE9F04317460A7E85B06E2A72
:104F2800984606460C460C9B01F1430E00F0AE80F5
:104F380011D8632A22D009D8002A00F0BB80582A49
:104F480040F0CA8081F84520834955E0642A1ED084
:104F5800692A1CD0C0E0732A00F0B08009D86F2AF3
:104F68002ED0702A40F0B8800A6842F020020A6009
:104F78003EE0752A24D0782A3AD0ADE01A6801F1CB
:104F88004205111D1960136884F84230A8E02168B1
:104F98001A6811F0800F02D0111D196008E011F095
:104FA800400F02F10401196002D0B2F9003000E0AC
:104FB8001368002B3CDA2D225B4284F8432037E04B
:104FC80021681A6811F0800F02D0111D196007E0DE
:104FD80011F0400F02F10401196001D0138800E0BC
:104FE8001368227E5C496F2A14BF0A2208221BE03C
:104FF80078225A4984F845202268186812F0800FF0
:1050080000F104051D6003D1550601D5038800E0B1
:105018000368D00744BF42F0200222601BB922680F
:1050280022F0200222601022002084F8430001E0D0
:1050380049490A226568002DA56008DB206820F030
:10504800040020602BB9002D7DD175460CE0002BA3
:1050580079D07546B3FBF2F002FB1033CB5C05F850
:10506800013D03460028F5D1082A0BD12368DA0749
:1050780008D5236962689A42DEBF302305F8013CEF
:1050880005F1FF35C5EB0E0323612EE008681A68A9
:1050980010F0800F496903D0101D1860136808E0EC
:1050A80010F0400F02F104001860136801D0198055
:1050B80000E0196000232361754616E01A68111D87
:1050C80019601568002162682846FEF76FFD08B16F
:1050D800401B6060636804E004F1420584F84220E4
:1050E80001232361002384F84330CDF800803B4638
:1050F80003AA21463046FFF797FE013002D14FF050
:10510800FF3026E023692A4639463046C047013039
:10511800F5D023689B0710D5002504F1190907E08D
:1051280001234A4639463046C0470130E7D00135A9
:10513800E368039A9B1A9D42F2DBE068039B98425E
:10514800B8BF184605E00B7804F1420584F84230F0
:105158008AE705B0BDE8F08385600008966000081E
:105168002DE9F04115468A6880460C4632B98A69AD
:10517800002A0CBF01224FF0FF328A602268002605
:10518800D1065FBF1A68111D19601768A369FBB9BA
:1051980023680136DA065EBF2B681B783B702A68E5
:1051A8006B6802F101022A60A26803F1FF3302F181
:1051B800FF326B6058BF0137A2603AB3002BE5DCC1
:1051C800D4F880312946404698470028DED01DE0B3
:1051D800012B06D12B6862691B78D35C002BD7D1D1
:1051E80012E0022B01D04EB110E0FEF7B3FC2B68A1
:1051F8001B78184443781B07CAD5F4E7A369012B29
:1052080004D10120BDE8F081002EFAD0236813F004
:10521800100305D1E2680132E260A26902B13B7075
:10522800236900201E442661BDE8F0812DE9F04F76
:105238000C469A46724B87B08346164693E8070099
:1052480003ABA76883E807006E4BA1696E4A04F1B7
:105258001C09032918BF1A467B1EB3F5AE7F84BF0D
:1052680040F25D13A360236888BF6FF4AE7543F402
:10527800506323604B4600928CBF7F1900274FF084
:1052880000083168019303AB53F82800022209781B
:10529800FEF78CFC019B002833D0B8F1010F0BD12D
:1052A80062682AB908226260226842F400722260A9
:1052B800226822F4A0620CE0B8F1020F0AD1226839
:1052C80002F4C061B1F5007F1BD11021616042F486
:1052D80080722260A268511EA16092B132685D1C82
:1052E800511C316012781A707368013B002B73608F
:1052F80006DCD4F88031314658469847002841D119
:105308002B4608F10108B8F1030FBAD162680AB94F
:105318000A22626062683D496069891A019300F057
:1053280077F8019B4FF000081D46A36863B3316806
:1053380060690A78805C38B3302A226808D1100581
:1053480006D508F1010857B10133013FA36006E013
:1053580022F4106222600B78013505F8013C73686D
:10536800013B002B736003DD33680133336005E0D4
:10537800D4F8803131465846984728B9A368013B8C
:10538800A360D2E74FF000082368D9050CD54D4536
:1053980008D915F8011C6F1ED4F87C3132465846DE
:1053A80098473D464D4527D0226812F010021BD180
:1053B8002A70636849465846009EB0472268DAF862
:1053C800003012F0200F07D1D20705D51A1DCAF8F0
:1053D80000201B68188004E01A1DCAF800201B680A
:1053E8001860E3680133E3602369C9EB05054544A8
:1053F8001D442561002000E0012007B0BDE8F08FC2
:10540800A8600008DD400008C5550008C460000811
:1054180070B50B78441E5E2B13BF4A1C8A1C4B7850
:10542800002108BF012100F1FF0504F8011FAC426B
:10543800FBD10BB9501E70BD81F001041146C45454
:105448000D784A1C2D2D06D05D2D0FD00DB12B46A1
:10545800F4E7084670BD4E785D2EF8D0B342F6DC0E
:10546800023101339E42C454FBDCE9E7104670BDAB
:10547800034611F8012B03F8012B002AF9D17047D4
:1054880030B582B1451E013915F8013F11F8014FB9
:10549800A34206D1EC431444E04201D0002BF3D1DF
:1054A8001C46181B30BD104630BD2DE9F04780461C
:1054B800894692461E460F463D46089815F8014B08
:1054C800FEF744FB2044427802F0080202F0FF0392
:1054D8000AB12F46F0E72D2C03D1BD1C7C7801239F
:1054E80003E02B2C04BF7C78BD1C16B1102E0AD10A
:1054F8005EE0302C5AD12A7802F0DF02582A50D1C7
:105508006C7810260235002B14BF4FF000426FF064
:105518000042B2FBF6FE06FB1E2100221046A4F153
:105528003007092F01D83C460AE0A4F14107192F9A
:1055380001D8373C04E0A4F16107192F13D8573C70
:10554800A64210DD571C0BD0864507D301D1A142D6
:1055580003DB00FB0640012202E070464FF0FF32F9
:1055680015F8014BDBE7511C0ED1002B4FF022033D
:1055780014BF4FF000406FF00040C8F80030BAF197
:10558800000F07D1BDE8F08703B14042BAF1000F20
:1055980011D00AB1013D00E04D46CAF80050BDE8FF
:1055A800F0873024002EAED10826ACE70A26AAE7F9
:1055B800302CA0D0A7E7BDE8F087000037B5064C2F
:1055C800064D2468246A002C08BF2C460094FFF777
:1055D8006CFF03B030BD00BFA0000020A400002075
:1055E8002DE9F0410C46496B04F1440399421AD164
:1055F8004FF48061FEF75AFB18B94FF0FF30BDE851
:10560800F0814FF48063A36394F84630606380F8B8
:10561800FF3394F8453000F2FD30437094F844307D
:105628000370206012E0A66B77003A46FFF7D4F8C3
:1056380005460028E1D000EB060801463246404600
:10564800FEF7C2FAC4F800806563A7630020BDE8CE
:10565800F08151F8040C0028BEBF091851F8043C29
:10566800C0180438704700002E2E2F7379737465A4
:105678006D2F7372632F73746D333266312D7374AB
:10568800647065726970682F73746D333266313077
:10569800785F666C6173682E630000002E2E2F738E
:1056A800797374656D2F7372632F73746D333266FB
:1056B800312D7374647065726970682F73746D33FB
:1056C80032663130785F6770696F2E6300000000C2
:1056D8002E2E2F73797374656D2F7372632F737405
:1056E8006D333266312D7374647065726970682F1A
:1056F80073746D3332663130785F7077722E630061
:105708002E2E2F73797374656D2F7372632F7374D4
:105718006D333266312D7374647065726970682FE9
:1057280073746D3332663130785F7263632E630051
:105738002E2E2F73797374656D2F7372632F7374A4
:105748006D333266312D7374647065726970682FB9
:1057580073746D3332663130785F7274632E630010
:105768002E2E2F73797374656D2F7372632F737474
:105778006D333266312D7374647065726970682F89
:1057880073746D3332663130785F7370692E6300DD
:105798002E2E2F73797374656D2F7372632F737444
:1057A8006D333266312D7374647065726970682F59
:1057B80073746D3332663130785F75736172742E2D
:1057C8006300000061626F727428292C2065786973
:1057D80074696E672E2E2E002C2066756E637469B0
:1057E8006F6E3A2000000000617373657274696F10
:1057F8006E2022257322206661696C65643A2066F2
:10580800696C6520222573222C206C696E65202521
:1058180064257325730A00006173736572745F7081
:105828006172616D2829206661696C65643A206639
:10583800696C6520222573222C206C696E652025F1
:10584800640A00006D61696E28617267633D2564B2
:105858002C20617267763D5B000000002C20000060
:1058680022257322000000005D293B0A0000000089
:10587800537461636B206672616D653A0A000000BB
:10588800205230203D2020253038580A00000000E2
:10589800205231203D2020253038580A00000000D1
:1058A800205232203D2020253038580A00000000C0
:1058B800205233203D2020253038580A00000000AF
:1058C80020523132203D20253038580A000000008F
:1058D800204C52203D2020253038580A0000000076
:1058E800205043203D2020253038580A0000000071
:1058F80020505352203D20253038580A000000001F
:105908004653522F4641523A0A000000204346535C
:1059180052203D2020253038580A000020484653A0
:1059280052203D2020253038580A00002044465394
:1059380052203D2020253038580A00002041465387
:1059480052203D2020253038580A0000204D4D4671
:105958004152203D20253038580A00002042464157
:1059680052203D2020253038580A00004D697363C5
:105978000A000000204C522F4558435F52455455A9
:10598800524E3D20253038580A0000005B486172AD
:10599800644661756C745D0A000000005B427573B3
:1059A8004661756C745D0A005B5573616765466195
:1059B800756C745D0A00000062617369635F7374DB
:1059C80072696E673A3A5F4D5F636F6E7374727592
:1059D8006374206E756C6C206E6F742076616C69D0
:1059E8006400000041542B5253540A00545A3D4D50
:1059F800455A2D314D45535A0000000073746174A7
:105A0800696320766F6964204472697665723A3AF0
:105A18004D4158373231393A3A53656E64446174AE
:105A280061546F416464726573732875696E743864
:105A38005F742C2075696E74385F742C2075696EDC
:105A480074385F742900000075384E756D62657290
:105A5800203C204E554D5F4D4158373231395F4912
:105A68004E5F44414953595F434841494E00000045
:105A78002E2E2F7372632F48617264776172652FBF
:105A88004D4158373231392E6370700075384E7574
:105A98006D203C204E554D5F4D4158373231395FAE
:105AA800494E5F44414953595F434841494E0000BC
:105AB80073746174696320766F6964204170706CD7
:105AC80069636174696F6E3A3A4C656457726170C4
